:020000040800F2
:1000000000040020C1010008715600087156000864
:10001000C146000871560008715600087156000864
:10002000715600087156000871560008D178000812
:10003000715600087156000871560008A1E70008C3
:1000400071560008F1B5000881B70008D1B7000863
:10005000715600087156000831B3000881B30008DA
:10006000D1B3000821B4000871B4000881A50008CC
:10007000D1A5000821A6000871A60008C1A60008A5
:1000800011A7000861A7000871B0000871B9000845
:10009000E1B9000891BA000841BB0008C1B40008EA
:1000A0007156000871560008C1E100087156000839
:1000B00061E30008A1E30008E1E30008B1C900081A
:1000C000F1CA000871560008715600087156000800
:1000D00071560008715600087156000861E8000862
:1000E00051B5000841B6000891B6000871560008E5
:1000F000715600087156000871560008B1A7000833
:1001000071560008D1BC000821E4000871560008AF
:10011000715600087156000881E100087156000808
:1001200001A8000851A80008A1A80008F1A800082B
:1001300041A9000871560008E1B600087156000890
:1001400071560008715600087156000871D90008F0
:1001500091A90008E1A9000831AA00087156000819
:100160007156000871560008715600087156000853
:1001700031B700087156000841390008715600086F
:100180007156000871560008715600087156000833
:100190007156000871560008715600087156000823
:1001A0007156000871560008715600087156000813
:1001B0007156000871560008715600087156000803
:1001C00072B62E4880F3098840F20000CCF200009D
:1001D0004EF63471CEF20001086040F20000C0F229
:1001E000F0004EF68851CEF2000108604FF000009A
:1001F000E1EE100A4EF63C71CEF2000108600620D6
:1002000080F31488BFF36F8F0EF072FC4FF05530FF
:100210001B491C4A91423CBF41F8040BFAE71A49BA
:10022000164A91423CBF41F8040BFAE71749184AB5
:10023000184B9A423EBF51F8040B42F8040BF8E702
:1002400000201549154A91423CBF41F8040BFAE7DA
:1002500005F0F6F9124C134DAC4203DA54F8041BC6
:100260008847F9E701F05CFF0F4C104DAC4203DA10
:1002700054F8041B8847F9E705F0F2B9000800209C
:10028000000000200004002000040020B8960108AF
:1002900000080020B4150020B815002050AF012040
:1002A000C0010008C0010008C0010008C00100082A
:1002B0002DE9F04F2DED108AC1F80CD0D0F80CD0FC
:1002C000BDEC108ABDE8F08F05F012FB06F048FB8C
:1002D000002383F311882846A047002006F0E0F8A9
:1002E00006F026FB05F0E4FA05F002FF05F000FB3E
:1002F00006F036FB00DFFEE7000000000000000013
:100300002DE9F843544B80461A68544882422DED3B
:10031000028B1BD052490B68DA0405D40A6842F4F8
:1003200080530B60012000E000204E4A4E491160CE
:1003300013684A4A934208D147490B6030B1484894
:10034000036823F48052026000E0FEE798ED018A22
:10035000B5EE408A0021F1EE10FAC8F81C10C8F87A
:100360001810C8F81410C8F81010C8F82810C8F8E9
:100370002410C8F8201029D0DFED3C7A28EE270A97
:1003800010EE100A01F038F8044618EE100A0D4677
:1003900001F032F80646B8F800000F4601F01AF8EE
:1003A0002BA3D3E9002301F0ADF902460B463046FA
:1003B000394600F0C3FE02460B462046294601F0AE
:1003C000A1F901F0B5FAA8F82C0001E0A8F82C106A
:1003D00098ED028AB5EE408AF1EE10FA26D0B8F810
:1003E00000904FEA092000F0F5FF044618EE100ACD
:1003F0000D4601F001F816A3D3E9002301F058F8E7
:10040000064648460F4600F0E5FF02460B463046DA
:10041000394600F093FE02460B462046294601F07D
:1004200071F901F085FAA8F82E0002E00020A8F882
:100430002E00B8F800204FF47A73B2FBF3F1A8F85D
:100440003010BDEC028BBDE8F88300BFAFF3008035
:100450001F85EB51B81E1940B8150020CDB5E8B581
:100460003038024000300240C2A507F4000080434B
:100470002DE9F04F9BB083461992A94A1891A948DB
:100480001168814200D0FEE79E6AB3F80CC09F69F4
:100490009A8DD98D039603261C6A5D6A059706928C
:1004A00006FB0CF74FEA8C0206264FEA4C000B9134
:1004B0000E97052106FB0CF70F9207220294049574
:1004C0000D90119701FB0CF04FEACC0602FB0CF1EA
:1004D00000271D695C69D3F81CA010901291179633
:1004E0000197188EDDF80490814580F20A818E48CC
:1004F0009BF800601BF80C7010F80690C25DA144D8
:100500008419511994F8008194F8002201EB4808ED
:10051000CDF81C80DDF834801BF80860855DC719B4
:10052000A9180E9A97F800411BF8022097F800725C
:1005300001EB4405815C0895CC1981190F9E91F857
:10054000008191F8007204EB48081BF80640CDF8D2
:1005500024808218055D92F8006192F80022E91962
:1005600001EB460505EB0807DDF8408015971BF801
:1005700008700A950419C15D94F8005194F800427E
:10058000DDF81C808E1806EB4501119D089A1BF8BA
:1005900005508E18C719425D1696161997F8002156
:1005A00006EB42029044CDF85080129C97F80072FE
:1005B0001BF804604519845DE41995F8007195F8FD
:1005C0000052801904EB47044FF01C0804EB0907A4
:1005D00090F80061139708FB09AADDF81C800C94C1
:1005E0000AEB0209152705EB460490F8005207FBB9
:1005F0000890099FDDF820900A2606FB070A0F27BE
:1006000007FB09A04FF00308DDF8289008FB010064
:100610004FF0060A0AFB0900009015984FF03009C8
:1006200009FB00FADDF858902E2000FB09A0824655
:100630000598824413984FF0240909FB00AA1498E6
:100640004FF02A0909FB00AA0898DDF8249008FB5E
:1006500000F8062000FB0988DDF81C9008EB090073
:1006600007FB01010A9F0C98DDF8009006FB0718B4
:100670001C2606FB008115270B9807FB021205922A
:10068000A9F5003868B1029E049FCDF8108006EBF2
:100690000801CE1B46434FF4807296FBF2F00290A5
:1006A0008046069961B1039E08FB01F8C1F5807789
:1006B00006FB07894FF4807299FBF2F003908046A5
:1006C000199901FB08F7002F02DD0837381103E004
:1006D000083F102697FBF6F047F6BC72019E1349BF
:1006E000189FDDF85C809042A8BF1046DA897243FB
:1006F0008842A8BF0146013627F81210C34401966C
:10070000EFE61D615C61029D059C1D629C61039D7D
:10071000049CC3F81CA05C629D621BB0BDE8F08F16
:10072000B8150020CDB5E8B5000800204480FFFFD3
:100730002DE9F04FA1B0C74C1F92C74A1E91116816
:10074000A14200D0FEE79F6A9A69998DDC8D0497DB
:100750009F89069207910F940322052106241D6AA2
:100760005E6A03957A4379437C43129214911594FF
:10077000072209210A24794305964FEA47084FEAE0
:1007800087097A434FEAC70A7C431E695D69D3F83B
:100790001CB01891CDF84480CDF84C901692CDF84D
:1007A0005CA01D94002102911A8E0299914280F260
:1007B0005981AA4A047812F80490A944C55D111918
:1007C00012F8058091F8004191F800A2464406EB2A
:1007D0004406119C0896045D5519165D95F800C1F4
:1007E00095F8005206EB0A0808EB4C0ADDF8488041
:1007F000CDF824A010F80810DDF84C80565C1419D0
:1008000006EB050A10F8085094F800C1565D94F8FC
:10081000004251180AEB4C0C361991F800A1149CB7
:1008200091F80012CDF828C006EB4A08065DCDF815
:100830002C80945DDDF85480551904EB010A95F87D
:10084000004195F800520AEB44010C9110F8081091
:100850009619545C641996F8005104EB45040D9404
:10086000169D96F80062DDF824A0DDF85C80A444B3
:10087000445DCDF86CC0155D5118AD1991F800615B
:1008800091F8001205EB460505EB0A060E9510F8E7
:1008900008501C961419565DDDF860A0711894F884
:1008A000006194F8004201EB460C08990CEB01063C
:1008B0001A9610F80A605519915D9219091995F860
:1008C000004192F8006195F8005201EB44012D249B
:1008D00001EB090804FB09BB10910899CDF864806D
:1008E0000BEB0C09DDF8288005EB460592F8006259
:1008F000242202FB019A152404FB08A9DDF824A098
:100900000C994FF01C0B0BFB0A994FF00A08DDF80D
:100910002CA008FB01994FF00F0B0E990BFB0A99C5
:100920004FF00308DDF834A008FB01994FF0060BE7
:100930000BFB0A99CDF80490DDF82CA00C994FF030
:100940004B0B51440BFB01F91B994FF0490A0AFB71
:10095000019B0699DDF868900BEB010A4FF03F0B05
:100960001C990BFB09AA4FF0450BDDF864900BFBBB
:1009700001AA4FF0370B0BFB09ABDDF824A00A9955
:1009800008FB0AF84FF00609DDF820A009FB0188F2
:100990000C99D0444FF00F09DDF82CA009FB018819
:1009A0000A21DDF8389001FB0A884FF01C0A0D99E6
:1009B0000AFB098804FB018A109C0F994FF02D094E
:1009C00009FB04A8DDF804A002FB0C820692AAF53C
:1009D0007A3971B1039C0599CDF8149004EB0902A2
:1009E000541A0F9A4FF48071544394FBF1F403941A
:1009F000A146079961B1049CC1F5807209FB01FC15
:100A000004FB02C94FF4807199FBF1F20492914604
:100A10001F9C04FB09F1002902DD10314C1103E099
:100A20001039202291FBF2F447F6BC718C42A8BF2A
:100A30000C46DA890299DDF874804A4308498C42F1
:100A4000A8BF21461E9C24F81210029A4044511C53
:100A5000A9E600BFCDB5E8B5B81500200008002014
:100A60004480FFFF05981E615D61039E069D049C06
:100A700058629D61C3F81CB01E629C62104621B092
:100A8000BDE8F08F2DE9F04F95B0994C1392994A3B
:100A900012911168A14200D0FEE75E6A1D6A9F6A4A
:100AA0009A69998DB3F82E800C964FF00009D3F80F
:100AB00010C05E69D3F81CB00195029709920A91A3
:100AC000CDF83480CDF80C908B4904780D190C5D6D
:100AD00095F8007295F8008106EB070A067ACDF8C2
:100AE0002CA08F198E5D97F8002202EB4805AC44CC
:100AF000057C97F80081CDF810C04A194D5D92F839
:100B0000009292F8002109EB040A0AEB480C90F8D5
:100B100018A090F82090CDF814C001EB0A0494F8C6
:100B2000007294F80041BF1907EB420801EB09027B
:100B3000CDF8188092F8006292F80021771907EB3F
:100B4000440606EB080C90F8288011F80A70079606
:100B500001EB0805CDF840C095F8004295F800512A
:100B6000E619059F06EB4204E619119690F83060ED
:100B700008948C1911F8097094F80022D219049F76
:100B800002EB4502BD180F9590F8385011F8089007
:100B900094F80041DDF82C808E5D4F1997F800A283
:100BA00097F800710AEB090C0CEB4404DDF818A06F
:100BB00011F805C000941C2505FB082944440A21AE
:100BC000DDF8148001FB0A9906EB4706DDF820A04A
:100BD0000F2707FB0899032101FB0A99DDF81CA0E8
:100BE0004FF0060808FB0A99DDF810A0152101FB5B
:100BF0000A99CB44DDF84490CDF82CB04FF02E0A82
:100C00000AFB09FADDF840904FF0300B0BFB09AA04
:100C10004FF0240B0BFB04A90F9C4FF02A0A0AFB90
:100C2000049B099CDDF81890DDF810A0A344059CF6
:100C300008FB09A8DDF820A04FF0030909FB048890
:100C4000079C07FB0A890A2707FB0498DDF8009038
:100C5000DDF82CA00C9F05FB098501FB02520199D0
:100C60000992AAF500328C180D99DDF82880E51B51
:100C70004D434FF4807195FBF1F40194019F44467C
:100C80007C43029FC8EB010507FB054595FBF1F18D
:100C90000291139C6143002902DD0831091103E030
:100CA0000839102791FBF7F147F6BC75134C129FDA
:100CB0000C92A942A8BF2946039DA142B8BF214674
:100CC00079530C354030C02D03957FF4FDAE099863
:100CD000019C029D9861C3F810C05E61C3F81CB00E
:100CE0001C625A629D62102015B0BDE8F08F00BFF3
:100CF000CDB5E8B5B8150020000800204480FFFFFE
:100D00002DE9F04FA1B084461F92BE4A1E91BE4805
:100D10001168814200D0FEE79E6A9F6905969E8910
:100D2000D98D01967000079703277E431190019893
:100D30009A8D0F9112960521019E08924843B200A8
:100D40001490019E01980199139206277E43072271
:100D5000C700514315961797019E019F1C6A5D6A53
:100D6000169109220A2156434F434FF0000804947C
:100D700006955C691D69D3F81CB018961D97CDF8CF
:100D80000C80188EDDF80C90814580F25A819F49C5
:100D90009CF80000DDF804900F181CF8096097F823
:100DA00000A297F80021085CA2448C198E5D94F88B
:100DB000008294F80041454405EB4207119D0997D4
:100DC0001CF805504A194D5D92F8007292F80081A6
:100DD0003F18129807EB44091CF80040CDF8289002
:100DE00008190C5D90F8007290F80001BF1907EB2C
:100DF0004809DDF84C80CDF82C901CF8089001EBE8
:100E00000902CDF8089092F8006292F80021771953
:100E1000149E1CF80690159E07EB400801EB090094
:100E2000CDF8308090F8005290F800012F1907EBB0
:100E300042081CF80670029DCDF83480CA194E5D38
:100E400092F80042A41904EB40050295DDF82C80CD
:100E5000169E92F80021CF5DA844CDF86C801CF856
:100E6000068011F80950DDF8609001EB080011F8D8
:100E7000088090F8004290F8000166190A9D06EB80
:100E80004204179A0E9466191C961CF802608C197D
:100E90008E5D94F8002294F80041D519099F05EB66
:100EA0004002D5191A951CF809504F194D5D97F855
:100EB000000297F80071404400EB44002D2100EB44
:100EC0000A0401FB0ABB1090099819940BEB020A63
:100ED00006EB470424210B9F01FB00A94FF01508E6
:100EE000DDF828A00D9808FB07964FF01C0B0BFBB4
:100EF0000A69DDF830800A2606FB009A0F27DDF824
:100F0000389007FB08AB4FF0030808FB09BADDF87F
:100F100008B0062000FB0BA9CDF80090DDF834A046
:100F2000DDF830B04FF04B090AEB0B0009FB00FA7B
:100F30001B984FF0490B0BFB00A9079809EB000A1F
:100F4000DDF868901C984FF03F0B0BFB09AA4FF09F
:100F5000450BDDF864900BFB00AA4FF0370B0BFB41
:100F600009ABDDF828A00B9808FB0AF84FF006093A
:100F7000DDF824A009FB00880D9808EB0A0907FB9F
:100F800000980C9FDDF83890029806FB07864FF01A
:100F90001C0A0AFB0968152707FB008610980F9F9B
:100FA0004FF02D0909FB006A01FB02A2DDF800A049
:100FB0000792AAF57A386FB10499069ECDF8188089
:100FC00001EB0800811B79434FF4807291FBF2F72B
:100FD0000497B846089860B1059908FB00F8C0F579
:100FE000807601FB06894FF4807299FBF2F7059732
:100FF000B8461F9800FB08F6002E09DD1036771161
:101000000AE000BFB8150020CDB5E8B50008002003
:10101000103E202196FBF1F7039ED8891049DDF898
:10102000748047F6BC729742A8BF17468F42A8BF8C
:10103000394670431E9F721C27F81010C444039257
:101040009FE65C61079C049A9C61059E069C1D615D
:10105000C3F81CB01A625C629E6221B0BDE8F08FDA
:101060004480FFFFAFF3008000000000000000009C
:101070004B1C012B98BF70472DE9F003911C9B0876
:10108000B1F80480B1F802900A8831F802CC8044AB
:10109000814402448444D9F80070D8F8006015688F
:1010A000DCF80040C9F80060C8F80070CCF80050C7
:1010B0001460D9F80470D8F804605568DCF804406E
:1010C000C9F80460C8F80470CCF8045054600831C2
:1010D000013BD5D1BDE8F00370474B1C012B98BFF5
:1010E00070472DE9F003911C9B08B1F80480B1F81A
:1010F00002900A8831F802CC00EB580800EB59093D
:1011000000EB520200EB5C0CD9F80070D8F80060DC
:101110001568DCF80040C9F80060C8F80070CCF829
:10112000005014600831013BDFD1BDE8F003704787
:1011300081F0004102E000BF83F0004330B54FEA88
:1011400041044FEA430594EA050F08BF90EA020FF5
:101150001FBF54EA000C55EA020C7FEA645C7FEA88
:10116000655C00F0E2804FEA5454D4EB5555B8BFAB
:101170006D420CDD2C4480EA020281EA030382EA1C
:10118000000083EA010180EA020281EA0303362DAE
:1011900088BF30BD11F0004F4FEA01314FF4801C81
:1011A0004CEA113102D0404261EB410113F0004F93
:1011B0004FEA03334CEA133302D0524263EB43034A
:1011C00094EA050F00F0A780A4F10104D5F1200EE8
:1011D0000DDB02FA0EFC22FA05F2801841F1000143
:1011E00003FA0EF2801843FA05F359410EE0A5F117
:1011F00020050EF1200E012A03FA0EFC28BF4CF048
:10120000020C43FA05F3C01851EBE37101F00045FD
:1012100007D54FF0000EDCF1000C7EEB00006EEB0A
:101220000101B1F5801F1BD3B1F5001F0CD3490894
:101230005FEA30004FEA3C0C04F101044FEA4452EB
:1012400012F5800F80F09A80BCF1004F08BF5FEA72
:10125000500C50F1000041EB045141EA050130BD52
:101260005FEA4C0C404141EB010111F4801FA4F1F5
:101270000104E9D191F0000F04BF01460020B1FA4A
:1012800081F308BF2033A3F10B03B3F120020CDA82
:101290000C3208DD02F1140CC2F10C0201FA0CF060
:1012A00021FA02F10CE002F11402D8BFC2F1200CC5
:1012B00001FA02F120FA0CFCDCBF41EA0C0190407B
:1012C000E41AA2BF01EB0451294330BD6FEA0404C4
:1012D0001F3C1CDA0C340EDC04F11404C4F12002AF
:1012E00020FA04F001FA02F340EA030021FA04F3C1
:1012F00045EA030130BDC4F10C04C4F1200220FA18
:1013000002F001FA04F340EA0300294630BD21FA55
:1013100004F0294630BD94F0000F83F4801306BF1B
:1013200081F480110134013D4EE77FEA645C18BF0F
:101330007FEA655C29D094EA050F08BF90EA020FA6
:1013400005D054EA000C04BF1946104630BD91EA9E
:10135000030F1EBF0021002030BD5FEA545C05D1A1
:101360004000494128BF41F0004130BD14F58004E0
:101370003CBF01F5801130BD01F0004545F0FE4154
:1013800041F470014FF0000030BD7FEA645C1ABF89
:10139000194610467FEA655C1CBF0B46024650EAC0
:1013A000013406BF52EA033591EA030F41F40021EC
:1013B00030BD00BF90F0000F04BF0021704730B572
:1013C0004FF4806404F132044FF000054FF0000147
:1013D00050E700BF90F0000F04BF0021704730B508
:1013E0004FF4806404F1320410F0004548BF4042DD
:1013F0004FF000013EE700BF42004FEAE2014FEA32
:1014000031014FEA02701FBF12F07F4393F07F4F0C
:1014100081F06051704732F07F4208BF704793F00F
:101420007F4F04BF41F40021704730B54FF4607422
:1014300001F0004521F000411CE700BF50EA010225
:1014400008BF704730B54FF000050AE050EA0102CE
:1014500008BF704730B511F0004502D5404261EB3E
:1014600041014FF4806404F132045FEA915C3FF47F
:10147000D8AE4FF003025FEADC0C18BF03325FEA1C
:10148000DC0C18BF033202EBDC02C2F1200300FACD
:1014900003FC20FA02F001FA03FE40EA0E0021FAF2
:1014A00002F11444BDE600BF00000000000000008F
:1014B00070B54FF0FF0C4CF4E06C1CEA11541DBFEA
:1014C0001CEA135594EA0C0F95EA0C0F00F0DEF8B5
:1014D0002C4481EA030621EA4C5123EA4C5350EA9A
:1014E000013518BF52EA033541F4801143F48013EB
:1014F00038D0A0FB02CE4FF00005E1FB02E506F07C
:101500000042E0FB03E54FF00006E1FB03569CF0D0
:10151000000F18BF4EF0010EA4F1FF04B6F5007FD6
:1015200064F5407404D25FEA4E0E6D4146EB060648
:1015300042EAC62141EA55514FEAC52040EA5E50D1
:101540004FEACE2EB4F1FD0C88BFBCF5E06F1ED87B
:10155000BEF1004F08BF5FEA500E50F1000041EBB2
:10156000045170BD06F0004646EA010140EA02005F
:1015700081EA0301B4EB5C04C2BFD4EB0C0541EA81
:10158000045170BD41F480114FF0000E013C00F396
:10159000AB8014F1360FDEBF002001F0004170BDBA
:1015A000C4F10004203C35DA0C341BDC04F11404D3
:1015B000C4F1200500FA05F320FA04F001FA05F25F
:1015C00040EA020001F0004221F0004110EBD3702C
:1015D00021FA04F642EB06015EEA430E08BF20EA58
:1015E000D37070BDC4F10C04C4F1200500FA04F3FB
:1015F00020FA05F001FA04F240EA020001F000418D
:1016000010EBD37041F100015EEA430E08BF20EAFF
:10161000D37070BDC4F1200500FA05F24EEA020E47
:1016200020FA04F301FA05F243EA020321FA04F076
:1016300001F0004121FA04F220EA020000EBD3702D
:101640005EEA430E08BF20EAD37070BD94F0000F2D
:101650000FD101F00046400041EB010111F4801F61
:1016600008BF013CF7D041EA060195F0000F18BF12
:10167000704703F00046520043EB030313F4801F4E
:1016800008BF013DF7D043EA0603704794EA0C0F08
:101690000CEA135518BF95EA0C0F0CD050EA41061E
:1016A00018BF52EA4306D1D181EA030101F000419B
:1016B0004FF0000070BD50EA410606BF10461946C3
:1016C00052EA430619D094EA0C0F02D150EA0136CF
:1016D00013D195EA0C0F05D152EA03361CBF104610
:1016E00019460AD181EA030101F0004141F0FE41AF
:1016F00041F470014FF0000070BD41F0FE4141F433
:10170000780170BD70B54FF0FF0C4CF4E06C1CEA32
:1017100011541DBF1CEA135594EA0C0F95EA0C0FE7
:1017200000F0A7F8A4EB050481EA030E52EA0335A2
:101730004FEA013100F088804FEA03334FF08055C3
:1017400045EA131343EA12634FEA022245EA1115F0
:1017500045EA10654FEA00260EF000419D4208BFA1
:10176000964244F1FD0404F5407402D25B084FEA4E
:101770003202B61A65EB03055B084FEA32024FF4FA
:1017800080104FF4002CB6EB020E75EB030E22BF57
:10179000B61A754640EA0C005B084FEA3202B6EB17
:1017A000020E75EB030E22BFB61A754640EA5C00C6
:1017B0005B084FEA3202B6EB020E75EB030E22BF56
:1017C000B61A754640EA9C005B084FEA3202B6EB57
:1017D000020E75EB030E22BFB61A754640EADC0016
:1017E00055EA060E18D04FEA051545EA16754FEA78
:1017F00006164FEAC30343EA52734FEAC2025FEA96
:101800001C1CC0D111F4801F0BD141EA00014FF024
:1018100000004FF0004CB6E711F4801F04BF0143F5
:101820000020B4F1FD0C88BFBCF5E06F3FF6AFAE11
:10183000B5EB030C04BFB6EB020C5FEA500C50F1A1
:10184000000041EB045170BD0EF0004E4EEA113124
:1018500014EB5C04C2BFD4EB0C0541EA045170BD2B
:1018600041F480114FF0000E013C90E645EA060E6F
:101870008DE60CEA135594EA0C0F08BF95EA0C0F9D
:101880003FF43BAF94EA0C0F0AD150EA01347FF4E5
:1018900034AF95EA0C0F7FF425AF104619462CE7BC
:1018A00095EA0C0F06D152EA03353FF4FDAE10461F
:1018B000194622E750EA410618BF52EA43067FF470
:1018C000C5AE50EA41047FF40DAF52EA43057FF400
:1018D000EBAE12E700000000000000000000000076
:1018E0004FEA410212F5001215D211D56FF4787348
:1018F000B3EB625212D94FEAC12343F0004343EAEB
:10190000505311F0004F23FA02F018BF40427047C5
:101910004FF00000704750EA013005D111F000404F
:1019200008BF6FF0004070474FF00000704700BFE5
:101930004A0011D212F5001211D20DD56FF478734E
:10194000B3EB62520ED44FEAC12343F0004343EAA3
:10195000505323FA02F070474FF00000704750EAEE
:10196000013002D14FF0FF3070474FF00000704758
:101970004FEA4102B2F1E04324BFB3F5001CDCF1B1
:10198000FE5C0DD901F0004C4FEAC0024CEA5070E9
:10199000B2F1004F40EB830008BF20F00100704718
:1019A00011F0804F21D113F13872BCBF01F000401B
:1019B000704741F480114FEA5252C2F11802C2F14D
:1019C000200C10FA0CF320FA02F018BF40F00100CE
:1019D0004FEAC1234FEAD32303FA0CFC40EA0C0080
:1019E00023FA02F34FEA4303CCE77FEA625307D1BD
:1019F00050EA01331EBF4FF0FE4040F440007047F4
:101A000001F0004040F0FE4040F40000704700BF8D
:101A100053B94AB9002908BF00281CBF4FF0FF3155
:101A20004FF0FF3000F074B9ADF1080C6DE904CE51
:101A300000F006F8DDF804E0DDE9022304B07047A9
:101A40002DE9F047089E04468846002B4BD18A4278
:101A5000154667D9B2FA82F24AB1C2F1200701FAFB
:101A600002F320FA07F7954047EA030894404FEA4B
:101A7000154E230CB8FBFEF71FFA85FC0EFB1788EA
:101A800043EA084307FB0CF1994209D9EB1807F127
:101A9000FF3080F01B81994240F21881023F2B44B5
:101AA0005B1AA4B2B3FBFEF00EFB103344EA03440E
:101AB00000FB0CFCA44509D92C1900F1FF3380F080
:101AC0000781A44540F2048102382C4440EA0740D3
:101AD000A4EB0C0400271EB1D4400023C6E9004348
:101AE0003946BDE8F0878B4209D9002E00F0EB8023
:101AF0000027C6E9000138463946BDE8F087B3FA49
:101B000083F7002F47D18B4202D3824200F2FA8042
:101B1000841A61EB030301209846002EE0D0C6E949
:101B20000048DDE702B9FFDEB2FA82F2002A40F097
:101B30008F80491B4FEA154E1FFA85F80127B1FB2C
:101B4000FEFC230C0EFB1C1143EA014308FB0CF1C5
:101B5000994207D9EB180CF1FF3002D2994200F2FA
:101B6000CD808446591AA3B2B1FBFEF00EFB1014CF
:101B700043EA044408FB00F8A04507D92C1900F1FA
:101B8000FF3302D2A04500F2B6801846A4EB080449
:101B900040EA0C409FE7C7F1200CBB4022FA0CFE44
:101BA0004EEA030E01FA07F420FA0CF521FA0CF3C1
:101BB0004FEA1E482543B3FBF8F92C0C08FB1933F8
:101BC0001FFA8EFA44EA034309FB0AF49C4202FA24
:101BD00007F200FA07F10BD91EEB030309F1FF30FE
:101BE00080F087809C4240F28480A9F1020973440E
:101BF0001B1BADB2B3FBF8F008FB103345EA0344FE
:101C000000FB0AFAA24508D91EEB040400F1FF33D9
:101C10006BD2A24569D90238744440EA0940A0FB5E
:101C20000289A4EB0A044C45C2464B4654D351D01A
:101C3000002E69D0B1EB0A0564EB030404FA0CFC36
:101C4000FD40FC404CEA0505C6E90054002747E783
:101C5000C2F1200320FA03F7954001FA02F021FABD
:101C600003F34FEA154E3843010CB3FBFEF71FFA9E
:101C700085F80EFB173341EA034107FB08F38B425B
:101C800004FA02F407D9691807F1FF3C2FD28B42FE
:101C90002DD9023F2944CB1A81B2B3FBFEF00EFBD3
:101CA000103341EA034100FB08F38B4207D969185E
:101CB00000F1FF3C17D28B4215D902382944C91ACA
:101CC00040EA07473BE73746304609E70746E7E67D
:101CD0001846FBE64145ABD2B8EB020A69EB0E02AF
:101CE00001381346A4E76046E9E7184695E76746DA
:101CF000D1E781467CE702382C4447E7ACF1020C7F
:101D00002B442FE7384608E73746E9E60000000095
:101D1000704700BF0000000000000000000000004D
:101D2000844641EA000313F003036DD1403A41D3E6
:101D300051F8043B40F8043B51F8043B40F8043BA5
:101D400051F8043B40F8043B51F8043B40F8043B95
:101D500051F8043B40F8043B51F8043B40F8043B85
:101D600051F8043B40F8043B51F8043B40F8043B75
:101D700051F8043B40F8043B51F8043B40F8043B65
:101D800051F8043B40F8043B51F8043B40F8043B55
:101D900051F8043B40F8043B51F8043B40F8043B45
:101DA00051F8043B40F8043B51F8043B40F8043B35
:101DB000403ABDD2303211D351F8043B40F8043BD5
:101DC00051F8043B40F8043B51F8043B40F8043B15
:101DD00051F8043B40F8043B103AEDD20C3205D3E5
:101DE00051F8043B40F8043B043AF9D2043208D0DD
:101DF000D2071CBF11F8013B00F8013B01D30B884F
:101E000003806046704700BF082A13D38B078DD02C
:101E100010F003038AD0C3F10403D21ADB071CBFFE
:101E200011F8013B00F8013B80D331F8023B20F868
:101E3000023B7BE7043AD9D3013A11F8013B00F8A1
:101E4000013BF9D20B7803704B7843708B78837029
:101E50006046704700000000000000000000000025
:101E600090F800F06DE9024520F007016FF0000CDA
:101E700010F0070491F820F040F049804FF0000482
:101E80006FF00700D1E9002391F840F000F108005D
:101E900082FA4CF2A4FA8CF283FA4CF3A2FA8CF395
:101EA0004BBBD1E9022382FA4CF200F10800A4FAFC
:101EB0008CF283FA4CF3A2FA8CF3E3B9D1E9042350
:101EC00082FA4CF200F10800A4FA8CF283FA4CF387
:101ED000A2FA8CF37BB9D1E9062301F1200182FA41
:101EE0004CF200F10800A4FA8CF283FA4CF3A2FA47
:101EF0008CF3002BC6D0002A04BF04301A4612BA55
:101F0000B2FA82F2FDE8024500EBD2007047D1E957
:101F1000002304F00305C4F100004FEAC50514F0E6
:101F2000040F91F840F00CFA05F562EA05021CBFB7
:101F300063EA050362464FF00004A9E700000000D1
:101F400001F0FF01102A2BDB10F0070F08D010F86A
:101F5000013B013A8B422DD010F0070F42B3F6D16E
:101F6000F0B441EA012141EA014122F007047FF087
:101F700000070023F0E80256083C85EA010586EADE
:101F8000010685FA47F5A3FA87F586FA47F6A5FA1A
:101F900087F68EB9EED1F0BC01F0FF0102F0070226
:101FA00032B110F8013B013A83EA010313B1F8D1D1
:101FB0000020704701387047002D06BF35460338B2
:101FC000073815F0010F07D1013015F4807F02BFEB
:101FD000013015F4C03F0130F0BC0138704700BF3C
:101FE0004FF0FF3C06E000BF4FF0010C02E000BFE5
:101FF0004FF0010C4DF804CD4FEA410C7FEA6C5CC8
:102000004FEA430C18BF7FEA6C5C1BD001B050EA6A
:10201000410C0CBF52EA430C91EA030F02BF90EA55
:10202000020F0020704710F1000F91EA030F58BF14
:10203000994208BF90422CBFD8176FEAE37040F076
:10204000010070474FEA410C7FEA6C5C02D150EA14
:10205000013C07D14FEA430C7FEA6C5CD6D152EACF
:10206000033CD3D05DF8040B704700BF8446104694
:1020700062468C461946634600E000BF01B5FFF793
:10208000B7FF002848BF10F1000F01BD4DF808ED63
:10209000FFF7F4FF0CBF012000205DF808FB00BF34
:1020A0004DF808EDFFF7EAFF34BF012000205DF88E
:1020B00008FB00BF4DF808EDFFF7E0FF94BF0120DB
:1020C00000205DF808FB00BF4DF808EDFFF7CEFFDC
:1020D00094BF012000205DF808FB00BF4DF808ED1B
:1020E000FFF7C4FF34BF012000205DF808FB00BFEC
:1020F0004FEA410C7FEA6C5C02D150EA013C0AD104
:102100004FEA430C7FEA6C5C02D152EA033C02D1F5
:102110004FF0000070474FF00100704700000000D2
:1021200000B51F4B83B01B68019305F031FC03F031
:10213000B7FA02F06DFA1B4A1B491C4803F0D0F9AC
:1021400002F08EFF03F064F819491A4807F040F8CE
:1021500003F0E6F802F094FD02F0D2FF164801F019
:10216000FFFD00F05DFC00F0BBFE01F031FA002144
:10217000084602F005F90021012002F001F90021D2
:10218000022002F0FDF80021032002F0F9F80020FF
:1021900002F086F9002002F0A3F900F061FFE4E705
:1021A000000B0020040B00200C0B0020BC150020AD
:1021B000200B0020A4AE01205133000800000000D5
:1021C00000B5084B83B01A680192019A1B689A42C5
:1021D00005D1054803B05DF804EB03F0C9BAFFF779
:1021E000EFFF00BF000B0020904E01080000000030
:1021F0002DE9F0412DED028B674C684D2368684E48
:1022000082B0019301F0B4F9B0EE408A85ED000A86
:102210000CF09EFFF0EE408AB0EE480A0CF0E0FFB2
:102220003778B0EE408A002F5BD0DFF890815D4AAE
:1022300098F8003000211170002B6AD15A4AB2F987
:10224000003007EE903AB7EE007AF8EEE77A37EE14
:10225000687A002377EE877A88F80030FDEEE77A17
:1022600017EE903A1BB283EAE371A1EBE3714229C6
:102270004ADC03EB830107EE901AF8EEE77A13804D
:102280009FED4A6ADFED4A6AE7EE067A49484A4915
:1022900095ED000AB0EE677AA8EEA67AD8EEA67A97
:1022A000BDEEC77AFDEEE77A17EE103A1AB217EED6
:1022B000903AB5EEC08AF1EE10FA1BB2C7BF0280A9
:1022C0000B8003800A8000F02BFC019A23689A425D
:1022D0005FD1012002B0BDEC028BBDE8F04102F0FD
:1022E000FFB8304B1B78E3B934483249324A0023F7
:1022F00003700B801380019A23689A4249D102B07F
:10230000BDEC028BBDE8F0814223DFED2D7A138016
:10231000B6E700F0CDFD002890D0002388F800300B
:10232000E9E700F0C5FD0028DED0DFF890803770C7
:1023300098F80030002BF0D11B4AB2F9003007EEBC
:10234000903ABFEE007AF8EEE77A37EE687A77EEE9
:10235000877AFDEEE77A17EE903A1BB283EAE371D3
:10236000A1EBE37142290FDC03EB830107EE901A26
:10237000F8EEE77A13809FED0D6ADFED0D6AE7EE68
:10238000067AF1EE688A81E74223DFED0D7A138049
:10239000F1E7FFF715FF00BF000B0020CC15002070
:1023A000C9150020C8150020DC1500200000C84316
:1023B00000004844E6150020E8150020DA1500204A
:1023C0000000A54300000000000000000000000025
:1023D00030B5344D83B02B68019302F009FC0446FC
:1023E00002F0EEFB304A1378043B032B14D8DFE8ED
:1023F00003F035231902A0F24460122847D96FF484
:102400004F631C44122C42D92849294B40F2013019
:1024100040F2751208801A80019A2B689A423FD1C7
:1024200003B030BDA4F6FD04122C03D9A0F6FD00C4
:1024300012282ED807231AE0A4F24464122C24D9BF
:102440006FF44F61084412281FD91849184B40F205
:10245000751040F2013208801A80DDE7A4F6FD0411
:10246000122C03D9A0F6FD00122812D80523002053
:10247000137002F0EDFB019A2B689A4210D10020F4
:1024800003B0BDE8304002F0CBBB0623EFE70423E6
:10249000EDE70649064A40F201330B801380BBE7A3
:1024A000FFF78EFE000B00202C0B0020E61500200D
:1024B000E8150020000000000000000000000000FF
:1024C0000029B8BF49420028B8BF404200B5091AE8
:1024D00007EE901A9FED2A7A2A4BF8EEE77A83B03E
:1024E000F4EEC77A1A680192F1EE10FA0BDC9FED58
:1024F000267AF4EEC77AF1EE10FA2DD5F0EE477A8F
:102500009FED227A03E0F0EE477A9FED217A214A8F
:10251000DFED216A92ED006A77EE867AF4EEE67AD4
:10252000F1EE10FA24DCDFED1D6AF4EEE67AF1EE4E
:1025300010FA16D5DFED157AC2ED006A77EE277A2C
:10254000019A1B68FDEEE77A9A4217EE901A08B2DC
:1025500013D103B05DF804FBB1EE047A27EE877A5D
:10256000D5E7DFED0F6AC2ED007A67EEA67AE5E700
:10257000C2ED006ADFED067AE0E7FFF721FE00BF5B
:102580000000A042000B00200000A0C20000C8C351
:102590000000C843E015002000007A4500007AC51D
:1025A000CDCCCC3D00000000000000000000000089
:1025B0002DE9F043684D694C2B78266883B001966D
:1025C000032B23D8DFE803F07502602A18B911B98C
:1025D000002A00F0AC80624E624F33681BB93B6842
:1025E000002B00F0A980604B1878604A604B0028EF
:1025F00000F08F8040F2412111804FF6BF521A80C7
:1026000002F0F6FA306002F0DBFA3860019A2368D3
:102610009A4240F09F8003B0BDE8F083504E514F86
:10262000D6F8008002F0E4FA01464046FFF748FF82
:10263000D7F80090804602F0C3FA01464846FFF7FB
:102640003FFF49490B78002B46D11FFA88F3C3F5A9
:102650001072DFF818E1DFF818C10132AEF800207F
:1026600000F24122ACF8002018339BB2302B03D982
:10267000183080B23028C9D83E4A002313700B703E
:102680002B7033603B60C1E7002834D1364B1B7898
:10269000002B45D0022000F0FBF9364B064618709F
:1026A000002E47D03149324A40F241230B8013803B
:1026B000ACE710B909B9002A43D0012300202B70E0
:1026C00002F0C6FA019A23689A4243D1002003B06F
:1026D000BDE8F04302F0A4BA244ADFF894C01FFA20
:1026E00088F303F2412EA2F800E0C0F51072013227
:1026F000ACF80020B8E7012300202B7002F0A8FA04
:10270000002002F08DFA1649164A00230B60136070
:102710007CE74FF6BF51118040F241221A806FE7EB
:10272000052000F0B5F9134B06461870B8E70223F0
:102730002B706BE70323C1E700F092F90A4B187086
:1027400053E7019A23689A4204D103B0BDE8F043ED
:10275000FFF74EBDFFF734FDD8150020000B002019
:10276000D0150020D4150020E4150020E615002027
:10277000E8150020DB15002000000000000000002C
:1027800000B51D4BF3EE017A83B0B4EEE70A1A6888
:102790000192F1EE10FA0EDDF3EE0B7AB4EEE70AD9
:1027A000F1EE10FA07D5154A107880B914490120C6
:1027B000087010700BE0F3EE0B7AB4EEE70AF1EE5E
:1027C00010FA0BDC0D490F4A002008701070019AB6
:1027D0001B689A420ED103B05DF804FBDFED0A7A64
:1027E000B4EEE70AF1EE10FAECD5064A10780028AC
:1027F000EDD1DBE7FFF7E4FC000B0020C91500205A
:10280000DA150020C8150020000014420000000066
:102810002DE9F0432DED028B224E83B033680193F6
:102820008046B0EE408A8946202383F311881E4DEE
:1028300004F07EF803F03CF8AF6A03F059F804F0B6
:102840008FF82B68AB4204D0AA699B6892689A42C1
:102850001DD3002484F31188B0EE480AFFF790FFDF
:10286000D8B9B9F1000F16D107F2E730A0EB080094
:1028700041F28734A04294BF00200120019A3368BE
:102880009A420CD103B0BDEC028BBDE8F08307483F
:1028900002F06EFFDDE74846F0E72046EEE7FFF77F
:1028A0008FFC00BF000B002080A00120C04E01085B
:1028B0002DE9F04F2DED028B2C4D2D4BAA692D49A2
:1028C0001B682D4E916183B04FF0200901934FF0AA
:1028D000000810E0FFF77CFD284BB3F9000002F080
:1028E00057F9274BB3F9000002F03AF904F10A0155
:1028F000204603F055FD89F3118804F019F802F021
:10290000D7FFAC6A02F0F4FF04F02AF82B68AB4260
:1029100007D0AA699B6892689A4202D2194802F0CD
:1029200027FF88F3118800F03BFEB0EE408A00F0EC
:10293000C7F8002000F0ACF80746012000F0A8F826
:102940008246062000F0A4F831788346B0EE480AAB
:102950002046FFF75DFF03465A465146384633701E
:10296000002BB7D1FFF724FEB6E700BF80A00120FF
:10297000000B0020B04E0108D9150020E6150020FC
:10298000E8150020C04E0108000000000000000013
:1029900000B5074B07491A68087883B00192019A7D
:1029A0001B689A4202D103B05DF804FBFFF708FCF4
:1029B000000B0020D81500200000000000000000DF
:1029C00000B5074B07491A68087883B00192019A4D
:1029D0001B689A4202D103B05DF804FBFFF7F0FBDD
:1029E000000B0020DA1500200000000000000000AD
:1029F00000B5084B08491A6891ED000A83B00192AE
:102A0000019A1B689A4202D103B05DF804FBFFF7FC
:102A1000D7FB00BF000B0020CC15002000000000F9
:102A200010B50A4C0A4B22680A4884B04FF41E7154
:102A3000039200220092432203F01AFC039A2368B7
:102A40009A4201D104B010BDFFF7BAFB000B002081
:102A5000B1280008F0150020000000000000000070
:102A600000B5084B08491A68887983B00192019A29
:102A70001B689A4204D180F0010003B05DF804FBAA
:102A8000FFF79EFB000B00206818002000000000EC
:102A900000B5074B07491A68085C83B00192019A98
:102AA0001B689A4202D103B05DF804FBFFF788FB74
:102AB000000B00206818002000000000000000004B
:102AC0002DE9F043DFF84880DFF84890D8F800306F
:102AD0000E4F83B00024019326460125204602F0C4
:102AE0002FFB962834BF33462B463B550134082C28
:102AF00049F8040FF2D1019AD8F800309A4202D175
:102B000003B0BDE8F083FFF75BFB00BF681800204F
:102B1000000B00206C1800200000000000000000E6
:102B200010B52DED028BDFED5B7A5B4C82B0B4EE1D
:102B3000E70A23680193F1EE10FAB0EE408A70D4F0
:102B4000DFED567AB4EEE70AF1EE10FA69DCDFED5C
:102B5000547AB4EEE78AF1EE10FA06DDDFED517A31
:102B6000B4EEE78AF1EE10FA6ED4DFED4A7AB4EEF5
:102B7000E78AF1EE10FA06DDDFED4B7AB4EEE78A74
:102B8000F1EE10FA67D4DFED497AB4EEE78AF1EEA0
:102B900010FA06DDDFED467AB4EEE78AF1EE10FAC0
:102BA0005ED4DFED417AB4EEE78AF1EE10FA06DD8D
:102BB000DFED407AB4EEE78AF1EE10FA57D4DFED9C
:102BC0003E7AB4EEE78AF1EE10FA06DDDFED3B7AED
:102BD000B4EEE78AF1EE10FA4ED4DFED367AB4EEB9
:102BE000E78AF1EE10FA06DDDFED2C7AB4EEE78A23
:102BF000F1EE10FA47D4DFED327A019AB4EEE78AAB
:102C0000F1EE10FA06DDDFED2F7AB4EEE78AF1EE91
:102C100010FA0BD423689A423AD102B0BDEC028B71
:102C200010BD0121002001F0ABFB90E723689A4220
:102C30002ED100231A461846FF2102B0BDEC028BAC
:102C4000BDE8104001F0F4BB00231A46FF21032029
:102C500001F0EEFB89E70121032001F091FB92E7EF
:102C600000231A46FF21022001F0E2FB99E701212F
:102C7000022001F085FBA2E700231A46FF21012074
:102C800001F0D6FBA9E70121084601F079FBB2E784
:102C9000FFF796FADB0F493F000B0020E0EDAF4055
:102CA000DB0FC93EE4CB963FE4CB1640D253FB3F4B
:102CB000E0ED2F40D2537B40D6316240E73A8A4064
:102CC000E25CA340DD7EBC4000000000000000008C
:102CD00010B5414C82B02368019303285ED8DFE829
:102CE00000F04216310280220121002001F0B8FBE1
:102CF00001210846802201F0B3FB8022012102203D
:102D000001F0AEFB80220121032001F0A9FB00218C
:102D10000846FF2201F0A4FBFF220021012001F060
:102D20009FFBFF220021022001F09AFB019A2368F9
:102D30009A424ED1FF220021032002B0BDE810408C
:102D400001F08EBBFF220121002001F089FB01214F
:102D50000846FF2201F084FBFF220121022001F03E
:102D60007FFBFF22CFE7FF220121002001F078FB4B
:102D700001210846FF2201F073FBFF2201210220FE
:102D800001F06EFB019A23689A4222D1FF220121B1
:102D9000032002B0BDE8104001F062BBFF22022117
:102DA000002001F05DFBFF220221012001F058FB11
:102DB0000221FF22084601F053FB019A23689A4240
:102DC00007D1FF220221032002B0BDE8104001F02C
:102DD00047BBFFF7F5F900BF000B00200000000023
:102DE0002DE9F04F2DED028B2A4C2B4BA2692B497C
:102DF0001B68DFF8AC80DFF8ACA0916183B04FF0C6
:102E000020090193002714E088F80070022001F0E7
:102E100047FBC82140F2BA2001F052FA022001F02B
:102E20003FFB012388F8003005F5FA71284603F0CE
:102E3000B7FA89F3118803F07BFD02F039FDA56A2A
:102E400002F056FD03F08CFD2368A34207D0A2696F
:102E50009B6892689A4202D2504602F089FC87F33E
:102E60001188FFF795FD8346FFF7AAFD0646FFF799
:102E7000BFFD5846B0EE408A002EC5D198F800300C
:102E8000002BC3D0FFF724FFB0EE480AFFF748FE3F
:102E9000CAE700BF80A00120000B0020D04E01082F
:102EA00090180020E04E0108000000000000000023
:102EB00000B5074B07491A68087883B00192019A58
:102EC0001B689A4202D103B05DF804FBFFF778F962
:102ED000000B0020901800200000000000000000FF
:102EE00010B50A4C0A4B22680A4884B04FF4FC71B2
:102EF000039200220092432203F0BAF9039A236856
:102F00009A4201D104B010BDFFF75AF9000B00201E
:102F1000E12D0008981800200000000000000000CB
:102F20000EB410B50A4C0B4923680B4883B00193CB
:102F300006AB1A4600930BF033FE019A23689A42BF
:102F400004D103B0BDE8104003B07047FFF738F973
:102F5000000B0020104F0108A4AE0120000000006B
:102F600000B5384B83B0B5EEC00A1A680192F1EE95
:102F700010FA16DDF5EEC00AF1EE10FA0CDDDFED09
:102F8000327A324A77EEE07AB6EE007A77EE807ADD
:102F900067EE877AC2ED007AF5EEC00AF1EE10FA1C
:102FA0002AD4B5EEC00AF1EE10FA0BD4B5EEC00A81
:102FB000F1EE10FA0BD4019A1B689A423FD103B08C
:102FC0005DF804FBF5EEC00AF1EE10FA35D4F5EE2B
:102FD000C00AF1EE10FAEEDD9FED1B7ADFED1C7AF0
:102FE0001A4A30EE070AB6EE007A70EE200AE0EEDA
:102FF000877AC2ED007ADEE7DFED137A134A37EE07
:10300000C07AF6EE006A37EE607AB5EEC00AE7EEF7
:10301000267AF1EE10FAC2ED007AC7D5DFED0A7A12
:103020009FED0C7A70EEA77AF6EE006A77EEC07A22
:10303000A7EEA67A82ED007AC9E7044AEEE7FFF729
:10304000BFF800BF000B0020DB0FC93F901A002023
:10305000E4CB9640DB0F4940000000000000000078
:103060002DE9F0432DED028BA34F9FEDA47A3B6831
:10307000A34CA448A449A54A85B04FF0FF3503935B
:10308000F0EE475AB0EE476AF0EE476AA9462E4680
:10309000A8460A23F4EC017AF4EEE67AF1EE10FA8F
:1030A000C8BFF0EE676AF2EC017AF4EEC67AC8BFE8
:1030B0000FFA83F8F1EE10FAC8BFB0EE676AF1ECD0
:1030C000017AF4EEC77AC8BF1EB2F1EE10FAC8BF9B
:1030D000B0EE677AF0EC017AF4EEE57AC8BF1DB283
:1030E000F1EE10FAC8BF0FFA83F903F10103C8BF6C
:1030F000F0EE675A832BCDD1B04527D007EE906A0A
:10310000B8EEE78AA94500F08480814A814B82EDC0
:10311000008A1868FEF770F9CDF8008002460B4669
:103120007D487E49FFF7FCFE039A3B689A4240F0D7
:10313000CC807B4A7B4BD2ED000A93ED000A05B0B0
:10314000BDEC028BBDE8F043FFF70ABFB8F10A0FF0
:1031500058DD754BDFED757A03EB880393ED007A4C
:10316000B4EEE77AF1EE10FA4CDD714B4FEAC80489
:1031700004344FEAC8061A193344D3ED000A92ED1D
:10318000000A0CF0DDF86B4B1C443344B0EE408A6F
:10319000D3ED000A94ED000A0CF0D2F838EE400AA4
:1031A000F8EE087AB4EEE70AF1EE10FA2ADDF0EE56
:1031B000087AB4EEE70AF1EE10FA23D55E4B9FEDE4
:1031C0005F7A93ED006AF6EE006A60EE267A05EE0D
:1031D000908AE6EE267AB8EEE58A27EE877AF7EE51
:1031E000006A87EE080AC3ED007AB4EEE60AF1EE53
:1031F00010FA6CDDB0EE660A0CF042F8494B83ED34
:10320000000A7FE707EE908AA945B8EEE78A7FF4C7
:103210007CAFB9F10A0F7FF778AF494BDFED437A06
:1032200003EB890393ED007AB4EEE77AF1EE10FA3E
:103230007FF76BAF4FEAC904424B04344FEAC90928
:103240001A194B44D3ED000A92ED000A0CF078F8FD
:103250003D4B1C449944F0EE408AD9ED000A94EDB0
:10326000000A0CF06DF838EEC00AF8EE087AB4EEF9
:10327000E70AF1EE10FA7FF748AFF0EE087AB4EE05
:10328000E70AF1EE10FA7FF540AF304B9FED2B7A55
:10329000D3ED005AB6EE006A60EE067AF7EE006AE9
:1032A000E5EE867A27EE877AC3ED007A87EE080A84
:1032B000B4EEE60AF1EE10FA13DDB0EE660A0BF09A
:1032C000DFFF174B83ED000A1FE7FEF779FFFFEEE4
:1032D000007AB4EE670AF1EE10FA48BFB0EE670A62
:1032E0008AE7FFEE007AB4EE670AF1EE10FA48BF03
:1032F000B0EE670AE3E700BF000B002000803B450B
:10330000D04A0120D05A0020D0AA0020D0FA0020B4
:10331000A41A0020901A0020A4AE0120104F01082A
:10332000981A0020941A0020A8FA002000401C4699
:10333000A8DA0020A82A01209C1A00200AD76C4293
:10334000A8AA0020A88A0020A83A0020A01A0020DD
:103350002DE9F04F724EDFF814823368B8F8002080
:1033600083B00193002900F0CE80DFF8C891DFF828
:10337000CCE1DFF8D4C16B4FDFED6B7A002504E0C0
:103380000435ADB2A94240F2C88030F9153007EEDD
:10339000103A9400B8EEC77A09EB040A00EB450333
:1033A0008AED007AB3F902A007EE10AAB8EEC77A48
:1033B0000EEB040A8AED007AB3F904A007EE10AA16
:1033C000B8EEC77A0CEB040A8AED007AB3F906303E
:1033D00007EE103A531C9BB2B8EEC77A02329B003C
:1033E0003C4492B284ED007A09EB030B0EEB030A26
:1033F0000CEB0304B2F5006F3B44CBED007ACAED51
:10340000007AC4ED007AC3ED007AB9D3474D2B782A
:103410000133DBB20024092B2B70A8F8004006D83A
:10342000019A33689A4276D103B0BDE8F08F4FF429
:1034300000623F493F482C700DF0A2F84FF4006243
:103440003D493E480DF09CF84FF400623C49354838
:103450000DF096F84FF400623A493B480DF090F8B1
:1034600022460123324939480DF0F2FB224601235E
:10347000314936480DF0ECFB2246012330493348F0
:103480000DF0E6FB012322462E4930480DF0E0FB0B
:103490004FF480622E4926480DF05AFC4FF48062AA
:1034A0002C4925480DF054FC4FF480622A492448E9
:1034B0000DF04EFC4FF48062284922480DF048FC84
:1034C000202383F3118803F033FA02F0F1F902F0BC
:1034D000BFFA23488368A3421ADD02F0E1FD02F03F
:1034E00007FA03F03DFA1F4B1A689A4207D0996910
:1034F00093688A689A4202D21B4802F039F9002385
:1035000083F311888CE7B2F5006FBFF47FAF87E7D4
:1035100003F006FBE1E7FEF753FEA8F800207FE783
:10352000000B0020A86A002000000000AA5A012019
:10353000A82A0120A80A0120A8DA0020A8BA0020A1
:10354000A88A0020A83A0020A81A0020004F0108ED
:10355000A84A0120A8FA0020A8AA0020A85A002002
:10356000300B002080A00120F04E0108A85A012055
:1035700000B5084B08491A6891ED000A83B0019222
:10358000019A1B689A4202D103B05DF804FBFEF772
:1035900017FE00BF000B0020901A00200000000062
:1035A00000B5084B08491A6891ED000A83B00192F2
:1035B000019A1B689A4202D103B05DF804FBFEF742
:1035C000FFFD00BF000B0020A41A00200000000037
:1035D00000B5084B83B01A680192019A1B689A42A1
:1035E00005D1054803B05DF804EB03F061BAFEF7BE
:1035F000E7FD00BF000B0020300B002000000000A2
:1036000030B54368174D1A68296883B004460191A4
:1036100012B304220270DA681B68520811469847F8
:103620002378042B18D0202383F3118803F0B0F9FA
:1036300002F07EF904F10800002102F079FF02F0A7
:1036400097F903F0BDF9002383F31188019A2B68E1
:103650009A4204D103B030BD02232370E3E7FEF7A2
:10366000AFFD00BF000B00200000000000000000C4
:1036700070B5194D82B02B68019311F00C0F0C46F8
:10368000064622D114F0200109D0019A2B689A42F3
:103690001FD1304602B0BDE87040FFF7B1BFE3066E
:1036A0000DD57268136853B1019C2868844210D10B
:1036B000D2683046520802B0BDE870401847019AFF
:1036C0002B689A4205D102B070BD044802F050F850
:1036D000D8E7FEF775FD00BF000B0020604F010822
:1036E00070B5194D82B02B68019311F00C0F0C4688
:1036F000064622D114F0200109D0019A2B689A4283
:103700001FD1304602B0BDE87040FFF779BFE30635
:103710000DD57268136853B1019C2868844210D19A
:10372000D2683046520802B0BDE870401847019A8E
:103730002B689A4205D102B070BD044802F018F817
:10374000D8E7FEF73DFD00BF000B0020604F0108E9
:1037500030B50F4D0F4C2A680F4B83B020460192B5
:103760004FF6FF721A8000F05BF90C4B01992A6842
:103770000B480C4D2562636203F1240591420A4B0C
:103780002363C4E90A5001D103B030BDFEF718FD30
:10379000000B0020C45A0120AC5A0120685E0108C9
:1037A0001E010100003C0040460001000000000036
:1037B00070B52C4D03782A6882B0012B0446019223
:1037C00024D06368E26A5989236B22F4F04223F41F
:1037D000F043090544BF42F4205243F42053C4E9A6
:1037E0000B23236A00221A606268236A52891A60D6
:1037F000236A03225A60226A136843F0400313606D
:10380000019A2B689A422BD102B070BD164EB0427D
:103810000AD0D4E9083212680C339360A26A236A92
:1038200012680C339360CCE70346104A406A0A21C1
:1038300007F05EF980B9B06A0B4B0D4A0A2107F018
:1038400057F928B90B4A136C43F400431364E0E7BB
:10385000094801F08DFFF5E7074801F089FFEAE725
:10386000FEF7AEFC000B0020C45A0120E136000830
:103870007136000800380240404F01080000000087
:1038800070B5456A174C2D68266882B00196EB60CA
:10389000436A1B685960456AC36A2D6843F48063B4
:1038A0002B60836A1B68DA60836A1B685960826ACE
:1038B000036B126843F480631360436A1A681368E9
:1038C00043F001031360836A1A68136843F001032D
:1038D0001360019A23689A4201D102B070BDFEF7CD
:1038E0006FFC00BF000B0020000000000000000083
:1038F00030B5104D81682B680F4A83B001930B6877
:1039000023F001030B608168946A03E0936A1B1B38
:10391000C72B09D8086810F00100F7D1019A2B686D
:103920009A4204D103B030BD4FF0FF30F6E7FEF706
:1039300047FC00BF000B002080A001200000000019
:10394000F0B5284D83B02B68019302F0B9FF02F067
:103950002FF8254B1E69F20715D55A69234C42F002
:1039600001025A612778BB1F012B2AD905226368FF
:1039700022701B680BB120469847042F27D0022FD6
:1039800025D003232370B30710D5174A174C53696A
:1039900043F0020353612378032B1DD063689B68B7
:1039A0000622227013B101211048984702F028F82E
:1039B000019A2B689A4213D103B0BDE8F04003F09E
:1039C000A7BF019A2B689A420AD103B0F0BD022327
:1039D0002370B307EAD5D8E72046FFF789FFDDE774
:1039E000FEF7EEFB000B002000000550B05A01204E
:1039F00000B5074B83B01A680192019A1B689A427E
:103A000004D103B05DF804EBFFF7A2BEFEF7D8FBCC
:103A1000000B00200000000000000000000000007B
:103A200000B50A4B83B01A68019201220270019915
:103A30001A6800239142C0E9013305D10C3003B06C
:103A40005DF804EB03F0ACB8FEF7BAFB000B002006
:103A500070B51E4D82B02B6801930E46044670B3BC
:103A600069B3202383F3118802F062FF01F020FF85
:103A70002378013B012B02D9154801F079FE20463D
:103A80006660FFF795FE0223237001F031FF02F01C
:103A900067FF104B1A689A4204D0996993688A6844
:103AA0009A4208D3002383F31188019A2B689A4223
:103AB00009D102B070BD084801F05AFEF2E704488F
:103AC00001F056FECDE7FEF77BFB00BF000B0020A8
:103AD000804F010880A00120704F01080000000005
:103AE0002DE9F041214D82B02C6801940E4690469C
:103AF0001F46044600B171BB1D4801F039FE20236A
:103B000083F3118802F014FF01F0D2FE2378022B18
:103B100002D0174801F02CFE03203B4642463146B6
:103B200020702046FFF7ACFE01F0E2FE02F018FF25
:103B3000104B1A689A4204D0996993688A689A422D
:103B40000ED3002383F31188019A2B689A420BD17C
:103B500002B0BDE8F081002BCED0002ACFD1CBE758
:103B6000054801F005FEECE7FEF72AFB000B0020FC
:103B7000904F010880A00120704F01080000000054
:103B800070B51849184C0A78236882B001934FF435
:103B9000B47303FB00F562B1019A23689A421FD106
:103BA00012481349B1FBF5F102B0BDE8704004F0D2
:103BB00087BA1048104A01260E70802141830F49B0
:103BC0000F4804F08DF9019A23689A4208D10748FA
:103BD0000749B1FBF5F102B0BDE8704004F0D8BA76
:103BE000FEF7EEFA085B0120000B002024AE012056
:103BF00000BD0105000C0240B04F0108F85A012039
:103C0000D0AA012000000000000000000000000019
:103C100010B50C4C0C4B22680C4882B001928022EB
:103C20001A8304F015FB0A4804F09AF9019A2368F4
:103C3000084900209A42087001D102B010BDFEF779
:103C4000BFFA00BF000B0020000C024024AE012090
:103C5000D0AA0120085B0120000000000000000045
:103C60002DE9F04F394A3A4B126883B00124019292
:103C70001C70002963D04FF00008364CC246C34682
:103C8000C1464746C446434647F6FF7E1DE0AB4566
:103C9000A8BFAB46024432F9026CB2F90450B442F8
:103CA000B8BF3446B645A8BFB6464D4545DCA84525
:103CB000A8BFA846B2F90220BA420EDC04339245EE
:103CC0009BB2A8BF924699420CD95D1C6A0030F99C
:103CD00015506545DBDDAC46DCE704339BB2994209
:103CE0001746F2D8A4EB0E04ACEB0B0CA7EB0A07BB
:103CF000A9EB0808A4B21FFA8CFCBFB21FFA88F81F
:103D0000154A12491480019C0968144BA2F802C09C
:103D10009780B0F8F8C4B0F8FA64A2F80680B0F85A
:103D2000FC54B0F8FE24A3F800C08C425E809D8055
:103D3000DA8008D103B0BDE8F08FA946BAE788461B
:103D40000F468C46DCE7FEF73BFA00BF000B002075
:103D5000095B01200080FFFF145B01200C5B012048
:103D600070B53F4B3F4C1A78236882B0012A01930B
:103D700005D0019A23689A4270D102B070BD3A49C9
:103D80003A4B4D6C45F480354D644E6A002546F43F
:103D900080364E624D621D61DD60196A21F00101BD
:103DA0001962996921F003019961996941F0010152
:103DB0009961996921F0F0019961196A21F00A016C
:103DC0001962996921F00C019961996821F07001DB
:103DD0009960996841F050019960996821F48031A7
:103DE00021F007019960996841F00701996019680D
:103DF00021F440711960DA629D625A61196A21F0FA
:103E000010011962996921F440719961996921F051
:103E1000807121F4E0419961996941F4C04199614F
:103E2000196A21F0A00119629A639A6942F400624A
:103E30009A611A6A22F480621A621A6A42F01102C6
:103E40001A621A6842F001021A6020B100906846B6
:103E500000F076F98DE7064B0093F8E7FEF7B0F92E
:103E6000BCAD0120000B00200038024000400140A2
:103E7000613C00080000000000000000000000009D
:103E800070B5114C82B0236801930E46154620236D
:103E900083F3118802F07CFD01F04AFD0B4B0C48C6
:103EA000C3E9006502F03CFE01F062FD02F088FD0E
:103EB000002383F31188019A23689A4201D102B04A
:103EC00070BDFEF77DF900BF000B002030700120AF
:103ED0001C5B01200000000000000000000000004A
:103EE00070B5114C82B0236801930E46154620230D
:103EF00083F3118802F04CFD01F01AFD0B4B0C48C6
:103F0000C3E9006502F00CFE01F032FD02F058FD3D
:103F1000002383F31188019A23689A4201D102B0E9
:103F200070BDFEF74DF900BF000B0020146E01209C
:103F30001C5B0120000000000000000000000000E9
:103F40002DE9F04F624B63499A69634B916185B0EB
:103F50001B6803935E4B9B6993F821305B0700F16C
:103F6000AD805E4802F0A4FD5C4802F0A1FD584B14
:103F70009B6993F8212012F0040240F09F80584D75
:103F800058482B6801680446406805EB830304EB3E
:103F9000810103F50279430001F10808019343D040
:103FA000DFF850B1504BDFF85CA1012018F8125037
:103FB00018F8006019F8121019F8004005F0550CB7
:103FC000770806F0550613F80CC09E5D01F0550EFB
:103FD0004CEA061649084FEA540C01F0550104F06A
:103FE00055040CF0550C6D0813F80EE0595C1C5D7F
:103FF00013F80CC00BF8126005F0550507F05507D3
:1040000041EA0C114EEA041E0AF812E05D5D0AF85E
:104010000010DF5D0199013245EA071591420BF866
:10402000005000F10200C1D1304B31493148324DCE
:104030000422FCF71DFA314B314932480422FCF7C7
:1040400017FA314B314932480422FCF711FA314B4F
:10405000314932480422FCF70BFADFF8D4C0286853
:104060009CF80070224A264900EBC71302F1400673
:1040700014881C8054885C804C889C80043231F801
:10408000044BDC80964203F10803F1D1092F11D1D2
:10409000234B00221B688CF800204FF420719847B6
:1040A0002B68204A204993420B6006BF1F4B2B60B0
:1040B0002A604FE701378CF800704BE7064B039AF4
:1040C0001B689A4202D105B0BDE8F08FFEF778F880
:1040D00080A0012080520108000B00201C5B012001
:1040E00030700120146E01203C0B0020EC6B01208D
:1040F000A8600120E8600120BC0B0020546C012066
:10410000BC6C0120FC6C0120206C0120AA60012005
:10411000E9600120886C0120BE6C0120FD6C01204B
:10412000FC6D0120E8610120C00B0020E866012041
:10413000E86B01200000000000000000000000000B
:104140002DE9F04F494A0168494B116085B00021C3
:104150000E461B684748039302F04AFC4FF4AF61D8
:10416000454B009641224548454DDFF84891454C66
:10417000DFF844A1444F02F07BF8444B444A1860F6
:10418000136BC5F804A043F480534FF002184FF4AA
:104190007A5B13632846C5E90298A5F800B0FCF7DE
:1041A000AFF82046C4E901A9C4F80C80A4F800B017
:1041B000FCF7A6F805F13400C5E90EA9C5F8408062
:1041C000A5F834B0FCF79CF8324DC4F8408004F1F7
:1041D0003400C4E90EA9A4F834B0FCF791F83146D4
:1041E00040F20C4238460DF04BFCDFF8D0902A4AE2
:1041F0006E604FF400634FF080082E812A606B815F
:10420000264CC5F80C80C7F80894FFF7F1FB294647
:104210002348244DFFF71CFC07F5027307F1080241
:104220004FF480711E48FFF75BFC314620464FF487
:1042300003720DF025FC1C4B1C4AC4F8089208348C
:104240001A611946C3E900641948C3E9028504F0FC
:1042500097F8074B039A1B689A4205D1144805B09A
:10426000BDE8F04F04F0D4B8FDF7AAFFFC6D0120C3
:10427000000B00201C5B0120413F0008305B012047
:10428000EC6B0120546C012030700120285B012070
:104290000038024020700120813E0008146E012089
:1042A000C45A0120E13E0008006E01202C030800E2
:1042B000BCAD0120000020410000FA45EFBEADDE9C
:1042C00030B50F4C83B0236801930D4608B1FFF75A
:1042D00057FC4FF47A700B4900FB05F000F2E73011
:1042E000A1FB0030800902F01BF8019A23689A4272
:1042F00004D103B0BDE83040FFF78ABCFDF760FF92
:10430000000B0020D34D62100000000000000000F0
:1043100000B5074B07491A68087083B00192019AEB
:104320001B689A4202D103B05DF804FBFDF748FF19
:10433000000B00203C740120000000000000000081
:1043400010B50B4C0B48236882B0019302F010FDAE
:10435000094802F0EDFE019A23689A4205D105480A
:1043600002B0BDE8104002F03BBDFDF729FF00BFE1
:10437000000B0020CC0B0020C40B0020000000002C
:1043800070B5294D82B02B6801930E46032841D8A1
:10439000DFE800F01A120A02012922D9234A5369E0
:1043A00083F40063536116E0012926D91F4A53693B
:1043B00083F4806353610EE0012918D91B4A5369C5
:1043C00083F04003536106E001291CD9174A536961
:1043D00083F020035361019A2B689A4218D102B0EE
:1043E00070BD124B4FF4006229B15A83F3E70F4BB3
:1043F00040220029F9D11A83EDE70C4B4FF480627B
:104400000029F8D0F1E7094B20220029F3D0ECE78E
:10441000FDF7D6FE0024E0B231460134FFF7B0FFCD
:10442000042CF8D1D7E700BF000B0020000C02409D
:1044300070B5094D094E2C6882B000EB4000019424
:10444000315434180198296862708842A37001D1F0
:1044500002B070BDFDF7B4FE000B002040740120D7
:1044600030B50B4B0B4C00EB4000184483B0435C61
:104470002568019533B94254019A23689A4204D1C0
:1044800003B030BD00234354F6E7FDF799FE00BFAB
:1044900040740120000B002000000000000000001C
:1044A00000B50D4B83B01A68019201280BD90B4956
:1044B0004A6982F004024A61019A1B689A4209D152
:1044C00003B05DF804FB054A042108B95183F3E702
:1044D0001183F1E7FDF774FE000B00200004024099
:1044E00000B50E4B83B01A68019201280BD90C4914
:1044F0004A6982F480424A61019A1B689A420AD151
:1045000003B05DF804FB064A4FF4804108B95183BB
:10451000F2E71183F0E7FDF753FE00BF000B002028
:10452000000C02400000000000000000000000003D
:1045300030B5094B094D044607CB83B02B68019376
:10454000206001982B6861609842A26001D103B09D
:1045500030BDFDF735FE00BF40740120000B002088
:104560002DE9F043254E83B034680194042A9DF868
:104570002890144605460F46984639D9B9F1000FE0
:1045800014BF00224FF08052640002EB0863013C2C
:104590001C4405F00F0527F01F07202383F3118823
:1045A00002F0C6F93D4301F083F9154B1035DD608B
:1045B0001C6101F09DF902F0D3F9124B1A689A427E
:1045C00004D0996993688A689A420DD3002383F3D3
:1045D0001188BFF36F8FBFF34F8F019A33689A42F0
:1045E0000AD103B0BDE8F083074801F0C1F8EDE758
:1045F000064801F0BDF8C1E7FDF7E2FD000B002021
:1046000090ED00E080A0012010530108F052010855
:1046100030B5224D224C2B68224A85B00393636843
:1046200043F004036360536A43F4803353622023EE
:1046300083F3118802F07CF901F03AF917221A4B42
:10464000E260236101F054F902F08AF9174B1A680D
:104650009A4204D0996993688A689A4218D30020D4
:1046600080F31188BFF36F8FBFF34F8F03231D2299
:1046700000904FF00051FFF773FF094A536843F071
:1046800001035360039A2B689A4205D105B030BDEF
:10469000074801F06DF8E2E7FDF792FD000B0020FE
:1046A00090ED00E000ED00E00900001080A0012086
:1046B000105301080000000000000000000000008E
:1046C00070B51A4D1A4C1B4E0FCD0FC49EB02A6800
:1046D000336822801D93EFF30981682203A8FDF758
:1046E0001FFB154B9D6AAA0714D4EB0708D5124B84
:1046F00008995B6B114A00910D4880210DF010FA6A
:104700001D9A33689A420FD109481EB0BDE8704027
:1047100001F02EB8099A5B6B0092A4F11000084AD0
:1047200080210DF0FDF9E0E7FDF74AFDD4520108C4
:104730004C740120000B002000ED00E0B052010895
:10474000905201080000000000000000000000007E
:1047500000B51F4B0278196883B00191E2B11D4A80
:104760004FF4005111834278EAB11A4A4FF4805154
:1047700011838278F2B1174A4FF480411183C278D5
:10478000FAB9144A4FF400415183019A1B689A42C6
:104790001CD103B05DF804FB0E4A4FF40051518365
:1047A0004278002AE1D10B4A4FF48051518382783C
:1047B000002AE0D1074A4FF480415183C278002A91
:1047C000DFD0044A4FF400411183DEE7FDF7F8FC27
:1047D000000B00200010024000000000000000005C
:1047E00000B51F4B0278196883B00191E2B11D4AF0
:1047F0004FF4007111834278EAB11A4A4FF4807184
:1048000011838278F2B1174A4FF400611183C278A4
:10481000FAB9144A4FF480615183019A1B689A4295
:104820001CD103B05DF804FB0E4A4FF400715183B4
:104830004278002AE1D10B4A4FF48071518382788B
:10484000002AE0D1074A4FF400615183C278002A60
:10485000DFD0044A4FF480611183DEE7FDF7B0FC3E
:10486000000B0020001002400000000000000000CB
:1048700030B50C4A0C4B116883B04FF400550191D0
:104880004FF480544FF400414FF480405D835C83CB
:104890005883598301991368994201D103B030BDFF
:1048A000FDF78EFC000B002000100240000000000D
:1048B00030B50C4A0C4B116883B04FF40075019170
:1048C0004FF480744FF480614FF400605D835C832B
:1048D0005883598301991368994201D103B030BDBF
:1048E000FDF76EFC000B00200010024000000000ED
:1048F00010B50B4C0B48236882B09922002101931C
:1049000003F096FE019A23689A4206D105480021D9
:1049100002B0BDE8104003F073BFFDF751FC00BFCB
:10492000000B002050AE012000000000000000003D
:1049300010B50B4C0B48236882B0992200210193DB
:1049400003F076FE019A23689A4206D105480021B9
:1049500002B0BDE8104003F053BFFDF731FC00BFCB
:10496000000B00206CAE01200000000000000000E1
:1049700000B5084B83B01A680192019A1B689A42ED
:1049800006D10548002103B05DF804EB03F0A0BE9A
:10499000FDF716FC000B002050AE012000000000C7
:1049A00000B5084B83B01A680192019A1B689A42BD
:1049B00006D10548002103B05DF804EB03F088BE82
:1049C000FDF7FEFB000B00206CAE01200000000094
:1049D00070B51A4C1A4E2378326882B0022B0192BD
:1049E000A26811D165781748013505F0070500EB7D
:1049F0008500904763686570013B6360019A336886
:104A00009A4219D102B070BD012B08D001993368C8
:104A1000994211D10C4802B0BDE87040104765784A
:104A20000848013D05F0070500EB850090476368E5
:104A3000657001336360E1E7FDF7C2FBE4740120B8
:104A4000000B0020B0530108A05301080000000033
:104A500070B51A4C1A4E2378326882B0012B01923D
:104A6000A26811D165781748013505F0070500EBFC
:104A7000850090476368657001336360019A33680D
:104A80009A4219D102B070BD022B08D00199336847
:104A9000994211D10C4802B0BDE8704010476578CA
:104AA0000848013D05F0070500EB85009047636865
:104AB0006570013B6360E1E7FDF782FBCC74012088
:104AC000000B0020B0530108A053010800000000B3
:104AD00030B51F4D85B02B68039340F24C4399428B
:104AE000044626DCA3F69803994211DB4B00002B09
:104AF00029D10370036998474FF47A71039A2B68A0
:104B00009A421ED1606905B0BDE8304003F048BD4F
:104B1000104B02225B42227040F2892293420E49DE
:104B200091FBF3F189B207DC0191E36898470199A1
:104B3000E4E7012303702D2101912369984701992E
:104B4000DCE7FDF73DFBE4DD01220270E4E700BF96
:104B5000000B002068F7FFFFA086010000000000A6
:104B600000B5084B83B01A680192019A1B689A42FB
:104B700006D10146044803B05DF804EBFFF7A8BF77
:104B8000FDF71EFB000B0020CC740120000000008C
:104B900000B5084B83B01A680192019A1B689A42CB
:104BA00006D10146044803B05DF804EBFFF790BF5F
:104BB000FDF706FB000B0020E4740120000000005C
:104BC00000B5094B094A1968506883B000EBD070F2
:104BD0000191019A1B689A4203D1401003B05DF81D
:104BE00004FBFDF7EDFA00BF000B0020CC740120A0
:104BF00000B5094B094A1968506883B000EBD070C2
:104C00000191019A1B689A4203D1401003B05DF8EC
:104C100004FBFDF7D5FA00BF000B0020E47401206F
:104C200000B5084B08491A6883B040000192019A08
:104C30001B6848609A4202D103B05DF804FBFDF79F
:104C4000BFFA00BF000B0020CC7401200000000060
:104C500000B5084B08491A6883B040000192019AD8
:104C60001B6848609A4202D103B05DF804FBFDF76F
:104C7000A7FA00BF000B0020E47401200000000030
:104C800070B51D4E1D4A1E4B30681E491E4C91606A
:104C900082B00021D46001901C4C1D481D4D9D60C8
:104CA000117051705160106154611B481B4A1C4DBA
:104CB000D8601C48197059705960C3E90425FFF782
:104CC00047FD1848FFF78CFD1749204603F018FCF4
:104CD000204603F04DFD2846144903F011FC019ACB
:104CE00033689A4205D1284602B0BDE8704003F00F
:104CF0003FBDFDF765FA00BF000B0020E474012002
:104D0000CC74012051470008F148000850AE012042
:104D100071490008E147000831490008A14900082D
:104D20006CAE0120A0530108605301082053010814
:104D30000A490B4B09680B4A82B02020019140219F
:104D400058834FF4806559834FF400644FF48040DA
:104D500004215D835C8358835183FEE7000B0020B0
:104D6000000C0240000402400000000000000000AF
:104D700010B51E491E4A0B78106882B0013B0190A5
:104D8000072B0AD8DFE803F012151C1F26290F0491
:104D900018480824012304830B7001991368994271
:104DA00021D102B010BD08230B70F6E702230B706F
:104DB000F3E711484FF48054032304830B70ECE7AE
:104DC00004230B70E9E70C484FF480440523048367
:104DD0000B70E2E706230B70DFE706480424072385
:104DE00004830B70D9E7FDF7EBF900BF7878012059
:104DF000000B0020001002400004024000000000F0
:104E000030B50C4B0C4918680C4A83B04FF4804500
:104E100001904FF480504883042408204D8354832C
:104E20005083019A1B689A4201D103B030BDFDF74F
:104E3000C7F900BF000B0020000402400010024030
:104E40002DE9F04F4E4B4F4A9B694F499961A5B0F0
:104E500007AE05AD80231768009331462A4600242B
:104E60000CA84A4B2397CDE90766CDE90555CDE956
:104E700009440B9400F04CFB0CA9454A4548434CAF
:104E8000454DDFF83481DFF834B1DFF834A100F0AC
:104E900067FB04F11C0604F16007A146504601F0CF
:104EA00007FE2A682B69226063602A6A2B6BA26066
:104EB000E3606A686B69226163616A6A6B6BA26115
:104EC000E361AA68AB6922626362AA6AAB6BA26201
:104ED000E362EA68EB6922636363EA6AEB6B2F497A
:104EE000A263E36351F8043F0A6AB142A3EB0203F1
:104EF0000B64F7D1802249460CA800F061FB98F8BA
:104F00000030002BCAD09BF8003033B3012BC5D141
:104F1000DFF8B0C02248614650F8042B51F8043F36
:104F2000B84213440B60F7D11E4A13780133DBB249
:104F3000642B1370B2D11C495CF8043F1B4A82FBFE
:104F40000302DB17C3EB621341F8043B184B9C458B
:104F5000F2D1002388F80030A0E719462022124839
:104F600003930CF08DFD039B1248194620220CF090
:104F700087FD0C49039B0B7001228BF800208DE705
:104F800080A00120000B0020D05301088075012073
:104F900010540108BC1500201C7501207C750120EF
:104FA000C07501205D750120E07501201F85EB5162
:104FB0007C750120607501205C7501205E75012003
:104FC000E00B00205C7501200000000000000000E4
:104FD00070B502691E4D52882B6882B006460C4699
:104FE0001C480193920000210CF04AFD33695B8854
:104FF0005BB1184AA11E002331F8020F42F8040BDE
:105000003069408801339842F6D8202383F3118811
:1050100001F0BEFC00F08CFC00F01AFD0E48836825
:10502000002B0FDD00F0A4FC01F0CAFC002383F389
:105030001188019A2B68094901209A42087004D10D
:1050400002B070BD01F06CFDECE7FDF7B9F800BFF0
:10505000000B00201C750120E00B00207878012057
:1050600070B51F4D1F4C2E78236884B0012E03931A
:1050700005D0039A23689A422FD104B070BD002155
:10508000284602F09DFD284602F05AFE3346284687
:10509000154A164902F014FE1549164803F030FA75
:1050A0004FF496720021134803F0C2FA0021114810
:1050B00003F0A6FB0F4803F05BFB31464FF482720E
:1050C0000C4803F0B5FA0023009340220A4B0B482A
:1050D0004FF41E7101F0CCF8CBE7FDF771F800BF7B
:1050E000DCA70120000B0020FC740120E053010824
:1050F0002054010834AE0120414E00080076012002
:1051000030B50C4D0C4A2B680C4C83B00021019338
:10511000012311702370142001F002F92378002B71
:10512000F9D1019A2B689A4201D103B030BDFDF745
:1051300047F800BF000B00205E7501205C75012060
:1051400010B50E4A82B013680193072811D80C4994
:1051500000F1180300F1100451F8233051F8240035
:10516000C01A20EAE07001991368994203D102B095
:1051700010BD0020F7E7FDF723F800BF000B00206B
:105180008075012000000000000000000000000009
:1051900080B5164A164B9269164E17491B68DFF800
:1051A0006480164D164C916182B0374601932846B3
:1051B000FFF7BEF9204604F053FC3B462A460C217B
:1051C000204604F0CDFC204604F08AFC3078FFF73E
:1051D0009FF898F80030033B012B4FF0140002D9E0
:1051E00001F09EF8E3E7FFF7ABF8E0E780A00120CD
:1051F000000B00207C78012070540108F08D012004
:10520000DCAD0120B05A01200000000000000000C9
:1052100010B50C4C0C4923680C4884B0039304F07F
:10522000D7FB002300934122094B0A484FF4AF619A
:1052300001F01EF8039A23689A4201D104B010BD10
:10524000FCF7BEFF000B002060540108DCAD01201C
:105250009151000878880120000000000000000043
:1052600000B50F4B83B01868019002290CD00329B8
:105270000CD001290B4818BF0020019A1B689A42E4
:105280000BD103B05DF804FB0748F6E7032A96BF8D
:105290000648002000EBC200EFE7FCF791FF00BFDB
:1052A000000B002060550108005501081056010848
:1052B00070B5154C82B02368019302291CD10D46AC
:1052C0000646202383F3118801F062FB00F030FBD7
:1052D00030460E4A012104F043FD29460C4A30466F
:1052E00004F03EFD0B4804F013FA00F041FB01F01E
:1052F00067FB002383F31188019A23689A4201D146
:1053000002B070BDFCF75CFF000B00208054010868
:10531000B0540108EC9D01200000000000000000D6
:1053200030B5134D134C2B68134883B0019304F030
:1053300067F91249104804F093F9226D936B23F436
:10534000002393634FF47A7000F0EAFF20460C4983
:1053500004F0B6FC226D936B43F400239363019A2F
:105360002B689A4201D103B030BDFCF729FF00BF82
:10537000000B002040AB0120EC9D0120E05401080F
:10538000F0540108000000000000000000000000D0
:1053900000B5084B83B01A680192019A1B689A42C3
:1053A00005D1054803B05DF804EB01F0E1BCFCF762
:1053B00007FF00BF000B0020EC0B002000000000E6
:1053C00000B5084B83B01A680192019A1B689A4293
:1053D00005D1054803B05DF804EB01F001BDFCF711
:1053E000EFFE00BF000B0020EC0B002000000000CF
:1053F00070B50D4C82B0236801930D1E06460DDD7D
:10540000284602F0FDF918B90C2333604FF0FF3045
:10541000019A23689A4205D102B070BD034800F09A
:10542000A7F9EDE7FCF7CCFE000B00203056010891
:1054300000B5064B83B01A680192019A1B689A4224
:1054400002D103B05DF804FBFCF7BAFE000B0020AC
:1054500000B5074B83B01A680192019A1B689A4203
:1054600004D103B05DF804EB01F082BCFCF7A8FEA8
:10547000000B002000000000000000000000000001
:1054800000B5074B83B01A680192019A1B689A42D3
:1054900004D103B05DF804EB01F0A2BCFCF790FE70
:1054A000000B0020000000000000000000000000D1
:1054B00000B5074B83B01A680192019A1B689A42A3
:1054C00004D103B05DF804EB01F0B2BDFCF778FE47
:1054D000000B0020000000000000000000000000A1
:1054E00010B5084B82B01C68019400240460019C34
:1054F0001B689C42C0E9011201D102B010BDFCF74B
:105500005FFE00BF000B0020000000000000000054
:105510002DE9F0430E4D83B02C6801940446994662
:105520000F46164610304C220021DDF828800CF082
:10553000A7FAC4F80090019A2B68E6609A42C4E981
:10554000018702D103B0BDE8F083FCF739FE00BF4C
:10555000000B002000000000000000000000000020
:10556000F0B5144E83B001F1100317463268019272
:105570000446412218460D4600210CF081FA3946B6
:1055800040220CF015FB6068FFF762FF236803B14F
:10559000AB652560A068FFF78BFF019A33689A42DC
:1055A00005D1606803B0BDE8F040FFF769BFFCF7C4
:1055B00007FE00BF000B00200000000000000000FC
:1055C000F0B51C4E436883B00546934230680190A5
:1055D00006D20020019A33689A4229D103B0F0BD67
:1055E00014460F46A868FFF733FF2246394628685D
:1055F000FCF796FB012385F85130E868FFF758FF68
:105600006C6D84B123681868FFF722FF23689D60E2
:1056100023685868FFF74CFF23681868FFF730FFCE
:105620006468002CEED1A868FFF72AFF0120D1E7BB
:10563000FCF7C6FD000B0020000000000000000089
:1056400000B5064B83B01A680192019A1B689A4212
:1056500002D103B05DF804FBFCF7B2FD000B0020A3
:10566000024B82B01B680193FEE700BF000B0020D5
:1056700000B5044B04481B6883B0019300F078F830
:10568000FEE700BF000B00204056010800000000AC
:10569000024B82B01B680193FEE700BF000B0020A5
:1056A000F0B5294E294B3268294885B00024039271
:1056B0009C60D968274A4FF6FF0529400A43DA6003
:1056C000C2682549254D42F08072C2600A6842F0E6
:1056D00001020A6010202022D87783F8222000F0EF
:1056E000DFFA00F045FA01F073F802F061F802F019
:1056F000CFF801F0C5F800F0FBF9402105F588600E
:1057000000F01EFD0127164BC36180F82070A861D0
:1057100000F0A6F884F3118862B6AB69114A9A6169
:105720004FF4C4713A46104B009405F59D6000F0AB
:105730009FFD039A33680D4981619A4201D105B0FA
:10574000F0BDFCF73DFD00BF000B002000ED00E0C8
:10575000F0ED00E00003FA05001000E080A0012059
:1057600000040020D0570108915600086056010837
:1057700000B5054B83B01B680193044672B6FFF772
:10578000D7FA024BDC62FEE7000B002080A001206C
:105790002DE9F047DFF890A0224DDAF8003082B012
:1057A000019300F055F9AB6993F8232012B1013A47
:1057B00083F823205A6ADFF8748001325A6200F0BD
:1057C00047F9AB6AEA6901334245AB6220D093687E
:1057D000013B9360EC69A668D6B94FF020092368B5
:1057E000E768E660C3F804802368EB6100F0C0F866
:1057F00001F0E6F886F311882069B84789F311882B
:1058000001F0C6F800F094F8EC69A368002BE6D02C
:10581000019ADAF800309A4202D102B0BDE8F0876E
:10582000FCF7CEFC80A00120000B00209CA00120F2
:1058300010B5094C094A236882B001935168536836
:105840005B1A9842FBD8019A23689A4201D102B0B0
:1058500010BDFCF7B5FC00BF000B0020001000E0FD
:1058600000B50E4A0E4B116B186883B0019009B950
:10587000526B4AB1019A1B689A420CD1094803B095
:105880005DF804EBFFF774BF019A1B689A4202D1DE
:1058900003B05DF804FBFCF793FC00BF80A001207F
:1058A000000B0020705601080000000000000000FE
:1058B00030B50B4C0B4D236B2A6883B001920BB9AA
:1058C000636B13B10848FFF753FF019A2B6801215E
:1058D0009A42616301D103B030BDFCF771FC00BF97
:1058E00080A00120000B0020A0560108000000004D
:1058F00030B50C4C0C4D236B2A6883B0019253B920
:10590000636B002B07DD019A2B6800219A426163CB
:1059100005D103B030BD0548FFF72AFFF3E7FCF7D8
:105920004FFC00BF80A00120000B0020C0560108E2
:1059300030B50B4C0B4D236B2A6883B0002B0192C2
:1059400001DD636B13B10848FFF712FF019A2B6862
:1059500001219A42616301D103B030BDFCF730FCF4
:1059600080A00120000B0020B056010800000000BC
:1059700030B50C4C0C4D236B2A6883B0002B019280
:105980000ADD636B002B07DD019A2B6800219A4228
:10599000616305D103B030BD0448FFF7E9FEF3E7CA
:1059A000FCF70EFC80A00120000B0020D05601085F
:1059B00030B50F4D83B02B680193202383F31188FA
:1059C0000C4C236B002B01DB626B1AB10A48FFF70A
:1059D000CFFE236B01332363002383F31188019AE5
:1059E0002B689A4201D103B030BDFCF7E9FB00BF40
:1059F000000B002080A0012080560108000000005C
:105A000030B50F4D83B02B680193202383F31188A9
:105A10000C4C236B002B01DD626B1AB10A48FFF7B7
:105A2000A7FE236B013B2363002383F31188019AB4
:105A30002B689A4201D103B030BDFCF7C1FB00BF17
:105A4000000B002080A001209056010800000000FB
:105A500000B50F4A0F4B116B186883B000290190F5
:105A600009DB526B002A06DD019A1B689A420CD1B1
:105A700003B05DF804FB019A1B689A4205D1064801
:105A800003B05DF804EBFFF773BEFCF799FB00BFB2
:105A900080A00120000B0020E0560108000000005B
:105AA00000B50E4A0E4B116B186883B0019049B9CE
:105AB000526B002A06DD019A1B689A420CD103B092
:105AC0005DF804FB019A1B689A4205D1054803B0B2
:105AD0005DF804EBFFF74CBEFCF772FB80A00120E1
