:020000040800F2
:1000000000040020C1010008015500080155000846
:1000100081460008015500080155000801550008F7
:1000200001550008015500080155000881760008B7
:1000300001550008015500080155000831CD0008A0
:100040000155000891A6000821A8000871A8000821
:100050000155000801550008D1A3000821A400089B
:1000600071A40008C1A4000811A50008A196000809
:10007000F19600084197000891970008E197000861
:10008000319800088198000811A1000811AA000801
:1000900081AA000831AB0008E1AB000861A50008A7
:1000A0000155000801550008E1C700080155000886
:1000B000F1C8000831C9000871C90008E1B700089B
:1000C00021B9000801550008015500080155000834
:1000D000015500080155000801550008F1CD000840
:1000E000F1A50008E1A6000831A7000801550008A5
:1000F000015500080155000801550008D198000875
:100100000155000871AD0008B1C90008015500088B
:100110000155000801550008A1C700080155000855
:100120002199000871990008C1990008119A0008E6
:10013000619A00080155000881A7000801550008D0
:1001400001550008015500080155000891BF00083D
:10015000B19A0008019B0008519B00080155000856
:100160000155000801550008015500080155000817
:10017000D1A7000801550008F13900080155000811
:1001800001550008015500080155000801550008F7
:1001900001550008015500080155000801550008E7
:1001A00001550008015500080155000801550008D7
:1001B00001550008015500080155000801550008C7
:1001C00072B62E4880F3098840F20000CCF200009D
:1001D0004EF63471CEF20001086040F20000C0F229
:1001E000F0004EF68851CEF2000108604FF000009A
:1001F000E1EE100A4EF63C71CEF2000108600620D6
:1002000080F31488BFF36F8F0CF0E2FE4FF055308F
:100210001B491C4A91423CBF41F8040BFAE71A49BA
:10022000164A91423CBF41F8040BFAE71749184AB5
:10023000184B9A423EBF51F8040B42F8040BF8E702
:1002400000201549154A91423CBF41F8040BFAE7DA
:1002500005F03EF9124C134DAC4203DA54F8041B7E
:100260008847F9E701F05CFF0F4C104DAC4203DA10
:1002700054F8041B8847F9E705F03AB90008002054
:10028000000000200004002000040020186F010876
:1002900000080020A4150020A8150020B8AB0120FC
:1002A000C0010008C0010008C0010008C00100082A
:1002B0002DE9F04F2DED108AC1F80CD0D0F80CD0FC
:1002C000BDEC108ABDE8F08F05F05AFA06F060FA2E
:1002D000002383F311882846A047002006F028F861
:1002E00006F03EFA05F02CFA05F04AFE05F048FA51
:1002F00006F04EFA00DFFEE70000000000000000FC
:100300002DE9F843544B80461A68544882422DED3B
:10031000028B1BD052490B68DA0405D40A6842F4F8
:1003200080530B60012000E000204E4A4E491160CE
:1003300013684A4A934208D147490B6030B1484894
:10034000036823F48052026000E0FEE798ED018A22
:10035000B5EE408A0021F1EE10FAC8F81C10C8F87A
:100360001810C8F81410C8F81010C8F82810C8F8E9
:100370002410C8F8201029D0DFED3C7A28EE270A97
:1003800010EE100A01F038F8044618EE100A0D4677
:1003900001F032F80646B8F800000F4601F01AF8EE
:1003A0002BA3D3E9002301F0ADF902460B463046FA
:1003B000394600F0C3FE02460B462046294601F0AE
:1003C000A1F901F0B5FAA8F82C0001E0A8F82C106A
:1003D00098ED028AB5EE408AF1EE10FA26D0B8F810
:1003E00000904FEA092000F0F5FF044618EE100ACD
:1003F0000D4601F001F816A3D3E9002301F058F8E7
:10040000064648460F4600F0E5FF02460B463046DA
:10041000394600F093FE02460B462046294601F07D
:1004200071F901F085FAA8F82E0002E00020A8F882
:100430002E00B8F800204FF47A73B2FBF3F1A8F85D
:100440003010BDEC028BBDE8F88300BFAFF3008035
:100450001F85EB51B81E1940A8150020CDB5E8B591
:100460003038024000300240C2A507F4000080434B
:100470002DE9F04F9BB083461992A94A1891A948DB
:100480001168814200D0FEE79E6AB3F80CC09F69F4
:100490009A8DD98D039603261C6A5D6A059706928C
:1004A00006FB0CF74FEA8C0206264FEA4C000B9134
:1004B0000E97052106FB0CF70F9207220294049574
:1004C0000D90119701FB0CF04FEACC0602FB0CF1EA
:1004D00000271D695C69D3F81CA010901291179633
:1004E0000197188EDDF80490814580F20A818E48CC
:1004F0009BF800601BF80C7010F80690C25DA144D8
:100500008419511994F8008194F8002201EB4808ED
:10051000CDF81C80DDF834801BF80860855DC719B4
:10052000A9180E9A97F800411BF8022097F800725C
:1005300001EB4405815C0895CC1981190F9E91F857
:10054000008191F8007204EB48081BF80640CDF8D2
:1005500024808218055D92F8006192F80022E91962
:1005600001EB460505EB0807DDF8408015971BF801
:1005700008700A950419C15D94F8005194F800427E
:10058000DDF81C808E1806EB4501119D089A1BF8BA
:1005900005508E18C719425D1696161997F8002156
:1005A00006EB42029044CDF85080129C97F80072FE
:1005B0001BF804604519845DE41995F8007195F8FD
:1005C0000052801904EB47044FF01C0804EB0907A4
:1005D00090F80061139708FB09AADDF81C800C94C1
:1005E0000AEB0209152705EB460490F8005207FBB9
:1005F0000890099FDDF820900A2606FB070A0F27BE
:1006000007FB09A04FF00308DDF8289008FB010064
:100610004FF0060A0AFB0900009015984FF03009C8
:1006200009FB00FADDF858902E2000FB09A0824655
:100630000598824413984FF0240909FB00AA1498E6
:100640004FF02A0909FB00AA0898DDF8249008FB5E
:1006500000F8062000FB0988DDF81C9008EB090073
:1006600007FB01010A9F0C98DDF8009006FB0718B4
:100670001C2606FB008115270B9807FB021205922A
:10068000A9F5003868B1029E049FCDF8108006EBF2
:100690000801CE1B46434FF4807296FBF2F00290A5
:1006A0008046069961B1039E08FB01F8C1F5807789
:1006B00006FB07894FF4807299FBF2F003908046A5
:1006C000199901FB08F7002F02DD0837381103E004
:1006D000083F102697FBF6F047F6BC72019E1349BF
:1006E000189FDDF85C809042A8BF1046DA897243FB
:1006F0008842A8BF0146013627F81210C34401966C
:10070000EFE61D615C61029D059C1D629C61039D7D
:10071000049CC3F81CA05C629D621BB0BDE8F08F16
:10072000A8150020CDB5E8B5000800204480FFFFE3
:100730002DE9F04FA1B0C74C1F92C74A1E91116816
:10074000A14200D0FEE79F6A9A69998DDC8D0497DB
:100750009F89069207910F940322052106241D6AA2
:100760005E6A03957A4379437C43129214911594FF
:10077000072209210A24794305964FEA47084FEAE0
:1007800087097A434FEAC70A7C431E695D69D3F83B
:100790001CB01891CDF84480CDF84C901692CDF84D
:1007A0005CA01D94002102911A8E0299914280F260
:1007B0005981AA4A047812F80490A944C55D111918
:1007C00012F8058091F8004191F800A2464406EB2A
:1007D0004406119C0896045D5519165D95F800C1F4
:1007E00095F8005206EB0A0808EB4C0ADDF8488041
:1007F000CDF824A010F80810DDF84C80565C1419D0
:1008000006EB050A10F8085094F800C1565D94F8FC
:10081000004251180AEB4C0C361991F800A1149CB7
:1008200091F80012CDF828C006EB4A08065DCDF815
:100830002C80945DDDF85480551904EB010A95F87D
:10084000004195F800520AEB44010C9110F8081091
:100850009619545C641996F8005104EB45040D9404
:10086000169D96F80062DDF824A0DDF85C80A444B3
:10087000445DCDF86CC0155D5118AD1991F800615B
:1008800091F8001205EB460505EB0A060E9510F8E7
:1008900008501C961419565DDDF860A0711894F884
:1008A000006194F8004201EB460C08990CEB01063C
:1008B0001A9610F80A605519915D9219091995F860
:1008C000004192F8006195F8005201EB44012D249B
:1008D00001EB090804FB09BB10910899CDF864806D
:1008E0000BEB0C09DDF8288005EB460592F8006259
:1008F000242202FB019A152404FB08A9DDF824A098
:100900000C994FF01C0B0BFB0A994FF00A08DDF80D
:100910002CA008FB01994FF00F0B0E990BFB0A99C5
:100920004FF00308DDF834A008FB01994FF0060BE7
:100930000BFB0A99CDF80490DDF82CA00C994FF030
:100940004B0B51440BFB01F91B994FF0490A0AFB71
:10095000019B0699DDF868900BEB010A4FF03F0B05
:100960001C990BFB09AA4FF0450BDDF864900BFBBB
:1009700001AA4FF0370B0BFB09ABDDF824A00A9955
:1009800008FB0AF84FF00609DDF820A009FB0188F2
:100990000C99D0444FF00F09DDF82CA009FB018819
:1009A0000A21DDF8389001FB0A884FF01C0A0D99E6
:1009B0000AFB098804FB018A109C0F994FF02D094E
:1009C00009FB04A8DDF804A002FB0C820692AAF53C
:1009D0007A3971B1039C0599CDF8149004EB0902A2
:1009E000541A0F9A4FF48071544394FBF1F403941A
:1009F000A146079961B1049CC1F5807209FB01FC15
:100A000004FB02C94FF4807199FBF1F20492914604
:100A10001F9C04FB09F1002902DD10314C1103E099
:100A20001039202291FBF2F447F6BC718C42A8BF2A
:100A30000C46DA890299DDF874804A4308498C42F1
:100A4000A8BF21461E9C24F81210029A4044511C53
:100A5000A9E600BFCDB5E8B5A81500200008002024
:100A60004480FFFF05981E615D61039E069D049C06
:100A700058629D61C3F81CB01E629C62104621B092
:100A8000BDE8F08F2DE9F04F95B0994C1392994A3B
:100A900012911168A14200D0FEE75E6A1D6A9F6A4A
:100AA0009A69998DB3F82E800C964FF00009D3F80F
:100AB00010C05E69D3F81CB00195029709920A91A3
:100AC000CDF83480CDF80C908B4904780D190C5D6D
:100AD00095F8007295F8008106EB070A067ACDF8C2
:100AE0002CA08F198E5D97F8002202EB4805AC44CC
:100AF000057C97F80081CDF810C04A194D5D92F839
:100B0000009292F8002109EB040A0AEB480C90F8D5
:100B100018A090F82090CDF814C001EB0A0494F8C6
:100B2000007294F80041BF1907EB420801EB09027B
:100B3000CDF8188092F8006292F80021771907EB3F
:100B4000440606EB080C90F8288011F80A70079606
:100B500001EB0805CDF840C095F8004295F800512A
:100B6000E619059F06EB4204E619119690F83060ED
:100B700008948C1911F8097094F80022D219049F76
:100B800002EB4502BD180F9590F8385011F8089007
:100B900094F80041DDF82C808E5D4F1997F800A283
:100BA00097F800710AEB090C0CEB4404DDF818A06F
:100BB00011F805C000941C2505FB082944440A21AE
:100BC000DDF8148001FB0A9906EB4706DDF820A04A
:100BD0000F2707FB0899032101FB0A99DDF81CA0E8
:100BE0004FF0060808FB0A99DDF810A0152101FB5B
:100BF0000A99CB44DDF84490CDF82CB04FF02E0A82
:100C00000AFB09FADDF840904FF0300B0BFB09AA04
:100C10004FF0240B0BFB04A90F9C4FF02A0A0AFB90
:100C2000049B099CDDF81890DDF810A0A344059CF6
:100C300008FB09A8DDF820A04FF0030909FB048890
:100C4000079C07FB0A890A2707FB0498DDF8009038
:100C5000DDF82CA00C9F05FB098501FB02520199D0
:100C60000992AAF500328C180D99DDF82880E51B51
:100C70004D434FF4807195FBF1F40194019F44467C
:100C80007C43029FC8EB010507FB054595FBF1F18D
:100C90000291139C6143002902DD0831091103E030
:100CA0000839102791FBF7F147F6BC75134C129FDA
:100CB0000C92A942A8BF2946039DA142B8BF214674
:100CC00079530C354030C02D03957FF4FDAE099863
:100CD000019C029D9861C3F810C05E61C3F81CB00E
:100CE0001C625A629D62102015B0BDE8F08F00BFF3
:100CF000CDB5E8B5A8150020000800204480FFFF0E
:100D00002DE9F04FA1B084461F92BE4A1E91BE4805
:100D10001168814200D0FEE79E6A9F6905969E8910
:100D2000D98D01967000079703277E431190019893
:100D30009A8D0F9112960521019E08924843B200A8
:100D40001490019E01980199139206277E43072271
:100D5000C700514315961797019E019F1C6A5D6A53
:100D6000169109220A2156434F434FF0000804947C
:100D700006955C691D69D3F81CB018961D97CDF8CF
:100D80000C80188EDDF80C90814580F25A819F49C5
:100D90009CF80000DDF804900F181CF8096097F823
:100DA00000A297F80021085CA2448C198E5D94F88B
:100DB000008294F80041454405EB4207119D0997D4
:100DC0001CF805504A194D5D92F8007292F80081A6
:100DD0003F18129807EB44091CF80040CDF8289002
:100DE00008190C5D90F8007290F80001BF1907EB2C
:100DF0004809DDF84C80CDF82C901CF8089001EBE8
:100E00000902CDF8089092F8006292F80021771953
:100E1000149E1CF80690159E07EB400801EB090094
:100E2000CDF8308090F8005290F800012F1907EBB0
:100E300042081CF80670029DCDF83480CA194E5D38
:100E400092F80042A41904EB40050295DDF82C80CD
:100E5000169E92F80021CF5DA844CDF86C801CF856
:100E6000068011F80950DDF8609001EB080011F8D8
:100E7000088090F8004290F8000166190A9D06EB80
:100E80004204179A0E9466191C961CF802608C197D
:100E90008E5D94F8002294F80041D519099F05EB66
:100EA0004002D5191A951CF809504F194D5D97F855
:100EB000000297F80071404400EB44002D2100EB44
:100EC0000A0401FB0ABB1090099819940BEB020A63
:100ED00006EB470424210B9F01FB00A94FF01508E6
:100EE000DDF828A00D9808FB07964FF01C0B0BFBB4
:100EF0000A69DDF830800A2606FB009A0F27DDF824
:100F0000389007FB08AB4FF0030808FB09BADDF87F
:100F100008B0062000FB0BA9CDF80090DDF834A046
:100F2000DDF830B04FF04B090AEB0B0009FB00FA7B
:100F30001B984FF0490B0BFB00A9079809EB000A1F
:100F4000DDF868901C984FF03F0B0BFB09AA4FF09F
:100F5000450BDDF864900BFB00AA4FF0370B0BFB41
:100F600009ABDDF828A00B9808FB0AF84FF006093A
:100F7000DDF824A009FB00880D9808EB0A0907FB9F
:100F800000980C9FDDF83890029806FB07864FF01A
:100F90001C0A0AFB0968152707FB008610980F9F9B
:100FA0004FF02D0909FB006A01FB02A2DDF800A049
:100FB0000792AAF57A386FB10499069ECDF8188089
:100FC00001EB0800811B79434FF4807291FBF2F72B
:100FD0000497B846089860B1059908FB00F8C0F579
:100FE000807601FB06894FF4807299FBF2F7059732
:100FF000B8461F9800FB08F6002E09DD1036771161
:101000000AE000BFA8150020CDB5E8B50008002013
:10101000103E202196FBF1F7039ED8891049DDF898
:10102000748047F6BC729742A8BF17468F42A8BF8C
:10103000394670431E9F721C27F81010C444039257
:101040009FE65C61079C049A9C61059E069C1D615D
:10105000C3F81CB01A625C629E6221B0BDE8F08FDA
:101060004480FFFFAFF3008000000000000000009C
:101070004B1C012B98BF70472DE9F003911C9B0876
:10108000B1F80480B1F802900A8831F802CC8044AB
:10109000814402448444D9F80070D8F8006015688F
:1010A000DCF80040C9F80060C8F80070CCF80050C7
:1010B0001460D9F80470D8F804605568DCF804406E
:1010C000C9F80460C8F80470CCF8045054600831C2
:1010D000013BD5D1BDE8F00370474B1C012B98BFF5
:1010E00070472DE9F003911C9B08B1F80480B1F81A
:1010F00002900A8831F802CC00EB580800EB59093D
:1011000000EB520200EB5C0CD9F80070D8F80060DC
:101110001568DCF80040C9F80060C8F80070CCF829
:10112000005014600831013BDFD1BDE8F003704787
:1011300081F0004102E000BF83F0004330B54FEA88
:1011400041044FEA430594EA050F08BF90EA020FF5
:101150001FBF54EA000C55EA020C7FEA645C7FEA88
:10116000655C00F0E2804FEA5454D4EB5555B8BFAB
:101170006D420CDD2C4480EA020281EA030382EA1C
:10118000000083EA010180EA020281EA0303362DAE
:1011900088BF30BD11F0004F4FEA01314FF4801C81
:1011A0004CEA113102D0404261EB410113F0004F93
:1011B0004FEA03334CEA133302D0524263EB43034A
:1011C00094EA050F00F0A780A4F10104D5F1200EE8
:1011D0000DDB02FA0EFC22FA05F2801841F1000143
:1011E00003FA0EF2801843FA05F359410EE0A5F117
:1011F00020050EF1200E012A03FA0EFC28BF4CF048
:10120000020C43FA05F3C01851EBE37101F00045FD
:1012100007D54FF0000EDCF1000C7EEB00006EEB0A
:101220000101B1F5801F1BD3B1F5001F0CD3490894
:101230005FEA30004FEA3C0C04F101044FEA4452EB
:1012400012F5800F80F09A80BCF1004F08BF5FEA72
:10125000500C50F1000041EB045141EA050130BD52
:101260005FEA4C0C404141EB010111F4801FA4F1F5
:101270000104E9D191F0000F04BF01460020B1FA4A
:1012800081F308BF2033A3F10B03B3F120020CDA82
:101290000C3208DD02F1140CC2F10C0201FA0CF060
:1012A00021FA02F10CE002F11402D8BFC2F1200CC5
:1012B00001FA02F120FA0CFCDCBF41EA0C0190407B
:1012C000E41AA2BF01EB0451294330BD6FEA0404C4
:1012D0001F3C1CDA0C340EDC04F11404C4F12002AF
:1012E00020FA04F001FA02F340EA030021FA04F3C1
:1012F00045EA030130BDC4F10C04C4F1200220FA18
:1013000002F001FA04F340EA0300294630BD21FA55
:1013100004F0294630BD94F0000F83F4801306BF1B
:1013200081F480110134013D4EE77FEA645C18BF0F
:101330007FEA655C29D094EA050F08BF90EA020FA6
:1013400005D054EA000C04BF1946104630BD91EA9E
:10135000030F1EBF0021002030BD5FEA545C05D1A1
:101360004000494128BF41F0004130BD14F58004E0
:101370003CBF01F5801130BD01F0004545F0FE4154
:1013800041F470014FF0000030BD7FEA645C1ABF89
:10139000194610467FEA655C1CBF0B46024650EAC0
:1013A000013406BF52EA033591EA030F41F40021EC
:1013B00030BD00BF90F0000F04BF0021704730B572
:1013C0004FF4806404F132044FF000054FF0000147
:1013D00050E700BF90F0000F04BF0021704730B508
:1013E0004FF4806404F1320410F0004548BF4042DD
:1013F0004FF000013EE700BF42004FEAE2014FEA32
:1014000031014FEA02701FBF12F07F4393F07F4F0C
:1014100081F06051704732F07F4208BF704793F00F
:101420007F4F04BF41F40021704730B54FF4607422
:1014300001F0004521F000411CE700BF50EA010225
:1014400008BF704730B54FF000050AE050EA0102CE
:1014500008BF704730B511F0004502D5404261EB3E
:1014600041014FF4806404F132045FEA915C3FF47F
:10147000D8AE4FF003025FEADC0C18BF03325FEA1C
:10148000DC0C18BF033202EBDC02C2F1200300FACD
:1014900003FC20FA02F001FA03FE40EA0E0021FAF2
:1014A00002F11444BDE600BF00000000000000008F
:1014B00070B54FF0FF0C4CF4E06C1CEA11541DBFEA
:1014C0001CEA135594EA0C0F95EA0C0F00F0DEF8B5
:1014D0002C4481EA030621EA4C5123EA4C5350EA9A
:1014E000013518BF52EA033541F4801143F48013EB
:1014F00038D0A0FB02CE4FF00005E1FB02E506F07C
:101500000042E0FB03E54FF00006E1FB03569CF0D0
:10151000000F18BF4EF0010EA4F1FF04B6F5007FD6
:1015200064F5407404D25FEA4E0E6D4146EB060648
:1015300042EAC62141EA55514FEAC52040EA5E50D1
:101540004FEACE2EB4F1FD0C88BFBCF5E06F1ED87B
:10155000BEF1004F08BF5FEA500E50F1000041EBB2
:10156000045170BD06F0004646EA010140EA02005F
:1015700081EA0301B4EB5C04C2BFD4EB0C0541EA81
:10158000045170BD41F480114FF0000E013C00F396
:10159000AB8014F1360FDEBF002001F0004170BDBA
:1015A000C4F10004203C35DA0C341BDC04F11404D3
:1015B000C4F1200500FA05F320FA04F001FA05F25F
:1015C00040EA020001F0004221F0004110EBD3702C
:1015D00021FA04F642EB06015EEA430E08BF20EA58
:1015E000D37070BDC4F10C04C4F1200500FA04F3FB
:1015F00020FA05F001FA04F240EA020001F000418D
:1016000010EBD37041F100015EEA430E08BF20EAFF
:10161000D37070BDC4F1200500FA05F24EEA020E47
:1016200020FA04F301FA05F243EA020321FA04F076
:1016300001F0004121FA04F220EA020000EBD3702D
:101640005EEA430E08BF20EAD37070BD94F0000F2D
:101650000FD101F00046400041EB010111F4801F61
:1016600008BF013CF7D041EA060195F0000F18BF12
:10167000704703F00046520043EB030313F4801F4E
:1016800008BF013DF7D043EA0603704794EA0C0F08
:101690000CEA135518BF95EA0C0F0CD050EA41061E
:1016A00018BF52EA4306D1D181EA030101F000419B
:1016B0004FF0000070BD50EA410606BF10461946C3
:1016C00052EA430619D094EA0C0F02D150EA0136CF
:1016D00013D195EA0C0F05D152EA03361CBF104610
:1016E00019460AD181EA030101F0004141F0FE41AF
:1016F00041F470014FF0000070BD41F0FE4141F433
:10170000780170BD70B54FF0FF0C4CF4E06C1CEA32
:1017100011541DBF1CEA135594EA0C0F95EA0C0FE7
:1017200000F0A7F8A4EB050481EA030E52EA0335A2
:101730004FEA013100F088804FEA03334FF08055C3
:1017400045EA131343EA12634FEA022245EA1115F0
:1017500045EA10654FEA00260EF000419D4208BFA1
:10176000964244F1FD0404F5407402D25B084FEA4E
:101770003202B61A65EB03055B084FEA32024FF4FA
:1017800080104FF4002CB6EB020E75EB030E22BF57
:10179000B61A754640EA0C005B084FEA3202B6EB17
:1017A000020E75EB030E22BFB61A754640EA5C00C6
:1017B0005B084FEA3202B6EB020E75EB030E22BF56
:1017C000B61A754640EA9C005B084FEA3202B6EB57
:1017D000020E75EB030E22BFB61A754640EADC0016
:1017E00055EA060E18D04FEA051545EA16754FEA78
:1017F00006164FEAC30343EA52734FEAC2025FEA96
:101800001C1CC0D111F4801F0BD141EA00014FF024
:1018100000004FF0004CB6E711F4801F04BF0143F5
:101820000020B4F1FD0C88BFBCF5E06F3FF6AFAE11
:10183000B5EB030C04BFB6EB020C5FEA500C50F1A1
:10184000000041EB045170BD0EF0004E4EEA113124
:1018500014EB5C04C2BFD4EB0C0541EA045170BD2B
:1018600041F480114FF0000E013C90E645EA060E6F
:101870008DE60CEA135594EA0C0F08BF95EA0C0F9D
:101880003FF43BAF94EA0C0F0AD150EA01347FF4E5
:1018900034AF95EA0C0F7FF425AF104619462CE7BC
:1018A00095EA0C0F06D152EA03353FF4FDAE10461F
:1018B000194622E750EA410618BF52EA43067FF470
:1018C000C5AE50EA41047FF40DAF52EA43057FF400
:1018D000EBAE12E700000000000000000000000076
:1018E0004FEA410212F5001215D211D56FF4787348
:1018F000B3EB625212D94FEAC12343F0004343EAEB
:10190000505311F0004F23FA02F018BF40427047C5
:101910004FF00000704750EA013005D111F000404F
:1019200008BF6FF0004070474FF00000704700BFE5
:101930004A0011D212F5001211D20DD56FF478734E
:10194000B3EB62520ED44FEAC12343F0004343EAA3
:10195000505323FA02F070474FF00000704750EAEE
:10196000013002D14FF0FF3070474FF00000704758
:101970004FEA4102B2F1E04324BFB3F5001CDCF1B1
:10198000FE5C0DD901F0004C4FEAC0024CEA5070E9
:10199000B2F1004F40EB830008BF20F00100704718
:1019A00011F0804F21D113F13872BCBF01F000401B
:1019B000704741F480114FEA5252C2F11802C2F14D
:1019C000200C10FA0CF320FA02F018BF40F00100CE
:1019D0004FEAC1234FEAD32303FA0CFC40EA0C0080
:1019E00023FA02F34FEA4303CCE77FEA625307D1BD
:1019F00050EA01331EBF4FF0FE4040F440007047F4
:101A000001F0004040F0FE4040F40000704700BF8D
:101A100053B94AB9002908BF00281CBF4FF0FF3155
:101A20004FF0FF3000F074B9ADF1080C6DE904CE51
:101A300000F006F8DDF804E0DDE9022304B07047A9
:101A40002DE9F047089E04468846002B4BD18A4278
:101A5000154667D9B2FA82F24AB1C2F1200701FAFB
:101A600002F320FA07F7954047EA030894404FEA4B
:101A7000154E230CB8FBFEF71FFA85FC0EFB1788EA
:101A800043EA084307FB0CF1994209D9EB1807F127
:101A9000FF3080F01B81994240F21881023F2B44B5
:101AA0005B1AA4B2B3FBFEF00EFB103344EA03440E
:101AB00000FB0CFCA44509D92C1900F1FF3380F080
:101AC0000781A44540F2048102382C4440EA0740D3
:101AD000A4EB0C0400271EB1D4400023C6E9004348
:101AE0003946BDE8F0878B4209D9002E00F0EB8023
:101AF0000027C6E9000138463946BDE8F087B3FA49
:101B000083F7002F47D18B4202D3824200F2FA8042
:101B1000841A61EB030301209846002EE0D0C6E949
:101B20000048DDE702B9FFDEB2FA82F2002A40F097
:101B30008F80491B4FEA154E1FFA85F80127B1FB2C
:101B4000FEFC230C0EFB1C1143EA014308FB0CF1C5
:101B5000994207D9EB180CF1FF3002D2994200F2FA
:101B6000CD808446591AA3B2B1FBFEF00EFB1014CF
:101B700043EA044408FB00F8A04507D92C1900F1FA
:101B8000FF3302D2A04500F2B6801846A4EB080449
:101B900040EA0C409FE7C7F1200CBB4022FA0CFE44
:101BA0004EEA030E01FA07F420FA0CF521FA0CF3C1
:101BB0004FEA1E482543B3FBF8F92C0C08FB1933F8
:101BC0001FFA8EFA44EA034309FB0AF49C4202FA24
:101BD00007F200FA07F10BD91EEB030309F1FF30FE
:101BE00080F087809C4240F28480A9F1020973440E
:101BF0001B1BADB2B3FBF8F008FB103345EA0344FE
:101C000000FB0AFAA24508D91EEB040400F1FF33D9
:101C10006BD2A24569D90238744440EA0940A0FB5E
:101C20000289A4EB0A044C45C2464B4654D351D01A
:101C3000002E69D0B1EB0A0564EB030404FA0CFC36
:101C4000FD40FC404CEA0505C6E90054002747E783
:101C5000C2F1200320FA03F7954001FA02F021FABD
:101C600003F34FEA154E3843010CB3FBFEF71FFA9E
:101C700085F80EFB173341EA034107FB08F38B425B
:101C800004FA02F407D9691807F1FF3C2FD28B42FE
:101C90002DD9023F2944CB1A81B2B3FBFEF00EFBD3
:101CA000103341EA034100FB08F38B4207D969185E
:101CB00000F1FF3C17D28B4215D902382944C91ACA
:101CC00040EA07473BE73746304609E70746E7E67D
:101CD0001846FBE64145ABD2B8EB020A69EB0E02AF
:101CE00001381346A4E76046E9E7184695E76746DA
:101CF000D1E781467CE702382C4447E7ACF1020C7F
:101D00002B442FE7384608E73746E9E60000000095
:101D1000704700BF0000000000000000000000004D
:101D2000844641EA000313F003036DD1403A41D3E6
:101D300051F8043B40F8043B51F8043B40F8043BA5
:101D400051F8043B40F8043B51F8043B40F8043B95
:101D500051F8043B40F8043B51F8043B40F8043B85
:101D600051F8043B40F8043B51F8043B40F8043B75
:101D700051F8043B40F8043B51F8043B40F8043B65
:101D800051F8043B40F8043B51F8043B40F8043B55
:101D900051F8043B40F8043B51F8043B40F8043B45
:101DA00051F8043B40F8043B51F8043B40F8043B35
:101DB000403ABDD2303211D351F8043B40F8043BD5
:101DC00051F8043B40F8043B51F8043B40F8043B15
:101DD00051F8043B40F8043B103AEDD20C3205D3E5
:101DE00051F8043B40F8043B043AF9D2043208D0DD
:101DF000D2071CBF11F8013B00F8013B01D30B884F
:101E000003806046704700BF082A13D38B078DD02C
:101E100010F003038AD0C3F10403D21ADB071CBFFE
:101E200011F8013B00F8013B80D331F8023B20F868
:101E3000023B7BE7043AD9D3013A11F8013B00F8A1
:101E4000013BF9D20B7803704B7843708B78837029
:101E50006046704700000000000000000000000025
:101E600090F800F06DE9024520F007016FF0000CDA
:101E700010F0070491F820F040F049804FF0000482
:101E80006FF00700D1E9002391F840F000F108005D
:101E900082FA4CF2A4FA8CF283FA4CF3A2FA8CF395
:101EA0004BBBD1E9022382FA4CF200F10800A4FAFC
:101EB0008CF283FA4CF3A2FA8CF3E3B9D1E9042350
:101EC00082FA4CF200F10800A4FA8CF283FA4CF387
:101ED000A2FA8CF37BB9D1E9062301F1200182FA41
:101EE0004CF200F10800A4FA8CF283FA4CF3A2FA47
:101EF0008CF3002BC6D0002A04BF04301A4612BA55
:101F0000B2FA82F2FDE8024500EBD2007047D1E957
:101F1000002304F00305C4F100004FEAC50514F0E6
:101F2000040F91F840F00CFA05F562EA05021CBFB7
:101F300063EA050362464FF00004A9E700000000D1
:101F400001F0FF01102A2BDB10F0070F08D010F86A
:101F5000013B013A8B422DD010F0070F42B3F6D16E
:101F6000F0B441EA012141EA014122F007047FF087
:101F700000070023F0E80256083C85EA010586EADE
:101F8000010685FA47F5A3FA87F586FA47F6A5FA1A
:101F900087F68EB9EED1F0BC01F0FF0102F0070226
:101FA00032B110F8013B013A83EA010313B1F8D1D1
:101FB0000020704701387047002D06BF35460338B2
:101FC000073815F0010F07D1013015F4807F02BFEB
:101FD000013015F4C03F0130F0BC0138704700BF3C
:101FE0004FF0FF3C06E000BF4FF0010C02E000BFE5
:101FF0004FF0010C4DF804CD4FEA410C7FEA6C5CC8
:102000004FEA430C18BF7FEA6C5C1BD001B050EA6A
:10201000410C0CBF52EA430C91EA030F02BF90EA55
:10202000020F0020704710F1000F91EA030F58BF14
:10203000994208BF90422CBFD8176FEAE37040F076
:10204000010070474FEA410C7FEA6C5C02D150EA14
:10205000013C07D14FEA430C7FEA6C5CD6D152EACF
:10206000033CD3D05DF8040B704700BF8446104694
:1020700062468C461946634600E000BF01B5FFF793
:10208000B7FF002848BF10F1000F01BD4DF808ED63
:10209000FFF7F4FF0CBF012000205DF808FB00BF34
:1020A0004DF808EDFFF7EAFF34BF012000205DF88E
:1020B00008FB00BF4DF808EDFFF7E0FF94BF0120DB
:1020C00000205DF808FB00BF4DF808EDFFF7CEFFDC
:1020D00094BF012000205DF808FB00BF4DF808ED1B
:1020E000FFF7C4FF34BF012000205DF808FB00BFEC
:1020F0004FEA410C7FEA6C5C02D150EA013C0AD104
:102100004FEA430C7FEA6C5C02D152EA033C02D1F5
:102110004FF0000070474FF00100704700000000D2
:1021200000B5114B83B01B68019305F009FB03F068
:10213000FFF902F04DFA0D4A0D490E4803F018F967
:1021400002F06EFF03F044F802F07AFD02F0B8FFEF
:10215000094801F0EDFD00F08BFC00F011FF01F0EB
:102160008FFA00F0ADFFFAE7000B0020040B00200F
:102170000C0B0020AC150020D1330008000000003B
:1021800000B5084B83B01A680192019A1B689A4205
:1021900005D1054803B05DF804EB03F031BAFFF751
:1021A000EFFF00BF000B0020C02D01080000000061
:1021B000F0B52DED048B764C764D236883B00193FA
:1021C00001F016FAB0EE408A0AF05AFFF0EE408AAB
:1021D000B0EE480A0AF09CFF2B78B0EE409A002B34
:1021E00057D16D4B1B7863B96C496D4A0B801380D6
:1021F000019A23689A4240F0C88003B0BDEC048B7A
:10220000F0BD202383F31188664E04F0A9FA03F091
:1022100097FAB76A03F0B4FA04F0BAFA3368B34233
:1022200007D0B2699B6892689A4202D25E4803F076
:10223000E7F9002383F311885C4A2B70176000F0E4
:102240008FFC0028D4D05A4AB2F9003007EE903AF9
:10225000BFEE007AF8EEE77A37EE687A77EE877AA3
:10226000FDEEE77A17EE903A1BB213F1960FC0F22B
:10227000868003EB430107EE901AF8EEE77A1380AD
:102280009FED4C6ADFED4C6AE7EE067AF1EE688A64
:1022900044E0202383F31188424D04F061FA03F0F7
:1022A0004FFAAE6A03F06CFA04F072FA2B68AB4294
:1022B00004D0AA699B6892689A4257D3002383F39B
:1022C00011883A49344A0E60137000F049FC002826
:1022D0008ED0374AB2F9003007EE903AB7EE007A66
:1022E000F8EEE77A37EE687A77EE877AFDEEE77AEE
:1022F00017EE903A1BB283EAE371A1EBE3719629E2
:1023000038DC03EB430107EE901AF8EEE77A13800E
:102310009FED286ADFED286AE7EE067A1F4820491C
:10232000B0EE677AA8EEA67AD8EEA67ABDEEC77AA6
:10233000FDEEE77A17EE103A1AB217EE903AB5EEC4
:10234000C09AF1EE10FA1BB2C7BF02800B80038067
:102350000A80019A23689A4217D1B0EE480A03B066
:10236000BDEC048BBDE8F04000F02ABC0E4803F041
:1023700047F9A3E79623DFED117A1380C8E74FF6FC
:102380006A73DFED0F7A13807AE7FFF7F9FE00BF7B
:10239000000B0020B9150020B8150020D215002030
:1023A000D4150020E89C0120F02D0108CC15002058
:1023B000C615002000001644000061440000E143FF
:1023C0000000E1C300000000000000000000000069
:1023D00030B5344D83B02B68019302F0E9FB04461D
:1023E00002F0CEFB304A1378043B032B14D8DFE80D
:1023F00003F035231902A0F24460122847D96FF484
:102400004F631C44122C42D92849294B40F2013019
:1024100040F2751208801A80019A2B689A423FD1C7
:1024200003B030BDA4F6FD04122C03D9A0F6FD00C4
:1024300012282ED807231AE0A4F24464122C24D9BF
:102440006FF44F61084412281FD91849184B40F205
:10245000751040F2013208801A80DDE7A4F6FD0411
:10246000122C03D9A0F6FD00122812D80523002053
:10247000137002F0CDFB019A2B689A4210D1002014
:1024800003B0BDE8304002F0ABBB0623EFE7042306
:10249000EDE70649064A40F201330B801380BBE7A3
:1024A000FFF76EFE000B0020210B0020D21500204C
:1024B000D415002000000000000000000000000013
:1024C0000029B8BF49420028B8BF404200B5091AE8
:1024D00007EE901A9FED2A7A2A4BF8EEE77A83B03E
:1024E000F4EEC77A1A680192F1EE10FA0BDC9FED58
:1024F000267AF4EEC77AF1EE10FA2DD5F0EE477A8F
:102500009FED227A03E0F0EE477A9FED217A214A8F
:10251000DFED216A92ED006A77EE867AF4EEE67AD4
:10252000F1EE10FA24DCDFED1D6AF4EEE67AF1EE4E
:1025300010FA16D5C2ED006AFBEE027A77EE277A22
:10254000019A1B68FDEEE77A9A4217EE901A08B2DC
:1025500013D103B05DF804FBB1EE047A27EE877A5D
:10256000D5E7DFED0F6AC2ED007A67EEA67AE5E700
:10257000C2ED006AF3EE027AE0E7FFF701FE00BF6A
:1025800000A00C46000B002000A00CC600C82FC7FE
:1025900000C82F47C815002000003443000034C392
:1025A000CDCCCC3D00000000000000000000000089
:1025B0002DE9F043784E794D34782F6883B0019738
:1025C000032C56D8DFE804F08F745D02744C754F0D
:1025D000D4F8008002F0ECFA01464046FFF770FFA5
:1025E000D7F80090804602F0CBFA01464846FFF744
:1025F00067FF6D490B78002B40F08B801FFA88F342
:10260000C3F51072DFF8B4E1DFF8B4C10132AEF8FF
:10261000002000F24122ACF8002018339BB2302B8E
:1026200003D9183080B2302823D8604A00231370B1
:102630000B70337023603B60202383F311885C4C64
:1026400004F08EF803F07CF8A66A03F099F804F021
:102650009FF82368A34207D0A2699B6892689A42B8
:1026600002D2544802F0CCFF002383F31188524B6E
:102670001E60019A2B689A4240F08C8003B0BDE83E
:10268000F083002863D1002961D1474B1B78002BD0
:1026900072D0022000F024FA444B04461870002C3B
:1026A00076D04649464A40F241230B801380E0E74A
:1026B00030B33B4C3B4F236813B93B68002B62D0CF
:1026C000394B18783D4A3E4B00284ED040F241210C
:1026D00011804FF6BF521A8002F06AFA206002F0B1
:1026E0004FFA3860C5E718BB11BB0ABB03BB019AA0
:1026F0002B689A424ED103B0BDE8F043FFF758BDB6
:102700000029D6D1002AD4D1002BD2D10223337094
:10271000AFE72A4ADFF8A8C01FFA88F303F2412E78
:10272000A2F800E0C0F510720132ACF8002074E7A6
:1027300001230020337002F06BFA019A2B689A4251
:1027400028D1002003B0BDE8F04302F049BA0123CC
:102750000020337002F05CFA002002F041FA1049C8
:10276000104A00230B60136083E74FF6BF511180BE
:1027700040F241221A80AFE7052000F0B1F90B4B7F
:10278000044618708BE700F093F9074B187099E72F
:102790000323CEE7FFF7F4FC200B0020000B002002
:1027A000BC150020C0150020D0150020C415002045
:1027B000E89C0120F02D0108CC150020D215002046
:1027C000D415002000000000000000000000000000
:1027D00010B52DED028B2C4C82B02368019300F0D4
:1027E0001FFFB0EE408A00F033FFF2EE047AB4EE41
:1027F000E78AF1EE10FA1DDDF3EE0B7AB4EEE78A0C
:10280000F1EE10FA16D5DFED217AB4EEE70AF1EE1B
:1028100010FA0FDD1E4B1A78C2B901992268012007
:10282000914218702DD102B0BDEC028BBDE8104072
:1028300000F0AEB9F3EE0B7AB4EEE78AF1EE10FADF
:102840000CDC1349134A00230B701370019A2368A0
:102850009A4216D102B0BDEC028B10BDDFED0E7AAC
:10286000B4EEE78AF1EE10FAEBD5DFED087AB4EEBC
:10287000E70AF1EE10FAE4DD064B1A78002AE5D1FA
:10288000CBE7FFF77DFC00BF000B002000401C469B
:10289000B9150020B8150020000014420000000007
:1028A00070B5214B214C1B78226882B0019213B97C
:1028B0001F4B1B7843B11F4B00201870019A2368EF
:1028C0009A422ED102B070BD1B4B1B78002BF2D167
:1028D000202383F31188194E03F042FF02F030FFEA
:1028E000B56A02F04DFF03F053FF3368B34204D0E2
:1028F000B2699B6892689A420FD3002383F31188D0
:102900000F4B1B6805F2E735ED1A41F287339D4204
:10291000D1D9084B01201870D0E70A4802F070FEA8
:10292000EBE7FFF72DFC00BF200B0020000B002081
:10293000B9150020C5150020B8150020E89C01201D
:10294000CC150020F02D0108000000000000000060
:102950002DE9F04F294C2A4BA2692A491B68DFF860
:10296000B090916183B02027019300260DE0B9F962
:10297000000002F0EDF8244BB3F9000002F0D0F8AB
:1029800005F10A01284603F053FC87F3118803F090
:10299000E7FE02F0D5FEA56A02F0F2FE03F0F8FEB3
:1029A0002368A34207D0A2699B6892689A4202D228
:1029B000164802F025FE86F31188FFF709FF00F0A4
:1029C000A7F8002000F08CF88346072000F088F874
:1029D0008246012000F084F88046062000F080F84E
:1029E0004246034651465846FFF7E2FDFFF758FFBF
:1029F0000028BCD0FFF7ECFCB9E700BFE89C012041
:102A0000000B0020E02D0108D4150020F02D010856
:102A1000D2150020000000000000000000000000AF
:102A200000B50E4A0E4B10781A6883B0019250B967
:102A30000C4A127872B90C4A12785AB90B4A1278B9
:102A4000002A18BF0920019A1B689A4204D103B0DA
:102A50005DF804FB0820F6E7FFF792FB200B00204F
:102A6000000B0020B9150020B8150020C515002066
:102A700010B50A4C0A4B22680A4884B04FF4FC7126
:102A8000039200220092402203F03AFB039A23684B
:102A90009A4201D104B010BDFFF772FB000B002079
:102AA00051290008D8150020000000000000000097
:102AB00000B5084B08491A68887983B00192019AD9
:102AC0001B689A4204D180F0010003B05DF804FB5A
:102AD000FFF756FB000B0020D0170020000000007D
:102AE00000B5074B07491A68085C83B00192019A48
:102AF0001B689A4202D103B05DF804FBFFF740FB6C
:102B0000000B0020D0170020000000000000000093
:102B10002DE9F041DFF840800E4FD8F8003082B048
:102B20000024019326460125204602F0E9FA962862
:102B300034BF33462B463B550134082CF4D1019A5F
:102B4000D8F800309A4202D102B0BDE8F081FFF718
:102B500017FB00BFD0170020000B00200000000072
:102B600000B5074B07491A68087883B00192019AAB
:102B70001B689A4202D103B05DF804FBFFF700FB2B
:102B8000000B0020D817002000000000000000000B
:102B900000B5084B08491A6883B001200192019AD8
:102BA0001B6808709A4202D103B05DF804FBFFF77E
:102BB000E7FA00BF000B0020DB1700200000000038
:102BC00010B52DED028B5B4C82B023680193B0EE03
:102BD000408A01F06DFCDFED587AB4EEE78AF1EE41
:102BE00010FA74D4DFED557AB4EEE78AF1EE10FAFC
:102BF0006DDCDFED537AB4EEE78AF1EE10FA06DD14
:102C0000DFED507AB4EEE78AF1EE10FA6BD4DFED27
:102C10004A7AB4EEE78AF1EE10FA06DDDFED4A7A81
:102C2000B4EEE78AF1EE10FA64D4DFED487AB4EE40
:102C3000E78AF1EE10FA06DDDFED457AB4EEE78AB9
:102C4000F1EE10FA5BD4DFED407AB4EEE78AF1EEF4
:102C500010FA06DDDFED3F7AB4EEE78AF1EE10FA06
:102C600054D4DFED3D7AB4EEE78AF1EE10FA06DDDA
:102C7000DFED3A7AB4EEE78AF1EE10FA4BD4DFEDED
:102C8000357AB4EEE78AF1EE10FA06DDDFED2B7A45
:102C9000B4EEE78AF1EE10FA44D4DFED317AB4EE07
:102CA000E78AF1EE10FA06DDDFED2E7AB4EEE78A60
:102CB000F1EE10FA10D4019A23689A4237D101201C
:102CC00002B0BDEC028BBDE8104001F0C9BB012190
:102CD000002001F015FB8CE700231A461846FF215F
:102CE00001F066FBE7E700231A46FF21032001F00D
:102CF0005FFB8CE70121032001F002FB95E7002335
:102D00001A46FF21022001F053FB9CE7012102201B
:102D100001F0F6FAA5E700231A46FF21012001F091
:102D200047FBACE70121084601F0EAFAB5E7FFF7F7
:102D300027FA00BF000B0020DB0F493FE0EDAF405A
:102D4000DB0FC93EE4CB963FE4CB1640D253FB3FAA
:102D5000E0ED2F40D2537B40D6316240E73A8A40C3
:102D6000E25CA340DD7EBC400000000000000000EB
:102D700070B54F4D82B02B680193FFF751FE0446AA
:102D8000092808D8DFE800F02B45607B0707070714
:102D9000051001F08DFB474E019A2B6834709A4262
:102DA00040F0848002B070BD424E3378092B01D0D0
:102DB00001F07EFBFF220221002001F011FBFF2227
:102DC0000221012001F00CFB02210846FF2201F044
:102DD00007FBFF220221032001F002FBDCE7354E56
:102DE00033780BB101F064FBFF220121002001F0D8
:102DF000F7FA01210846FF2201F0F2FAFF22012131
:102E0000022001F0EDFAFF220121032001F0E8FA8F
:102E1000C2E7284E3378012B01D001F049FB002195
:102E20000846FF2201F0DCFAFF220021012001F018
:102E3000D7FAFF220021022001F0D2FAFF2200215E
:102E4000032001F0CDFAA7E71A4E3378022B01D008
:102E500001F02EFB80220121002001F0C1FA0121A6
:102E60000846802201F0BCFA80220121022001F0F4
:102E7000B7FA80220121032001F0B2FACFE70D4E0C
:102E80003378032B01D001F013FBFF220121002036
:102E900001F0A6FA01210846FF2201F0A1FAFF2263
:102EA0000121022001F09CFAFF22E3E7FFF768F915
:102EB000000B0020DA1700200000000000000000D6
:102EC0002DE9F04F274C284BA26928491B68284F51
:102ED000DFF8A0A0DFF8A080DFF8A0B0916183B098
:102EE0004FF020090193002609E0002001F0B8FA14
:102EF000FFF73EFF05F5FA71284603F099F989F3CB
:102F0000118803F02DFC02F01BFCA56A02F038FCCE
:102F100003F03EFC2368A34207D0A2699B68926835
:102F20009A4202D2584602F06BFB86F311883B7836
:102F3000002BDAD098F800308AF8006001330220C4
:102F400088F8003001F06CFA98F80030032BCCD1EF
:102F5000002001F065FA01233E7088F800608AF8CD
:102F60000030C2E7E89C0120000B0020002E010881
:102F7000DB170020D8170020D9170020102E0108D9
:102F800010B50A4C0A4B22680A4884B04FF4DC7131
:102F9000039200220092022203F0B2F8039A2368FF
:102FA0009A4201D104B010BDFFF7EAF8000B0020EF
:102FB000C12E0008E0170020000000000000000003
:102FC00000B5384B83B0B5EEC00A1A680192F1EE35
:102FD00010FA16DDF5EEC00AF1EE10FA0CDDDFEDA9
:102FE000327A324A77EEE07AB6EE007A77EE807A7D
:102FF00067EE877AC2ED007AF5EEC00AF1EE10FABC
:103000002AD4B5EEC00AF1EE10FA0BD4B5EEC00A20
:10301000F1EE10FA0BD4019A1B689A423FD103B02B
:103020005DF804FBF5EEC00AF1EE10FA35D4F5EECA
:10303000C00AF1EE10FAEEDD9FED1B7ADFED1C7A8F
:103040001A4A30EE070AB6EE007A70EE200AE0EE79
:10305000877AC2ED007ADEE7DFED137A134A37EEA6
:10306000C07AF6EE006A37EE607AB5EEC00AE7EE97
:10307000267AF1EE10FAC2ED007AC7D5DFED0A7AB2
:103080009FED0C7A70EEA77AF6EE006A77EEC07AC2
:10309000A7EEA67A82ED007AC9E7044AEEE7FFF7C9
:1030A0006FF800BF000B0020DB0FC93F9C19002008
:1030B000E4CB9640DB0F4940000000000000000018
:1030C0002DE9F0472DED028BAA4E9FEDAB7A3368C8
:1030D000AA4CAB48AB49AC4A82B04FF0FF350193E4
:1030E000F0EE475AB0EE476AF0EE476AA846A946A6
:1030F0002F460A23F4EC017AF4EEE67AF1EE10FAA8
:10310000C8BFF0EE676AF2EC017AF4EEC67AC8BF87
:103110001FB2F1EE10FAC8BFB0EE676AF1EC017AA7
:10312000F4EEC77AC8BF0FFA83F9F1EE10FAC8BF00
:10313000B0EE677AF0EC017AF4EEE57AC8BF1DB222
:10314000F1EE10FAC8BF0FFA83F803F10103C8BF0C
:10315000F0EE675A262BCDD14F451BD08B4B93ED0C
:10316000008AA84575D08A4B8A4CD3ED000AAD0081
:10317000019A3368884925449A422868086040F0DB
:10318000F780B0EE480A02B0BDEC028BBDE8F04714
:10319000FFF716BF0A2FE1DD804BDFED777A03EBF7
:1031A000870393ED007AB4EEE77AF1EE10FAD5DDFD
:1031B0007B4BFC0004344FEAC70A1A195344D3ED81
:1031C000000A92ED000A0AF053F8764B1C4453446F
:1031D000B0EE408AD3ED000A94ED000A0AF048F8F8
:1031E000DFED717A38EE400AB4EEE70AF1EE10FA3C
:1031F000B4DDDFED6E7AB4EEE70AF1EE10FAADD58C
:103200006B4BDFED6C7A93ED006ADFED6B6A9FED3F
:103210006B7A60EE277AE6EE267AF7EE006A27EE02
:10322000877AC3ED007A07EE907AF8EEE77A87EEB8
:10323000270AB4EEE60AF1EE10FA40F38F80B0EE02
:10324000660A09F0B5FF514BB0EE408A83ED000AE3
:1032500087E7B8F10A0F13DD4E4CDFED477A4FEAEE
:103260008805631993ED007AB4EEE77AF1EE10FA6F
:1032700017DC474BD3ED000A4F457FF479AF08E0E8
:10328000434B444CD3ED000A4F454FEA88057FF489
:103290006FAF07EE909A4A4BF8EEE77AC3ED007AEB
:1032A00066E74FEAC80A474B0AF1040A4FEAC80822
:1032B00003EB0A024344D3ED000A92ED000A09F041
:1032C000D7FF414B9A444344F0EE408AD3ED000AC5
:1032D0009AED000A09F0CCFFDFED337A38EEC00A30
:1032E000B4EEE70AF1EE10FAC3DDDFED307AB4EEAA
:1032F000E70AF1EE10FABCD5344BDFED2E7A93EDF0
:10330000006ADFED2D6A9FED2D7A60EE277AE6EEFA
:10331000267AF7EE006A27EE877AC3ED007A07EE89
:10332000909AF8EEE77A87EE270AB4EEE60AF1EE15
:1033300010FA09DDB0EE660A09F03AFF144BF0EE20
:10334000400A83ED000A97E7FFEE007AB4EE670AC1
:10335000F1EE10FA48BFB0EE670AEDE7FFEE007A33
:10336000B4EE670AF1EE10FA48BFB0EE670A68E7FC
:10337000FEF706FF000B002000401C46DC49012040
:10338000DC590020DCA90020DCF90020A019002075
:10339000A4190020B4A9002098190020B4F9002035
:1033A000B4D90020B4290120DB0F49C0DB0F49400C
:1033B000A81900209A99993E3333333F0AD76C42BB
:1033C000B0190020B4890020B4390020AC190020C5
:1033D0002DE9F04F714EDFF810823368B8F8002005
:1033E00083B00193002900F0CD80DFF8C491DFF8AD
:1033F000C8E1DFF8D0C16A4FDFED6A7A002504E04A
:103400000435ADB2A94240F2C68030F9153007EE5E
:10341000103A9400B8EEC77A09EB040A00EB4503B2
:103420008AED007AB3F902A007EE10AAB8EEC77AC7
:103430000EEB040A8AED007AB3F904A007EE10AA95
:10344000B8EEC77A0CEB040A8AED007AB3F90630BD
:1034500007EE103A531C9BB2B8EEC77A02329B00BB
:103460003C4492B284ED007A09EB030B0EEB030AA5
:103470000CEB0304B2F5006F3B44CBED007ACAEDD0
:10348000007AC4ED007AC3ED007AB9D3464D2B78AB
:103490000133DBB200242B70A8F8004033B9019A45
:1034A00033689A4275D103B0BDE8F08F4FF40062E3
:1034B0003E493F482C700AF0FBFF4FF400623D4943
:1034C0003D480AF0F5FF4FF400623C4934480AF0E9
:1034D000EFFF4FF400623A493A480AF0E9FF22460A
:1034E0000123324938480BF04BFB22460123314976
:1034F00035480BF045FB22460123304932480BF09A
:103500003FFB012322462E492F480BF039FB4FF495
:1035100080622E4925480BF0B3FB4FF480622C49A2
:1035200024480BF0ADFB4FF480622A4923480BF08E
:10353000A7FB4FF48062284921480BF0A1FB202310
:1035400083F3118803F00CF902F0FAF802F0C8F9DD
:1035500022488368A34219DD02F0EAFC02F010F968
:1035600003F016F91E4B1A689A4207D099699368BE
:103570008A689A4202D21B4802F042F8002383F381
:1035800011888CE7B2F5006F80D288E703F0E0F98C
:10359000E2E7FEF7F5FDA8F8002080E7000B002029
:1035A000B469002000000000B6590120B4290120B0
:1035B000B4090120B4D90020B4B90020B489002096
:1035C000B4390020B4190020302E0108B44901207C
:1035D000B4F90020B4A90020B4590020240B002025
:1035E000E89C0120202E0108B459012000000000B1
:1035F00000B5084B08491A6891ED000A83B00192A2
:10360000019A1B689A4202D103B05DF804FBFEF7F1
:10361000B7FD00BF000B00209C1900200000000037
:1036200000B5084B08491A6891ED000A83B0019271
:10363000019A1B689A4202D103B05DF804FBFEF7C1
:103640009FFD00BF000B0020B0190020000000000B
:1036500000B5084B08491A6891ED000A83B0019241
:10366000019A1B689A4202D103B05DF804FBFEF791
:1036700087FD00BF000B002098190020000000000B
:1036800000B5084B83B01A680192019A1B689A42F0
:1036900005D1054803B05DF804EB03F021B9FEF74E
:1036A0006FFD00BF000B0020240B00200000000075
:1036B00030B54368174D1A68296883B004460191F4
:1036C00012B304220270DA681B6852081146984748
:1036D0002378042B18D0202383F3118803F070F88B
:1036E00002F06EF804F10800002102F069FE02F019
:1036F00087F803F07DF8002383F31188019A2B6883
:103700009A4204D103B030BD02232370E3E7FEF7F1
:1037100037FD00BF000B002000000000000000008B
:1037200070B5194D82B02B68019311F00C0F0C4647
:10373000064622D114F0200109D0019A2B689A4242
:103740001FD1304602B0BDE87040FFF7B1BFE306BD
:103750000DD57268136853B1019C2868844210D15A
:10376000D2683046520802B0BDE870401847019A4E
:103770002B689A4205D102B070BD044801F040FFA9
:10378000D8E7FEF7FDFC00BF000B0020602E01080B
:1037900070B5194D82B02B68019311F00C0F0C46D7
:1037A000064622D114F0200109D0019A2B689A42D2
:1037B0001FD1304602B0BDE87040FFF779BFE30685
:1037C0000DD57268136853B1019C2868844210D1EA
:1037D000D2683046520802B0BDE870401847019ADE
:1037E0002B689A4205D102B070BD044801F008FF71
:1037F000D8E7FEF7C5FC00BF000B0020602E0108D3
:1038000030B50F4D0F4C2A680F4B83B02046019204
:103810004FF6FF721A8000F05BF90C4B01992A6891
:103820000B480C4D2562636203F1240591420A4B5B
:103830002363C4E90A5001D103B030BDFEF7A0FCF8
:10384000000B0020D0590120B85901206837010829
:103850001E010100003C0040460001000000000085
:1038600070B52C4D03782A6882B0012B0446019272
:1038700024D06368E26A5989236B22F4F04223F46E
:10388000F043090544BF42F4205243F42053C4E9F5
:103890000B23236A00221A606268236A52891A6025
:1038A000236A03225A60226A136843F040031360BC
:1038B000019A2B689A422BD102B070BD164EB042CD
:1038C0000AD0D4E9083212680C339360A26A236AE2
:1038D00012680C339360CCE70346104A406A0A2111
:1038E00006F096F980B9B06A0B4B0D4A0A2106F032
:1038F0008FF928B90B4A136C43F400431364E0E7D3
:10390000094801F07DFEF5E7074801F079FEEAE796
:10391000FEF736FC000B0020D0590120913700083B
:103920002137000800380240402E01080000000046
:1039300070B5456A174C2D68266882B00196EB6019
:10394000436A1B685960456AC36A2D6843F4806303
:103950002B60836A1B68DA60836A1B685960826A1D
:10396000036B126843F480631360436A1A68136838
:1039700043F001031360836A1A68136843F001037C
:103980001360019A23689A4201D102B070BDFEF71C
:10399000F7FB00BF000B002000000000000000004B
:1039A00030B5104D81682B680F4A83B001930B68C6
:1039B00023F001030B608168946A03E0936A1B1B88
:1039C000C72B09D8086810F00100F7D1019A2B68BD
:1039D0009A4204D103B030BD4FF0FF30F6E7FEF756
:1039E000CFFB00BF000B0020E89C0120000000007E
:1039F000F0B5284D83B02B68019302F079FE01F0F9
:103A00001FFF254B1E69F20715D55A69234C42F05A
:103A100001025A612778BB1F012B2AD9052263684E
:103A200022701B680BB120469847042F27D0022F25
:103A300025D003232370B30710D5174A174C5369B9
:103A400043F0020353612378032B1DD063689B6806
:103A50000622227013B101211048984701F018FF87
:103A6000019A2B689A4213D103B0BDE8F04003F0ED
:103A700027BE019A2B689A420AD103B0F0BD0223F7
:103A80002370B307EAD5D8E72046FFF789FFDDE7C3
:103A9000FEF776FB000B002000000550BC5901200A
:103AA00000B5074B83B01A680192019A1B689A42CD
:103AB00004D103B05DF804EBFFF7A2BEFEF760FB94
:103AC000000B0020000000000000000000000000CB
:103AD00000B50A4B83B01A68019201220270019965
:103AE0001A6800239142C0E9013305D10C3003B0BC
:103AF0005DF804EB02F06CBFFEF742FB000B002008
:103B000070B51E4D82B02B6801930E46044670B30B
:103B100069B3202383F3118802F022FE01F010FE26
:103B20002378013B012B02D9154801F069FD20469D
:103B30006660FFF795FE0223237001F021FE02F07C
:103B400027FE104B1A689A4204D0996993688A68D4
:103B50009A4208D3002383F31188019A2B689A4272
:103B600009D102B070BD084801F04AFDF2E70448EF
:103B700001F046FDCDE7FEF703FB00BF000B002080
:103B8000802E0108E89C0120702E01080000000032
:103B90002DE9F041214D82B02C6801940E469046EB
:103BA0001F46044600B171BB1D4801F029FD2023CA
:103BB00083F3118802F0D4FD01F0C2FD2378022BBB
:103BC00002D0174801F01CFD03203B464246314617
:103BD00020702046FFF7ACFE01F0D2FD02F0D8FDC8
:103BE000104B1A689A4204D0996993688A689A427D
:103BF0000ED3002383F31188019A2B689A420BD1CC
:103C000002B0BDE8F081002BCED0002ACFD1CBE7A7
:103C1000054801F0F5FCECE7FEF7B2FA000B0020D6
:103C2000902E0108E89C0120702E01080000000081
:103C30002DE9F04F394A3A4B126883B001240192C2
:103C40001C70002963D04FF00008364CC246C346B2
:103C5000C1464746C446434647F6FF7E1DE0AB4596
:103C6000A8BFAB46024432F9026CB2F90450B44228
:103C7000B8BF3446B645A8BFB6464D4545DCA84555
:103C8000A8BFA846B2F90220BA420EDC043392451E
:103C90009BB2A8BF924699420CD95D1C6A0030F9CC
:103CA00015506545DBDDAC46DCE704339BB2994239
:103CB0001746F2D8A4EB0E04ACEB0B0CA7EB0A07EB
:103CC000A9EB0808A4B21FFA8CFCBFB21FFA88F84F
:103CD000154A12491480019C0968144BA2F802C0CD
:103CE0009780B0F8F8C4B0F8FA64A2F80680B0F88B
:103CF000FC54B0F8FE24A3F800C08C425E809D8086
:103D0000DA8008D103B0BDE8F08FA946BAE788464B
:103D10000F468C46DCE7FEF733FA00BF000B0020AD
:103D2000045A01200080FFFF105A0120085A012088
:103D300070B53F4B3F4C1A78236882B0012A01933B
:103D400005D0019A23689A4270D102B070BD3A49F9
:103D50003A4B4D6C45F480354D644E6A002546F46F
:103D600080364E624D621D61DD60196A21F00101ED
:103D70001962996921F003019961996941F0010182
:103D80009961996921F0F0019961196A21F00A019C
:103D90001962996921F00C019961996821F070010B
:103DA0009960996841F050019960996821F48031D7
:103DB00021F007019960996841F00701996019683D
:103DC00021F440711960DA629D625A61196A21F02A
:103DD00010011962996921F440719961996921F082
:103DE000807121F4E0419961996941F4C041996180
:103DF000196A21F0A00119629A639A6942F400627B
:103E00009A611A6A22F480621A621A6A42F01102F6
:103E10001A621A6842F001021A6020B100906846E6
:103E200000F076F98DE7064B0093F8E7FEF7A8F966
:103E300024AA0120000B002000380240004001406D
:103E4000313C0008000000000000000000000000FD
:103E500070B5114C82B0236801930E46154620239D
:103E600083F3118802F0ACFC01F0AAFC0B4B0C4868
:103E7000C3E9006502F06CFD01F0C2FC02F0B8FC81
:103E8000002383F31188019A23689A4201D102B07A
:103E900070BDFEF775F900BF000B0020286F0120F0
:103EA000185A01200000000000000000000000007F
:103EB00070B5114C82B0236801930E46154620233D
:103EC00083F3118802F07CFC01F07AFC0B4B0C4868
:103ED000C3E9006502F03CFD01F092FC02F088FCB1
:103EE000002383F31188019A23689A4201D102B01A
:103EF00070BDFEF745F900BF000B00200C6D0120DE
:103F0000185A01200000000000000000000000001E
:103F10002DE9F04F624B63499A69634B916185B01B
:103F20001B6803935E4B9B6993F821305B0700F19C
:103F3000AD805E4802F0D4FC5C4802F0D1FC584BE6
:103F40009B6993F8212012F0040240F09F80584DA5
:103F500058482B6801680446406805EB830304EB6E
:103F6000810103F50279430001F10808019343D070
:103F7000DFF850B1504BDFF85CA1012018F8125067
:103F800018F8006019F8121019F8004005F0550CE7
:103F9000770806F0550613F80CC09E5D01F0550E2B
:103FA0004CEA061649084FEA540C01F0550104F09A
:103FB00055040CF0550C6D0813F80EE0595C1C5DAF
:103FC00013F80CC00BF8126005F0550507F0550703
:103FD00041EA0C114EEA041E0AF812E05D5D0AF88F
:103FE0000010DF5D0199013245EA071591420BF897
:103FF000005000F10200C1D1304B31493148324DFF
:104000000422FCF735FA314B314932480422FCF7DF
:104010002FFA314B314932480422FCF729FA314B4F
:10402000314932480422FCF723FADFF8D4C028686B
:104030009CF80070224A264900EBC71302F14006A3
:1040400014881C8054885C804C889C80043231F831
:10405000044BDC80964203F10803F1D1092F11D102
:10406000234B00221B688CF800204FF420719847E6
:104070002B68204A204993420B6006BF1F4B2B60E0
:104080002A604FE701378CF800704BE7064B039A24
:104090001B689A4202D105B0BDE8F08FFEF770F8B8
:1040A000E89C0120B02E0108000B0020185A0120C6
:1040B000286F01200C6D0120300B0020E46A0120E4
:1040C000A05F0120E05F0120B00B00204C6B0120BD
:1040D000B46B0120F46B0120186B0120A25F01205A
:1040E000E15F0120806B0120B66B0120F56B0120A0
:1040F000F46C0120E0600120B40B0020E065012099
:10410000E06A012000000000000000000000000044
:104110002DE9F04F494A0168494B116085B00021F3
:104120000E461B684748039302F07AFB4FF4AF61D9
:10413000454B009641224548454DDFF84891454C96
:10414000DFF844A1444F01F0DBFF444B444A1860C0
:10415000136BC5F804A043F480534FF002184FF4DA
:104160007A5B13632846C5E90298A5F800B0FCF70E
:10417000C7F82046C4E901A9C4F80C80A4F800B02F
:10418000FCF7BEF805F13400C5E90EA9C5F840807A
:10419000A5F834B0FCF7B4F8324DC4F8408004F10F
:1041A0003400C4E90EA9A4F834B0FCF7A9F83146EC
:1041B00040F20C4238460BF0FBFBDFF8D0902A4A65
:1041C0006E604FF400634FF080082E812A606B818F
:1041D000264CC5F80C80C7F80894FFF761FC294607
:1041E0002348244DFFF78CFC07F5027307F1080202
:1041F0004FF480711E48FFF7CBFC314620464FF448
:1042000003720BF0D5FB1C4B1C4AC4F8089208340F
:104210001A611946C3E900641948C3E9028503F02D
:10422000BFFD074B039A1B689A4205D1144805B09D
:10423000BDE8F04F03F0FCBDFDF7A2FFF46C0120D8
:10424000000B0020185A0120113F0008285A0120B5
:10425000E46A01204C6B0120286F0120245A0120C0
:1042600000380240186F0120513E00080C6D0120FB
:10427000D0590120B13E0008F86C01202C03080041
:1042800024AA0120000020410000FA45EFBEADDE67
:1042900000B5074B07491A68087083B00192019A6C
:1042A0001B689A4202D103B05DF804FBFDF768FF7A
:1042B000000B00203473012000000000000000000B
:1042C00010B50B4C0B48236882B0019302F068FCD8
:1042D000094802F045FE019A23689A4205D1054833
:1042E00002B0BDE8104002F093BCFDF749FF00BFEB
:1042F000000B0020C00B0020B80B002000000000C5
:1043000070B5294D82B02B6801930E46032841D821
:10431000DFE800F01A120A02012922D9234A536960
:1043200083F40063536116E0012926D91F4A5369BB
:1043300083F4806353610EE0012918D91B4A536945
:1043400083F04003536106E001291CD9174A5369E1
:1043500083F020035361019A2B689A4218D102B06E
:1043600070BD124B4FF4006229B15A83F3E70F4B33
:1043700040220029F9D11A83EDE70C4B4FF48062FB
:104380000029F8D0F1E7094B20220029F3D0ECE70F
:10439000FDF7F6FE0024E0B231460134FFF7B0FF2E
:1043A000042CF8D1D7E700BF000B0020000C02401E
:1043B00070B5094D094E2C6882B000EB40000194A5
:1043C000315434180198296862708842A37001D171
:1043D00002B070BDFDF7D4FE000B00203873012041
:1043E00030B50B4B0B4C00EB4000184483B0435CE2
:1043F0002568019533B94254019A23689A4204D141
:1044000003B030BD00234354F6E7FDF7B9FE00BF0B
:1044100038730120000B00200000000000000000A5
:1044200000B50D4B83B01A68019201280BD90B49D6
:104430004A6982F004024A61019A1B689A4209D1D2
:1044400003B05DF804FB054A042108B95183F3E782
:104450001183F1E7FDF794FE000B002000040240F9
:1044600000B50E4B83B01A68019201280BD90C4994
:104470004A6982F480424A61019A1B689A420AD1D1
:1044800003B05DF804FB064A4FF4804108B951833C
:10449000F2E71183F0E7FDF773FE00BF000B002089
:1044A000000C0240000000000000000000000000BE
:1044B000F0B50D4F0D4C3B6883B0002501932E469F
:1044C000E8B200210135FFF71BFF042D267066704E
:1044D000A67004F10304F3D1019A3B689A4201D11A
:1044E00003B0F0BDFDF74CFE000B00203873012037
:1044F00030B5094B094D044607CB83B02B680193B7
:10450000206001982B6861609842A26001D103B0DD
:1045100030BDFDF735FE00BF38730120000B0020D1
:104520002DE9F043254E83B034680194042A9DF8A8
:104530002890144605460F46984639D9B9F1000F20
:1045400014BF00224FF08052640002EB0863013C6C
:104550001C4405F00F0527F01F07202383F3118863
:1045600002F0FEF83D4301F0EBF8154B1035DD602D
:104570001C6101F005F902F00BF9124B1A689A421E
:1045800004D0996993688A689A420DD3002383F313
:104590001188BFF36F8FBFF34F8F019A33689A4230
:1045A0000AD103B0BDE8F083074801F029F8EDE730
:1045B000064801F025F8C1E7FDF7E2FD000B0020F9
:1045C00090ED00E0E89C0120402F0108202F010819
:1045D00030B5224D224C2B68224A85B00393636884
:1045E00043F004036360536A43F48033536220232F
:1045F00083F3118802F0B4F801F0A2F817221A4BE5
:10460000E260236101F0BCF802F0C2F8174B1A68AF
:104610009A4204D0996993688A689A4218D3002014
:1046200080F31188BFF36F8FBFF34F8F03231D22D9
:1046300000904FF00051FFF773FF094A536843F0B1
:1046400001035360039A2B689A4205D105B030BD2F
:10465000074800F0D5FFE2E7FDF792FD000B0020D0
:1046600090ED00E000ED00E009000010E89C012062
:10467000402F0108000000000000000000000000C2
:1046800070B51A4D1A4C1B4E0FCD0FC49EB02A6840
:10469000336822801D93EFF30981682203A8FDF798
:1046A0003FFB154B9D6AAA0714D4EB0708D5124BA4
:1046B00008995B6B114A00910D4880210BF0C8F9F5
:1046C0001D9A33689A420FD109481EB0BDE8704068
:1046D00000F096BF099A5B6B0092A4F11000084AA3
:1046E00080210BF0B5F9E0E7FDF74AFD042F010842
:1046F00044730120000B002000ED00E0E02E0108D3
:10470000C02E0108000000000000000000000000B2
:1047100000B51F4B0278196883B00191E2B11D4AC0
:104720004FF4005111834278EAB11A4A4FF4805194
:1047300011838278F2B1174A4FF480411183C27815
:10474000FAB9144A4FF400415183019A1B689A4206
:104750001CD103B05DF804FB0E4A4FF400515183A5
:104760004278002AE1D10B4A4FF48051518382787C
:10477000002AE0D1074A4FF480415183C278002AD1
:10478000DFD0044A4FF400411183DEE7FDF7F8FC67
:10479000000B00200010024000000000000000009C
:1047A00000B51F4B0278196883B00191E2B11D4A30
:1047B0004FF4007111834278EAB11A4A4FF48071C4
:1047C00011838278F2B1174A4FF400611183C278E5
:1047D000FAB9144A4FF480615183019A1B689A42D6
:1047E0001CD103B05DF804FB0E4A4FF400715183F5
:1047F0004278002AE1D10B4A4FF4807151838278CC
:10480000002AE0D1074A4FF400615183C278002AA0
:10481000DFD0044A4FF480611183DEE7FDF7B0FC7E
:10482000000B00200010024000000000000000000B
:1048300030B50C4A0C4B116883B04FF40055019110
:104840004FF480544FF400414FF480405D835C830B
:104850005883598301991368994201D103B030BD3F
:10486000FDF78EFC000B002000100240000000004D
:1048700030B50C4A0C4B116883B04FF400750191B0
:104880004FF480744FF480614FF400605D835C836B
:104890005883598301991368994201D103B030BDFF
:1048A000FDF76EFC000B002000100240000000002D
:1048B00010B50B4C0B48236882B09922002101935C
:1048C00003F0C6FB019A23689A4206D105480021ED
:1048D00002B0BDE8104003F0A3BCFDF751FC00BFDF
:1048E000000B0020B8AA012000000000000000001A
:1048F00010B50B4C0B48236882B09922002101931C
:1049000003F0A6FB019A23689A4206D105480021CC
:1049100002B0BDE8104003F083BCFDF731FC00BFDE
:10492000000B0020D4AA01200000000000000000BD
:1049300000B5084B83B01A680192019A1B689A422D
:1049400006D10548002103B05DF804EB03F0D0BBAD
:10495000FDF716FC000B0020B8AA012000000000A3
:1049600000B5084B83B01A680192019A1B689A42FD
:1049700006D10548002103B05DF804EB03F0B8BB95
:10498000FDF7FEFB000B0020D4AA01200000000070
:1049900070B51A4C1A4E2378326882B0022B0192FD
:1049A000A26811D165781748013505F0070500EBBD
:1049B0008500904763686570013B6360019A3368C6
:1049C0009A4219D102B070BD012B08D00199336809
:1049D000994211D10C4802B0BDE87040104765788B
:1049E0000848013D05F0070500EB85009047636826
:1049F000657001336360E1E7FDF7C2FBDC73012002
:104A0000000B0020E02F0108D02F0108000000005B
:104A100070B51A4C1A4E2378326882B0012B01927D
:104A2000A26811D165781748013505F0070500EB3C
:104A3000850090476368657001336360019A33684D
:104A40009A4219D102B070BD022B08D00199336887
:104A5000994211D10C4802B0BDE87040104765780A
:104A60000848013D05F0070500EB850090476368A5
:104A70006570013B6360E1E7FDF782FBC4730120D1
:104A8000000B0020E02F0108D02F010800000000DB
:104A900030B51F4D85B02B68039340F24C439942CB
:104AA000044626DCA3F69803994211DB4B00002B49
:104AB00029D10370036998474FF47A71039A2B68E0
:104AC0009A421ED1606905B0BDE8304003F078BA63
:104AD000104B02225B42227040F2892293420E491F
:104AE00091FBF3F189B207DC0191E36898470199E2
:104AF000E4E7012303702D2101912369984701996F
:104B0000DCE7FDF73DFBE4DD01220270E4E700BFD6
:104B1000000B002068F7FFFFA086010000000000E6
:104B200000B5084B83B01A680192019A1B689A423B
:104B300006D10146044803B05DF804EBFFF7A8BFB7
:104B4000FDF71EFB000B0020C473012000000000D5
:104B500000B5084B83B01A680192019A1B689A420B
:104B600006D10146044803B05DF804EBFFF790BF9F
:104B7000FDF706FB000B0020DC73012000000000A5
:104B800000B5094B094A1968506883B000EBD07032
:104B90000191019A1B689A4203D1401003B05DF85D
:104BA00004FBFDF7EDFA00BF000B0020C4730120E9
:104BB00000B5094B094A1968506883B000EBD07002
:104BC0000191019A1B689A4203D1401003B05DF82D
:104BD00004FBFDF7D5FA00BF000B0020DC730120B9
:104BE00000B5084B08491A6883B040000192019A49
:104BF0001B6848609A4202D103B05DF804FBFDF7E0
:104C0000BFFA00BF000B0020C473012000000000A9
:104C100000B5084B08491A6883B040000192019A18
:104C20001B6848609A4202D103B05DF804FBFDF7AF
:104C3000A7FA00BF000B0020DC7301200000000079
:104C400070B51D4E1D4A1E4B30681E491E4C9160AA
:104C500082B00021D46001901C4C1D481D4D9D6008
:104C6000117051705160106154611B481B4A1C4DFA
:104C7000D8601C48197059705960C3E90425FFF7C2
:104C800047FD1848FFF78CFD1749204603F048F907
:104C9000204603F07DFA2846144903F041F9019AB1
:104CA00033689A4205D1284602B0BDE8704003F04F
:104CB0006FBAFDF765FA00BF000B0020DC7301201E
:104CC000C473012011470008B1480008B8AA0120A8
:104CD00031490008A1470008F1480008614900086F
:104CE000D4AA0120D02F0108902F0108502F0108CD
:104CF0000A490B4B09680B4A82B0202001914021E0
:104D000058834FF4806559834FF400644FF480401A
:104D100004215D835C8358835183FEE7000B0020F0
:104D2000000C0240000402400000000000000000EF
:104D300010B51E491E4A0B78106882B0013B0190E5
:104D4000072B0AD8DFE803F012151C1F26290F04D1
:104D500018480824012304830B70019913689942B1
:104D600021D102B010BD08230B70F6E702230B70AF
:104D7000F3E711484FF48054032304830B70ECE7EE
:104D800004230B70E9E70C484FF4804405230483A7
:104D90000B70E2E706230B70DFE7064804240723C5
:104DA00004830B70D9E7FDF7EBF900BF70770120A2
:104DB000000B002000100240000402400000000030
:104DC00030B50C4B0C4918680C4A83B04FF4804541
:104DD00001904FF480504883042408204D8354836D
:104DE0005083019A1B689A4201D103B030BDFDF790
:104DF000C7F900BF000B0020000402400010024071
:104E00002DE9F04F4E4B4F4A9B694F499961A5B030
:104E100007AE05AD80231768009331462A4600246B
:104E20000CA84A4B2397CDE90766CDE90555CDE996
:104E300009440B9400F0B4FA0CA9454A4548434C88
:104E4000454DDFF83481DFF834B1DFF834A100F0EC
:104E5000CFFA04F11C0604F16007A146504601F0A8
:104E60003FFD2A682B69226063602A6A2B6BA2606F
:104E7000E3606A686B69226163616A6A6B6BA26155
:104E8000E361AA68AB6922626362AA6AAB6BA26241
:104E9000E362EA68EB6922636363EA6AEB6B2F49BA
:104EA000A263E36351F8043F0A6AB142A3EB020331
:104EB0000B64F7D1802249460CA800F0C9FA98F893
:104EC0000030002BCAD09BF8003033B3012BC5D182
:104ED000DFF8B0C02248614650F8042B51F8043F77
:104EE000B84213440B60F7D11E4A13780133DBB28A
:104EF000642B1370B2D11C495CF8043F1B4A82FB3F
:104F00000302DB17C3EB621341F8043B184B9C45CB
:104F1000F2D1002388F80030A0E719462022124879
:104F200003930AF045FD039B1248194620220AF01C
:104F30003FFD0C49039B0B7001228BF800208DE78D
:104F4000E89C0120000B002000300108787401204B
:104F500040300108AC150020147401207474012045
:104F6000B874012055740120D87401201F85EB51BD
:104F70007474012058740120547401205674012067
:104F8000D40B002054740120000000000000000039
:104F900070B502691E4D52882B6882B006460C46D9
:104FA0001C480193920000210AF002FD33695B88DE
:104FB0005BB1184AA11E002331F8020F42F8040B1E
:104FC0003069408801339842F6D8202383F3118852
:104FD00001F0F6FB00F0F4FB00F082FC0E48836861
:104FE000002B0FDD00F00CFC01F002FC002383F32A
:104FF0001188019A2B68094901209A42087004D14E
:1050000002B070BD01F0A4FCECE7FDF7B9F800BFF9
:10501000000B002014740120D40B002070770120B5
:1050200070B51F4D1F4C2E78236884B0012E03935A
:1050300005D0039A23689A422FD104B070BD002195
:10504000284602F095FC284602F052FD33462846D9
:10505000154A164902F00CFD1549164802F060FF8A
:105060004FF496720021134802F0F2FF002111481C
:1050700003F0D6F80F4803F08BF831464FF48272F4
:105080000C4802F0E5FF0023009340220A4B0B4836
:105090004FF41E7101F034F8CBE7FDF771F800BF53
:1050A00044A40120000B0020F473012010300108FB
:1050B000503001089CAA0120014E0008F87401201C
:1050C00030B50C4D0C4A2B680C4C83B00021019379
:1050D000012311702370142001F06AF82378002B4B
:1050E000F9D1019A2B689A4201D103B030BDFDF786
:1050F00047F800BF000B00205674012054740120B3
:1051000010B50E4A82B013680193072811D80C49D4
:1051100000F1180300F1100451F8233051F8240075
:10512000C01A20EAE07001991368994203D102B0D5
:1051300010BD0020F7E7FDF723F800BF000B0020AB
:105140007874012000000000000000000000000052
:1051500080B5164A164B9269164E17491B68DFF840
:105160006480164D164C916182B0374601932846F3
:10517000FFF7BEF9204603F0FBFD3B462A460C2113
:10518000204603F075FE204603F032FE3078FFF72C
:105190007FF898F80030033B012B4FF0140002D940
:1051A00001F006F8E3E7FFF78BF8E0E7E89C012061
:1051B000000B002074770120A0300108E88C01204A
:1051C00044AA0120BC59012000000000000000009A
:1051D00010B50C4C0C4923680C4884B0039303F0C1
:1051E0007FFD002300934122094B0A484FF4AF6131
:1051F00000F086FF039A23689A4201D104B010BDE3
:10520000FCF7BEFF000B00209030010844AA0120EB
:1052100051510008708701200000000000000000CC
:1052200000B5084B83B01A680192019A1B689A4234
:1052300005D1054803B05DF804EB01F0B1BCFCF703
:105240009FFF00BF000B0020E00B002000000000CB
:1052500000B5084B83B01A680192019A1B689A4204
:1052600005D1054803B05DF804EB01F0D1BCFCF7B3
:1052700087FF00BF000B0020E00B002000000000B3
:1052800070B50D4C82B0236801930D1E06460DDDEE
:10529000284602F08DF918B90C2333604FF0FF3027
:1052A000019A23689A4205D102B070BD034800F00C
:1052B000A7F9EDE7FCF764FF000B0020B030010810
:1052C00000B5064B83B01A680192019A1B689A4296
:1052D00002D103B05DF804FBFCF752FF000B002085
:1052E00000B5074B83B01A680192019A1B689A4275
:1052F00004D103B05DF804EB01F052BCFCF740FFB1
:10530000000B002000000000000000000000000072
:1053100000B5074B83B01A680192019A1B689A4244
:1053200004D103B05DF804EB01F072BCFCF728FF78
:10533000000B002000000000000000000000000042
:1053400000B5074B83B01A680192019A1B689A4214
:1053500004D103B05DF804EB01F082BDFCF710FF4F
:10536000000B002000000000000000000000000012
:1053700010B5084B82B01C68019400240460019CA5
:105380001B689C42C0E9011201D102B010BDFCF7BC
:10539000F7FE00BF000B002000000000000000002E
:1053A0002DE9F0430E4D83B02C68019404469946D4
:1053B0000F46164610304C220021DDF828800AF0F6
:1053C000F7FAC4F80090019A2B68E6609A42C4E9A3
:1053D000018702D103B0BDE8F083FCF7D1FE00BF26
:1053E000000B002000000000000000000000000092
:1053F000F0B5144E83B001F11003174632680192E4
:105400000446412218460D4600210AF0D1FA3946D9
:1054100040220AF065FB6068FFF762FF236803B172
:10542000AB652560A068FFF78BFF019A33689A424D
:1054300005D1606803B0BDE8F040FFF769BFFCF735
:105440009FFE00BF000B00200000000000000000D5
:10545000F0B51C4E436883B0054693423068019016
:1054600006D20020019A33689A4229D103B0F0BDD8
:1054700014460F46A868FFF733FF224639462868CE
:10548000FCF74EFC012385F85130E868FFF758FF20
:105490006C6D84B123681868FFF722FF23689D6054
:1054A00023685868FFF74CFF23681868FFF730FF40
:1054B0006468002CEED1A868FFF72AFF0120D1E72D
:1054C000FCF75EFE000B0020000000000000000062
:1054D00000B5064B83B01A680192019A1B689A4284
:1054E00002D103B05DF804FBFCF74AFE000B00207C
:1054F000024B82B01B680193FEE700BF000B002047
:1055000000B5044B04481B6883B0019300F078F8A1
:10551000FEE700BF000B0020C030010800000000C3
:10552000024B82B01B680193FEE700BF000B002016
:10553000F0B5294E294B3268294885B000240392E2
:105540009C60D968274A4FF6FF0529400A43DA6074
:10555000C2682549254D42F08072C2600A6842F057
:1055600001020A6010202022D87783F8222000F060
:10557000DFFA00F045FA01F043F801F0F1FF02F024
:105580005FF801F095F800F0FBF9402105F588601F
:1055900000F01EFD0127164BC36180F82070A86142
:1055A00000F0A6F884F3118862B6AB69114A9A61DB
:1055B0004FF4C4713A46104B009405F59D6000F01D
:1055C0009FFD039A33680D4981619A4201D105B06C
:1055D000F0BDFCF7D5FD00BF000B002000ED00E0A2
:1055E000F0ED00E00003FA05001000E0E89C012067
:1055F000000400204032010821550008E030010875
:1056000000B5054B83B01B680193044672B6FFF7E3
:105610006FFB024BDC62FEE7000B0020E89C0120E0
:105620002DE9F047DFF890A0224DDAF8003082B083
:10563000019300F055F9AB6993F8232012B1013AB8
:1056400083F823205A6ADFF8748001325A6200F02E
:1056500047F9AB6AEA6901334245AB6220D09368EF
:10566000013B9360EC69A668D6B94FF02009236826
:10567000E768E660C3F804802368EB6100F0C0F8D7
:1056800001F0B6F886F311882069B84789F31188CC
:1056900001F096F800F094F8EC69A368002BE6D0CE
:1056A000019ADAF800309A4202D102B0BDE8F087E0
:1056B000FCF766FDE89C0120000B0020049D012002
:1056C00010B5094C094A236882B0019351685368A8
:1056D0005B1A9842FBD8019A23689A4201D102B022
:1056E00010BDFCF74DFD00BF000B0020001000E0D6
:1056F00000B50E4A0E4B116B186883B0019009B9C2
:10570000526B4AB1019A1B689A420CD1094803B006
:105710005DF804EBFFF774BF019A1B689A4202D14F
:1057200003B05DF804FBFCF72BFD00BFE89C0120F3
:10573000000B0020F0300108000000000000000015
:1057400030B50B4C0B4D236B2A6883B001920BB91B
:10575000636B13B10848FFF753FF019A2B680121CF
:105760009A42616301D103B030BDFCF709FD00BF6F
:10577000E89C0120000B00202031010800000000FF
:1057800030B50C4C0C4D236B2A6883B0019253B991
:10579000636B002B07DD019A2B6800219A4261633D
:1057A00005D103B030BD0548FFF72AFFF3E7FCF74A
:1057B000E7FC00BFE89C0120000B002040310108FD
:1057C00030B50B4C0B4D236B2A6883B0002B019234
:1057D00001DD636B13B10848FFF712FF019A2B68D4
:1057E00001219A42616301D103B030BDFCF7C8FCCE
:1057F000E89C0120000B002030310108000000006F
:1058000030B50C4C0C4D236B2A6883B0002B0192F1
:105810000ADD636B002B07DD019A2B6800219A4299
:10582000616305D103B030BD0448FFF7E9FEF3E73B
:10583000FCF7A6FCE89C0120000B00205031010879
:1058400030B50F4D83B02B680193202383F311886B
:105850000C4C236B002B01DB626B1AB10A48FFF77B
:10586000CFFE236B01332363002383F31188019A56
:105870002B689A4201D103B030BDFCF781FC00BF18
:10588000000B0020E89C012000310108000000000E
:1058900030B50F4D83B02B680193202383F311881B
:1058A0000C4C236B002B01DD626B1AB10A48FFF729
:1058B000A7FE236B013B2363002383F31188019A26
:1058C0002B689A4201D103B030BDFCF759FC00BFF0
:1058D000000B0020E89C01201031010800000000AE
:1058E00000B50F4A0F4B116B186883B00029019067
:1058F00009DB526B002A06DD019A1B689A420CD123
:1059000003B05DF804FB019A1B689A4205D1064872
:1059100003B05DF804EBFFF773BEFCF731FC00BF8A
:10592000E89C0120000B002060310108000000000D
:1059300000B50E4A0E4B116B186883B0019049B93F
:10594000526B002A06DD019A1B689A420CD103B003
:105950005DF804FB019A1B689A4205D1054803B023
:105960005DF804EBFFF74CBEFCF70AFCE89C012055
:10597000000B002070310108000000000000000052
:1059800010B5084A084B116882B040240191019972
:10599000126818199142C3E90E4001D102B010BD3E
:1059A000FCF7EEFB000B0020E89C0120000000004B
:1059B00010B51149114B0A6882B00192DA6B9C6AEA
:1059C0001460DA6B9C695460DA6B846A9460DA6BF9
:1059D00090F820001073DA6B03F588601032824271
:1059E00028BF03F14002DA63019A0B689A4201D1A1
:1059F00002B010BDFCF7C4FB000B0020E89C0120A6
:105A000010B50B4A0B4B116882B04FF0FF34019177
:105A100000219962019811685C6203F11C028842BE
:105A2000C3E9072201D102B010BDFCF7A9FB00BFFA
:105A3000000B0020E89C0120000000000000000096
:105A40002DE9F041184E82B00546306801900C46B1
:105A500017469846FFF744FF05B3FFB1F4B1C5E917
:105A600003781248C3699A68944204D91B68A41A3F
:105A70009A68A242FAD32B605A686A6015605D602A
:105A8000AC609968019D3268091B95424FF0FF3464
:105A90009960446206D102B0BDE8F0810448FFF786
:105AA000AFFDDCE7FCF76CFB000B0020E89C01205D
:105AB000803101080000000000000000000000002C
:105AC00030B5164D83B004462B680193FFF708FFED
:105AD000ECB1E368BBB12268A06893680199034404
