:020000040800F2
:1000000000040020C10100083156000831560008E4
:100010008146000831560008315600083156000864
:100020003156000831560008315600083178000872
:10003000315600083156000831560008B1DF00087B
:100040003156000801B1000891B20008E1B2000881
:10005000315600083156000841AE000891AE000844
:10006000E1AE000831AF000881AF000811A100081F
:1000700061A10008B1A1000801A2000851A2000876
:10008000A1A20008F1A2000881AB000881B4000819
:10009000F1B40008A1B5000851B60008D1AF0008BE
:1000A000315600083156000861DA00083156000860
:1000B00071DB0008B1DB0008F1DB000851C2000869
:1000C00091C3000831560008315600083156000827
:1000D00031560008315600083156000871E000081A
:1000E00061B0000851B10008A1B100083156000804
:1000F00031560008315600083156000841A3000867
:1001000031560008E1B7000831DC0008315600081C
:10011000315600083156000821DA0008315600082F
:1001200091A30008E1A3000831A4000881A40008FD
:10013000D1A4000831560008F1B10008315600087A
:1001400031560008315600083156000811D2000817
:1001500021A5000871A50008C1A5000831560008B6
:100160003156000831560008315600083156000853
:1001700041B2000831560008F13900083156000834
:100180003156000831560008315600083156000833
:100190003156000831560008315600083156000823
:1001A0003156000831560008315600083156000813
:1001B0003156000831560008315600083156000803
:1001C00072B62E4880F3098840F20000CCF200009D
:1001D0004EF63471CEF20001086040F20000C0F229
:1001E000F0004EF68851CEF2000108604FF000009A
:1001F000E1EE100A4EF63C71CEF2000108600620D6
:1002000080F31488BFF36F8F0EF07AF84FF05530FB
:100210001B491C4A91423CBF41F8040BFAE71A49BA
:10022000164A91423CBF41F8040BFAE71749184AB5
:10023000184B9A423EBF51F8040B42F8040BF8E702
:1002400000201549154A91423CBF41F8040BFAE7DA
:1002500005F0D6F9124C134DAC4203DA54F8041BE6
:100260008847F9E701F05CFF0F4C104DAC4203DA10
:1002700054F8041B8847F9E705F0D2B900080020BC
:10028000000000200004002000040020D8840108A1
:1002900000080020B4150020B815002040AF012050
:1002A000C0010008C0010008C0010008C00100082A
:1002B0002DE9F04F2DED108AC1F80CD0D0F80CD0FC
:1002C000BDEC108ABDE8F08F05F0F2FA06F0F8FAFE
:1002D000002383F311882846A047002006F0C0F8C9
:1002E00006F0D6FA05F0C4FA05F0E2FE05F0E0FAF1
:1002F00006F0E6FA00DFFEE7000000000000000064
:100300002DE9F843544B80461A68544882422DED3B
:10031000028B1BD052490B68DA0405D40A6842F4F8
:1003200080530B60012000E000204E4A4E491160CE
:1003300013684A4A934208D147490B6030B1484894
:10034000036823F48052026000E0FEE798ED018A22
:10035000B5EE408A0021F1EE10FAC8F81C10C8F87A
:100360001810C8F81410C8F81010C8F82810C8F8E9
:100370002410C8F8201029D0DFED3C7A28EE270A97
:1003800010EE100A01F038F8044618EE100A0D4677
:1003900001F032F80646B8F800000F4601F01AF8EE
:1003A0002BA3D3E9002301F0ADF902460B463046FA
:1003B000394600F0C3FE02460B462046294601F0AE
:1003C000A1F901F0B5FAA8F82C0001E0A8F82C106A
:1003D00098ED028AB5EE408AF1EE10FA26D0B8F810
:1003E00000904FEA092000F0F5FF044618EE100ACD
:1003F0000D4601F001F816A3D3E9002301F058F8E7
:10040000064648460F4600F0E5FF02460B463046DA
:10041000394600F093FE02460B462046294601F07D
:1004200071F901F085FAA8F82E0002E00020A8F882
:100430002E00B8F800204FF47A73B2FBF3F1A8F85D
:100440003010BDEC028BBDE8F88300BFAFF3008035
:100450001F85EB51B81E1940B8150020CDB5E8B581
:100460003038024000300240C2A507F4000080434B
:100470002DE9F04F9BB083461992A94A1891A948DB
:100480001168814200D0FEE79E6AB3F80CC09F69F4
:100490009A8DD98D039603261C6A5D6A059706928C
:1004A00006FB0CF74FEA8C0206264FEA4C000B9134
:1004B0000E97052106FB0CF70F9207220294049574
:1004C0000D90119701FB0CF04FEACC0602FB0CF1EA
:1004D00000271D695C69D3F81CA010901291179633
:1004E0000197188EDDF80490814580F20A818E48CC
:1004F0009BF800601BF80C7010F80690C25DA144D8
:100500008419511994F8008194F8002201EB4808ED
:10051000CDF81C80DDF834801BF80860855DC719B4
:10052000A9180E9A97F800411BF8022097F800725C
:1005300001EB4405815C0895CC1981190F9E91F857
:10054000008191F8007204EB48081BF80640CDF8D2
:1005500024808218055D92F8006192F80022E91962
:1005600001EB460505EB0807DDF8408015971BF801
:1005700008700A950419C15D94F8005194F800427E
:10058000DDF81C808E1806EB4501119D089A1BF8BA
:1005900005508E18C719425D1696161997F8002156
:1005A00006EB42029044CDF85080129C97F80072FE
:1005B0001BF804604519845DE41995F8007195F8FD
:1005C0000052801904EB47044FF01C0804EB0907A4
:1005D00090F80061139708FB09AADDF81C800C94C1
:1005E0000AEB0209152705EB460490F8005207FBB9
:1005F0000890099FDDF820900A2606FB070A0F27BE
:1006000007FB09A04FF00308DDF8289008FB010064
:100610004FF0060A0AFB0900009015984FF03009C8
:1006200009FB00FADDF858902E2000FB09A0824655
:100630000598824413984FF0240909FB00AA1498E6
:100640004FF02A0909FB00AA0898DDF8249008FB5E
:1006500000F8062000FB0988DDF81C9008EB090073
:1006600007FB01010A9F0C98DDF8009006FB0718B4
:100670001C2606FB008115270B9807FB021205922A
:10068000A9F5003868B1029E049FCDF8108006EBF2
:100690000801CE1B46434FF4807296FBF2F00290A5
:1006A0008046069961B1039E08FB01F8C1F5807789
:1006B00006FB07894FF4807299FBF2F003908046A5
:1006C000199901FB08F7002F02DD0837381103E004
:1006D000083F102697FBF6F047F6BC72019E1349BF
:1006E000189FDDF85C809042A8BF1046DA897243FB
:1006F0008842A8BF0146013627F81210C34401966C
:10070000EFE61D615C61029D059C1D629C61039D7D
:10071000049CC3F81CA05C629D621BB0BDE8F08F16
:10072000B8150020CDB5E8B5000800204480FFFFD3
:100730002DE9F04FA1B0C74C1F92C74A1E91116816
:10074000A14200D0FEE79F6A9A69998DDC8D0497DB
:100750009F89069207910F940322052106241D6AA2
:100760005E6A03957A4379437C43129214911594FF
:10077000072209210A24794305964FEA47084FEAE0
:1007800087097A434FEAC70A7C431E695D69D3F83B
:100790001CB01891CDF84480CDF84C901692CDF84D
:1007A0005CA01D94002102911A8E0299914280F260
:1007B0005981AA4A047812F80490A944C55D111918
:1007C00012F8058091F8004191F800A2464406EB2A
:1007D0004406119C0896045D5519165D95F800C1F4
:1007E00095F8005206EB0A0808EB4C0ADDF8488041
:1007F000CDF824A010F80810DDF84C80565C1419D0
:1008000006EB050A10F8085094F800C1565D94F8FC
:10081000004251180AEB4C0C361991F800A1149CB7
:1008200091F80012CDF828C006EB4A08065DCDF815
:100830002C80945DDDF85480551904EB010A95F87D
:10084000004195F800520AEB44010C9110F8081091
:100850009619545C641996F8005104EB45040D9404
:10086000169D96F80062DDF824A0DDF85C80A444B3
:10087000445DCDF86CC0155D5118AD1991F800615B
:1008800091F8001205EB460505EB0A060E9510F8E7
:1008900008501C961419565DDDF860A0711894F884
:1008A000006194F8004201EB460C08990CEB01063C
:1008B0001A9610F80A605519915D9219091995F860
:1008C000004192F8006195F8005201EB44012D249B
:1008D00001EB090804FB09BB10910899CDF864806D
:1008E0000BEB0C09DDF8288005EB460592F8006259
:1008F000242202FB019A152404FB08A9DDF824A098
:100900000C994FF01C0B0BFB0A994FF00A08DDF80D
:100910002CA008FB01994FF00F0B0E990BFB0A99C5
:100920004FF00308DDF834A008FB01994FF0060BE7
:100930000BFB0A99CDF80490DDF82CA00C994FF030
:100940004B0B51440BFB01F91B994FF0490A0AFB71
:10095000019B0699DDF868900BEB010A4FF03F0B05
:100960001C990BFB09AA4FF0450BDDF864900BFBBB
:1009700001AA4FF0370B0BFB09ABDDF824A00A9955
:1009800008FB0AF84FF00609DDF820A009FB0188F2
:100990000C99D0444FF00F09DDF82CA009FB018819
:1009A0000A21DDF8389001FB0A884FF01C0A0D99E6
:1009B0000AFB098804FB018A109C0F994FF02D094E
:1009C00009FB04A8DDF804A002FB0C820692AAF53C
:1009D0007A3971B1039C0599CDF8149004EB0902A2
:1009E000541A0F9A4FF48071544394FBF1F403941A
:1009F000A146079961B1049CC1F5807209FB01FC15
:100A000004FB02C94FF4807199FBF1F20492914604
:100A10001F9C04FB09F1002902DD10314C1103E099
:100A20001039202291FBF2F447F6BC718C42A8BF2A
:100A30000C46DA890299DDF874804A4308498C42F1
:100A4000A8BF21461E9C24F81210029A4044511C53
:100A5000A9E600BFCDB5E8B5B81500200008002014
:100A60004480FFFF05981E615D61039E069D049C06
:100A700058629D61C3F81CB01E629C62104621B092
:100A8000BDE8F08F2DE9F04F95B0994C1392994A3B
:100A900012911168A14200D0FEE75E6A1D6A9F6A4A
:100AA0009A69998DB3F82E800C964FF00009D3F80F
:100AB00010C05E69D3F81CB00195029709920A91A3
:100AC000CDF83480CDF80C908B4904780D190C5D6D
:100AD00095F8007295F8008106EB070A067ACDF8C2
:100AE0002CA08F198E5D97F8002202EB4805AC44CC
:100AF000057C97F80081CDF810C04A194D5D92F839
:100B0000009292F8002109EB040A0AEB480C90F8D5
:100B100018A090F82090CDF814C001EB0A0494F8C6
:100B2000007294F80041BF1907EB420801EB09027B
:100B3000CDF8188092F8006292F80021771907EB3F
:100B4000440606EB080C90F8288011F80A70079606
:100B500001EB0805CDF840C095F8004295F800512A
:100B6000E619059F06EB4204E619119690F83060ED
:100B700008948C1911F8097094F80022D219049F76
:100B800002EB4502BD180F9590F8385011F8089007
:100B900094F80041DDF82C808E5D4F1997F800A283
:100BA00097F800710AEB090C0CEB4404DDF818A06F
:100BB00011F805C000941C2505FB082944440A21AE
:100BC000DDF8148001FB0A9906EB4706DDF820A04A
:100BD0000F2707FB0899032101FB0A99DDF81CA0E8
:100BE0004FF0060808FB0A99DDF810A0152101FB5B
:100BF0000A99CB44DDF84490CDF82CB04FF02E0A82
:100C00000AFB09FADDF840904FF0300B0BFB09AA04
:100C10004FF0240B0BFB04A90F9C4FF02A0A0AFB90
:100C2000049B099CDDF81890DDF810A0A344059CF6
:100C300008FB09A8DDF820A04FF0030909FB048890
:100C4000079C07FB0A890A2707FB0498DDF8009038
:100C5000DDF82CA00C9F05FB098501FB02520199D0
:100C60000992AAF500328C180D99DDF82880E51B51
:100C70004D434FF4807195FBF1F40194019F44467C
:100C80007C43029FC8EB010507FB054595FBF1F18D
:100C90000291139C6143002902DD0831091103E030
:100CA0000839102791FBF7F147F6BC75134C129FDA
:100CB0000C92A942A8BF2946039DA142B8BF214674
:100CC00079530C354030C02D03957FF4FDAE099863
:100CD000019C029D9861C3F810C05E61C3F81CB00E
:100CE0001C625A629D62102015B0BDE8F08F00BFF3
:100CF000CDB5E8B5B8150020000800204480FFFFFE
:100D00002DE9F04FA1B084461F92BE4A1E91BE4805
:100D10001168814200D0FEE79E6A9F6905969E8910
:100D2000D98D01967000079703277E431190019893
:100D30009A8D0F9112960521019E08924843B200A8
:100D40001490019E01980199139206277E43072271
:100D5000C700514315961797019E019F1C6A5D6A53
:100D6000169109220A2156434F434FF0000804947C
:100D700006955C691D69D3F81CB018961D97CDF8CF
:100D80000C80188EDDF80C90814580F25A819F49C5
:100D90009CF80000DDF804900F181CF8096097F823
:100DA00000A297F80021085CA2448C198E5D94F88B
:100DB000008294F80041454405EB4207119D0997D4
:100DC0001CF805504A194D5D92F8007292F80081A6
:100DD0003F18129807EB44091CF80040CDF8289002
:100DE00008190C5D90F8007290F80001BF1907EB2C
:100DF0004809DDF84C80CDF82C901CF8089001EBE8
:100E00000902CDF8089092F8006292F80021771953
:100E1000149E1CF80690159E07EB400801EB090094
:100E2000CDF8308090F8005290F800012F1907EBB0
:100E300042081CF80670029DCDF83480CA194E5D38
:100E400092F80042A41904EB40050295DDF82C80CD
:100E5000169E92F80021CF5DA844CDF86C801CF856
:100E6000068011F80950DDF8609001EB080011F8D8
:100E7000088090F8004290F8000166190A9D06EB80
:100E80004204179A0E9466191C961CF802608C197D
:100E90008E5D94F8002294F80041D519099F05EB66
:100EA0004002D5191A951CF809504F194D5D97F855
:100EB000000297F80071404400EB44002D2100EB44
:100EC0000A0401FB0ABB1090099819940BEB020A63
:100ED00006EB470424210B9F01FB00A94FF01508E6
:100EE000DDF828A00D9808FB07964FF01C0B0BFBB4
:100EF0000A69DDF830800A2606FB009A0F27DDF824
:100F0000389007FB08AB4FF0030808FB09BADDF87F
:100F100008B0062000FB0BA9CDF80090DDF834A046
:100F2000DDF830B04FF04B090AEB0B0009FB00FA7B
:100F30001B984FF0490B0BFB00A9079809EB000A1F
:100F4000DDF868901C984FF03F0B0BFB09AA4FF09F
:100F5000450BDDF864900BFB00AA4FF0370B0BFB41
:100F600009ABDDF828A00B9808FB0AF84FF006093A
:100F7000DDF824A009FB00880D9808EB0A0907FB9F
:100F800000980C9FDDF83890029806FB07864FF01A
:100F90001C0A0AFB0968152707FB008610980F9F9B
:100FA0004FF02D0909FB006A01FB02A2DDF800A049
:100FB0000792AAF57A386FB10499069ECDF8188089
:100FC00001EB0800811B79434FF4807291FBF2F72B
:100FD0000497B846089860B1059908FB00F8C0F579
:100FE000807601FB06894FF4807299FBF2F7059732
:100FF000B8461F9800FB08F6002E09DD1036771161
:101000000AE000BFB8150020CDB5E8B50008002003
:10101000103E202196FBF1F7039ED8891049DDF898
:10102000748047F6BC729742A8BF17468F42A8BF8C
:10103000394670431E9F721C27F81010C444039257
:101040009FE65C61079C049A9C61059E069C1D615D
:10105000C3F81CB01A625C629E6221B0BDE8F08FDA
:101060004480FFFFAFF3008000000000000000009C
:101070004B1C012B98BF70472DE9F003911C9B0876
:10108000B1F80480B1F802900A8831F802CC8044AB
:10109000814402448444D9F80070D8F8006015688F
:1010A000DCF80040C9F80060C8F80070CCF80050C7
:1010B0001460D9F80470D8F804605568DCF804406E
:1010C000C9F80460C8F80470CCF8045054600831C2
:1010D000013BD5D1BDE8F00370474B1C012B98BFF5
:1010E00070472DE9F003911C9B08B1F80480B1F81A
:1010F00002900A8831F802CC00EB580800EB59093D
:1011000000EB520200EB5C0CD9F80070D8F80060DC
:101110001568DCF80040C9F80060C8F80070CCF829
:10112000005014600831013BDFD1BDE8F003704787
:1011300081F0004102E000BF83F0004330B54FEA88
:1011400041044FEA430594EA050F08BF90EA020FF5
:101150001FBF54EA000C55EA020C7FEA645C7FEA88
:10116000655C00F0E2804FEA5454D4EB5555B8BFAB
:101170006D420CDD2C4480EA020281EA030382EA1C
:10118000000083EA010180EA020281EA0303362DAE
:1011900088BF30BD11F0004F4FEA01314FF4801C81
:1011A0004CEA113102D0404261EB410113F0004F93
:1011B0004FEA03334CEA133302D0524263EB43034A
:1011C00094EA050F00F0A780A4F10104D5F1200EE8
:1011D0000DDB02FA0EFC22FA05F2801841F1000143
:1011E00003FA0EF2801843FA05F359410EE0A5F117
:1011F00020050EF1200E012A03FA0EFC28BF4CF048
:10120000020C43FA05F3C01851EBE37101F00045FD
:1012100007D54FF0000EDCF1000C7EEB00006EEB0A
:101220000101B1F5801F1BD3B1F5001F0CD3490894
:101230005FEA30004FEA3C0C04F101044FEA4452EB
:1012400012F5800F80F09A80BCF1004F08BF5FEA72
:10125000500C50F1000041EB045141EA050130BD52
:101260005FEA4C0C404141EB010111F4801FA4F1F5
:101270000104E9D191F0000F04BF01460020B1FA4A
:1012800081F308BF2033A3F10B03B3F120020CDA82
:101290000C3208DD02F1140CC2F10C0201FA0CF060
:1012A00021FA02F10CE002F11402D8BFC2F1200CC5
:1012B00001FA02F120FA0CFCDCBF41EA0C0190407B
:1012C000E41AA2BF01EB0451294330BD6FEA0404C4
:1012D0001F3C1CDA0C340EDC04F11404C4F12002AF
:1012E00020FA04F001FA02F340EA030021FA04F3C1
:1012F00045EA030130BDC4F10C04C4F1200220FA18
:1013000002F001FA04F340EA0300294630BD21FA55
:1013100004F0294630BD94F0000F83F4801306BF1B
:1013200081F480110134013D4EE77FEA645C18BF0F
:101330007FEA655C29D094EA050F08BF90EA020FA6
:1013400005D054EA000C04BF1946104630BD91EA9E
:10135000030F1EBF0021002030BD5FEA545C05D1A1
:101360004000494128BF41F0004130BD14F58004E0
:101370003CBF01F5801130BD01F0004545F0FE4154
:1013800041F470014FF0000030BD7FEA645C1ABF89
:10139000194610467FEA655C1CBF0B46024650EAC0
:1013A000013406BF52EA033591EA030F41F40021EC
:1013B00030BD00BF90F0000F04BF0021704730B572
:1013C0004FF4806404F132044FF000054FF0000147
:1013D00050E700BF90F0000F04BF0021704730B508
:1013E0004FF4806404F1320410F0004548BF4042DD
:1013F0004FF000013EE700BF42004FEAE2014FEA32
:1014000031014FEA02701FBF12F07F4393F07F4F0C
:1014100081F06051704732F07F4208BF704793F00F
:101420007F4F04BF41F40021704730B54FF4607422
:1014300001F0004521F000411CE700BF50EA010225
:1014400008BF704730B54FF000050AE050EA0102CE
:1014500008BF704730B511F0004502D5404261EB3E
:1014600041014FF4806404F132045FEA915C3FF47F
:10147000D8AE4FF003025FEADC0C18BF03325FEA1C
:10148000DC0C18BF033202EBDC02C2F1200300FACD
:1014900003FC20FA02F001FA03FE40EA0E0021FAF2
:1014A00002F11444BDE600BF00000000000000008F
:1014B00070B54FF0FF0C4CF4E06C1CEA11541DBFEA
:1014C0001CEA135594EA0C0F95EA0C0F00F0DEF8B5
:1014D0002C4481EA030621EA4C5123EA4C5350EA9A
:1014E000013518BF52EA033541F4801143F48013EB
:1014F00038D0A0FB02CE4FF00005E1FB02E506F07C
:101500000042E0FB03E54FF00006E1FB03569CF0D0
:10151000000F18BF4EF0010EA4F1FF04B6F5007FD6
:1015200064F5407404D25FEA4E0E6D4146EB060648
:1015300042EAC62141EA55514FEAC52040EA5E50D1
:101540004FEACE2EB4F1FD0C88BFBCF5E06F1ED87B
:10155000BEF1004F08BF5FEA500E50F1000041EBB2
:10156000045170BD06F0004646EA010140EA02005F
:1015700081EA0301B4EB5C04C2BFD4EB0C0541EA81
:10158000045170BD41F480114FF0000E013C00F396
:10159000AB8014F1360FDEBF002001F0004170BDBA
:1015A000C4F10004203C35DA0C341BDC04F11404D3
:1015B000C4F1200500FA05F320FA04F001FA05F25F
:1015C00040EA020001F0004221F0004110EBD3702C
:1015D00021FA04F642EB06015EEA430E08BF20EA58
:1015E000D37070BDC4F10C04C4F1200500FA04F3FB
:1015F00020FA05F001FA04F240EA020001F000418D
:1016000010EBD37041F100015EEA430E08BF20EAFF
:10161000D37070BDC4F1200500FA05F24EEA020E47
:1016200020FA04F301FA05F243EA020321FA04F076
:1016300001F0004121FA04F220EA020000EBD3702D
:101640005EEA430E08BF20EAD37070BD94F0000F2D
:101650000FD101F00046400041EB010111F4801F61
:1016600008BF013CF7D041EA060195F0000F18BF12
:10167000704703F00046520043EB030313F4801F4E
:1016800008BF013DF7D043EA0603704794EA0C0F08
:101690000CEA135518BF95EA0C0F0CD050EA41061E
:1016A00018BF52EA4306D1D181EA030101F000419B
:1016B0004FF0000070BD50EA410606BF10461946C3
:1016C00052EA430619D094EA0C0F02D150EA0136CF
:1016D00013D195EA0C0F05D152EA03361CBF104610
:1016E00019460AD181EA030101F0004141F0FE41AF
:1016F00041F470014FF0000070BD41F0FE4141F433
:10170000780170BD70B54FF0FF0C4CF4E06C1CEA32
:1017100011541DBF1CEA135594EA0C0F95EA0C0FE7
:1017200000F0A7F8A4EB050481EA030E52EA0335A2
:101730004FEA013100F088804FEA03334FF08055C3
:1017400045EA131343EA12634FEA022245EA1115F0
:1017500045EA10654FEA00260EF000419D4208BFA1
:10176000964244F1FD0404F5407402D25B084FEA4E
:101770003202B61A65EB03055B084FEA32024FF4FA
:1017800080104FF4002CB6EB020E75EB030E22BF57
:10179000B61A754640EA0C005B084FEA3202B6EB17
:1017A000020E75EB030E22BFB61A754640EA5C00C6
:1017B0005B084FEA3202B6EB020E75EB030E22BF56
:1017C000B61A754640EA9C005B084FEA3202B6EB57
:1017D000020E75EB030E22BFB61A754640EADC0016
:1017E00055EA060E18D04FEA051545EA16754FEA78
:1017F00006164FEAC30343EA52734FEAC2025FEA96
:101800001C1CC0D111F4801F0BD141EA00014FF024
:1018100000004FF0004CB6E711F4801F04BF0143F5
:101820000020B4F1FD0C88BFBCF5E06F3FF6AFAE11
:10183000B5EB030C04BFB6EB020C5FEA500C50F1A1
:10184000000041EB045170BD0EF0004E4EEA113124
:1018500014EB5C04C2BFD4EB0C0541EA045170BD2B
:1018600041F480114FF0000E013C90E645EA060E6F
:101870008DE60CEA135594EA0C0F08BF95EA0C0F9D
:101880003FF43BAF94EA0C0F0AD150EA01347FF4E5
:1018900034AF95EA0C0F7FF425AF104619462CE7BC
:1018A00095EA0C0F06D152EA03353FF4FDAE10461F
:1018B000194622E750EA410618BF52EA43067FF470
:1018C000C5AE50EA41047FF40DAF52EA43057FF400
:1018D000EBAE12E700000000000000000000000076
:1018E0004FEA410212F5001215D211D56FF4787348
:1018F000B3EB625212D94FEAC12343F0004343EAEB
:10190000505311F0004F23FA02F018BF40427047C5
:101910004FF00000704750EA013005D111F000404F
:1019200008BF6FF0004070474FF00000704700BFE5
:101930004A0011D212F5001211D20DD56FF478734E
:10194000B3EB62520ED44FEAC12343F0004343EAA3
:10195000505323FA02F070474FF00000704750EAEE
:10196000013002D14FF0FF3070474FF00000704758
:101970004FEA4102B2F1E04324BFB3F5001CDCF1B1
:10198000FE5C0DD901F0004C4FEAC0024CEA5070E9
:10199000B2F1004F40EB830008BF20F00100704718
:1019A00011F0804F21D113F13872BCBF01F000401B
:1019B000704741F480114FEA5252C2F11802C2F14D
:1019C000200C10FA0CF320FA02F018BF40F00100CE
:1019D0004FEAC1234FEAD32303FA0CFC40EA0C0080
:1019E00023FA02F34FEA4303CCE77FEA625307D1BD
:1019F00050EA01331EBF4FF0FE4040F440007047F4
:101A000001F0004040F0FE4040F40000704700BF8D
:101A100053B94AB9002908BF00281CBF4FF0FF3155
:101A20004FF0FF3000F074B9ADF1080C6DE904CE51
:101A300000F006F8DDF804E0DDE9022304B07047A9
:101A40002DE9F047089E04468846002B4BD18A4278
:101A5000154667D9B2FA82F24AB1C2F1200701FAFB
:101A600002F320FA07F7954047EA030894404FEA4B
:101A7000154E230CB8FBFEF71FFA85FC0EFB1788EA
:101A800043EA084307FB0CF1994209D9EB1807F127
:101A9000FF3080F01B81994240F21881023F2B44B5
:101AA0005B1AA4B2B3FBFEF00EFB103344EA03440E
:101AB00000FB0CFCA44509D92C1900F1FF3380F080
:101AC0000781A44540F2048102382C4440EA0740D3
:101AD000A4EB0C0400271EB1D4400023C6E9004348
:101AE0003946BDE8F0878B4209D9002E00F0EB8023
:101AF0000027C6E9000138463946BDE8F087B3FA49
:101B000083F7002F47D18B4202D3824200F2FA8042
:101B1000841A61EB030301209846002EE0D0C6E949
:101B20000048DDE702B9FFDEB2FA82F2002A40F097
:101B30008F80491B4FEA154E1FFA85F80127B1FB2C
:101B4000FEFC230C0EFB1C1143EA014308FB0CF1C5
:101B5000994207D9EB180CF1FF3002D2994200F2FA
:101B6000CD808446591AA3B2B1FBFEF00EFB1014CF
:101B700043EA044408FB00F8A04507D92C1900F1FA
:101B8000FF3302D2A04500F2B6801846A4EB080449
:101B900040EA0C409FE7C7F1200CBB4022FA0CFE44
:101BA0004EEA030E01FA07F420FA0CF521FA0CF3C1
:101BB0004FEA1E482543B3FBF8F92C0C08FB1933F8
:101BC0001FFA8EFA44EA034309FB0AF49C4202FA24
:101BD00007F200FA07F10BD91EEB030309F1FF30FE
:101BE00080F087809C4240F28480A9F1020973440E
:101BF0001B1BADB2B3FBF8F008FB103345EA0344FE
:101C000000FB0AFAA24508D91EEB040400F1FF33D9
:101C10006BD2A24569D90238744440EA0940A0FB5E
:101C20000289A4EB0A044C45C2464B4654D351D01A
:101C3000002E69D0B1EB0A0564EB030404FA0CFC36
:101C4000FD40FC404CEA0505C6E90054002747E783
:101C5000C2F1200320FA03F7954001FA02F021FABD
:101C600003F34FEA154E3843010CB3FBFEF71FFA9E
:101C700085F80EFB173341EA034107FB08F38B425B
:101C800004FA02F407D9691807F1FF3C2FD28B42FE
:101C90002DD9023F2944CB1A81B2B3FBFEF00EFBD3
:101CA000103341EA034100FB08F38B4207D969185E
:101CB00000F1FF3C17D28B4215D902382944C91ACA
:101CC00040EA07473BE73746304609E70746E7E67D
:101CD0001846FBE64145ABD2B8EB020A69EB0E02AF
:101CE00001381346A4E76046E9E7184695E76746DA
:101CF000D1E781467CE702382C4447E7ACF1020C7F
:101D00002B442FE7384608E73746E9E60000000095
:101D1000704700BF0000000000000000000000004D
:101D2000844641EA000313F003036DD1403A41D3E6
:101D300051F8043B40F8043B51F8043B40F8043BA5
:101D400051F8043B40F8043B51F8043B40F8043B95
:101D500051F8043B40F8043B51F8043B40F8043B85
:101D600051F8043B40F8043B51F8043B40F8043B75
:101D700051F8043B40F8043B51F8043B40F8043B65
:101D800051F8043B40F8043B51F8043B40F8043B55
:101D900051F8043B40F8043B51F8043B40F8043B45
:101DA00051F8043B40F8043B51F8043B40F8043B35
:101DB000403ABDD2303211D351F8043B40F8043BD5
:101DC00051F8043B40F8043B51F8043B40F8043B15
:101DD00051F8043B40F8043B103AEDD20C3205D3E5
:101DE00051F8043B40F8043B043AF9D2043208D0DD
:101DF000D2071CBF11F8013B00F8013B01D30B884F
:101E000003806046704700BF082A13D38B078DD02C
:101E100010F003038AD0C3F10403D21ADB071CBFFE
:101E200011F8013B00F8013B80D331F8023B20F868
:101E3000023B7BE7043AD9D3013A11F8013B00F8A1
:101E4000013BF9D20B7803704B7843708B78837029
:101E50006046704700000000000000000000000025
:101E600090F800F06DE9024520F007016FF0000CDA
:101E700010F0070491F820F040F049804FF0000482
:101E80006FF00700D1E9002391F840F000F108005D
:101E900082FA4CF2A4FA8CF283FA4CF3A2FA8CF395
:101EA0004BBBD1E9022382FA4CF200F10800A4FAFC
:101EB0008CF283FA4CF3A2FA8CF3E3B9D1E9042350
:101EC00082FA4CF200F10800A4FA8CF283FA4CF387
:101ED000A2FA8CF37BB9D1E9062301F1200182FA41
:101EE0004CF200F10800A4FA8CF283FA4CF3A2FA47
:101EF0008CF3002BC6D0002A04BF04301A4612BA55
:101F0000B2FA82F2FDE8024500EBD2007047D1E957
:101F1000002304F00305C4F100004FEAC50514F0E6
:101F2000040F91F840F00CFA05F562EA05021CBFB7
:101F300063EA050362464FF00004A9E700000000D1
:101F400001F0FF01102A2BDB10F0070F08D010F86A
:101F5000013B013A8B422DD010F0070F42B3F6D16E
:101F6000F0B441EA012141EA014122F007047FF087
:101F700000070023F0E80256083C85EA010586EADE
:101F8000010685FA47F5A3FA87F586FA47F6A5FA1A
:101F900087F68EB9EED1F0BC01F0FF0102F0070226
:101FA00032B110F8013B013A83EA010313B1F8D1D1
:101FB0000020704701387047002D06BF35460338B2
:101FC000073815F0010F07D1013015F4807F02BFEB
:101FD000013015F4C03F0130F0BC0138704700BF3C
:101FE0004FF0FF3C06E000BF4FF0010C02E000BFE5
:101FF0004FF0010C4DF804CD4FEA410C7FEA6C5CC8
:102000004FEA430C18BF7FEA6C5C1BD001B050EA6A
:10201000410C0CBF52EA430C91EA030F02BF90EA55
:10202000020F0020704710F1000F91EA030F58BF14
:10203000994208BF90422CBFD8176FEAE37040F076
:10204000010070474FEA410C7FEA6C5C02D150EA14
:10205000013C07D14FEA430C7FEA6C5CD6D152EACF
:10206000033CD3D05DF8040B704700BF8446104694
:1020700062468C461946634600E000BF01B5FFF793
:10208000B7FF002848BF10F1000F01BD4DF808ED63
:10209000FFF7F4FF0CBF012000205DF808FB00BF34
:1020A0004DF808EDFFF7EAFF34BF012000205DF88E
:1020B00008FB00BF4DF808EDFFF7E0FF94BF0120DB
:1020C00000205DF808FB00BF4DF808EDFFF7CEFFDC
:1020D00094BF012000205DF808FB00BF4DF808ED1B
:1020E000FFF7C4FF34BF012000205DF808FB00BFEC
:1020F0004FEA410C7FEA6C5C02D150EA013C0AD104
:102100004FEA430C7FEA6C5C02D152EA033C02D1F5
:102110004FF0000070474FF00100704700000000D2
:1021200000B5144B83B01B68019305F0E1FB03F08D
:1021300097FA02F04DFA104A1049114803F0B0F92D
:1021400002F06EFF03F044F80E490F4806F028FE37
:1021500003F0C6F802F074FD02F0B2FF0B4801F084
:10216000E7FD00F0ADFC00F01BFF01F089FA00F084
:10217000B7FFFAE7000B0020040B00200C0B002037
:10218000BC150020200B002094AE0120D1330008A4
:1021900000B5084B83B01A680192019A1B689A42F5
:1021A00005D1054803B05DF804EB03F0C1BAFFF7B1
:1021B000EFFF00BF000B0020F0400108000000000E
:1021C0002DE9F0412DED048B804C814D236882B0C8
:1021D000019301F00DFAF0EE408A0CF0E9F8B0EE50
:1021E000408AB0EE680A0CF02BF92B78B0EE409ADA
:1021F000002B60D1774B1B787BB901992268764E12
:10220000764D7748337091422B80038040F0DB801D
:1022100002B0BDEC048BBDE8F081202383F311886C
:10222000704E04F035FB03F023FBD6F8288003F052
:102230003FFB04F045FB3368B34207D0B2699B68AB
:1022400092689A4202D2684803F072FA002686F336
:102250001188614F654A3B782E70C2F80080002BD0
:1022600040F0A480624AB2F9003007EE903ABFEE27
:10227000007AF8EEE77A37EE487A77EE877AFDEE65
:10228000E77A17EE903A1BB283EAE371A1EBE371B0
:10229000422900F3828003EB830107EE901AF8EEE7
:1022A000E77A13809FED536ADFED536AE7EE067A13
:1022B000B1EE488A44E0202383F31188494D04F0AD
:1022C000E7FA03F0D5FAAF6A03F0F2FA04F0F8FA8D
:1022D0002B68AB4204D0AA699B6892689A4261D38A
:1022E000002585F31188414B3B4E3A4A1F603378F5
:1022F0001570002B61D13E4AB2F9003007EE903ADA
:10230000B7EE007AF8EEE77A37EE487A77EE877A1A
:10231000FDEEE77A17EE903A1BB283EAE371A1EB88
:10232000E371422934DC03EB830107EE901AF8EEE7
:10233000E77A13809FED2F6ADFED2F6AE7EE067ACA
:1023400026482749B0EE677AA8EE267AD8EE267A94
:10235000BDEEC77AFDEEE77A17EE103A1AB217EE25
:10236000903AB5EEC09AF1EE10FA1BB2C7BF0280E8
:102370000B8003800A80019A23689A4223D1B0EE31
:10238000680A02B0BDEC048BBDE8F04100F018BC57
:102390004223DFED1A7A1380CCE74223DFED177A70
:1023A00013807FE7104803F0C3F999E700F0E0FDE0
:1023B00000283FF457AF3E7054E700F0D9FD0028E5
:1023C00099D0357097E7FFF7E3FE00BF000B0020C0
:1023D000C9150020C8150020D5150020E6150020DD
:1023E000E815002070A0012020410108E015002020
:1023F000D81500200000C843000048440000A54351
:1024000030B5344D83B02B68019302F0D1FB044604
:1024100002F0B6FB304A1378043B032B14D8DFE8F4
:1024200003F035231902A0F24460122847D96FF453
:102430004F631C44122C42D92849294B40F20130E9
:1024400040F2751208801A80019A2B689A423FD197
:1024500003B030BDA4F6FD04122C03D9A0F6FD0094
:1024600012282ED807231AE0A4F24464122C24D98F
:102470006FF44F61084412281FD91849184B40F2D5
:10248000751040F2013208801A80DDE7A4F6FD04E1
:10249000122C03D9A0F6FD00122812D80523002023
:1024A000137002F0B5FB019A2B689A4210D10020FC
:1024B00003B0BDE8304002F093BB0623EFE70423EE
:1024C000EDE70649064A40F201330B801380BBE773
:1024D000FFF75EFE000B00202C0B0020E61500200D
:1024E000E8150020000000000000000000000000CF
:1024F0000029B8BF49420028B8BF404200B5091AB8
:1025000007EE901A9FED2A7A2A4BF8EEE77A83B00D
:10251000F4EEC77A1A680192F1EE10FA0BDC9FED27
:10252000267AF4EEC77AF1EE10FA2DD5F0EE477A5E
:102530009FED227A03E0F0EE477A9FED217A214A5F
:10254000DFED216A92ED006A77EE867AF4EEE67AA4
:10255000F1EE10FA24DCDFED1D6AF4EEE67AF1EE1E
:1025600010FA16D5DFED157AC2ED006A77EE277AFC
:10257000019A1B68FDEEE77A9A4217EE901A08B2AC
:1025800013D103B05DF804FBB1EE047A27EE877A2D
:10259000D5E7DFED0F6AC2ED007A67EEA67AE5E7D0
:1025A000C2ED006ADFED067AE0E7FFF7F1FD00BF5C
:1025B0000000A042000B00200000A0C20000C8C321
:1025C0000000C843DC15002000007A4500007AC5F1
:1025D000CDCCCC3D00000000000000000000000059
:1025E0002DE9F043774D784C2B78266883B001961F
:1025F000032B56D8DFE803F08E725D02734F744EE2
:10260000D7F8008002F0D4FA01464046FFF770FF89
:10261000D6F80090804602F0B3FA01464846FFF72C
:1026200067FF6C490B78002B40F08E801FFA88F30F
:10263000C3F51072DFF8B0E1DFF8B0C10132AEF8D7
:10264000002000F24122ACF8002018339BB2302B5E
:1026500003D9183080B2302823D85F4A0023137082
:102660000B702B703B603360202383F311885B4D2C
:1026700004F00EF903F0FCF8AE6A03F019F904F067
:102680001FF92B68AB4207D0AA699B6892689A42EF
:1026900002D2534803F04CF8002383F31188514BC6
:1026A0001E60019A23689A4240F0898003B0BDE819
:1026B000F083002857D1474B1B78002B68D00220AD
:1026C00000F036FA444B06461870002E67D0464993
:1026D000464A40F241230B801380E2E700282CD0C9
:1026E0003A4F3B4E3B6813B93368002B59D0394BF6
:1026F00018783D4A3D4B002843D040F241211180DB
:102700004FF6BF521A8002F053FA386002F038FADE
:102710003060C6E710B909B9002A47D0012300206C
:102720002B7002F075FA019A23689A4247D1002073
:1027300003B0BDE8F04302F053BA0029D0D1002A1B
:10274000CED102232B70ACE7274ADFF8A0C01FFAD6
:1027500088F303F2412EA2F800E0C0F510720132B6
:10276000ACF8002071E7012300202B7002F050FA32
:10277000002002F035FA1549154A00230B6013605A
:102780008FE74FF6BF51118040F241221A80BAE71D
:10279000052000F0CDF9104B0646187095E703238D
:1027A000BDE700F0ADF90B4B1870A2E7019A236862
:1027B0009A4204D103B0BDE8F043FFF701BDFFF733
:1027C000E7FC00BFD4150020000B0020CC15002032
:1027D000D0150020E4150020D615002070A001209F
:1027E00020410108E0150020E6150020E815002032
:1027F00010B52DED028B2A4C82B02368019300F0B6
:102800000FFFB0EE408A00F023FFF3EE017A07EEEF
:10281000100AB4EEE78AF1EE10FAB8EEC77A15DDC9
:10282000F3EE0B7AB4EEE78AF1EE10FA0ED5DFED97
:102830001D7AB4EEE77AF1EE10FA07DD1A4B1A783A
:1028400082B91A4901220A701A700BE0F3EE0B7A72
:10285000B4EEE78AF1EE10FA0CDC1349144A0023B7
:102860000B701370019A23689A4216D102B0BDEC26
:10287000028B10BDDFED0F7AB4EEE78AF1EE10FAAD
:10288000EBD5DFED087AB4EEE77AF1EE10FAE4DD8D
:10289000074B1A78002AE5D1D3E7FFF779FC00BF90
:1028A000000B002000401C46C9150020D515002053
:1028B000C8150020000014420000000000000000C5
:1028C00070B5204B204D1B782A6882B00192002BF6
:1028D00030D11E4A107830BB1D4B1B7823BB202300
:1028E00083F311881B4E03F0D3FF02F0C1FFB46ADB
:1028F00002F0DEFF03F0E4FF3368B34204D0B269B4
:102900009B6892689A4217D3002383F31188124B75
:102910001B6804F2E730C01A41F28733984294BF33
:102920000020012000E01846019A2B689A4207D146
:1029300002B070BD0020F7E7084802F0F9FEE3E7B7
:10294000FFF726FCD4150020000B0020C91500203D
:10295000C815002070A00120E015002020410108CA
:102960002DE9F04F274C284BA26928491B68DFF856
:10297000A490DFF8A480916183B020270193002602
:102980000CE0B9F9000002F0E3F8B8F9000002F039
:10299000C7F805F10A01284603F0E2FC87F3118825
:1029A00003F076FF02F064FFA56A02F081FF03F0F6
:1029B00087FF2368A34207D0A2699B6892689A4266
:1029C00002D2134802F0B4FE86F31188FFF710FF1D
:1029D00000F0C6F8002000F0ABF88346012000F0BC
:1029E000A7F88246062000F0A3F851460246584652
:1029F000FFF7F6FDFFF764FF0028C2D0FFF700FDE8
:102A0000BFE700BF70A00120000B002010410108AB
:102A100020410108E6150020E81500200000000014
:102A200000B5074B07491A68087883B00192019AEC
:102A30001B689A4202D103B05DF804FBFFF7A8FBC4
:102A4000000B0020D4150020000000000000000052
:102A500000B5074B07491A68087883B00192019ABC
:102A60001B689A4202D103B05DF804FBFFF790FBAC
:102A7000000B0020D5150020000000000000000021
:102A800000B5094A094B10781A6883B0019208B959
:102A9000074A1078019A1B689A4202D103B05DF888
:102AA00004FBFFF775FB00BFC9150020000B0020D9
:102AB000C815002000000000000000000000000019
:102AC00010B50A4C0A4B22680A4884B04FF41E71B4
:102AD000039200220092412203F0AAFB039A23688A
:102AE0009A4201D104B010BDFFF752FB000B002049
:102AF00061290008F015002000000000000000001F
:102B000000B5084B08491A68887983B00192019A88
:102B10001B689A4204D180F0010003B05DF804FB09
:102B2000FFF736FB000B00206818002000000000B3
:102B300000B5074B07491A68085C83B00192019AF7
:102B40001B689A4202D103B05DF804FBFFF720FB3B
:102B5000000B0020681800200000000000000000AA
:102B60002DE9F043DFF84880DFF84890D8F80030CE
:102B70000E4F83B00024019326460125204602F023
:102B8000BFFA962834BF33462B463B550134082CF8
:102B900049F8040FF2D1019AD8F800309A4202D1D4
:102BA00003B0BDE8F083FFF7F3FA00BF6818002018
:102BB000000B00206C180020000000000000000046
:102BC00010B52DED028B5C4C82B02368019301F0AF
:102BD0006FFC00F00DFDDFED597AB4EEE70AF1EE7F
:102BE00010FAB0EE408A74D4DFED557AB4EEE70AFD
:102BF000F1EE10FA6DDCDFED537AB4EEE78AF1EE18
:102C000010FA06DDDFED507AB4EEE78AF1EE10FA45
:102C10006BD4DFED4A7AB4EEE78AF1EE10FA06DD06
:102C2000DFED4A7AB4EEE78AF1EE10FA64D4DFED14
:102C3000487AB4EEE78AF1EE10FA06DDDFED457A68
:102C4000B4EEE78AF1EE10FA5BD4DFED407AB4EE31
:102C5000E78AF1EE10FA06DDDFED3F7AB4EEE78A9F
:102C6000F1EE10FA54D4DFED3D7AB4EEE78AF1EEDE
:102C700010FA06DDDFED3A7AB4EEE78AF1EE10FAEB
:102C80004BD4DFED357AB4EEE78AF1EE10FA06DDCB
:102C9000DFED2B7AB4EEE78AF1EE10FA44D4DFEDE3
:102CA000317AB4EEE78AF1EE10FA06DDDFED2E7A26
:102CB000B4EEE78AF1EE10FA10D4019A23689A4232
:102CC00037D1012002B0BDEC028BBDE8104001F00D
:102CD000C7BB0121002001F013FB8CE700231A463B
:102CE0001846FF2101F064FBE7E700231A46FF21A5
:102CF000032001F05DFB8CE70121032001F000FBC4
:102D000095E700231A46FF21022001F051FB9CE7C2
:102D10000121022001F0F4FAA5E700231A46FF2161
:102D2000012001F045FBACE70121084601F0E8FA7B
:102D3000B5E7FFF72DFA00BF000B0020DB0F493F7E
:102D4000E0EDAF40DB0FC93EE4CB963FE4CB16404D
:102D5000D253FB3FE0ED2F40D2537B40D63162404F
:102D6000E73A8A40E25CA340DD7EBC400000000000
:102D700070B54F4D82B02B680193FFF751FE0446AA
:102D8000032876D8DFE800F0526E3702494E3378D8
:102D9000032B01D001F08CFB80220121002001F0E7
:102DA0001FFB01210846802201F01AFB802201212D
:102DB000022001F015FB80220121032001F010FB0D
:102DC00000210846FF2201F00BFBFF220021012019
:102DD00001F006FBFF220021022001F001FBFF228F
:102DE0000021032001F0FCFA019A2B6834709A420A
:102DF0005BD102B070BD2F4E3378022B01D001F0B1
:102E000057FBFF220121002001F0EAFA01210846C8
:102E1000FF2201F0E5FAFF220121022001F0E0FA91
:102E2000FF220121032001F0DBFAC9E7FFF728FEAA
:102E30000646A8B901F03CFB3046FF22012101F013
:102E4000CFFA01210846FF2201F0CAFAFF22012130
:102E5000022001F0C5FAFF220121032001F0C0FA8F
:102E6000144EC1E7134E3378012BA9D001F020FB9B
:102E7000A6E7104E3378834214D1FF2202210020AE
:102E800001F0AEFAFF220221012001F0A9FA02218D
:102E90000846FF2201F0A4FAFF220221032001F0DC
:102EA0009FFAA1E701F004FBE7E7FFF771F900BF24
:102EB000000B00209118002000000000000000001E
:102EC0002DE9F04F244C254BA26925491B68254E5E
:102ED000DFF894A0DFF89490916183B04FF0200860
:102EE0000193002706E0FFF743FF05F5FA71284636
:102EF00003F036FA88F3118803F0CAFC02F0B8FC3C
:102F0000A56A02F0D5FC03F0DBFC2368A34207D0DE
:102F1000A2699B6892689A4202D2484602F008FC75
:102F200087F31188FFF794FD834600F061FBBBF146
:102F3000000FD8D0337801200344337001F070FAC9
:102F40003378022BCFD1002001F06AFA01238AF8EE
:102F500000303370C7E700BF70A00120000B0020D5
:102F6000304101082D0B002090180020404101083D
:102F700000B5074B07491A68087883B00192019A97
:102F80001B689A4202D103B05DF804FBFFF700F919
:102F9000000B00209018002000000000000000003E
:102FA00010B50A4C0A4B22680A4884B04FF4FC71F1
:102FB000039200220092412203F03AF9039A236817
:102FC0009A4201D104B010BDFFF7E2F8000B0020D7
:102FD000C12E00089818002000000000000000002A
:102FE00000B5384B83B0B5EEC00A1A680192F1EE15
:102FF00010FA16DDF5EEC00AF1EE10FA0CDDDFED89
:10300000327A324A77EEE07AB6EE007A77EE807A5C
:1030100067EE877AC2ED007AF5EEC00AF1EE10FA9B
:103020002AD4B5EEC00AF1EE10FA0BD4B5EEC00A00
:10303000F1EE10FA0BD4019A1B689A423FD103B00B
:103040005DF804FBF5EEC00AF1EE10FA35D4F5EEAA
:10305000C00AF1EE10FAEEDD9FED1B7ADFED1C7A6F
:103060001A4A30EE070AB6EE007A70EE200AE0EE59
:10307000877AC2ED007ADEE7DFED137A134A37EE86
:10308000C07AF6EE006A37EE607AB5EEC00AE7EE77
:10309000267AF1EE10FAC2ED007AC7D5DFED0A7A92
:1030A0009FED0C7A70EEA77AF6EE006A77EEC07AA2
:1030B000A7EEA67A82ED007AC9E7044AEEE7FFF7A9
:1030C00067F800BF000B0020DB0FC93F941A0020F7
:1030D000E4CB9640DB0F49400000000000000000F8
:1030E0002DE9F0472DED048BDFF8D8829FEDA27A11
:1030F000D8F80030A14CA248A249A34A82B04FF0B0
:10310000FF350193F0EE475AB0EE476AF0EE476A9A
:10311000A9462E462F460A23F4EC017AF4EEE67A0D
:10312000F1EE10FAC8BFF0EE676AF2EC017AF4EE45
:10313000C67AC8BF1FB2F1EE10FAC8BFB0EE676A18
:10314000F1EC017AF4EEC77AC8BF1EB2F1EE10FAC4
:10315000C8BFB0EE677AF0EC017AF4EEE57AC8BF4A
:103160001DB2F1EE10FAC8BF0FFA83F903F10103A3
:10317000C8BFF0EE675A832BCED1B74223D0834B22
:1031800007EE906AD3ED008AB8EEE78AA94576D0BB
:103190007F4B804ED3ED000AAD007319019A1C6875
:1031A000D8F800307C487D4904609A4281ED008A5D
:1031B00040F0CB80B0EE680A02B0BDEC048BBDE8F5
:1031C000F047FFF70DBF0A2FD9DD754BDFED757A9C
:1031D00003EB870393ED007AB4EEE77AF1EE10FA91
:1031E000CDDD714BFC0004344FEAC70A1A19534471
:1031F000D3ED000A92ED000A0BF0D2F96B4B1C44A0
:103200005344B0EE408AD3ED000A94ED000A0BF06F
:10321000C7F938EE400AF8EE087AB4EEE70AF1EEA4
:1032200010FAACDDF0EE087AB4EEE70AF1EE10FA2F
:10323000A5D55F4B9FED5F7A93ED006AF6EE006ACD
:1032400060EE267A05EE907AE6EE267AB8EEE58A0A
:1032500027EE877AF7EE006A87EE080AC3ED007A58
:10326000B4EEE60AF1EE10FA7BDDB0EE660A0BF082
:1032700037F9464BF0EE408A83ED000A86E7B9F154
:103280000A0F10DD434EDFED477A4FEA89057319C7
:1032900093ED007AB4EEE77AF1EE10FA0ADC3C4BDB
:1032A000D3ED000A79E73A4B3A4ED3ED000A4FEAE4
:1032B000890572E74FEAC9073F4B04374FEAC9094E
:1032C000DA194B44D3ED000A92ED000A0BF068F9CD
:1032D0003A4B1F444B44B0EE409AD3ED000A97EDB1
:1032E000000A0BF05DF939EE400AF8EE087AB4EE08
:1032F000E70AF1EE10FAD2DDF0EE087AB4EEE70A52
:10330000F1EE10FACBD52E4B9FED2A7AD3ED005A71
:10331000B6EE006A60EE067AF7EE006AE5EE867AAF
:1033200027EE877AC3ED007A87EE080AB4EEE60A44
:10333000F1EE10FA0BDDB0EE660A0BF0D1F8144B8B
:10334000F0EE400A83ED000A27E7FEF721FFFFEECB
:10335000007AB4EE670AF1EE10FA48BFB0EE670AE1
:10336000EBE7FFEE007AB4EE670AF1EE10FA48BF21
:10337000B0EE670A7BE700BF00409C45D44A0120BD
:10338000D45A0020D4AA0020D4FA0020981A002091
:103390009C1A0020ACAA0020901A0020A81A002035
:1033A000ACFA002000401C46ACDA0020AC2A012018
:1033B000A01A00200AD76C42AC8A0020AC3A002048
:1033C000A41A0020000B00200000000000000000F4
:1033D0002DE9F04F714EDFF810823368B8F8002005
:1033E00083B00193002900F0CD80DFF8C491DFF8AD
:1033F000C8E1DFF8D0C16A4FDFED6A7A002504E04A
:103400000435ADB2A94240F2C68030F9153007EE5E
:10341000103A9400B8EEC77A09EB040A00EB4503B2
:103420008AED007AB3F902A007EE10AAB8EEC77AC7
:103430000EEB040A8AED007AB3F904A007EE10AA95
:10344000B8EEC77A0CEB040A8AED007AB3F90630BD
:1034500007EE103A531C9BB2B8EEC77A02329B00BB
:103460003C4492B284ED007A09EB030B0EEB030AA5
:103470000CEB0304B2F5006F3B44CBED007ACAEDD0
:10348000007AC4ED007AC3ED007AB9D3464D2B78AB
:103490000133DBB200242B70A8F8004033B9019A45
:1034A00033689A4275D103B0BDE8F08F4FF40062E3
:1034B0003E493F482C700CF093F94FF400623D49AF
:1034C0003D480CF08DF94FF400623C4934480CF053
:1034D00087F94FF400623A493A480CF081F92246E4
:1034E0000123324938480CF0E3FC224601233149DC
:1034F00035480CF0DDFC22460123304932480CF0FF
:10350000D7FC012322462E492F480CF0D1FC4FF462
:1035100080622E4925480CF04BFD4FF480622C4907
:1035200024480CF045FD4FF480622A4923480CF0F2
:103530003FFD4FF48062284921480CF039FD2023DB
:1035400083F3118803F0A4F902F092F902F060FA13
:1035500022488368A34219DD02F082FD02F0A8F937
:1035600003F0AEF91E4B1A689A4207D09969936826
:103570008A689A4202D21B4802F0DAF8002383F3E9
:1035800011888CE7B2F5006F80D288E703F078FAF3
:10359000E2E7FEF7FDFDA8F8002080E7000B002021
:1035A000AC6A002000000000AE5A0120AC2A0120C5
:1035B000AC0A0120ACDA0020ACBA0020AC8A0020B2
:1035C000AC3A0020AC1A002060410108AC4A01204E
:1035D000ACFA0020ACAA0020AC5A0020300B00202E
:1035E00070A0012050410108AC5A012000000000E9
:1035F00000B5084B08491A6891ED000A83B00192A2
:10360000019A1B689A4202D103B05DF804FBFEF7F1
:10361000BFFD00BF000B0020941A00200000000036
:1036200000B5084B08491A6891ED000A83B0019271
:10363000019A1B689A4202D103B05DF804FBFEF7C1
:10364000A7FD00BF000B0020A81A0020000000000A
:1036500000B5084B08491A6891ED000A83B0019241
:10366000019A1B689A4202D103B05DF804FBFEF791
:103670008FFD00BF000B0020901A0020000000000A
:1036800000B5084B83B01A680192019A1B689A42F0
:1036900005D1054803B05DF804EB03F0B9B9FEF7B6
:1036A00077FD00BF000B0020300B00200000000061
:1036B00030B54368174D1A68296883B004460191F4
:1036C00012B304220270DA681B6852081146984748
:1036D0002378042B18D0202383F3118803F008F9F2
:1036E00002F006F904F10800002102F001FF02F0E7
:1036F0001FF903F015F9002383F31188019A2B6851
:103700009A4204D103B030BD02232370E3E7FEF7F1
:103710003FFD00BF000B0020000000000000000083
:1037200070B5194D82B02B68019311F00C0F0C4647
:10373000064622D114F0200109D0019A2B689A4242
:103740001FD1304602B0BDE87040FFF7B1BFE306BD
:103750000DD57268136853B1019C2868844210D15A
:10376000D2683046520802B0BDE870401847019A4E
:103770002B689A4205D102B070BD044801F0D8FF11
:10378000D8E7FEF705FD00BF000B002090410108BF
:1037900070B5194D82B02B68019311F00C0F0C46D7
:1037A000064622D114F0200109D0019A2B689A42D2
:1037B0001FD1304602B0BDE87040FFF779BFE30685
:1037C0000DD57268136853B1019C2868844210D1EA
:1037D000D2683046520802B0BDE870401847019ADE
:1037E0002B689A4205D102B070BD044801F0A0FFD9
:1037F000D8E7FEF7CDFC00BF000B00209041010888
:1038000030B50F4D0F4C2A680F4B83B02046019204
:103810004FF6FF721A8000F05BF90C4B01992A6891
:103820000B480C4D2562636203F1240591420A4B5B
:103830002363C4E90A5001D103B030BDFEF7A8FCF0
:10384000000B0020C85A0120B05A0120E84C0108A2
:103850001E010100003C0040460001000000000085
:1038600070B52C4D03782A6882B0012B0446019272
:1038700024D06368E26A5989236B22F4F04223F46E
:10388000F043090544BF42F4205243F42053C4E9F5
:103890000B23236A00221A606268236A52891A6025
:1038A000236A03225A60226A136843F040031360BC
:1038B000019A2B689A422BD102B070BD164EB042CD
:1038C0000AD0D4E9083212680C339360A26A236AE2
:1038D00012680C339360CCE70346104A406A0A2111
:1038E00006F0CEFE80B9B06A0B4B0D4A0A2106F0F5
:1038F000C7FE28B90B4A136C43F400431364E0E796
:10390000094801F015FFF5E7074801F011FFEAE764
:10391000FEF73EFC000B0020C85A0120913700083A
:103920002137000800380240704101080000000003
:1039300070B5456A174C2D68266882B00196EB6019
:10394000436A1B685960456AC36A2D6843F4806303
:103950002B60836A1B68DA60836A1B685960826A1D
:10396000036B126843F480631360436A1A68136838
:1039700043F001031360836A1A68136843F001037C
:103980001360019A23689A4201D102B070BDFEF71C
:10399000FFFB00BF000B0020000000000000000043
:1039A00030B5104D81682B680F4A83B001930B68C6
:1039B00023F001030B608168946A03E0936A1B1B88
:1039C000C72B09D8086810F00100F7D1019A2B68BD
:1039D0009A4204D103B030BD4FF0FF30F6E7FEF756
:1039E000D7FB00BF000B002070A0012000000000EA
:1039F000F0B5284D83B02B68019302F011FF01F060
:103A0000B7FF254B1E69F20715D55A69234C42F0C2
:103A100001025A612778BB1F012B2AD9052263684E
:103A200022701B680BB120469847042F27D0022F25
:103A300025D003232370B30710D5174A174C5369B9
:103A400043F0020353612378032B1DD063689B6806
:103A50000622227013B101211048984701F0B0FFEF
:103A6000019A2B689A4213D103B0BDE8F04003F0ED
:103A7000FFBE019A2B689A420AD103B0F0BD02231F
:103A80002370B307EAD5D8E72046FFF789FFDDE7C3
:103A9000FEF77EFB000B002000000550B45A012009
:103AA00000B5074B83B01A680192019A1B689A42CD
:103AB00004D103B05DF804EBFFF7A2BEFEF768FB8C
:103AC000000B0020000000000000000000000000CB
:103AD00000B50A4B83B01A68019201220270019965
:103AE0001A6800239142C0E9013305D10C3003B0BC
:103AF0005DF804EB03F004B8FEF74AFB000B00206E
:103B000070B51E4D82B02B6801930E46044670B30B
:103B100069B3202383F3118802F0BAFE01F0A8FEF6
:103B20002378013B012B02D9154801F001FE204604
:103B30006660FFF795FE0223237001F0B9FE02F0E4
:103B4000BFFE104B1A689A4204D0996993688A683C
:103B50009A4208D3002383F31188019A2B689A4272
:103B600009D102B070BD084801F0E2FDF2E7044857
:103B700001F0DEFDCDE7FEF70BFB00BF000B0020E0
:103B8000B041010870A00120A04101080000000020
:103B90002DE9F041214D82B02C6801940E469046EB
:103BA0001F46044600B171BB1D4801F0C1FD202332
:103BB00083F3118802F06CFE01F05AFE2378022B89
:103BC00002D0174801F0B4FD03203B46424631467F
:103BD00020702046FFF7ACFE01F06AFE02F070FE96
:103BE000104B1A689A4204D0996993688A689A427D
:103BF0000ED3002383F31188019A2B689A420BD1CC
:103C000002B0BDE8F081002BCED0002ACFD1CBE7A7
:103C1000054801F08DFDECE7FEF7BAFA000B002035
:103C2000C041010870A00120A0410108000000006F
:103C30002DE9F04F394A3A4B126883B001240192C2
:103C40001C70002963D04FF00008364CC246C346B2
:103C5000C1464746C446434647F6FF7E1DE0AB4596
:103C6000A8BFAB46024432F9026CB2F90450B44228
:103C7000B8BF3446B645A8BFB6464D4545DCA84555
:103C8000A8BFA846B2F90220BA420EDC043392451E
:103C90009BB2A8BF924699420CD95D1C6A0030F9CC
:103CA00015506545DBDDAC46DCE704339BB2994239
:103CB0001746F2D8A4EB0E04ACEB0B0CA7EB0A07EB
:103CC000A9EB0808A4B21FFA8CFCBFB21FFA88F84F
:103CD000154A12491480019C0968144BA2F802C0CD
:103CE0009780B0F8F8C4B0F8FA64A2F80680B0F88B
:103CF000FC54B0F8FE24A3F800C08C425E809D8086
:103D0000DA8008D103B0BDE8F08FA946BAE788464B
:103D10000F468C46DCE7FEF73BFA00BF000B0020A5
:103D2000FC5A01200080FFFF085B0120005B01209E
:103D300070B53F4B3F4C1A78236882B0012A01933B
:103D400005D0019A23689A4270D102B070BD3A49F9
:103D50003A4B4D6C45F480354D644E6A002546F46F
:103D600080364E624D621D61DD60196A21F00101ED
:103D70001962996921F003019961996941F0010182
:103D80009961996921F0F0019961196A21F00A019C
:103D90001962996921F00C019961996821F070010B
:103DA0009960996841F050019960996821F48031D7
:103DB00021F007019960996841F00701996019683D
:103DC00021F440711960DA629D625A61196A21F02A
:103DD00010011962996921F440719961996921F082
:103DE000807121F4E0419961996941F4C041996180
:103DF000196A21F0A00119629A639A6942F400627B
:103E00009A611A6A22F480621A621A6A42F01102F6
:103E10001A621A6842F001021A6020B100906846E6
:103E200000F076F98DE7064B0093F8E7FEF7B0F95E
:103E3000ACAD0120000B00200038024000400140E2
:103E4000313C0008000000000000000000000000FD
:103E500070B5114C82B0236801930E46154620239D
:103E600083F3118802F044FD01F042FD0B4B0C4836
:103E7000C3E9006502F004FE01F05AFD02F050FDB6
:103E8000002383F31188019A23689A4201D102B07A
:103E900070BDFEF77DF900BF000B002020700120EF
:103EA000105B012000000000000000000000000086
:103EB00070B5114C82B0236801930E46154620233D
:103EC00083F3118802F014FD01F012FD0B4B0C4836
:103ED000C3E9006502F0D4FD01F02AFD02F020FDE7
:103EE000002383F31188019A23689A4201D102B01A
:103EF00070BDFEF74DF900BF000B0020046E0120DD
:103F0000105B012000000000000000000000000025
:103F10002DE9F04F624B63499A69634B916185B01B
:103F20001B6803935E4B9B6993F821305B0700F19C
:103F3000AD805E4802F06CFD5C4802F069FD584BB4
:103F40009B6993F8212012F0040240F09F80584DA5
:103F500058482B6801680446406805EB830304EB6E
:103F6000810103F50279430001F10808019343D070
:103F7000DFF850B1504BDFF85CA1012018F8125067
:103F800018F8006019F8121019F8004005F0550CE7
:103F9000770806F0550613F80CC09E5D01F0550E2B
:103FA0004CEA061649084FEA540C01F0550104F09A
:103FB00055040CF0550C6D0813F80EE0595C1C5DAF
:103FC00013F80CC00BF8126005F0550507F0550703
:103FD00041EA0C114EEA041E0AF812E05D5D0AF88F
:103FE0000010DF5D0199013245EA071591420BF897
:103FF000005000F10200C1D1304B31493148324DFF
:104000000422FCF735FA314B314932480422FCF7DF
:104010002FFA314B314932480422FCF729FA314B4F
:10402000314932480422FCF723FADFF8D4C028686B
:104030009CF80070224A264900EBC71302F14006A3
:1040400014881C8054885C804C889C80043231F831
:10405000044BDC80964203F10803F1D1092F11D102
:10406000234B00221B688CF800204FF420719847E6
:104070002B68204A204993420B6006BF1F4B2B60E0
:104080002A604FE701378CF800704BE7064B039A24
:104090001B689A4202D105B0BDE8F08FFEF778F8B0
:1040A00070A00120E0410108000B0020105B0120FE
:1040B00020700120046E01203C0B0020DC6B0120ED
:1040C00098600120D8600120BC0B0020446C0120C6
:1040D000AC6C0120EC6C0120106C01209A60012076
:1040E000D9600120786C0120AE6C0120ED6C0120BC
:1040F000EC6D0120D8610120C00B0020D8660120A2
:10410000D86B01200000000000000000000000004B
:104110002DE9F04F494A0168494B116085B00021F3
:104120000E461B684748039302F012FC4FF4AF6140
:10413000454B009641224548454DDFF84891454C96
:10414000DFF844A1444F02F073F8444B444A18602E
:10415000136BC5F804A043F480534FF002184FF4DA
:104160007A5B13632846C5E90298A5F800B0FCF70E
:10417000C7F82046C4E901A9C4F80C80A4F800B02F
:10418000FCF7BEF805F13400C5E90EA9C5F840807A
:10419000A5F834B0FCF7B4F8324DC4F8408004F10F
:1041A0003400C4E90EA9A4F834B0FCF7A9F83146EC
:1041B00040F20C4238460CF093FDDFF8D0902A4ACA
:1041C0006E604FF400634FF080082E812A606B818F
:1041D000264CC5F80C80C7F80894FFF761FC294607
:1041E0002348244DFFF78CFC07F5027307F1080202
:1041F0004FF480711E48FFF7CBFC314620464FF448
:1042000003720CF06DFD1C4B1C4AC4F80892083474
:104210001A611946C3E900641948C3E9028503F02D
:1042200097FE074B039A1B689A4205D1144805B0C4
:10423000BDE8F04F03F0D4BEFDF7AAFFEC6D0120FE
:10424000000B0020105B0120113F0008205B0120C3
:10425000DC6B0120446C0120207001201C5B0120DC
:104260000038024010700120513E0008046E012009
:10427000C85A0120B13E0008F06D01202C0308004F
:10428000ACAD0120000020410000FA45EFBEADDEDC
:1042900000B5074B07491A68087083B00192019A6C
:1042A0001B689A4202D103B05DF804FBFDF770FF72
:1042B000000B00202C740120000000000000000012
:1042C00010B50B4C0B48236882B0019302F000FD3F
:1042D000094802F0DDFE019A23689A4205D105489B
:1042E00002B0BDE8104002F02BBDFDF751FF00BF4A
:1042F000000B0020CC0B0020C40B002000000000AD
:1043000070B5294D82B02B6801930E46032841D821
:10431000DFE800F01A120A02012922D9234A536960
:1043200083F40063536116E0012926D91F4A5369BB
:1043300083F4806353610EE0012918D91B4A536945
:1043400083F04003536106E001291CD9174A5369E1
:1043500083F020035361019A2B689A4218D102B06E
:1043600070BD124B4FF4006229B15A83F3E70F4B33
:1043700040220029F9D11A83EDE70C4B4FF48062FB
:104380000029F8D0F1E7094B20220029F3D0ECE70F
:10439000FDF7FEFE0024E0B231460134FFF7B0FF26
:1043A000042CF8D1D7E700BF000B0020000C02401E
:1043B00070B5094D094E2C6882B000EB40000194A5
:1043C000315434180198296862708842A37001D171
:1043D00002B070BDFDF7DCFE000B00203074012040
:1043E00030B50B4B0B4C00EB4000184483B0435CE2
:1043F0002568019533B94254019A23689A4204D141
:1044000003B030BD00234354F6E7FDF7C1FE00BF03
:1044100030740120000B00200000000000000000AC
:1044200000B50D4B83B01A68019201280BD90B49D6
:104430004A6982F004024A61019A1B689A4209D1D2
:1044400003B05DF804FB054A042108B95183F3E782
:104450001183F1E7FDF79CFE000B002000040240F1
:1044600000B50E4B83B01A68019201280BD90C4994
:104470004A6982F480424A61019A1B689A420AD1D1
:1044800003B05DF804FB064A4FF4804108B951833C
:10449000F2E71183F0E7FDF77BFE00BF000B002081
:1044A000000C0240000000000000000000000000BE
:1044B000F0B50D4F0D4C3B6883B0002501932E469F
:1044C000E8B200210135FFF71BFF042D267066704E
:1044D000A67004F10304F3D1019A3B689A4201D11A
:1044E00003B0F0BDFDF754FE000B00203074012036
:1044F00030B5094B094D044607CB83B02B680193B7
:10450000206001982B6861609842A26001D103B0DD
:1045100030BDFDF73DFE00BF30740120000B0020D0
:104520002DE9F043254E83B034680194042A9DF8A8
:104530002890144605460F46984639D9B9F1000F20
:1045400014BF00224FF08052640002EB0863013C6C
:104550001C4405F00F0527F01F07202383F3118863
:1045600002F096F93D4301F083F9154B1035DD60FB
:104570001C6101F09DF902F0A3F9124B1A689A42EE
:1045800004D0996993688A689A420DD3002383F313
:104590001188BFF36F8FBFF34F8F019A33689A4230
:1045A0000AD103B0BDE8F083074801F0C1F8EDE798
:1045B000064801F0BDF8C1E7FDF7EAFD000B002059
:1045C00090ED00E070A00120704201085042010807
:1045D00030B5224D224C2B68224A85B00393636884
:1045E00043F004036360536A43F48033536220232F
:1045F00083F3118802F04CF901F03AF917221A4BB3
:10460000E260236101F054F902F05AF9174B1A687D
:104610009A4204D0996993688A689A4218D3002014
:1046200080F31188BFF36F8FBFF34F8F03231D22D9
:1046300000904FF00051FFF773FF094A536843F0B1
:1046400001035360039A2B689A4205D105B030BD2F
:10465000074801F06DF8E2E7FDF79AFD000B002036
:1046600090ED00E000ED00E00900001070A00120D6
:10467000704201080000000000000000000000007F
:1046800070B51A4D1A4C1B4E0FCD0FC49EB02A6840
:10469000336822801D93EFF30981682203A8FDF798
:1046A0003FFB154B9D6AAA0714D4EB0708D5124BA4
:1046B00008995B6B114A00910D4880210CF060FB5A
:1046C0001D9A33689A420FD109481EB0BDE8704068
:1046D00001F02EB8099A5B6B0092A4F11000084A11
:1046E00080210CF04DFBE0E7FDF752FD344201085C
:1046F0003C740120000B002000ED00E01042010896
:10470000F04101080000000000000000000000006F
:1047100000B51F4B0278196883B00191E2B11D4AC0
:104720004FF4005111834278EAB11A4A4FF4805194
:1047300011838278F2B1174A4FF480411183C27815
:10474000FAB9144A4FF400415183019A1B689A4206
:104750001CD103B05DF804FB0E4A4FF400515183A5
:104760004278002AE1D10B4A4FF48051518382787C
:10477000002AE0D1074A4FF480415183C278002AD1
:10478000DFD0044A4FF400411183DEE7FDF700FD5E
:10479000000B00200010024000000000000000009C
:1047A00000B51F4B0278196883B00191E2B11D4A30
:1047B0004FF4007111834278EAB11A4A4FF48071C4
:1047C00011838278F2B1174A4FF400611183C278E5
:1047D000FAB9144A4FF480615183019A1B689A42D6
:1047E0001CD103B05DF804FB0E4A4FF400715183F5
:1047F0004278002AE1D10B4A4FF4807151838278CC
:10480000002AE0D1074A4FF400615183C278002AA0
:10481000DFD0044A4FF480611183DEE7FDF7B8FC76
:10482000000B00200010024000000000000000000B
:1048300030B50C4A0C4B116883B04FF40055019110
:104840004FF480544FF400414FF480405D835C830B
:104850005883598301991368994201D103B030BD3F
:10486000FDF796FC000B0020001002400000000045
:1048700030B50C4A0C4B116883B04FF400750191B0
:104880004FF480744FF480614FF400605D835C836B
:104890005883598301991368994201D103B030BDFF
:1048A000FDF776FC000B0020001002400000000025
:1048B00010B50B4C0B48236882B09922002101935C
:1048C00003F09EFC019A23689A4206D10548002114
:1048D00002B0BDE8104003F07BBDFDF759FC00BFFE
:1048E000000B002040AE012000000000000000008E
:1048F00010B50B4C0B48236882B09922002101931C
:1049000003F07EFC019A23689A4206D105480021F3
:1049100002B0BDE8104003F05BBDFDF739FC00BFFD
:10492000000B00205CAE0120000000000000000031
:1049300000B5084B83B01A680192019A1B689A422D
:1049400006D10548002103B05DF804EB03F0A8BCD4
:10495000FDF71EFC000B002040AE0120000000000F
:1049600000B5084B83B01A680192019A1B689A42FD
:1049700006D10548002103B05DF804EB03F090BCBC
:10498000FDF706FC000B00205CAE012000000000DB
:1049900070B51A4C1A4E2378326882B0022B0192FD
:1049A000A26811D165781748013505F0070500EBBD
:1049B0008500904763686570013B6360019A3368C6
:1049C0009A4219D102B070BD012B08D00199336809
:1049D000994211D10C4802B0BDE87040104765788B
:1049E0000848013D05F0070500EB85009047636826
:1049F000657001336360E1E7FDF7CAFBD474012001
:104A0000000B0020104301080043010800000000D3
:104A100070B51A4C1A4E2378326882B0012B01927D
:104A2000A26811D165781748013505F0070500EB3C
:104A3000850090476368657001336360019A33684D
:104A40009A4219D102B070BD022B08D00199336887
:104A5000994211D10C4802B0BDE87040104765780A
:104A60000848013D05F0070500EB850090476368A5
:104A70006570013B6360E1E7FDF78AFBBC740120D0
:104A8000000B002010430108004301080000000053
:104A900030B51F4D85B02B68039340F24C439942CB
:104AA000044626DCA3F69803994211DB4B00002B49
:104AB00029D10370036998474FF47A71039A2B68E0
:104AC0009A421ED1606905B0BDE8304003F050BB8A
:104AD000104B02225B42227040F2892293420E491F
:104AE00091FBF3F189B207DC0191E36898470199E2
:104AF000E4E7012303702D2101912369984701996F
:104B0000DCE7FDF745FBE4DD01220270E4E700BFCE
:104B1000000B002068F7FFFFA086010000000000E6
:104B200000B5084B83B01A680192019A1B689A423B
:104B300006D10146044803B05DF804EBFFF7A8BFB7
:104B4000FDF726FB000B0020BC74012000000000D4
:104B500000B5084B83B01A680192019A1B689A420B
:104B600006D10146044803B05DF804EBFFF790BF9F
:104B7000FDF70EFB000B0020D474012000000000A4
:104B800000B5094B094A1968506883B000EBD07032
:104B90000191019A1B689A4203D1401003B05DF85D
:104BA00004FBFDF7F5FA00BF000B0020BC740120E8
:104BB00000B5094B094A1968506883B000EBD07002
:104BC0000191019A1B689A4203D1401003B05DF82D
:104BD00004FBFDF7DDFA00BF000B0020D4740120B8
:104BE00000B5084B08491A6883B040000192019A49
:104BF0001B6848609A4202D103B05DF804FBFDF7E0
:104C0000C7FA00BF000B0020BC74012000000000A8
:104C100000B5084B08491A6883B040000192019A18
:104C20001B6848609A4202D103B05DF804FBFDF7AF
:104C3000AFFA00BF000B0020D47401200000000078
:104C400070B51D4E1D4A1E4B30681E491E4C9160AA
:104C500082B00021D46001901C4C1D481D4D9D6008
:104C6000117051705160106154611B481B4A1C4DFA
:104C7000D8601C48197059705960C3E90425FFF7C2
:104C800047FD1848FFF78CFD1749204603F020FA2E
:104C9000204603F055FB2846144903F019FA019AFF
:104CA00033689A4205D1284602B0BDE8704003F04F
:104CB00047BBFDF76DFA00BF000B0020D474012044
:104CC000BC74012011470008B148000840AE012023
:104CD00031490008A1470008F1480008614900086F
:104CE0005CAE012000430108C04201088042010877
:104CF0000A490B4B09680B4A82B0202001914021E0
:104D000058834FF4806559834FF400644FF480401A
:104D100004215D835C8358835183FEE7000B0020F0
:104D2000000C0240000402400000000000000000EF
:104D300010B51E491E4A0B78106882B0013B0190E5
:104D4000072B0AD8DFE803F012151C1F26290F04D1
:104D500018480824012304830B70019913689942B1
:104D600021D102B010BD08230B70F6E702230B70AF
:104D7000F3E711484FF48054032304830B70ECE7EE
:104D800004230B70E9E70C484FF4804405230483A7
:104D90000B70E2E706230B70DFE7064804240723C5
:104DA00004830B70D9E7FDF7F3F900BF68780120A1
:104DB000000B002000100240000402400000000030
:104DC00030B50C4B0C4918680C4A83B04FF4804541
:104DD00001904FF480504883042408204D8354836D
:104DE0005083019A1B689A4201D103B030BDFDF790
:104DF000CFF900BF000B0020000402400010024069
:104E00002DE9F04F4E4B4F4A9B694F499961A5B030
:104E100007AE05AD80231768009331462A4600246B
:104E20000CA84A4B2397CDE90766CDE90555CDE996
:104E300009440B9400F04CFB0CA9454A4548434CEF
:104E4000454DDFF83481DFF834B1DFF834A100F0EC
:104E500067FB04F11C0604F16007A146504601F00F
:104E6000D7FD2A682B69226063602A6A2B6BA260D7
:104E7000E3606A686B69226163616A6A6B6BA26155
:104E8000E361AA68AB6922626362AA6AAB6BA26241
:104E9000E362EA68EB6922636363EA6AEB6B2F49BA
:104EA000A263E36351F8043F0A6AB142A3EB020331
:104EB0000B64F7D1802249460CA800F061FB98F8FA
:104EC0000030002BCAD09BF8003033B3012BC5D182
:104ED000DFF8B0C02248614650F8042B51F8043F77
:104EE000B84213440B60F7D11E4A13780133DBB28A
:104EF000642B1370B2D11C495CF8043F1B4A82FB3F
:104F00000302DB17C3EB621341F8043B184B9C45CB
:104F1000F2D1002388F80030A0E719462022124879
:104F200003930BF0DDFE039B1248194620220BF081
:104F3000D7FE0C49039B0B7001228BF800208DE7F4
:104F400070A00120000B0020304301087075012083
:104F500070430108BC1500200C7501206C75012000
:104F6000B07501204D750120D07501201F85EB51D2
:104F70006C750120507501204C7501204E75012083
:104F8000E00B00204C750120000000000000000034
:104F900070B502691E4D52882B6882B006460C46D9
:104FA0001C480193920000210BF09AFE33695B8844
:104FB0005BB1184AA11E002331F8020F42F8040B1E
:104FC0003069408801339842F6D8202383F3118852
:104FD00001F08EFC00F08CFC00F01AFD0E48836896
:104FE000002B0FDD00F0A4FC01F09AFC002383F3FA
:104FF0001188019A2B68094901209A42087004D14E
:1050000002B070BD01F03CFDECE7FDF7C1F800BF58
:10501000000B00200C750120E00B002068780120B7
:1050200070B51F4D1F4C2E78236884B0012E03935A
:1050300005D0039A23689A422FD104B070BD002195
:10504000284602F06DFD284602F02AFE3346284627
:10505000154A164902F0E4FD1549164803F038F8E0
:105060004FF496720021134803F0CAF8002111484A
:1050700003F0AEF90F4803F063F931464FF4827242
:105080000C4803F0BDF80023009340220A4B0B4864
:105090004FF41E7101F0CCF8CBE7FDF779F800BFB3
:1050A000CCA70120000B0020EC7401204043010834
:1050B0008043010824AE0120014E0008F075012054
:1050C00030B50C4D0C4A2B680C4C83B00021019379
:1050D000012311702370142001F002F92378002BB2
:1050E000F9D1019A2B689A4201D103B030BDFDF786
:1050F0004FF800BF000B00204E7501204C750120B9
:1051000010B50E4A82B013680193072811D80C49D4
:1051100000F1180300F1100451F8233051F8240075
:10512000C01A20EAE07001991368994203D102B0D5
:1051300010BD0020F7E7FDF72BF800BF000B0020A3
:105140007075012000000000000000000000000059
:1051500080B5164A164B9269164E17491B68DFF840
:105160006480164D164C916182B0374601932846F3
:10517000FFF7BEF9204604F05BFA3B462A460C21B5
:10518000204604F0D5FA204604F092FA3078FFF772
:105190007FF898F80030033B012B4FF0140002D940
:1051A00001F09EF8E3E7FFF78BF8E0E770A001203D
:1051B000000B00206C780120D0430108E08D012015
:1051C000CCAD0120B45A0120000000000000000016
:1051D00010B50C4C0C4923680C4884B0039304F0C0
:1051E000DFF9002300934122094B0A484FF4AF61D5
:1051F00001F01EF8039A23689A4201D104B010BD51
:10520000FCF7C6FF000B0020C0430108CCAD012015
:1052100051510008688801200000000000000000D3
:1052200000B50F4B83B01868019002290CD00329F8
:105230000CD001290B4818BF0020019A1B689A4224
:105240000BD103B05DF804FB0748F6E7032A96BFCD
:105250000648002000EBC200EFE7FCF799FF00BF13
:10526000000B0020C044010860440108704501089B
:1052700070B5154C82B02368019302291CD10D46EC
:105280000646202383F3118801F032FB00F030FB47
:1052900030460E4A012104F04BFB29460C4A3046A9
:1052A00004F046FB0B4804F01BF800F041FB01F052
:1052B00037FB002383F31188019A23689A4201D1B6
:1052C00002B070BDFCF764FF000B0020E043010852
:1052D00010440108DC9D01200000000000000000D7
:1052E00030B5134D134C2B68134883B0019303F072
:1052F0006FFF1249104803F09BFF226D936B23F45C
:10530000002393634FF47A7000F0EAFF20460C49C3
:1053100004F0BEFA226D936B43F400239363019A69
:105320002B689A4201D103B030BDFCF731FF00BFBA
:10533000000B002030AB0120DC9D0120404401081F
:1053400050440108000000000000000000000000C0
:1053500000B5084B83B01A680192019A1B689A4203
:1053600005D1054803B05DF804EB01F0B1BCFCF7D2
:105370000FFF00BF000B0020EC0B0020000000001E
:1053800000B5084B83B01A680192019A1B689A42D3
:1053900005D1054803B05DF804EB01F0D1BCFCF782
:1053A000F7FE00BF000B0020EC0B00200000000007
:1053B00070B50D4C82B0236801930D1E06460DDDBD
:1053C000284602F0CDF918B90C2333604FF0FF30B6
:1053D000019A23689A4205D102B070BD034800F0DB
:1053E000A7F9EDE7FCF7D4FE000B0020904501087B
:1053F00000B5064B83B01A680192019A1B689A4265
:1054000002D103B05DF804FBFCF7C2FE000B0020E4
:1054100000B5074B83B01A680192019A1B689A4243
:1054200004D103B05DF804EB01F052BCFCF7B0FE10
:10543000000B002000000000000000000000000041
:1054400000B5074B83B01A680192019A1B689A4213
:1054500004D103B05DF804EB01F072BCFCF798FED8
:10546000000B002000000000000000000000000011
:1054700000B5074B83B01A680192019A1B689A42E3
:1054800004D103B05DF804EB01F082BDFCF780FEAF
:10549000000B0020000000000000000000000000E1
:1054A00010B5084B82B01C68019400240460019C74
:1054B0001B689C42C0E9011201D102B010BDFCF78B
:1054C00067FE00BF000B002000000000000000008D
:1054D0002DE9F0430E4D83B02C68019404469946A3
:1054E0000F46164610304C220021DDF828800BF0C4
:1054F000F7FBC4F80090019A2B68E6609A42C4E971
:10550000018702D103B0BDE8F083FCF741FE00BF84
:10551000000B002000000000000000000000000060
:10552000F0B5144E83B001F11003174632680192B2
:105530000446412218460D4600210BF0D1FB3946A6
:1055400040220BF065FC6068FFF762FF236803B13F
:10555000AB652560A068FFF78BFF019A33689A421C
:1055600005D1606803B0BDE8F040FFF769BFFCF704
:105570000FFE00BF000B0020000000000000000034
:10558000F0B51C4E436883B00546934230680190E5
:1055900006D20020019A33689A4229D103B0F0BDA7
:1055A00014460F46A868FFF733FF2246394628689D
:1055B000FCF7B6FB012385F85130E868FFF758FF88
:1055C0006C6D84B123681868FFF722FF23689D6023
:1055D00023685868FFF74CFF23681868FFF730FF0F
:1055E0006468002CEED1A868FFF72AFF0120D1E7FC
:1055F000FCF7CEFD000B00200000000000000000C2
:1056000000B5064B83B01A680192019A1B689A4252
:1056100002D103B05DF804FBFCF7BAFD000B0020DB
:10562000024B82B01B680193FEE700BF000B002015
:1056300000B5044B04481B6883B0019300F078F870
:10564000FEE700BF000B0020A0450108000000009D
:10565000024B82B01B680193FEE700BF000B0020E5
:10566000F0B5294E294B3268294885B000240392B1
:105670009C60D968274A4FF6FF0529400A43DA6043
:10568000C2682549254D42F08072C2600A6842F026
:1056900001020A6010202022D87783F8222000F02F
:1056A000DFFA00F045FA01F043F802F031F802F0B9
:1056B0009FF801F095F800F0FBF9402105F58860AE
:1056C00000F01EFD0127164BC36180F82070A86111
:1056D00000F0A6F884F3118862B6AB69114A9A61AA
:1056E0004FF4C4713A46104B009405F59D6000F0EC
:1056F0009FFD039A33680D4981619A4201D105B03B
:10570000F0BDFCF745FD00BF000B002000ED00E000
:10571000F0ED00E00003FA05001000E070A00120A9
:10572000000400202047010851560008C045010828
:1057300000B5054B83B01B680193044672B6FFF7B2
:10574000D7FA024BDC62FEE7000B002070A00120BC
:105750002DE9F047DFF890A0224DDAF8003082B052
:10576000019300F055F9AB6993F8232012B1013A87
:1057700083F823205A6ADFF8748001325A6200F0FD
:1057800047F9AB6AEA6901334245AB6220D09368BE
:10579000013B9360EC69A668D6B94FF020092368F5
:1057A000E768E660C3F804802368EB6100F0C0F8A6
:1057B00001F0B6F886F311882069B84789F311889B
:1057C00001F096F800F094F8EC69A368002BE6D09D
:1057D000019ADAF800309A4202D102B0BDE8F087AF
:1057E000FCF7D6FC70A00120000B00208CA001204B
:1057F00010B5094C094A236882B001935168536877
:105800005B1A9842FBD8019A23689A4201D102B0F0
:1058100010BDFCF7BDFC00BF000B0020001000E035
:1058200000B50E4A0E4B116B186883B0019009B990
:10583000526B4AB1019A1B689A420CD1094803B0D5
:105840005DF804EBFFF774BF019A1B689A4202D11E
:1058500003B05DF804FBFCF79BFC00BF70A00120C7
:10586000000B0020D04501080000000000000000EF
:1058700030B50B4C0B4D236B2A6883B001920BB9EA
:10588000636B13B10848FFF753FF019A2B6801219E
:105890009A42616301D103B030BDFCF779FC00BFCF
:1058A00070A00120000B002000460108000000004D
:1058B00030B50C4C0C4D236B2A6883B0019253B960
:1058C000636B002B07DD019A2B6800219A4261630C
:1058D00005D103B030BD0548FFF72AFFF3E7FCF719
:1058E00057FC00BF70A00120000B002020460108DB
:1058F00030B50B4C0B4D236B2A6883B0002B019203
:1059000001DD636B13B10848FFF712FF019A2B68A2
:1059100001219A42616301D103B030BDFCF738FC2C
:1059200070A00120000B00201046010800000000BC
:1059300030B50C4C0C4D236B2A6883B0002B0192C0
:105940000ADD636B002B07DD019A2B6800219A4268
:10595000616305D103B030BD0448FFF7E9FEF3E70A
:10596000FCF716FC70A00120000B00203046010857
:1059700030B50F4D83B02B680193202383F311883A
:105980000C4C236B002B01DB626B1AB10A48FFF74A
:10599000CFFE236B01332363002383F31188019A25
:1059A0002B689A4201D103B030BDFCF7F1FB00BF78
:1059B000000B002070A00120E0450108000000005D
:1059C00030B50F4D83B02B680193202383F31188EA
:1059D0000C4C236B002B01DD626B1AB10A48FFF7F8
:1059E000A7FE236B013B2363002383F31188019AF5
:1059F0002B689A4201D103B030BDFCF7C9FB00BF50
:105A0000000B002070A00120F045010800000000FC
:105A100000B50F4A0F4B116B186883B00029019035
:105A200009DB526B002A06DD019A1B689A420CD1F1
:105A300003B05DF804FB019A1B689A4205D1064841
:105A400003B05DF804EBFFF773BEFCF7A1FB00BFEA
:105A500070A00120000B002040460108000000005B
:105A600000B50E4A0E4B116B186883B0019049B90E
:105A7000526B002A06DD019A1B689A420CD103B0D2
:105A80005DF804FB019A1B689A4205D1054803B0F2
:105A90005DF804EBFFF74CBEFCF77AFB70A0012029
:105AA000000B00205046010800000000000000002C
:105AB00010B5084A084B116882B040240191019941
:105AC000126818199142C3E90E4001D102B010BD0D
:105AD000FCF75EFB000B002070A00120000000001E
