:020000040800F2
:1000000000040020C1010008C1420008C1420008EC
:10001000E1350008C1420008C1420008C1420008A1
:10002000C1420008C1420008C14200084162000804
:10003000C1420008C1420008C142000841C4000892
:10004000C142000831980008C1990008119A0008BF
:10005000C1420008C142000871950008C19500081E
:100060001196000861960008B196000841880008C2
:1000700091880008E188000831890008818900081A
:10008000D1890008218A0008B1920008B19B0008BC
:10009000219C0008D19C0008819D00080197000860
:1000A000C1420008C1420008F1BE0008C142000878
:1000B00001C0000841C0000881C0000881A90008F3
:1000C000C1AA0008C1420008C1420008C14200089C
:1000D000C1420008C1420008C142000801C5000831
:1000E0009197000881980008D1980008C142000843
:1000F000C1420008C1420008C1420008718A0008DC
:10010000C1420008119F0008C1C00008C142000898
:10011000C1420008C1420008B1BE0008C142000847
:10012000C18A0008118B0008618B0008B18B0008A0
:10013000018C0008C142000821990008C142000852
:10014000C1420008C1420008C142000841B900088C
:10015000518C0008A18C0008F18C0008C1420008F5
:10016000C1420008C1420008C1420008C142000863
:1001700071990008C1420008E12B0008C142000843
:10018000C1420008C1420008C1420008C142000843
:10019000C1420008C1420008C1420008C142000833
:1001A000C1420008C1420008C1420008C142000823
:1001B000C1420008C1420008C1420008C142000813
:1001C00072B62E4880F3098840F20000CCF200009D
:1001D0004EF63471CEF20001086040F20000C0F229
:1001E000F0004EF68851CEF2000108604FF000009A
:1001F000E1EE100A4EF63C71CEF2000108600620D6
:1002000080F31488BFF36F8F0CF0C2FA4FF05530B3
:100210001B491C4A91423CBF41F8040BFAE71A49BA
:10022000164A91423CBF41F8040BFAE71749184AB5
:10023000184B9A423EBF51F8040B42F8040BF8E702
:1002400000201549154A91423CBF41F8040BFAE7DA
:1002500004F01EF8124C134DAC4203DA54F8041BA0
:100260008847F9E701F05CFF0F4C104DAC4203DA10
:1002700054F8041B8847F9E704F01AB80008002076
:10028000000000200004002000040020785D010828
:10029000000800209415002098150020D08401202B
:1002A000C0010008C0010008C0010008C00100082A
:1002B0002DE9F04F2DED108AC1F80CD0D0F80CD0FC
:1002C000BDEC108ABDE8F08F04F03AF905F0F8F8BB
:1002D000002383F311882846A047002004F0C0FEC5
:1002E00005F0D6F804F00CF904F02AFD04F028F922
:1002F00005F0E6F800DFFEE7000000000000000067
:100300002DE9F843544B80461A68544882422DED3B
:10031000028B1BD052490B68DA0405D40A6842F4F8
:1003200080530B60012000E000204E4A4E491160CE
:1003300013684A4A934208D147490B6030B1484894
:10034000036823F48052026000E0FEE798ED018A22
:10035000B5EE408A0021F1EE10FAC8F81C10C8F87A
:100360001810C8F81410C8F81010C8F82810C8F8E9
:100370002410C8F8201029D0DFED3C7A28EE270A97
:1003800010EE100A01F038F8044618EE100A0D4677
:1003900001F032F80646B8F800000F4601F01AF8EE
:1003A0002BA3D3E9002301F0ADF902460B463046FA
:1003B000394600F0C3FE02460B462046294601F0AE
:1003C000A1F901F0B5FAA8F82C0001E0A8F82C106A
:1003D00098ED028AB5EE408AF1EE10FA26D0B8F810
:1003E00000904FEA092000F0F5FF044618EE100ACD
:1003F0000D4601F001F816A3D3E9002301F058F8E7
:10040000064648460F4600F0E5FF02460B463046DA
:10041000394600F093FE02460B462046294601F07D
:1004200071F901F085FAA8F82E0002E00020A8F882
:100430002E00B8F800204FF47A73B2FBF3F1A8F85D
:100440003010BDEC028BBDE8F88300BFAFF3008035
:100450001F85EB51B81E194098150020CDB5E8B5A1
:100460003038024000300240C2A507F4000080434B
:100470002DE9F04F9BB083461992A94A1891A948DB
:100480001168814200D0FEE79E6AB3F80CC09F69F4
:100490009A8DD98D039603261C6A5D6A059706928C
:1004A00006FB0CF74FEA8C0206264FEA4C000B9134
:1004B0000E97052106FB0CF70F9207220294049574
:1004C0000D90119701FB0CF04FEACC0602FB0CF1EA
:1004D00000271D695C69D3F81CA010901291179633
:1004E0000197188EDDF80490814580F20A818E48CC
:1004F0009BF800601BF80C7010F80690C25DA144D8
:100500008419511994F8008194F8002201EB4808ED
:10051000CDF81C80DDF834801BF80860855DC719B4
:10052000A9180E9A97F800411BF8022097F800725C
:1005300001EB4405815C0895CC1981190F9E91F857
:10054000008191F8007204EB48081BF80640CDF8D2
:1005500024808218055D92F8006192F80022E91962
:1005600001EB460505EB0807DDF8408015971BF801
:1005700008700A950419C15D94F8005194F800427E
:10058000DDF81C808E1806EB4501119D089A1BF8BA
:1005900005508E18C719425D1696161997F8002156
:1005A00006EB42029044CDF85080129C97F80072FE
:1005B0001BF804604519845DE41995F8007195F8FD
:1005C0000052801904EB47044FF01C0804EB0907A4
:1005D00090F80061139708FB09AADDF81C800C94C1
:1005E0000AEB0209152705EB460490F8005207FBB9
:1005F0000890099FDDF820900A2606FB070A0F27BE
:1006000007FB09A04FF00308DDF8289008FB010064
:100610004FF0060A0AFB0900009015984FF03009C8
:1006200009FB00FADDF858902E2000FB09A0824655
:100630000598824413984FF0240909FB00AA1498E6
:100640004FF02A0909FB00AA0898DDF8249008FB5E
:1006500000F8062000FB0988DDF81C9008EB090073
:1006600007FB01010A9F0C98DDF8009006FB0718B4
:100670001C2606FB008115270B9807FB021205922A
:10068000A9F5003868B1029E049FCDF8108006EBF2
:100690000801CE1B46434FF4807296FBF2F00290A5
:1006A0008046069961B1039E08FB01F8C1F5807789
:1006B00006FB07894FF4807299FBF2F003908046A5
:1006C000199901FB08F7002F02DD0837381103E004
:1006D000083F102697FBF6F047F6BC72019E1349BF
:1006E000189FDDF85C809042A8BF1046DA897243FB
:1006F0008842A8BF0146013627F81210C34401966C
:10070000EFE61D615C61029D059C1D629C61039D7D
:10071000049CC3F81CA05C629D621BB0BDE8F08F16
:1007200098150020CDB5E8B5000800204480FFFFF3
:100730002DE9F04FA1B0C74C1F92C74A1E91116816
:10074000A14200D0FEE79F6A9A69998DDC8D0497DB
:100750009F89069207910F940322052106241D6AA2
:100760005E6A03957A4379437C43129214911594FF
:10077000072209210A24794305964FEA47084FEAE0
:1007800087097A434FEAC70A7C431E695D69D3F83B
:100790001CB01891CDF84480CDF84C901692CDF84D
:1007A0005CA01D94002102911A8E0299914280F260
:1007B0005981AA4A047812F80490A944C55D111918
:1007C00012F8058091F8004191F800A2464406EB2A
:1007D0004406119C0896045D5519165D95F800C1F4
:1007E00095F8005206EB0A0808EB4C0ADDF8488041
:1007F000CDF824A010F80810DDF84C80565C1419D0
:1008000006EB050A10F8085094F800C1565D94F8FC
:10081000004251180AEB4C0C361991F800A1149CB7
:1008200091F80012CDF828C006EB4A08065DCDF815
:100830002C80945DDDF85480551904EB010A95F87D
:10084000004195F800520AEB44010C9110F8081091
:100850009619545C641996F8005104EB45040D9404
:10086000169D96F80062DDF824A0DDF85C80A444B3
:10087000445DCDF86CC0155D5118AD1991F800615B
:1008800091F8001205EB460505EB0A060E9510F8E7
:1008900008501C961419565DDDF860A0711894F884
:1008A000006194F8004201EB460C08990CEB01063C
:1008B0001A9610F80A605519915D9219091995F860
:1008C000004192F8006195F8005201EB44012D249B
:1008D00001EB090804FB09BB10910899CDF864806D
:1008E0000BEB0C09DDF8288005EB460592F8006259
:1008F000242202FB019A152404FB08A9DDF824A098
:100900000C994FF01C0B0BFB0A994FF00A08DDF80D
:100910002CA008FB01994FF00F0B0E990BFB0A99C5
:100920004FF00308DDF834A008FB01994FF0060BE7
:100930000BFB0A99CDF80490DDF82CA00C994FF030
:100940004B0B51440BFB01F91B994FF0490A0AFB71
:10095000019B0699DDF868900BEB010A4FF03F0B05
:100960001C990BFB09AA4FF0450BDDF864900BFBBB
:1009700001AA4FF0370B0BFB09ABDDF824A00A9955
:1009800008FB0AF84FF00609DDF820A009FB0188F2
:100990000C99D0444FF00F09DDF82CA009FB018819
:1009A0000A21DDF8389001FB0A884FF01C0A0D99E6
:1009B0000AFB098804FB018A109C0F994FF02D094E
:1009C00009FB04A8DDF804A002FB0C820692AAF53C
:1009D0007A3971B1039C0599CDF8149004EB0902A2
:1009E000541A0F9A4FF48071544394FBF1F403941A
:1009F000A146079961B1049CC1F5807209FB01FC15
:100A000004FB02C94FF4807199FBF1F20492914604
:100A10001F9C04FB09F1002902DD10314C1103E099
:100A20001039202291FBF2F447F6BC718C42A8BF2A
:100A30000C46DA890299DDF874804A4308498C42F1
:100A4000A8BF21461E9C24F81210029A4044511C53
:100A5000A9E600BFCDB5E8B5981500200008002034
:100A60004480FFFF05981E615D61039E069D049C06
:100A700058629D61C3F81CB01E629C62104621B092
:100A8000BDE8F08F2DE9F04F95B0994C1392994A3B
:100A900012911168A14200D0FEE75E6A1D6A9F6A4A
:100AA0009A69998DB3F82E800C964FF00009D3F80F
:100AB00010C05E69D3F81CB00195029709920A91A3
:100AC000CDF83480CDF80C908B4904780D190C5D6D
:100AD00095F8007295F8008106EB070A067ACDF8C2
:100AE0002CA08F198E5D97F8002202EB4805AC44CC
:100AF000057C97F80081CDF810C04A194D5D92F839
:100B0000009292F8002109EB040A0AEB480C90F8D5
:100B100018A090F82090CDF814C001EB0A0494F8C6
:100B2000007294F80041BF1907EB420801EB09027B
:100B3000CDF8188092F8006292F80021771907EB3F
:100B4000440606EB080C90F8288011F80A70079606
:100B500001EB0805CDF840C095F8004295F800512A
:100B6000E619059F06EB4204E619119690F83060ED
:100B700008948C1911F8097094F80022D219049F76
:100B800002EB4502BD180F9590F8385011F8089007
:100B900094F80041DDF82C808E5D4F1997F800A283
:100BA00097F800710AEB090C0CEB4404DDF818A06F
:100BB00011F805C000941C2505FB082944440A21AE
:100BC000DDF8148001FB0A9906EB4706DDF820A04A
:100BD0000F2707FB0899032101FB0A99DDF81CA0E8
:100BE0004FF0060808FB0A99DDF810A0152101FB5B
:100BF0000A99CB44DDF84490CDF82CB04FF02E0A82
:100C00000AFB09FADDF840904FF0300B0BFB09AA04
:100C10004FF0240B0BFB04A90F9C4FF02A0A0AFB90
:100C2000049B099CDDF81890DDF810A0A344059CF6
:100C300008FB09A8DDF820A04FF0030909FB048890
:100C4000079C07FB0A890A2707FB0498DDF8009038
:100C5000DDF82CA00C9F05FB098501FB02520199D0
:100C60000992AAF500328C180D99DDF82880E51B51
:100C70004D434FF4807195FBF1F40194019F44467C
:100C80007C43029FC8EB010507FB054595FBF1F18D
:100C90000291139C6143002902DD0831091103E030
:100CA0000839102791FBF7F147F6BC75134C129FDA
:100CB0000C92A942A8BF2946039DA142B8BF214674
:100CC00079530C354030C02D03957FF4FDAE099863
:100CD000019C029D9861C3F810C05E61C3F81CB00E
:100CE0001C625A629D62102015B0BDE8F08F00BFF3
:100CF000CDB5E8B598150020000800204480FFFF1E
:100D00002DE9F04FA1B084461F92BE4A1E91BE4805
:100D10001168814200D0FEE79E6A9F6905969E8910
:100D2000D98D01967000079703277E431190019893
:100D30009A8D0F9112960521019E08924843B200A8
:100D40001490019E01980199139206277E43072271
:100D5000C700514315961797019E019F1C6A5D6A53
:100D6000169109220A2156434F434FF0000804947C
:100D700006955C691D69D3F81CB018961D97CDF8CF
:100D80000C80188EDDF80C90814580F25A819F49C5
:100D90009CF80000DDF804900F181CF8096097F823
:100DA00000A297F80021085CA2448C198E5D94F88B
:100DB000008294F80041454405EB4207119D0997D4
:100DC0001CF805504A194D5D92F8007292F80081A6
:100DD0003F18129807EB44091CF80040CDF8289002
:100DE00008190C5D90F8007290F80001BF1907EB2C
:100DF0004809DDF84C80CDF82C901CF8089001EBE8
:100E00000902CDF8089092F8006292F80021771953
:100E1000149E1CF80690159E07EB400801EB090094
:100E2000CDF8308090F8005290F800012F1907EBB0
:100E300042081CF80670029DCDF83480CA194E5D38
:100E400092F80042A41904EB40050295DDF82C80CD
:100E5000169E92F80021CF5DA844CDF86C801CF856
:100E6000068011F80950DDF8609001EB080011F8D8
:100E7000088090F8004290F8000166190A9D06EB80
:100E80004204179A0E9466191C961CF802608C197D
:100E90008E5D94F8002294F80041D519099F05EB66
:100EA0004002D5191A951CF809504F194D5D97F855
:100EB000000297F80071404400EB44002D2100EB44
:100EC0000A0401FB0ABB1090099819940BEB020A63
:100ED00006EB470424210B9F01FB00A94FF01508E6
:100EE000DDF828A00D9808FB07964FF01C0B0BFBB4
:100EF0000A69DDF830800A2606FB009A0F27DDF824
:100F0000389007FB08AB4FF0030808FB09BADDF87F
:100F100008B0062000FB0BA9CDF80090DDF834A046
:100F2000DDF830B04FF04B090AEB0B0009FB00FA7B
:100F30001B984FF0490B0BFB00A9079809EB000A1F
:100F4000DDF868901C984FF03F0B0BFB09AA4FF09F
:100F5000450BDDF864900BFB00AA4FF0370B0BFB41
:100F600009ABDDF828A00B9808FB0AF84FF006093A
:100F7000DDF824A009FB00880D9808EB0A0907FB9F
:100F800000980C9FDDF83890029806FB07864FF01A
:100F90001C0A0AFB0968152707FB008610980F9F9B
:100FA0004FF02D0909FB006A01FB02A2DDF800A049
:100FB0000792AAF57A386FB10499069ECDF8188089
:100FC00001EB0800811B79434FF4807291FBF2F72B
:100FD0000497B846089860B1059908FB00F8C0F579
:100FE000807601FB06894FF4807299FBF2F7059732
:100FF000B8461F9800FB08F6002E09DD1036771161
:101000000AE000BF98150020CDB5E8B50008002023
:10101000103E202196FBF1F7039ED8891049DDF898
:10102000748047F6BC729742A8BF17468F42A8BF8C
:10103000394670431E9F721C27F81010C444039257
:101040009FE65C61079C049A9C61059E069C1D615D
:10105000C3F81CB01A625C629E6221B0BDE8F08FDA
:101060004480FFFFAFF3008000000000000000009C
:101070004B1C012B98BF70472DE9F003911C9B0876
:10108000B1F80480B1F802900A8831F802CC8044AB
:10109000814402448444D9F80070D8F8006015688F
:1010A000DCF80040C9F80060C8F80070CCF80050C7
:1010B0001460D9F80470D8F804605568DCF804406E
:1010C000C9F80460C8F80470CCF8045054600831C2
:1010D000013BD5D1BDE8F00370474B1C012B98BFF5
:1010E00070472DE9F003911C9B08B1F80480B1F81A
:1010F00002900A8831F802CC00EB580800EB59093D
:1011000000EB520200EB5C0CD9F80070D8F80060DC
:101110001568DCF80040C9F80060C8F80070CCF829
:10112000005014600831013BDFD1BDE8F003704787
:1011300081F0004102E000BF83F0004330B54FEA88
:1011400041044FEA430594EA050F08BF90EA020FF5
:101150001FBF54EA000C55EA020C7FEA645C7FEA88
:10116000655C00F0E2804FEA5454D4EB5555B8BFAB
:101170006D420CDD2C4480EA020281EA030382EA1C
:10118000000083EA010180EA020281EA0303362DAE
:1011900088BF30BD11F0004F4FEA01314FF4801C81
:1011A0004CEA113102D0404261EB410113F0004F93
:1011B0004FEA03334CEA133302D0524263EB43034A
:1011C00094EA050F00F0A780A4F10104D5F1200EE8
:1011D0000DDB02FA0EFC22FA05F2801841F1000143
:1011E00003FA0EF2801843FA05F359410EE0A5F117
:1011F00020050EF1200E012A03FA0EFC28BF4CF048
:10120000020C43FA05F3C01851EBE37101F00045FD
:1012100007D54FF0000EDCF1000C7EEB00006EEB0A
:101220000101B1F5801F1BD3B1F5001F0CD3490894
:101230005FEA30004FEA3C0C04F101044FEA4452EB
:1012400012F5800F80F09A80BCF1004F08BF5FEA72
:10125000500C50F1000041EB045141EA050130BD52
:101260005FEA4C0C404141EB010111F4801FA4F1F5
:101270000104E9D191F0000F04BF01460020B1FA4A
:1012800081F308BF2033A3F10B03B3F120020CDA82
:101290000C3208DD02F1140CC2F10C0201FA0CF060
:1012A00021FA02F10CE002F11402D8BFC2F1200CC5
:1012B00001FA02F120FA0CFCDCBF41EA0C0190407B
:1012C000E41AA2BF01EB0451294330BD6FEA0404C4
:1012D0001F3C1CDA0C340EDC04F11404C4F12002AF
:1012E00020FA04F001FA02F340EA030021FA04F3C1
:1012F00045EA030130BDC4F10C04C4F1200220FA18
:1013000002F001FA04F340EA0300294630BD21FA55
:1013100004F0294630BD94F0000F83F4801306BF1B
:1013200081F480110134013D4EE77FEA645C18BF0F
:101330007FEA655C29D094EA050F08BF90EA020FA6
:1013400005D054EA000C04BF1946104630BD91EA9E
:10135000030F1EBF0021002030BD5FEA545C05D1A1
:101360004000494128BF41F0004130BD14F58004E0
:101370003CBF01F5801130BD01F0004545F0FE4154
:1013800041F470014FF0000030BD7FEA645C1ABF89
:10139000194610467FEA655C1CBF0B46024650EAC0
:1013A000013406BF52EA033591EA030F41F40021EC
:1013B00030BD00BF90F0000F04BF0021704730B572
:1013C0004FF4806404F132044FF000054FF0000147
:1013D00050E700BF90F0000F04BF0021704730B508
:1013E0004FF4806404F1320410F0004548BF4042DD
:1013F0004FF000013EE700BF42004FEAE2014FEA32
:1014000031014FEA02701FBF12F07F4393F07F4F0C
:1014100081F06051704732F07F4208BF704793F00F
:101420007F4F04BF41F40021704730B54FF4607422
:1014300001F0004521F000411CE700BF50EA010225
:1014400008BF704730B54FF000050AE050EA0102CE
:1014500008BF704730B511F0004502D5404261EB3E
:1014600041014FF4806404F132045FEA915C3FF47F
:10147000D8AE4FF003025FEADC0C18BF03325FEA1C
:10148000DC0C18BF033202EBDC02C2F1200300FACD
:1014900003FC20FA02F001FA03FE40EA0E0021FAF2
:1014A00002F11444BDE600BF00000000000000008F
:1014B00070B54FF0FF0C4CF4E06C1CEA11541DBFEA
:1014C0001CEA135594EA0C0F95EA0C0F00F0DEF8B5
:1014D0002C4481EA030621EA4C5123EA4C5350EA9A
:1014E000013518BF52EA033541F4801143F48013EB
:1014F00038D0A0FB02CE4FF00005E1FB02E506F07C
:101500000042E0FB03E54FF00006E1FB03569CF0D0
:10151000000F18BF4EF0010EA4F1FF04B6F5007FD6
:1015200064F5407404D25FEA4E0E6D4146EB060648
:1015300042EAC62141EA55514FEAC52040EA5E50D1
:101540004FEACE2EB4F1FD0C88BFBCF5E06F1ED87B
:10155000BEF1004F08BF5FEA500E50F1000041EBB2
:10156000045170BD06F0004646EA010140EA02005F
:1015700081EA0301B4EB5C04C2BFD4EB0C0541EA81
:10158000045170BD41F480114FF0000E013C00F396
:10159000AB8014F1360FDEBF002001F0004170BDBA
:1015A000C4F10004203C35DA0C341BDC04F11404D3
:1015B000C4F1200500FA05F320FA04F001FA05F25F
:1015C00040EA020001F0004221F0004110EBD3702C
:1015D00021FA04F642EB06015EEA430E08BF20EA58
:1015E000D37070BDC4F10C04C4F1200500FA04F3FB
:1015F00020FA05F001FA04F240EA020001F000418D
:1016000010EBD37041F100015EEA430E08BF20EAFF
:10161000D37070BDC4F1200500FA05F24EEA020E47
:1016200020FA04F301FA05F243EA020321FA04F076
:1016300001F0004121FA04F220EA020000EBD3702D
:101640005EEA430E08BF20EAD37070BD94F0000F2D
:101650000FD101F00046400041EB010111F4801F61
:1016600008BF013CF7D041EA060195F0000F18BF12
:10167000704703F00046520043EB030313F4801F4E
:1016800008BF013DF7D043EA0603704794EA0C0F08
:101690000CEA135518BF95EA0C0F0CD050EA41061E
:1016A00018BF52EA4306D1D181EA030101F000419B
:1016B0004FF0000070BD50EA410606BF10461946C3
:1016C00052EA430619D094EA0C0F02D150EA0136CF
:1016D00013D195EA0C0F05D152EA03361CBF104610
:1016E00019460AD181EA030101F0004141F0FE41AF
:1016F00041F470014FF0000070BD41F0FE4141F433
:10170000780170BD70B54FF0FF0C4CF4E06C1CEA32
:1017100011541DBF1CEA135594EA0C0F95EA0C0FE7
:1017200000F0A7F8A4EB050481EA030E52EA0335A2
:101730004FEA013100F088804FEA03334FF08055C3
:1017400045EA131343EA12634FEA022245EA1115F0
:1017500045EA10654FEA00260EF000419D4208BFA1
:10176000964244F1FD0404F5407402D25B084FEA4E
:101770003202B61A65EB03055B084FEA32024FF4FA
:1017800080104FF4002CB6EB020E75EB030E22BF57
:10179000B61A754640EA0C005B084FEA3202B6EB17
:1017A000020E75EB030E22BFB61A754640EA5C00C6
:1017B0005B084FEA3202B6EB020E75EB030E22BF56
:1017C000B61A754640EA9C005B084FEA3202B6EB57
:1017D000020E75EB030E22BFB61A754640EADC0016
:1017E00055EA060E18D04FEA051545EA16754FEA78
:1017F00006164FEAC30343EA52734FEAC2025FEA96
:101800001C1CC0D111F4801F0BD141EA00014FF024
:1018100000004FF0004CB6E711F4801F04BF0143F5
:101820000020B4F1FD0C88BFBCF5E06F3FF6AFAE11
:10183000B5EB030C04BFB6EB020C5FEA500C50F1A1
:10184000000041EB045170BD0EF0004E4EEA113124
:1018500014EB5C04C2BFD4EB0C0541EA045170BD2B
:1018600041F480114FF0000E013C90E645EA060E6F
:101870008DE60CEA135594EA0C0F08BF95EA0C0F9D
:101880003FF43BAF94EA0C0F0AD150EA01347FF4E5
:1018900034AF95EA0C0F7FF425AF104619462CE7BC
:1018A00095EA0C0F06D152EA03353FF4FDAE10461F
:1018B000194622E750EA410618BF52EA43067FF470
:1018C000C5AE50EA41047FF40DAF52EA43057FF400
:1018D000EBAE12E700000000000000000000000076
:1018E0004FEA410212F5001215D211D56FF4787348
:1018F000B3EB625212D94FEAC12343F0004343EAEB
:10190000505311F0004F23FA02F018BF40427047C5
:101910004FF00000704750EA013005D111F000404F
:1019200008BF6FF0004070474FF00000704700BFE5
:101930004A0011D212F5001211D20DD56FF478734E
:10194000B3EB62520ED44FEAC12343F0004343EAA3
:10195000505323FA02F070474FF00000704750EAEE
:10196000013002D14FF0FF3070474FF00000704758
:101970004FEA4102B2F1E04324BFB3F5001CDCF1B1
:10198000FE5C0DD901F0004C4FEAC0024CEA5070E9
:10199000B2F1004F40EB830008BF20F00100704718
:1019A00011F0804F21D113F13872BCBF01F000401B
:1019B000704741F480114FEA5252C2F11802C2F14D
:1019C000200C10FA0CF320FA02F018BF40F00100CE
:1019D0004FEAC1234FEAD32303FA0CFC40EA0C0080
:1019E00023FA02F34FEA4303CCE77FEA625307D1BD
:1019F00050EA01331EBF4FF0FE4040F440007047F4
:101A000001F0004040F0FE4040F40000704700BF8D
:101A100053B94AB9002908BF00281CBF4FF0FF3155
:101A20004FF0FF3000F074B9ADF1080C6DE904CE51
:101A300000F006F8DDF804E0DDE9022304B07047A9
:101A40002DE9F047089E04468846002B4BD18A4278
:101A5000154667D9B2FA82F24AB1C2F1200701FAFB
:101A600002F320FA07F7954047EA030894404FEA4B
:101A7000154E230CB8FBFEF71FFA85FC0EFB1788EA
:101A800043EA084307FB0CF1994209D9EB1807F127
:101A9000FF3080F01B81994240F21881023F2B44B5
:101AA0005B1AA4B2B3FBFEF00EFB103344EA03440E
:101AB00000FB0CFCA44509D92C1900F1FF3380F080
:101AC0000781A44540F2048102382C4440EA0740D3
:101AD000A4EB0C0400271EB1D4400023C6E9004348
:101AE0003946BDE8F0878B4209D9002E00F0EB8023
:101AF0000027C6E9000138463946BDE8F087B3FA49
:101B000083F7002F47D18B4202D3824200F2FA8042
:101B1000841A61EB030301209846002EE0D0C6E949
:101B20000048DDE702B9FFDEB2FA82F2002A40F097
:101B30008F80491B4FEA154E1FFA85F80127B1FB2C
:101B4000FEFC230C0EFB1C1143EA014308FB0CF1C5
:101B5000994207D9EB180CF1FF3002D2994200F2FA
:101B6000CD808446591AA3B2B1FBFEF00EFB1014CF
:101B700043EA044408FB00F8A04507D92C1900F1FA
:101B8000FF3302D2A04500F2B6801846A4EB080449
:101B900040EA0C409FE7C7F1200CBB4022FA0CFE44
:101BA0004EEA030E01FA07F420FA0CF521FA0CF3C1
:101BB0004FEA1E482543B3FBF8F92C0C08FB1933F8
:101BC0001FFA8EFA44EA034309FB0AF49C4202FA24
:101BD00007F200FA07F10BD91EEB030309F1FF30FE
:101BE00080F087809C4240F28480A9F1020973440E
:101BF0001B1BADB2B3FBF8F008FB103345EA0344FE
:101C000000FB0AFAA24508D91EEB040400F1FF33D9
:101C10006BD2A24569D90238744440EA0940A0FB5E
:101C20000289A4EB0A044C45C2464B4654D351D01A
:101C3000002E69D0B1EB0A0564EB030404FA0CFC36
:101C4000FD40FC404CEA0505C6E90054002747E783
:101C5000C2F1200320FA03F7954001FA02F021FABD
:101C600003F34FEA154E3843010CB3FBFEF71FFA9E
:101C700085F80EFB173341EA034107FB08F38B425B
:101C800004FA02F407D9691807F1FF3C2FD28B42FE
:101C90002DD9023F2944CB1A81B2B3FBFEF00EFBD3
:101CA000103341EA034100FB08F38B4207D969185E
:101CB00000F1FF3C17D28B4215D902382944C91ACA
:101CC00040EA07473BE73746304609E70746E7E67D
:101CD0001846FBE64145ABD2B8EB020A69EB0E02AF
:101CE00001381346A4E76046E9E7184695E76746DA
:101CF000D1E781467CE702382C4447E7ACF1020C7F
:101D00002B442FE7384608E73746E9E60000000095
:101D1000704700BF0000000000000000000000004D
:101D2000844641EA000313F003036DD1403A41D3E6
:101D300051F8043B40F8043B51F8043B40F8043BA5
:101D400051F8043B40F8043B51F8043B40F8043B95
:101D500051F8043B40F8043B51F8043B40F8043B85
:101D600051F8043B40F8043B51F8043B40F8043B75
:101D700051F8043B40F8043B51F8043B40F8043B65
:101D800051F8043B40F8043B51F8043B40F8043B55
:101D900051F8043B40F8043B51F8043B40F8043B45
:101DA00051F8043B40F8043B51F8043B40F8043B35
:101DB000403ABDD2303211D351F8043B40F8043BD5
:101DC00051F8043B40F8043B51F8043B40F8043B15
:101DD00051F8043B40F8043B103AEDD20C3205D3E5
:101DE00051F8043B40F8043B043AF9D2043208D0DD
:101DF000D2071CBF11F8013B00F8013B01D30B884F
:101E000003806046704700BF082A13D38B078DD02C
:101E100010F003038AD0C3F10403D21ADB071CBFFE
:101E200011F8013B00F8013B80D331F8023B20F868
:101E3000023B7BE7043AD9D3013A11F8013B00F8A1
:101E4000013BF9D20B7803704B7843708B78837029
:101E50006046704700000000000000000000000025
:101E600090F800F06DE9024520F007016FF0000CDA
:101E700010F0070491F820F040F049804FF0000482
:101E80006FF00700D1E9002391F840F000F108005D
:101E900082FA4CF2A4FA8CF283FA4CF3A2FA8CF395
:101EA0004BBBD1E9022382FA4CF200F10800A4FAFC
:101EB0008CF283FA4CF3A2FA8CF3E3B9D1E9042350
:101EC00082FA4CF200F10800A4FA8CF283FA4CF387
:101ED000A2FA8CF37BB9D1E9062301F1200182FA41
:101EE0004CF200F10800A4FA8CF283FA4CF3A2FA47
:101EF0008CF3002BC6D0002A04BF04301A4612BA55
:101F0000B2FA82F2FDE8024500EBD2007047D1E957
:101F1000002304F00305C4F100004FEAC50514F0E6
:101F2000040F91F840F00CFA05F562EA05021CBFB7
:101F300063EA050362464FF00004A9E700000000D1
:101F400001F0FF01102A2BDB10F0070F08D010F86A
:101F5000013B013A8B422DD010F0070F42B3F6D16E
:101F6000F0B441EA012141EA014122F007047FF087
:101F700000070023F0E80256083C85EA010586EADE
:101F8000010685FA47F5A3FA87F586FA47F6A5FA1A
:101F900087F68EB9EED1F0BC01F0FF0102F0070226
:101FA00032B110F8013B013A83EA010313B1F8D1D1
:101FB0000020704701387047002D06BF35460338B2
:101FC000073815F0010F07D1013015F4807F02BFEB
:101FD000013015F4C03F0130F0BC0138704700BF3C
:101FE0004FF0FF3C06E000BF4FF0010C02E000BFE5
:101FF0004FF0010C4DF804CD4FEA410C7FEA6C5CC8
:102000004FEA430C18BF7FEA6C5C1BD001B050EA6A
:10201000410C0CBF52EA430C91EA030F02BF90EA55
:10202000020F0020704710F1000F91EA030F58BF14
:10203000994208BF90422CBFD8176FEAE37040F076
:10204000010070474FEA410C7FEA6C5C02D150EA14
:10205000013C07D14FEA430C7FEA6C5CD6D152EACF
:10206000033CD3D05DF8040B704700BF8446104694
:1020700062468C461946634600E000BF01B5FFF793
:10208000B7FF002848BF10F1000F01BD4DF808ED63
:10209000FFF7F4FF0CBF012000205DF808FB00BF34
:1020A0004DF808EDFFF7EAFF34BF012000205DF88E
:1020B00008FB00BF4DF808EDFFF7E0FF94BF0120DB
:1020C00000205DF808FB00BF4DF808EDFFF7CEFFDC
:1020D00094BF012000205DF808FB00BF4DF808ED1B
:1020E000FFF7C4FF34BF012000205DF808FB00BFEC
:1020F0004FEA410C7FEA6C5C02D150EA013C0AD104
:102100004FEA430C7FEA6C5C02D152EA033C02D1F5
:102110004FF0000070474FF00100704700000000D2
:1021200000B5114B83B01B68019304F0E9F802F08D
:10213000DFF801F0FDF90D4A0D490E4801F0F8FFF6
:1021400001F046FE0C480D4905F0EAFA01F010FFD7
:1021500001F04EFC01F08CFE094800F0E1FE00F0B9
:1021600087FB00F025F9FAE7000B0020040B0020A4
:102170000C0B00209C15002024840120200B002043
:1021800071260008000000000000000000000000B0
:1021900000B5084B83B01A680192019A1B689A42F5
:1021A00005D1054803B05DF804EB02F009B9FFF76B
:1021B000EFFF00BF000B0020F01D01080000000031
:1021C00000B5094B83B01A680192019A1B689A42C4
:1021D00008D1014605480123002203B05DF804EB55
:1021E0000BF0E6BCFFF7D4FF000B0020201E010817
:1021F0000EB410B583B005AA094C52F8041B23682D
:102200000848009201930AF01BFB019A23689A4246
:1022100004D103B0BDE8104003B07047FFF7B8FF2A
:10222000000B0020248401200000000000000000BA
:10223000D0B52DED048B524C86B0B5EEC00A2368A4
:102240000593F1EE10FAB0EE408AF0EE608A40F3AA
:102250008880F5EEC00AF1EE10FA4DDDDFED497A27
:10226000494B77EEE07AB6EE007A77EE807AF5EEBB
:10227000C08A67EE877AF1EE10FAC3ED007A41D496
:10228000B5EEC08AF1EE10FA71D4B5EEC08AF1EE67
:1022900010FA56D4D3ED007ADFED3C9A9FED3C9ACC
:1022A00067EEA97A68EEA98AC7EE897A28EE298AAC
:1022B00017EE900AFFF7A0F8C8EE897A06460F4697
:1022C00017EE900AFFF798F8C8EE097ACDE90201F7
:1022D00017EE900AFFF790F83246CDE900013B4631
:1022E0002C492D48FFF784FF059A23689A4244D170
:1022F00006B0BDEC048BD0BDF5EEC08AF1EE10FA4D
:10230000214BBDD5DFED1F7A37EEC87AF6EE006AB5
:1023100037EE687AB5EEC08AE7EE267AF1EE10FA6B
:10232000C3ED007AB1D5DFED177A9FED1C7A78EE18
:10233000A77AF6EE006A77EEC87AA7EEA67A83ED62
:10234000007AF5EEC08AF1EE10FAA3DD78EEC86AE5
:10235000DFED137AB6EE007AE6EE877AC3ED007A07
:102360009AE7B5EEC08AF1EE10FA074B8DD5F5EE7F
:10237000C08AF1EE10FAE4D5D5E7FFF709FF00BFF8
:10238000000B0020DB0FC93FA815002000003443DC
:10239000C3F54840301E010824840120DB0F49406A
:1023A000E4CB9640000000000000000000000000A8
:1023B0002DE9F0432DED028BDFF8A4829FED977A93
:1023C000D8F80030964C97489749984A83B04FF018
:1023D000FF350193F0EE475AB0EE476AF0EE476AD8
:1023E0002F462E46AC460A23F4EC017AF4EEE67A48
:1023F000F1EE10FAC8BFF0EE676AF2EC017AF4EE83
:10240000C67AC8BF0FFA83FCF1EE10FAC8BFB0EE6F
:10241000676AF1EC017AF4EEC77AC8BF1EB2F1EE3A
:1024200010FAC8BFB0EE677AF0EC017AF4EEE57A04
:10243000C8BF1DB2F1EE10FAC8BF1FB203F101030D
:10244000C8BFF0EE675A832BCED1B44571D0784B1C
:1024500093ED008AAF4211D0764BD3ED000A019A7A
:10246000D8F800309A4240F0CD80B0EE480A03B070
:10247000BDEC028BBDE8F043FFF7DABE0A2FEBDDBF
:102480006D4BDFED6E7A03EB870393ED007AB4EECC
:10249000E77AF1EE10FADFDDFC00694B0434FF004F
:1024A0001A193B44D3ED000A92ED000A0AF000FD30
:1024B000644B1C441F44F0EE408AD7ED000A94EDB3
:1024C000000A0AF0F5FC38EEC00AF8EE087AB4EE1D
:1024D000E70AF1EE10FABFDDF0EE087AB4EEE70A93
:1024E000F1EE10FAB8D5584BDFED586AD3ED005A2B
:1024F000B6EE006A20EE067A07EE906AA5EE867ABE
:10250000F8EEE77A67EE266AB7EE006A86EEA70A6B
:1025100083ED007AB4EEC60AF1EE10FA68DDB0EE93
:10252000460A0AF065FC434BF0EE400A83ED000AD0
:1025300095E70A2E8BDD464BDFED407A03EB8603F1
:1025400093ED007AB4EEE77AF1EE10FA7FF77FAF01
:10255000404BF40004344FEAC6091A194B44D3ED3A
:10256000000A92ED000A0AF0A3FC3B4B1C444B44CA
:10257000B0EE408AD3ED000A94ED000A0AF098FC10
:1025800038EE400AF8EE087AB4EEE70AF1EE10FAF7
:102590007FF75DAFF0EE087AB4EEE70AF1EE10FADD
:1025A0007FF555AF2D4B9FED297A93ED006AF6EE3E
:1025B000006A60EE267AE6EE267AF7EE006A27EEEB
:1025C000877AC3ED007A07EE906AF8EEE77A87EE35
:1025D000270AB4EEE60AF1EE10FA15DDB0EE660A4F
:1025E0000AF006FC124BB0EE408A83ED000A31E798
:1025F000FFEE007AB4EE670AF1EE10FA48BFB0EED3
:10260000670A8EE7FFF7C4FDFFEE007AB4EE670AB3
:10261000F1EE10FA48BFB0EE670AE1E700007A4435
:10262000E4450120E4550020E4A50020E4F5002065
:10263000AC150020B0150020BCA5002000401C46B1
:10264000BC850020BC350020B81500200AD76C429C
:10265000BCF50020BCD50020BC250120B41500200D
:10266000000B00200000000000000000000000003F
:102670002DE9F04F6B4FDFF8F4813B68B8F800208C
:1026800083B00193002900F0C180DFF8AC91DFF83E
:10269000B0E1DFF8B8C1644EDFED647A002504E0F4
:1026A0000435ADB2A94240F2BA8030F9153007EED8
:1026B000103A9400B8EEC77A09EB040A00EB450320
:1026C0008AED007AB3F902A007EE10AAB8EEC77A35
:1026D0000EEB040A8AED007AB3F904A007EE10AA03
:1026E000B8EEC77A0CEB040A8AED007AB3F906302B
:1026F00007EE103A531C9BB2B8EEC77A02329B0029
:10270000344492B284ED007A09EB030B0EEB030A1A
:102710000CEB0304B2F5006F3344CBED007ACAED45
:10272000007AC4ED007AC3ED007AB9D3404C237827
:102730000133DBB200252370A8F8005033B9019AA9
:102740003B689A4269D103B0BDE8F08F4FF4006254
:102750003849394825700AF0C3FE4FF40062374902
:1027600037480AF0BDFE4FF4006236492E480AF0A1
:10277000B7FE4FF40062344934480AF0B1FE2D48E8
:10278000FFF71EFD2D48FFF71BFD2E48FFF718FD34
:102790002D48FFF715FD4FF480622D4925480BF0B9
:1027A00087FA4FF480622B4924480BF081FA4FF4EA
:1027B0008062294923480BF07BFA4FF48062274955
:1027C00021480BF075FA202383F3118802F060FE94
:1027D00001F096FE01F064FF21488368AB4219DDE9
:1027E00002F086FA01F0ACFE02F06AFE1D4B1A6898
:1027F0009A4207D0996993688A689A4202D21A4825
:1028000001F0DEFD002383F3118898E7B2F5006F35
:102810008CD294E702F034FFE2E7FFF7B9FCA8F8A6
:1028200000208CE7000B0020BC65002000000000A9
:10283000BE550120BC250120BC050120BCD50020CF
:10284000BCB50020BC850020BC350020BC15002094
:10285000BC450120BCF50020BCA50020BC550020D3
:102860002C0B002000760120101E0108BC55012011
:1028700000B5084B83B01A680192019A1B689A420E
:1028800005D1054803B05DF804EB02F0C1BEFFF7C7
:102890007FFC00BF000B00202C0B0020000000007C
:1028A00030B54368174D1A68296883B00446019112
:1028B00012B304220270DA681B6852081146984766
:1028C0002378042B18D0202383F3118802F010FE04
:1028D00001F056FE04F10800002102F009FC01F0AD
:1028E0006FFE02F01DFE002383F31188019A2B680E
:1028F0009A4204D103B030BD02232370E3E7FFF70F
:1029000047FC00BF000B002000000000000000009A
:1029100070B5194D82B02B68019311F00C0F0C4665
:10292000064622D114F0200109D0019A2B689A4260
:102930001FD1304602B0BDE87040FFF7B1BFE306DB
:102940000DD57268136853B1019C2868844210D178
:10295000D2683046520802B0BDE870401847019A6C
:102960002B689A4205D102B070BD044801F028FDE1
:10297000D8E7FFF70DFC00BF000B0020801E010808
:1029800070B5194D82B02B68019311F00C0F0C46F5
:10299000064622D114F0200109D0019A2B689A42F0
:1029A0001FD1304602B0BDE87040FFF779BFE306A3
:1029B0000DD57268136853B1019C2868844210D108
:1029C000D2683046520802B0BDE870401847019AFC
:1029D0002B689A4205D102B070BD044801F0F0FCAA
:1029E000D8E7FFF7D5FB00BF000B0020801E0108D1
:1029F00030B50F4D0F4C2A680F4B83B02046019223
:102A00004FF6FF721A8000F05BF90C4B01992A68AF
:102A10000B480C4D2562636203F1240591420A4B79
:102A20002363C4E90A5001D103B030BDFFF7B0FB06
:102A3000000B0020D8550120C0550120382901087D
:102A40001E010100003C00404600010000000000A3
:102A500070B52C4D03782A6882B0012B0446019290
:102A600024D06368E26A5989236B22F4F04223F48C
:102A7000F043090544BF42F4205243F42053C4E913
:102A80000B23236A00221A606268236A52891A6043
:102A9000236A03225A60226A136843F040031360DA
:102AA000019A2B689A422BD102B070BD164EB042EB
:102AB0000AD0D4E9083212680C339360A26A236A00
:102AC00012680C339360CCE70346104A406A0A212F
:102AD00006F06EF980B9B06A0B4B0D4A0A2106F078
:102AE00067F928B90B4A136C43F400431364E0E719
:102AF000094801F065FCF5E7074801F061FCEAE7E9
:102B0000FFF746FB000B0020D85501208129000863
:102B10001129000800380240601E01080000000072
:102B200070B5456A174C2D68266882B00196EB6037
:102B3000436A1B685960456AC36A2D6843F4806321
:102B40002B60836A1B68DA60836A1B685960826A3B
:102B5000036B126843F480631360436A1A68136856
:102B600043F001031360836A1A68136843F001039A
:102B70001360019A23689A4201D102B070BDFFF739
:102B800007FB00BF000B0020000000000000000059
:102B900030B5104D81682B680F4A83B001930B68E4
:102BA00023F001030B608168946A03E0936A1B1BA6
:102BB000C72B09D8086810F00100F7D1019A2B68DB
:102BC0009A4204D103B030BD4FF0FF30F6E7FFF773
:102BD000DFFA00BF000B002000760120000000009B
:102BE000F0B5284D83B02B68019302F019FC01F079
:102BF00007FD254B1E69F20715D55A69234C42F093
:102C000001025A612778BB1F012B2AD9052263686C
:102C100022701B680BB120469847042F27D0022F43
:102C200025D003232370B30710D5174A174C5369D7
:102C300043F0020353612378032B1DD063689B6824
:102C40000622227013B101211048984701F000FDBF
:102C5000019A2B689A4213D103B0BDE8F04003F00B
:102C60000FBB019A2B689A420AD103B0F0BD022330
:102C70002370B307EAD5D8E72046FFF789FFDDE7E1
:102C8000FFF786FA000B002000000550C455012014
:102C900000B5074B83B01A680192019A1B689A42EB
:102CA00004D103B05DF804EBFFF7A2BEFFF770FAA2
:102CB000000B0020000000000000000000000000E9
:102CC00000B50A4B83B01A68019201220270019983
:102CD0001A6800239142C0E9013305D10C3003B0DA
:102CE0005DF804EB02F00CBDFFF752FA000B002078
:102CF00070B51E4D82B02B6801930E46044670B32A
:102D000069B3202383F3118802F0C2FB01F0F8FBC2
:102D10002378013B012B02D9154801F051FB2046D5
:102D20006660FFF795FE0223237001F009FC02F0B4
:102D3000C7FB104B1A689A4204D0996993688A6855
:102D40009A4208D3002383F31188019A2B689A4290
:102D500009D102B070BD084801F032FBF2E7044827
:102D600001F02EFBCDE7FFF713FA00BF000B0020A8
:102D7000A01E010800760120901E0108000000003E
:102D80002DE9F041214D82B02C6801940E46904609
:102D90001F46044600B171BB1D4801F011FB202302
:102DA00083F3118802F074FB01F0AAFB2378022B55
:102DB00002D0174801F004FB03203B46424631464F
:102DC00020702046FFF7ACFE01F0BAFB02F078FB62
:102DD000104B1A689A4204D0996993688A689A429B
:102DE0000ED3002383F31188019A2B689A420BD1EA
:102DF00002B0BDE8F081002BCED0002ACFD1CBE7C6
:102E0000054801F0DDFAECE7FFF7C2F9000B0020FE
:102E1000B01E010800760120901E0108000000008D
:102E20002DE9F04F394A3A4B126883B001240192E0
:102E30001C70002963D04FF00008364CC246C346D0
:102E4000C1464746C446434647F6FF7E1DE0AB45B4
:102E5000A8BFAB46024432F9026CB2F90450B44246
:102E6000B8BF3446B645A8BFB6464D4545DCA84573
:102E7000A8BFA846B2F90220BA420EDC043392453C
:102E80009BB2A8BF924699420CD95D1C6A0030F9EA
:102E900015506545DBDDAC46DCE704339BB2994257
:102EA0001746F2D8A4EB0E04ACEB0B0CA7EB0A0709
:102EB000A9EB0808A4B21FFA8CFCBFB21FFA88F86D
:102EC000154A12491480019C0968144BA2F802C0EB
:102ED0009780B0F8F8C4B0F8FA64A2F80680B0F8A9
:102EE000FC54B0F8FE24A3F800C08C425E809D80A4
:102EF000DA8008D103B0BDE8F08FA946BAE788466A
:102F00000F468C46DCE7FFF743F900BF000B0020BB
:102F10000C5601200080FFFF18560120105601209A
:102F200070B53F4B3F4C1A78236882B0012A019359
:102F300005D0019A23689A4270D102B070BD3A4917
:102F40003A4B4D6C45F480354D644E6A002546F48D
:102F500080364E624D621D61DD60196A21F001010B
:102F60001962996921F003019961996941F00101A0
:102F70009961996921F0F0019961196A21F00A01BA
:102F80001962996921F00C019961996821F0700129
:102F90009960996841F050019960996821F48031F5
:102FA00021F007019960996841F00701996019685B
:102FB00021F440711960DA629D625A61196A21F048
:102FC00010011962996921F440719961996921F0A0
:102FD000807121F4E0419961996941F4C04199619E
:102FE000196A21F0A00119629A639A6942F4006299
:102FF0009A611A6A22F480621A621A6A42F0110215
:103000001A621A6842F001021A6020B10090684604
:1030100000F076F98DE7064B0093F8E7FFF7B8F874
:103020003C830120000B002000380240004001409A
:10303000212E000800000000000000000000000039
:1030400070B5114C82B0236801930E4615462023BB
:1030500083F3118802F04CFA01F092FA0B4B0C4802
:10306000C3E9006502F00CFB01F0AAFA02F058FA7D
:10307000002383F31188019A23689A4201D102B098
:1030800070BDFFF785F800BF000B0020306B0120FA
:103090002056012000000000000000000000000099
:1030A00070B5114C82B0236801930E46154620235B
:1030B00083F3118802F01CFA01F062FA0B4B0C4802
:1030C000C3E9006502F0DCFA01F07AFA02F028FAAE
:1030D000002383F31188019A23689A4201D102B038
:1030E00070BDFFF755F800BF000B002014690120E8
:1030F0002056012000000000000000000000000039
:103100002DE9F04F624B63499A69634B916185B039
:103110001B6803935E4B9B6993F821305B0700F1BA
:10312000AD805E4802F074FA5C4802F071FA584BC8
:103130009B6993F8212012F0040240F09F80584DC3
:1031400058482B6801680446406805EB830304EB8C
:10315000810103F50279430001F10808019343D08E
:10316000DFF850B1504BDFF85CA1012018F8125085
:1031700018F8006019F8121019F8004005F0550C05
:10318000770806F0550613F80CC09E5D01F0550E49
:103190004CEA061649084FEA540C01F0550104F0B8
:1031A00055040CF0550C6D0813F80EE0595C1C5DCD
:1031B00013F80CC00BF8126005F0550507F0550721
:1031C00041EA0C114EEA041E0AF812E05D5D0AF8AD
:1031D0000010DF5D0199013245EA071591420BF8B5
:1031E000005000F10200C1D1304B31493148324D1D
:1031F0000422FDF73DF9314B314932480422FDF7F5
:1032000037F9314B314932480422FDF731F9314B5E
:10321000314932480422FDF72BF9DFF8D4C0286881
:103220009CF80070224A264900EBC71302F14006C1
:1032300014881C8054885C804C889C80043231F84F
:10324000044BDC80964203F10803F1D1092F11D120
:10325000234B00221B688CF800204FF42071984704
:103260002B68204A204993420B6006BF1F4B2B60FE
:103270002A604FE701378CF800704BE7064B039A42
:103280001B689A4202D105B0BDE8F08FFEF780FFBF
:1032900000760120D01E0108000B002020560120DE
:1032A000306B012014690120380B0020EC660120EE
:1032B000A85B0120E85B0120B80B002054670120C7
:1032C000BC670120FC67012020670120AA5B012068
:1032D000E95B012088670120BE670120FD670120AE
:1032E000FC680120E85C0120BC0B0020E8610120A3
:1032F000E86601200000000000000000000000005F
:103300002DE9F04F494A0168494B116085B0002111
:103310000E461B684748039302F01AF94FF4AF6159
:10332000454B009641224548454DDFF84891454CB4
:10333000DFF844A1444F01F0C3FD444B444A1860F8
:10334000136BC5F804A043F480534FF002184FF4F8
:103350007A5B13632846C5E90298A5F800B0FCF72C
:10336000CFFF2046C4E901A9C4F80C80A4F800B03E
:10337000FCF7C6FF05F13400C5E90EA9C5F8408089
:10338000A5F834B0FCF7BCFF324DC4F8408004F11E
:103390003400C4E90EA9A4F834B0FCF7B1FF3146FB
:1033A00040F20C4238460BF01BFBDFF8D0902A4A63
:1033B0006E604FF400634FF080082E812A606B81AD
:1033C000264CC5F80C80C7F80894FFF761FC294625
:1033D0002348244DFFF78CFC07F5027307F1080220
:1033E0004FF480711E48FFF7CBFC314620464FF466
:1033F00003720BF0F5FA1C4B1C4AC4F8089208340F
:103400001A611946C3E900641948C3E9028503F04B
:10341000A7FA074B039A1B689A4205D1144805B0D6
:10342000BDE8F04F03F0E4BAFEF7B2FEFC680120FD
:10343000000B0020205601200131000830560120E9
:10344000EC66012054670120306B01202C560120CE
:1034500000380240206B012041300008146901202F
:10346000D8550120A1300008006901202C03080074
:103470003C830120000020410000FA45EFBEADDE94
:103480002DE9F043254E83B034680194042A9DF859
:103490002890144605460F46984639D9B9F1000FD1
:1034A00014BF00224FF08052640002EB0863013C1D
:1034B0001C4405F00F0527F01F07202383F3118814
:1034C00001F0E6FF3D4301F01BF8154B1035DD60C0
:1034D0001C6101F035F801F0F3FF124B1A689A42B3
:1034E00004D0996993688A689A420DD3002383F3C4
:1034F0001188BFF36F8FBFF34F8F019A33689A42E1
:103500000AD103B0BDE8F083074800F059FFEDE7AA
:10351000064800F055FFC1E7FEF73AFE000B002019
:1035200090ED00E000760120601F0108401F0108B7
:1035300030B5224D224C2B68224A85B00393636834
:1035400043F004036360536A43F4803353622023DF
:1035500083F3118801F09CFF00F0D2FF17221A4B71
:10356000E260236100F0ECFF01F0AAFF174B1A683C
:103570009A4204D0996993688A689A4218D30020C5
:1035800080F31188BFF36F8FBFF34F8F03231D228A
:1035900000904FF00051FFF773FF094A536843F062
:1035A00001035360039A2B689A4205D105B030BDE0
:1035B000074800F005FFE2E7FEF7EAFD000B0020F8
:1035C00090ED00E000ED00E0090000100076012021
:1035D000601F010800000000000000000000000063
:1035E00070B51A4D1A4C1B4E0FCD0FC49EB02A68F1
:1035F000336822801D93EFF30981682203A8FEF748
:103600008FFB154B9D6AAA0714D4EB0708D5124B04
:1036100008995B6B114A00910D4880210BF030FA3C
:103620001D9A33689A420FD109481EB0BDE8704018
:1036300000F0C6BE099A5B6B0092A4F11000084A24
:1036400080210BF01DFAE0E7FEF7A2FD241F010820
:103650003C6F0120000B002000ED00E0001F01087E
:10366000E01E010800000000000000000000000053
:1036700000B51F4B0278196883B00191E2B11D4A71
:103680004FF4005111834278EAB11A4A4FF4805145
:1036900011838278F2B1174A4FF480411183C278C6
:1036A000FAB9144A4FF400415183019A1B689A42B7
:1036B0001CD103B05DF804FB0E4A4FF40051518356
:1036C0004278002AE1D10B4A4FF48051518382782D
:1036D000002AE0D1074A4FF480415183C278002A82
:1036E000DFD0044A4FF400411183DEE7FEF750FDBE
:1036F000000B00200010024000000000000000004D
:1037000000B51F4B0278196883B00191E2B11D4AE0
:103710004FF4007111834278EAB11A4A4FF4807174
:1037200011838278F2B1174A4FF400611183C27895
:10373000FAB9144A4FF480615183019A1B689A4286
:103740001CD103B05DF804FB0E4A4FF400715183A5
:103750004278002AE1D10B4A4FF48071518382787C
:10376000002AE0D1074A4FF400615183C278002A51
:10377000DFD0044A4FF480611183DEE7FEF708FDD5
:10378000000B0020001002400000000000000000BC
:1037900030B50C4A0C4B116883B04FF400550191C1
:1037A0004FF480544FF400414FF480405D835C83BC
:1037B0005883598301991368994201D103B030BDF0
:1037C000FEF7E6FC000B00200010024000000000A5
:1037D00030B50C4A0C4B116883B04FF40075019161
:1037E0004FF480744FF480614FF400605D835C831C
:1037F0005883598301991368994201D103B030BDB0
:10380000FEF7C6FC000B0020001002400000000084
:1038100010B50B4C0B48236882B09922002101930C
:1038200003F0AEF9019A23689A4206D105480021B7
:1038300002B0BDE8104003F08BBAFEF7A9FC00BF50
:10384000000B0020D08301200000000000000000D9
:1038500010B50B4C0B48236882B0992200210193CC
:1038600003F08EF9019A23689A4206D10548002197
:1038700002B0BDE8104003F06BBAFEF789FC00BF50
:10388000000B0020EC83012000000000000000007D
:1038900000B5084B83B01A680192019A1B689A42DE
:1038A00006D10548002103B05DF804EB03F0B8B978
:1038B000FEF76EFC000B0020D0830120000000000A
:1038C00000B5084B83B01A680192019A1B689A42AE
:1038D00006D10548002103B05DF804EB03F0A0B960
:1038E000FEF756FC000B0020EC83012000000000D6
:1038F00070B51A4C1A4E2378326882B0022B0192AE
:10390000A26811D165781748013505F0070500EB6D
:103910008500904763686570013B6360019A336876
:103920009A4219D102B070BD012B08D001993368B9
:10393000994211D10C4802B0BDE87040104765783B
:103940000848013D05F0070500EB850090476368D6
:10395000657001336360E1E7FEF71AFCD46F012064
:10396000000B002000200108F01F010800000000EB
:1039700070B51A4C1A4E2378326882B0012B01922E
:10398000A26811D165781748013505F0070500EBED
:10399000850090476368657001336360019A3368FE
:1039A0009A4219D102B070BD022B08D00199336838
:1039B000994211D10C4802B0BDE8704010476578BB
:1039C0000848013D05F0070500EB85009047636856
:1039D0006570013B6360E1E7FEF7DAFBBC6F012035
:1039E000000B002000200108F01F0108000000006B
:1039F00070B51D4E1D4A1E4B30681E491E4C91600D
:103A000082B00021D46001901C4C1D481D4D9D606A
:103A1000117051705160106154611B481B4A1C4D5C
:103A2000D8601C48197059705960C3E90425FFF724
:103A30001FFE1848FFF764FE1749204603F050F8B0
:103A4000204603F03DF92846144903F049F8019A4D
:103A500033689A4205D1284602B0BDE8704003F0B1
:103A60002FB9FEF795FB00BF000B0020D46F01209B
:103A7000BC6F01207136000811380008D083012086
:103A8000913800080137000851380008C138000893
:103A9000EC830120F01F0108B01F0108701F01080E
:103AA0000A490B4B09680B4A82B020200191402142
:103AB00058834FF4806559834FF400644FF480407D
:103AC00004215D835C8358835183FEE7000B002053
:103AD000000C024000040240000000000000000052
:103AE00010B51E491E4A0B78106882B0013B019048
:103AF000072B0AD8DFE803F012151C1F26290F0434
:103B000018480824012304830B7001991368994213
:103B100021D102B010BD08230B70F6E702230B7011
:103B2000F3E711484FF48054032304830B70ECE750
:103B300004230B70E9E70C484FF480440523048309
:103B40000B70E2E706230B70DFE706480424072327
:103B500004830B70D9E7FEF71BFB00BF68730120DD
:103B6000000B002000100240000402400000000092
:103B700030B50C4B0C4918680C4A83B04FF48045A3
:103B800001904FF480504883042408204D835483CF
:103B90005083019A1B689A4201D103B030BDFEF7F1
:103BA000F7FA00BF000B00200004024000100240A2
:103BB0002DE9F04F4E4B4F4A9B694F499961A5B093
:103BC00007AE05AD80231768009331462A460024CE
:103BD0000CA84A4B2397CDE90766CDE90555CDE9F9
:103BE00009440B9400F0BCFA0CA9454A4548434CE3
:103BF000454DDFF83481DFF834B1DFF834A100F04F
:103C0000D7FA04F11C0604F16007A146504601F002
:103C1000FFFC2A682B69226063602A6A2B6BA26012
:103C2000E3606A686B69226163616A6A6B6BA261B7
:103C3000E361AA68AB6922626362AA6AAB6BA262A3
:103C4000E362EA68EB6922636363EA6AEB6B2F491C
:103C5000A263E36351F8043F0A6AB142A3EB020393
:103C60000B64F7D1802249460CA800F0D1FA98F8ED
:103C70000030002BCAD09BF8003033B3012BC5D1E4
:103C8000DFF8B0C02248614650F8042B51F8043FD9
:103C9000B84213440B60F7D11E4A13780133DBB2EC
:103CA000642B1370B2D11C495CF8043F1B4A82FBA1
:103CB0000302DB17C3EB621341F8043B184B9C452E
:103CC000F2D1002388F80030A0E7194620221248DC
:103CD00003930AF085FE039B1248194620220AF03E
:103CE0007FFE0C49039B0B7001228BF800208DE7AF
:103CF00000760120000B00202020010870700120B8
:103D0000602001089C1500200C7001206C700120BF
:103D1000B07001204D700120D07001201F85EB5143
:103D20006C700120507001204C7001204E700120F9
:103D3000C00B00204C7001200000000000000000BB
:103D400070B502691E4D52882B6882B006460C463B
:103D50001C480193920000210AF042FE33695B88FF
:103D60005BB1184AA11E002331F8020F42F8040B80
:103D70003069408801339842F6D8202383F31188B4
:103D800001F0B6FB00F0FCFB00F08AFC0E488368F3
:103D9000002B0FDD00F014FC01F0C2FB002383F3C5
:103DA0001188019A2B68094901209A42087004D1B0
:103DB00002B070BD01F064FCECE7FEF7E9F900BF6A
:103DC000000B00200C700120C00B00206873012044
:103DD00070B51F4D1F4C2E78236884B0012E0393BD
:103DE00005D0039A23689A422FD104B070BD0021F8
:103DF000284602F09DFB284602F05AFC334628462E
:103E0000154A164902F014FC1549164802F068FEDE
:103E10004FF496720021134802F0B2FE00211148BF
:103E200002F096FF0F4802F04BFF31464FF48272CA
:103E30000C4802F0A5FE0023009340220A4B0B48D9
:103E40004FF41E7101F03CF8CBE7FEF7A1F900BF7B
:103E50005C7D0120000B0020EC6F01203020010868
:103E600070200108B4830120B13B0008F0700120EC
:103E700030B50C4D0C4A2B680C4C83B000210193DB
:103E8000012311702370142001F072F82378002BA5
:103E9000F9D1019A2B689A4201D103B030BDFEF7E7
:103EA00077F900BF000B00204E7001204C700120FC
:103EB00000B50F4B83B01868019002290CD003297C
:103EC0000CD001290B4818BF0020019A1B689A42A8
:103ED0000BD103B05DF804FB0748F6E7032A96BF51
:103EE0000648002000EBC200EFE7FEF751F900BFE3
:103EF000000B002090210108302101084022010818
:103F000070B5154C82B02368019302291CD10D466F
:103F10000646202383F3118801F0EAFA00F030FB13
:103F200030460E4A012104F09BF829460C4A3046DF
:103F300004F096F80B4803F093FE00F041FB01F00B
:103F4000EFFA002383F31188019A23689A4201D182
:103F500002B070BDFEF71CF9000B0020B020010874
:103F6000E02001086C730120000000000000000048
:103F700030B5134D134C2B68134883B0019303F0F5
:103F8000E7FD1249104803F013FE226D936B23F4F2
:103F9000002393634FF47A7000F0EAFF20460C4947
:103FA00004F00EF8226D936B43F400239363019A9F
:103FB0002B689A4201D103B030BDFEF7E9F800BF8B
:103FC000000B0020C08001206C730120102101082B
:103FD0002021010800000000000000000000000097
:103FE00000B5084B83B01A680192019A1B689A4287
:103FF00005D1054803B05DF804EB01F069BCFEF79C
:10400000C7F800BF000B0020CC0B00200000000010
:1040100000B5084B83B01A680192019A1B689A4256
:1040200005D1054803B05DF804EB01F089BCFEF74B
:10403000AFF800BF000B0020CC0B002000000000F8
:1040400070B50D4C82B0236801930D1E06460DDD40
:10405000284602F08DF818B90C2333604FF0FF307A
:10406000019A23689A4205D102B070BD034800F05E
:10407000A7F9EDE7FEF78CF8000B0020602201089D
:1040800000B5064B83B01A680192019A1B689A42E8
:1040900002D103B05DF804FBFEF77AF8000B0020B4
:1040A00000B5074B83B01A680192019A1B689A42C7
:1040B00004D103B05DF804EB01F00ABCFEF768F828
:1040C000000B0020000000000000000000000000C5
:1040D00000B5074B83B01A680192019A1B689A4297
:1040E00004D103B05DF804EB01F02ABCFEF750F8F0
:1040F000000B002000000000000000000000000095
:1041000000B5074B83B01A680192019A1B689A4266
:1041100004D103B05DF804EB01F0C2BCFEF738F83F
:10412000000B002000000000000000000000000064
:1041300010B5084B82B01C68019400240460019CF7
:104140001B689C42C0E9011201D102B010BDFEF70C
:104150001FF800BF000B002000000000000000005E
:104160002DE9F0430E4D83B02C6801940446994626
:104170000F46164610304C220021DDF828800AF048
:104180002FFCC4F80090019A2B68E6609A42C4E9BB
:10419000018702D103B0BDE8F083FDF7F9FF00BF4E
:1041A000000B0020000000000000000000000000E4
:1041B000F0B5144E83B001F1100317463268019236
:1041C0000446412218460D4600210AF009FC3946F2
:1041D00040220AF09DFC6068FFF762FF236803B18C
:1041E000AB652560A068FFF78BFF019A33689A42A0
:1041F00005D1606803B0BDE8F040FFF769BFFDF787
:10420000C7FF00BF000B00200000000000000000FE
:10421000F0B51C4E436883B0054693423068019068
:1042200006D20020019A33689A4229D103B0F0BD2A
:1042300014460F46A868FFF733FF22463946286820
:10424000FDF76EFD012385F85130E868FFF758FF50
:104250006C6D84B123681868FFF722FF23689D60A6
:1042600023685868FFF74CFF23681868FFF730FF92
:104270006468002CEED1A868FFF72AFF0120D1E77F
:10428000FDF786FF000B002000000000000000008A
:1042900000B5064B83B01A680192019A1B689A42D6
:1042A00002D103B05DF804FBFDF772FF000B0020A4
:1042B000024B82B01B680193FEE700BF000B002099
:1042C00000B5044B04481B6883B0019300F078F8F4
:1042D000FEE700BF000B0020702201080000000074
:1042E000024B82B01B680193FEE700BF000B002069
:1042F000F0B5294E294B3268294885B00024039235
:104300009C60D968274A4FF6FF0529400A43DA60C6
:10431000C2682549254D42F08072C2600A6842F0A9
:1043200001020A6010202022D87783F8222000F0B2
:10433000DFFA00F045FA00F0FBFF01F0F1FE01F0BA
:104340005FFF01F04DF800F0FBF9402105F58860B2
:1043500000F01EFD0127164BC36180F82070A86194
:1043600000F0A6F884F3118862B6AB69114A9A612D
:104370004FF4C4713A46104B009405F59D6000F06F
:104380009FFD039A33680D4981619A4201D105B0BE
:10439000F0BDFDF7FDFE00BF000B002000ED00E0CA
:1043A000F0ED00E00003FA05001000E000760120C7
:1043B00000040020F0230108E142000890220108D7
:1043C00000B5054B83B01B680193044672B6FFF736
:1043D00067FB024BDC62FEE7000B00200076012049
:1043E0002DE9F047DFF890A0224DDAF8003082B0D6
:1043F000019300F055F9AB6993F8232012B1013A0B
:1044000083F823205A6ADFF8748001325A6200F080
:1044100047F9AB6AEA6901334245AB6220D0936841
:10442000013B9360EC69A668D6B94FF02009236878
:10443000E768E660C3F804802368EB6100F0C0F829
:1044400001F06EF886F311882069B84789F3118866
:1044500001F04EF800F094F8EC69A368002BE6D068
:10446000019ADAF800309A4202D102B0BDE8F08732
:10447000FDF78EFE00760120000B00201C76012047
:1044800010B5094C094A236882B0019351685368FA
:104490005B1A9842FBD8019A23689A4201D102B074
:1044A00010BDFDF775FE00BF000B0020001000E0FE
:1044B00000B50E4A0E4B116B186883B0019009B914
:1044C000526B4AB1019A1B689A420CD1094803B059
:1044D0005DF804EBFFF774BF019A1B689A4202D1A2
:1044E00003B05DF804FBFDF753FE00BF007601202A
:1044F000000B0020A02201080000000000000000C6
:1045000030B50B4C0B4D236B2A6883B001920BB96D
:10451000636B13B10848FFF753FF019A2B68012121
:104520009A42616301D103B030BDFDF731FE00BF97
:1045300000760120000B0020D022010800000000BE
:1045400030B50C4C0C4D236B2A6883B0019253B9E3
:10455000636B002B07DD019A2B6800219A4261638F
:1045600005D103B030BD0548FFF72AFFF3E7FDF79B
:104570000FFE00BF00760120000B0020F022010892
:1045800030B50B4C0B4D236B2A6883B0002B019286
:1045900001DD636B13B10848FFF712FF019A2B6826
:1045A00001219A42616301D103B030BDFDF7F0FDF6
:1045B00000760120000B0020E0220108000000002E
:1045C00030B50C4C0C4D236B2A6883B0002B019244
:1045D0000ADD636B002B07DD019A2B6800219A42EC
:1045E000616305D103B030BD0448FFF7E9FEF3E78E
:1045F000FDF7CEFD00760120000B0020002301080E
:1046000030B50F4D83B02B680193202383F31188BD
:104610000C4C236B002B01DB626B1AB10A48FFF7CD
:10462000CFFE236B01332363002383F31188019AA8
:104630002B689A4201D103B030BDFDF7A9FD00BF40
:10464000000B002000760120B022010800000000CD
:1046500030B50F4D83B02B680193202383F311886D
:104660000C4C236B002B01DD626B1AB10A48FFF77B
:10467000A7FE236B013B2363002383F31188019A78
:104680002B689A4201D103B030BDFDF781FD00BF18
:10469000000B002000760120C0220108000000006D
:1046A00000B50F4A0F4B116B186883B000290190B9
:1046B00009DB526B002A06DD019A1B689A420CD175
:1046C00003B05DF804FB019A1B689A4205D10648C5
:1046D00003B05DF804EBFFF773BEFDF759FD00BFB3
:1046E00000760120000B00201023010800000000CC
:1046F00000B50E4A0E4B116B186883B0019049B992
:10470000526B002A06DD019A1B689A420CD103B055
:104710005DF804FB019A1B689A4205D1054803B075
:104720005DF804EBFFF74CBEFDF732FD007601208B
:10473000000B002020230108000000000000000002
:1047400010B5084A084B116882B0402401910199C4
:10475000126818199142C3E90E4001D102B010BD90
:10476000FDF716FD000B0020007601200000000080
:1047700010B51149114B0A6882B00192DA6B9C6A3C
:104780001460DA6B9C695460DA6B846A9460DA6B4B
:1047900090F820001073DA6B03F5886010328242C3
:1047A00028BF03F14002DA63019A0B689A4201D1F3
:1047B00002B010BDFDF7ECFC000B002000760120DC
:1047C00010B50B4A0B4B116882B04FF0FF340191CA
:1047D00000219962019811685C6203F11C02884211
:1047E000C3E9072201D102B010BDFDF7D1FC00BF23
:1047F000000B0020007601200000000000000000F7
:104800002DE9F041184E82B00546306801900C4603
:1048100017469846FFF744FF05B3FFB1F4B1C5E969
:1048200003781248C3699A68944204D91B68A41A91
:104830009A68A242FAD32B605A686A6015605D607C
:10484000AC609968019D3268091B95424FF0FF34B6
:104850009960446206D102B0BDE8F0810448FFF7D8
:10486000AFFDDCE7FDF794FC000B00200076012093
:1048700030230108000000000000000000000000DC
:1048800030B5164D83B004462B680193FFF708FF3F
:10489000ECB1E368BBB12268A06893680199034456
:1048A0009360D4E900231A6020682B680C4A65687D
:1048B000456099424FF000054FF0FF30E5605062CF
:1048C00009D103B030BD0748FFF77AFDE3E705489B
:1048D000FFF776FDDDE7FDF75BFC00BF000B002076
:1048E00000760120402301080000000000000000C5
:1048F00000B50A4A0A4B11681B6083B00020019181
:10490000019912685B609142C3E90433986002D157
:1049100003B05DF804FBFDF73BFC00BF000B00207B
:1049200000760120000000000000000000000000F0
:1049300030B5164D83B004462B680193FFF7B0FEE7
:10494000ECB194F82030B3B10F2B14D00022A16841
:104950000F4B84F820201B689A688A42FBD22360A0
:104960005A686260146001992A685C60914220462E
:1049700009D103B030BD0748FFF722FDE6E705483F
:10498000FFF71EFDDDE7FDF703FC00BF000B002075
:104990000076012050230108000000000000000004
:1049A00070B5204D82B02B6801930446202383F319
:1049B000118800F09DFDFFF7E3FD94F82030072BF0
:1049C00011D8DFE803F0161010230A04100AA66AB3
:1049D000FFF766FEB3680133B360D4E900231A60C1
:1049E000D4E900325A604FF0FF33A3622046FFF74C
:1049F0009FFFFFF7E5FD00F093FD002383F311888F
:104A0000019A2B689A420BD102B070BDA36A0022B2
:104A10001A604FF0FF33A3622046FFF789FFE8E7F3
:104A2000FDF7B6FB000B00200000000000000000B6
:104A3000F0B5194E194C336883B007460193FFF760
:104A400057FEA569236885F82070142285F8232075
:104A50001A68226001215460284683F82010A3615F
:104A6000FFF786FE2946A06900F0F2FCEFF3098308
:104A7000EA69643B9A4202D90948FFF7A1FC019A0E
:104A800033689A4206D1A069294603B0BDE8F040D8
:104A9000FBF70EBCFDF77CFB000B0020007601202D
:104AA000602301080000000000000000000000007A
:104AB000F0B5154C87B0236805930E460746FFF7FF
:104AC00017FE731C18D0114D114AAB693146684668
:104AD000FFF796FE3846FFF7ABFFFFF7E1FD039BBC
:104AE00013B16846FFF7CCFE059A2368A9699A427C
:104AF000886A06D107B0F0BD3846FFF799FF034D2D
:104B0000F2E7FDF745FB00BF000B00200076012017
:104B1000A1490008000000000000000000000000A3
:104B2000F0B51E4D1E4E2B6883B0044601930F4610
:104B3000FFF7DEFDB069A7628368A2689A421DD9BB
:104B4000FFF7F6FE0123074684F82030B461FFF733
:104B50000FFE3946204600F07BFCEFF30983FA692B
:104B6000643B9A4214D8019A2B689A4214D1394670
:104B7000204603B0BDE8F040FBF79ABB019A2B68D2
:104B80009A4209D1204603B0BDE8F040FFF7D0BEFD
:104B90000448FFF715FCE6E7FDF7FAFA000B0020E2
:104BA00000760120602301080000000000000000E2
:104BB00010B50E490E4B8A69086892F823101C68DC
:104BC0008068926882B0019449B9904234BF002055
:104BD0000120019A1B689A4206D102B010BD904292
:104BE00094BF00200120F4E7FDF7D2FA00760120FF
:104BF000000B00200000000000000000000000008A
:104C000070B5184C184E2368A5691A682260546064
:104C1000012283F8202082B01422316885F82320F5
:104C20002846A3610191FFF783FE2846FFF7A0FD08
:104C30002946A06900F00CFCEFF30983EA69643BA4
:104C40009A4202D90948FFF7BBFB019A33689A429E
:104C500006D1A069294602B0BDE87040FBF728BB29
:104C6000FDF796FA00760120000B00206023010872
:104C700070B51C4D1C4E2A68AC6913682B6001216D
:104C800082B05D60002082F82010AA613268A168BD
:104C900084F82000019200E01B689A688A42FBD8E1
:104CA00023605A686260204614605C60FFF760FD14
:104CB0002146A86900F0CCFBEFF30983E269643B6D
:104CC0009A4202D90948FFF77BFB019A33689A425E
:104CD00006D1A869214602B0BDE87040FBF7E8BAEA
:104CE000FDF756FA00760120000B00206023010832
:104CF00010B50F4C82B023680193FFF7F9FCFFF762
:104D0000CFFC0C4B1A689B6992689B689A42019A87
:104D1000236803D89A4208D102B010BD9A4204D148
:104D200002B0BDE81040FFF7A3BFFDF731FA00BFA6
:104D3000000B0020007601200000000000000000B1
:104D400000B50E4A0E4B9269196892F8232083B081
:104D5000019142B1019A1B689A420DD103B05DF8EE
:104D600004EBFFF785BF019A1B689A4204D103B098
:104D70005DF804EBFFF744BFFDF70AFA0076012067
:104D8000000B0020000000000000000000000000F8
:104D9000F0B51A4A1A4D02610446816083B01423AB
:104DA00050692E68616484F82330022700230121B2
:104DB000278484F82210C4E90F3304F16801A36149
:104DC000019604F12C07636204F1500604F13003EC
:104DD00060610461C4E90C33E1613046E76254610B
:104DE00000F03EFA304600F05BFA019A2B689A42D6
:104DF00002D1204603B0F0BDFDF7CAF900760120CC
:104E0000000B002000000000000000000000000077
:104E100010B5094B82B01C680194884203D200F897
:104E2000012B8142FBD1019A1B689A4201D102B049
:104E300010BDFDF7ADF900BF000B00200000000021
:104E40002DE9F043184E83B0346801940546DDF82F
:104E500028900C4617469846FFF722FC15B1B4F58A
:104E6000BC7F19D21148FFF7ABFAA4F164012944C1
:104E7000E960C1F84080EB68019AC3F84490336858
:104E8000E9680B4808669A420CD13946284603B0B7
:104E9000BDE8F043FFF77CBF7F2FE3D8B8F1000FE8
:104EA000E3D1DFE7FDF774F9000B0020B023010820
:104EB000C90200080000000000000000000000001F
:104EC0002DE9F04FDFF8A48087B0D8F80040DDF876
:104ED0004090059407468A46934600F168060446CA
:104EE000FF2504F8015BA642FBD107EB0A05A542AA
:104EF00004D9552604F8016BA542FBD10393202267
:104F000082F3118800F0C4FAFFF7FAFA039BCDF898
:104F100000905A4651463846FFF792FF002104465A
:104F2000FFF7FEFDFFF70CFB00F0CAFA0D4B1A6805
:104F30009A4204D0996993688A689A420BD30023F5
:104F400083F31188059AD8F800309A42204606D19A
:104F500007B0BDE8F08F0448FFF732FAEFE7FDF73E
:104F600017F900BF0076012070230108000B002014
:104F700030B5184C83B0236801930546202383F392
:104F8000118800F085FAFFF7BBFA15B91248FFF750
:104F900017FA29460820FFF78BFDFFF7D1FA00F03A
:104FA0008FFA0E4B1A689A4204D0996993688A68FE
:104FB0009A4208D3002383F31188019A23689A4206
:104FC00005D103B030BD0648FFF7FAF9F2E7FDF767
:104FD000DFF800BF000B00208023010800760120CD
:104FE0007023010800000000000000000000000025
:104FF00070B5164B164E9C693268E36AA06282B0A7
:1050000004F12C05AB42019207D01A68E2621846FF
:10501000FFF78EFCE36AAB42F7D194F821309B078F
:1050200005D1D4E904231A61D4E904325A610F206E
:10503000FFF7FEFC019A33689A4205D1054802B099
:10504000BDE87040FFF7BCB9FDF7A2F8007601207B
:10505000000B0020C0230108000000000000000039
:1050600030B50C4C83B0236801930546202383F3AD
:10507000118800F00DFAFFF743FA019A23689A426B
:1050800005D1284603B0BDE83040FFF7B1BFFDF7BA
:105090007FF800BF000B00200000000000000000AF
:1050A000F0B50D4D0D4E03682A68B76983B004460C
:1050B000019213B10A48FFF783F927600320BC620D
:1050C000FFF7B6FC019A2B68B1699A42886A01D150
:1050D00003B0F0BDFDF75CF8000B00200076012066
:1050E000D0230108000000000000000000000000C4
:1050F000F0B5124D04682B6883B00193B4B194F8F5
:105100002030032B06460F460CD100233360019A52
:105110002B68A7629A420FD1204603B0BDE8F04049
:10512000FFF706BC0648FFF74BF9EEE7019A2B683C
:105130009A4201D103B0F0BDFDF72AF8000B002020
:10514000E023010800000000000000000000000053
:1051500030B5104A83B01368019381B10E4B019DA5
:105160009B69186044685C602360126843609542E4
:105170000DD1042003B0BDE83040FFF799BC019980
:10518000136899424FF0FF3001D103B030BDFCF7F6
:10519000FFFF00BF000B0020007601200000000090
:1051A00070B5124D04682B6882B0A042019315D0EF
:1051B00023680360586094F82030042B0E4602D018
:1051C0000B48FFF7FDF8019A2B68A6629A420BD1B3
:1051D000204602B0BDE87040FFF7AABB019A2B68D9
:1051E0009A4201D102B070BDFCF7D2FF000B002043
:1051F00090230108000000000000000000000000F3
:105200002DE9F041DFF850800468D8F8003082B012
:10521000A042019313D00F4F05460E4623682B6022
:105220005D6094F82030042B02D03846FFF7C8F8B0
:10523000A6622046FFF77CFB2C68A542EED1019ABE
:10524000D8F800309A4202D102B0BDE8F081FCF7F4
:105250009FFF00BF90230108000B0020000000000A
:1052600030B50B4B83B01A6801924FF0FF320260E9
:1052700001991A680024002300259142C0E90445E1
:10528000C0E90133C36001D103B030BDFCF780FF3A
:10529000000B0020000000000000000000000000E3
:1052A00000B5084B084A196883B001915168019A0A
:1052B0001B6881609A4202D103B05DF804FBFCF7E1
:1052C00067FF00BF000B0020001000E0000000009E
:1052D000F0B51449144B0A68846883B00192134AEC
:1052E0005B68D2F8A864C2681B1BD0E90445013290
:1052F0009B1BC26042688360E61845F10007934239
:10530000C0E9046709D80268934238BF0360019A74
:105310000B689A4203D103B0F0BD4360F7E7FCF796
:1053200037FF00BF000B0020001000E000760120D6
:1053300030B5114D114C2B6889B04FF0FF310793F8
:10534000002300226846C4F8A834CDE90133039352
:105350000023CDE904230091FFF7A2FF6846FFF781
:10536000B7FF079A2B680299C4F8A8149A4201D192
:1053700009B030BDFCF70CFF000B002000760120C7
:105380002DE97048134E144B326883B001925B686C
:105390008B60D0E902411B1BD0E90445426814EB45
:1053A000030B45F1000C01319342C0E90231C0E921
:1053B00004BC0AD80268934238BF0360019A33687C
:1053C0009A4204D103B0BDE870884360F6E7FCF769
:1053D000DFFE00BF000B0020001000E00000000016
:1053E00030B50D4D0D4C2B6883B004F597600193DB
:1053F0000023C4F8B034C4F8B434FFF731FF019A85
:105400002B689A4206D104F59A6003B0BDE830409B
:10541000FFF726BFFCF7BCFE000B00200076012042
:1054200000B50949094A0B6883B001930198D2F885
:10543000B034096801338842C2F8B03402D103B0F5
:105440005DF804FBFCF7A4FE000B002000760120B1
:1054500070B50D4C0D4A236882B00193019DD2F8BE
:10546000B43424680133A542C2F8B43409D10E46DD
:1054700000F1500106F1500002B0BDE87040FFF7A6
:105480007FBFFCF785FE00BF000B002000760120E7
:1054900000B5084B83B01A680192019A1B689A42C2
:1054A00005D1054803B05DF804EBFFF7F9BEFCF742
:1054B0006FFE00BF000B0020B87A01200000000042
:1054C00000B5084B83B01A680192019A1B689A4292
:1054D00005D1054803B05DF804EBFFF7F9BEFCF712
:1054E00057FE00BF000B0020B87A0120000000002A
:1054F00000B5084B83B01A680192019A1B689A4262
:1055000005D1054803B05DF804EBFFF7C9BEFCF711
:105510003FFE00BF000B0020D07A012000000000F9
:1055200000B5084B83B01A680192019A1B689A4231
:1055300005D1054803B05DF804EBFFF7C9BEFCF7E1
:1055400027FE00BF000B0020D07A012000000000E1
:1055500070B50C4D82B02B6801930E46044650B1D5
:10556000002908DB2460019A2B689A42C4E90146AD
:1055700005D102B070BD0448FEF722FFF2E7FCF748
:1055800007FE00BF000B00202024010800000000DF
:1055900070B51B4D82B004462B680193FFF7A8F845
:1055A00044B3A3682268002B10DBA24203D0154845
:1055B000FEF706FFA368013B002BA3600CDB002075
:1055C000019A2B689A4219D102B070BDA242EED066
:1055D000013B002BA360F2DA0B4EB3699C621C60A6
:1055E00062685A60052013606360FFF721FAB369AF
:1055F000986AE5E70348FEF7E3FED2E7FCF7C8FD4B
:10560000000B00203024010800760120000000007B
:1056100030B5164C83B0236801930546202383F3ED
:105620001188FFF735FFFEF76BFF2846FFF7B0FF45
:105630000546FEF785FFFFF743FF0D4B1A689A42B8
:1056400004D0996993688A689A4209D3002383F346
:105650001188019A23689A42284605D103B030BDCB
:105660000448FEF7ADFEF1E7FCF792FD000B0020C9
:105670000076012010240108000000000000000056
:1056800030B51C4D83B004462B680193FFF708F832
:105690004CB3A3682268002B0FDBA24203D016484C
:1056A000FEF78EFEA3680133002BA3600BDD019A89
:1056B0002B689A421BD103B030BDA242EFD0013318
:1056C000002BA360F3DC20680199036823602A683B
:1056D0005C6091424FF00003836208D103B0BDE8E3
:1056E0003040FFF725B90448FEF76AFED1E7FCF722
:1056F0004FFD00BF000B0020402401080000000007
:1057000030B50B4D83B02B680193044650B1246033
:1057100001992A68646000239142A360236105D146
:1057200003B030BD0348FEF74BFEF0E7FCF730FD59
:10573000000B0020602401080000000000000000B1
:10574000F0B55D4E5D4B32689D6983B004460192B1
:10575000FEF7CEFF002C00F08480A06823690028AB
:1057600043D0002B40F39780854276D0AA688368A7
:105770009A4208D990F820308260062B40D0072B3F
:1057800073D0002B5DD02746234603E09968AA68B2
:10579000914233D31B689C42F8D12F607B686B60C9
:1057A00006201D607D60AC62FFF742F9A368AB4242
:1057B00002D04348FEF704FE2B6CA34202D04048BF
:1057C000FEF7FEFD2369012B05D1019A33689A4249
:1057D0006FD103B0F0BD019A33689A4269D138485D
:1057E00003B0BDE8F040FEF7EBBD002B58D101330C
:1057F000A56023612B6CE3602C64E6E71F46CCE7D1
:10580000D0E900231A60D0E900325A60876A3B462B
:1058100003E099688268914247D31B689F42F8D1A0
:1058200007607B68436018607860836AAA6898683C
:1058300083689342A7D290F820308260062B9ED1D5
:10584000DEE7D0E90023012180F820101A60D0E9BA
:1058500000325A60FFF76CF895E723690133236142
:10586000B3E71748FEF7ACFD77E7D0E900231A60ED
:10587000D0E900325A60876A3B4603E09968826843
:10588000914214D31B689F42F8D107607B68436044
:105890001860786077E70A48FEF792FDA06863E732
:1058A0000748FEF78DFD2369A1E71F46B8E71F46AD
:1058B000EBE7FCF76DFC00BF000B00200076012039
:1058C000702401080000000000000000000000003B
:1058D00030B5154C83B0236801930546202383F32C
:1058E0001188FFF7D5FDFEF70BFE2846FFF728FFCE
:1058F000FEF726FEFFF7E4FD0C4B1A689A4204D02F
:10590000996993688A689A4208D3002383F31188BF
:10591000019A23689A4205D103B030BD0448FEF7CE
:105920004FFDF2E7FCF734FC000B0020007601206D
:1059300050240108000000000000000000000000EA
:105940002DE9F043DFF800813C4FD8F80030BE6904
:1059500083B005460193002864D0202383F3118887
:10596000FFF796FDFEF7CCFD336C002B5ED09B68F5
:10597000B34202D03248FEF723FD2B69002B49DDEC
:10598000013B2B615BBB336CAB4202D02C48FEF772
:1059900017FDEB683364FEF7ABFE2B689D423ED0EB
:1059A000D6E910495CB1FEF7A3FE23689C4203D000
:1059B0009B68994538BF9946E468002CF3D1C6F836
:1059C00008902B6801222A611A682A605560AB6032
:1059D0001A6CEA6018461D640021FFF7A1F8FEF773
:1059E000AFFDFFF76DFD3B68BB4204D0BA699B6811
:1059F00092689A420AD3002383F31188019AD8F857
:105A000000309A4217D103B0BDE8F0830D48FEF78D
:105A1000D7FCF0E70A48FEF7D3FC2B69B0E7002378
:105A2000AB60DCE70648FEF7CBFC96E70448FEF7E0
:105A3000C7FC336C9BE7FCF7ABFB00BF0076012093
:105A40008024010850240108000B00200000000001
:105A500070B5114E82B0044633680193FEF720FE04
:105A60009CB12068A0420AD06FF001050368236052
:105A70005C60FEF75DFF85622068A042F6D1019A66
:105A800033689A4205D102B070BD0448FEF798FC15
:105A9000E7E7FCF77DFB00BF000B0020A024010816
:105AA00030B5164C83B0236801930546202383F359
:105AB0001188FFF7EDFCFEF723FD2846FFF7C8FF2E
:105AC000FFF716F9FEF73CFDFFF7FAFC0C4B1A68DE
:105AD0009A4204D0996993688A689A4208D300234D
