:020000040800F2
:1000000000040020C10100087120000871200008D0
:10001000F116000871200008712000087120000806
:10002000712000087120000871200008B13F00080D
:10003000712000087120000871200008019E00084E
:1000400071200008E173000871750008C17500088F
:1000500071200008712000082171000871710008EA
:10006000C17100081172000861720008F163000894
:100070004164000891640008E164000831650008EB
:1000800081650008D1650008616E0008617700088D
:10009000D17700088178000831790008B172000832
:1000A0007120000871200008F198000871200008F4
:1000B000019A0008419A0008819A000831850008D9
:1000C0007186000871200008712000087120000866
:1000D000712000087120000871200008C19E0008EE
:1000E0004173000831740008817400087120000811
:1000F00071200008712000087120000821660008A6
:1001000071200008C17A0008C19A00087120000817
:100110007120000871200008B198000871200008C3
:1001200071660008C1660008116700086167000871
:10013000B167000871200008D17400087120000820
:10014000712000087120000871200008F194000857
:100150000168000851680008A168000871200008C3
:10016000712000087120000871200008712000082B
:100170002175000871200008E114000871200008B2
:10018000712000087120000871200008712000080B
:1001900071200008712000087120000871200008FB
:1001A00071200008712000087120000871200008EB
:1001B00071200008712000087120000871200008DB
:1001C00072B62E4880F3098840F20000CCF200009D
:1001D0004EF63471CEF20001086040F20000C0F229
:1001E000F0004EF68851CEF2000108604FF000009A
:1001F000E1EE100A4EF63C71CEF2000108600620D6
:1002000080F31488BFF36F8F09F0A2FF4FF05530D1
:100210001B491C4A91423CBF41F8040BFAE71A49BA
:10022000164A91423CBF41F8040BFAE71749184AB5
:10023000184B9A423EBF51F8040B42F8040BF8E702
:1002400000201549154A91423CBF41F8040BFAE7DA
:1002500001F0F6FE124C134DAC4203DA54F8041BC5
:100260008847F9E701F024F80F4C104DAC4203DA4F
:1002700054F8041B8847F9E701F0F2BE000800209B
:1002800000000020000400200004002008F1000805
:1002900000080020FC11002000120020A8270020E8
:1002A000C0010008C0010008C0010008C00100082A
:1002B0002DE9F04F2DED108AC1F80CD0D0F80CD0FC
:1002C000BDEC108ABDE8F08F02F012F802F0D0FF0A
:1002D000002383F311882846A047002002F098FDF0
:1002E00002F0AEFF01F0E4FF02F002FC02F000F8C1
:1002F00002F0BEFF00DFFEE700000000000000008B
:1003000081F0004102E000BF83F0004330B54FEAC6
:1003100041044FEA430594EA050F08BF90EA020F33
:100320001FBF54EA000C55EA020C7FEA645C7FEAC6
:10033000655C00F0E2804FEA5454D4EB5555B8BFE9
:100340006D420CDD2C4480EA020281EA030382EA5A
:10035000000083EA010180EA020281EA0303362DEC
:1003600088BF30BD11F0004F4FEA01314FF4801CBF
:100370004CEA113102D0404261EB410113F0004FD1
:100380004FEA03334CEA133302D0524263EB430388
:1003900094EA050F00F0A780A4F10104D5F1200E26
:1003A0000DDB02FA0EFC22FA05F2801841F1000181
:1003B00003FA0EF2801843FA05F359410EE0A5F155
:1003C00020050EF1200E012A03FA0EFC28BF4CF086
:1003D000020C43FA05F3C01851EBE37101F000453C
:1003E00007D54FF0000EDCF1000C7EEB00006EEB49
:1003F0000101B1F5801F1BD3B1F5001F0CD34908D3
:100400005FEA30004FEA3C0C04F101044FEA445229
:1004100012F5800F80F09A80BCF1004F08BF5FEAB0
:10042000500C50F1000041EB045141EA050130BD90
:100430005FEA4C0C404141EB010111F4801FA4F133
:100440000104E9D191F0000F04BF01460020B1FA88
:1004500081F308BF2033A3F10B03B3F120020CDAC0
:100460000C3208DD02F1140CC2F10C0201FA0CF09E
:1004700021FA02F10CE002F11402D8BFC2F1200C03
:1004800001FA02F120FA0CFCDCBF41EA0C019040B9
:10049000E41AA2BF01EB0451294330BD6FEA040402
:1004A0001F3C1CDA0C340EDC04F11404C4F12002ED
:1004B00020FA04F001FA02F340EA030021FA04F3FF
:1004C00045EA030130BDC4F10C04C4F1200220FA56
:1004D00002F001FA04F340EA0300294630BD21FA94
:1004E00004F0294630BD94F0000F83F4801306BF5A
:1004F00081F480110134013D4EE77FEA645C18BF4E
:100500007FEA655C29D094EA050F08BF90EA020FE4
:1005100005D054EA000C04BF1946104630BD91EADC
:10052000030F1EBF0021002030BD5FEA545C05D1DF
:100530004000494128BF41F0004130BD14F580041E
:100540003CBF01F5801130BD01F0004545F0FE4192
:1005500041F470014FF0000030BD7FEA645C1ABFC7
:10056000194610467FEA655C1CBF0B46024650EAFE
:10057000013406BF52EA033591EA030F41F400212A
:1005800030BD00BF90F0000F04BF0021704730B5B0
:100590004FF4806404F132044FF000054FF0000185
:1005A00050E700BF90F0000F04BF0021704730B546
:1005B0004FF4806404F1320410F0004548BF40421B
:1005C0004FF000013EE700BF42004FEAE2014FEA70
:1005D00031014FEA02701FBF12F07F4393F07F4F4B
:1005E00081F06051704732F07F4208BF704793F04E
:1005F0007F4F04BF41F40021704730B54FF4607461
:1006000001F0004521F000411CE700BF50EA010263
:1006100008BF704730B54FF000050AE050EA01020C
:1006200008BF704730B511F0004502D5404261EB7C
:1006300041014FF4806404F132045FEA915C3FF4BD
:10064000D8AE4FF003025FEADC0C18BF03325FEA5A
:10065000DC0C18BF033202EBDC02C2F1200300FA0B
:1006600003FC20FA02F001FA03FE40EA0E0021FA30
:1006700002F11444BDE600BF0000000000000000CD
:1006800070B54FF0FF0C4CF4E06C1CEA11541DBF28
:100690001CEA135594EA0C0F95EA0C0F00F0DEF8F3
:1006A0002C4481EA030621EA4C5123EA4C5350EAD8
:1006B000013518BF52EA033541F4801143F4801329
:1006C00038D0A0FB02CE4FF00005E1FB02E506F0BA
:1006D0000042E0FB03E54FF00006E1FB03569CF00F
:1006E000000F18BF4EF0010EA4F1FF04B6F5007F15
:1006F00064F5407404D25FEA4E0E6D4146EB060687
:1007000042EAC62141EA55514FEAC52040EA5E500F
:100710004FEACE2EB4F1FD0C88BFBCF5E06F1ED8B9
:10072000BEF1004F08BF5FEA500E50F1000041EBF0
:10073000045170BD06F0004646EA010140EA02009D
:1007400081EA0301B4EB5C04C2BFD4EB0C0541EABF
:10075000045170BD41F480114FF0000E013C00F3D4
:10076000AB8014F1360FDEBF002001F0004170BDF8
:10077000C4F10004203C35DA0C341BDC04F1140411
:10078000C4F1200500FA05F320FA04F001FA05F29D
:1007900040EA020001F0004221F0004110EBD3706A
:1007A00021FA04F642EB06015EEA430E08BF20EA96
:1007B000D37070BDC4F10C04C4F1200500FA04F339
:1007C00020FA05F001FA04F240EA020001F00041CB
:1007D00010EBD37041F100015EEA430E08BF20EA3E
:1007E000D37070BDC4F1200500FA05F24EEA020E86
:1007F00020FA04F301FA05F243EA020321FA04F0B5
:1008000001F0004121FA04F220EA020000EBD3706B
:100810005EEA430E08BF20EAD37070BD94F0000F6B
:100820000FD101F00046400041EB010111F4801F9F
:1008300008BF013CF7D041EA060195F0000F18BF50
:10084000704703F00046520043EB030313F4801F8C
:1008500008BF013DF7D043EA0603704794EA0C0F46
:100860000CEA135518BF95EA0C0F0CD050EA41065C
:1008700018BF52EA4306D1D181EA030101F00041D9
:100880004FF0000070BD50EA410606BF1046194601
:1008900052EA430619D094EA0C0F02D150EA01360D
:1008A00013D195EA0C0F05D152EA03361CBF10464E
:1008B00019460AD181EA030101F0004141F0FE41ED
:1008C00041F470014FF0000070BD41F0FE4141F471
:1008D000780170BD70B54FF0FF0C4CF4E06C1CEA71
:1008E00011541DBF1CEA135594EA0C0F95EA0C0F26
:1008F00000F0A7F8A4EB050481EA030E52EA0335E1
:100900004FEA013100F088804FEA03334FF0805501
:1009100045EA131343EA12634FEA022245EA11152E
:1009200045EA10654FEA00260EF000419D4208BFDF
:10093000964244F1FD0404F5407402D25B084FEA8C
:100940003202B61A65EB03055B084FEA32024FF438
:1009500080104FF4002CB6EB020E75EB030E22BF95
:10096000B61A754640EA0C005B084FEA3202B6EB55
:10097000020E75EB030E22BFB61A754640EA5C0004
:100980005B084FEA3202B6EB020E75EB030E22BF94
:10099000B61A754640EA9C005B084FEA3202B6EB95
:1009A000020E75EB030E22BFB61A754640EADC0054
:1009B00055EA060E18D04FEA051545EA16754FEAB6
:1009C00006164FEAC30343EA52734FEAC2025FEAD4
:1009D0001C1CC0D111F4801F0BD141EA00014FF063
:1009E00000004FF0004CB6E711F4801F04BF014334
:1009F0000020B4F1FD0C88BFBCF5E06F3FF6AFAE50
:100A0000B5EB030C04BFB6EB020C5FEA500C50F1DF
:100A1000000041EB045170BD0EF0004E4EEA113162
:100A200014EB5C04C2BFD4EB0C0541EA045170BD69
:100A300041F480114FF0000E013C90E645EA060EAD
:100A40008DE60CEA135594EA0C0F08BF95EA0C0FDB
:100A50003FF43BAF94EA0C0F0AD150EA01347FF423
:100A600034AF95EA0C0F7FF425AF104619462CE7FA
:100A700095EA0C0F06D152EA03353FF4FDAE10465D
:100A8000194622E750EA410618BF52EA43067FF4AE
:100A9000C5AE50EA41047FF40DAF52EA43057FF43E
:100AA000EBAE12E7000000000000000000000000B4
:100AB0004FEA410212F5001215D211D56FF4787386
:100AC000B3EB625212D94FEAC12343F0004343EA29
:100AD000505311F0004F23FA02F018BF4042704704
:100AE0004FF00000704750EA013005D111F000408E
:100AF00008BF6FF0004070474FF00000704700BF24
:100B00004FEA4102B2F1E04324BFB3F5001CDCF12F
:100B1000FE5C0DD901F0004C4FEAC0024CEA507067
:100B2000B2F1004F40EB830008BF20F00100704796
:100B300011F0804F21D113F13872BCBF01F0004099
:100B4000704741F480114FEA5252C2F11802C2F1CB
:100B5000200C10FA0CF320FA02F018BF40F001004C
:100B60004FEAC1234FEAD32303FA0CFC40EA0C00FE
:100B700023FA02F34FEA4303CCE77FEA625307D13B
:100B800050EA01331EBF4FF0FE4040F44000704772
:100B900001F0004040F0FE4040F40000704700BF0C
:100BA00053B94AB9002908BF00281CBF4FF0FF31D4
:100BB0004FF0FF3000F074B9ADF1080C6DE904CED0
:100BC00000F006F8DDF804E0DDE9022304B0704728
:100BD0002DE9F047089E04468846002B4BD18A42F7
:100BE000154667D9B2FA82F24AB1C2F1200701FA7A
:100BF00002F320FA07F7954047EA030894404FEACA
:100C0000154E230CB8FBFEF71FFA85FC0EFB178868
:100C100043EA084307FB0CF1994209D9EB1807F1A5
:100C2000FF3080F01B81994240F21881023F2B4433
:100C30005B1AA4B2B3FBFEF00EFB103344EA03448C
:100C400000FB0CFCA44509D92C1900F1FF3380F0FE
:100C50000781A44540F2048102382C4440EA074051
:100C6000A4EB0C0400271EB1D4400023C6E90043C6
:100C70003946BDE8F0878B4209D9002E00F0EB80A1
:100C80000027C6E9000138463946BDE8F087B3FAC7
:100C900083F7002F47D18B4202D3824200F2FA80C1
:100CA000841A61EB030301209846002EE0D0C6E9C8
:100CB0000048DDE702B9FFDEB2FA82F2002A40F016
:100CC0008F80491B4FEA154E1FFA85F80127B1FBAB
:100CD000FEFC230C0EFB1C1143EA014308FB0CF144
:100CE000994207D9EB180CF1FF3002D2994200F279
:100CF000CD808446591AA3B2B1FBFEF00EFB10144E
:100D000043EA044408FB00F8A04507D92C1900F178
:100D1000FF3302D2A04500F2B6801846A4EB0804C7
:100D200040EA0C409FE7C7F1200CBB4022FA0CFEC2
:100D30004EEA030E01FA07F420FA0CF521FA0CF33F
:100D40004FEA1E482543B3FBF8F92C0C08FB193376
:100D50001FFA8EFA44EA034309FB0AF49C4202FAA2
:100D600007F200FA07F10BD91EEB030309F1FF307C
:100D700080F087809C4240F28480A9F1020973448C
:100D80001B1BADB2B3FBF8F008FB103345EA03447C
:100D900000FB0AFAA24508D91EEB040400F1FF3358
:100DA0006BD2A24569D90238744440EA0940A0FBDD
:100DB0000289A4EB0A044C45C2464B4654D351D099
:100DC000002E69D0B1EB0A0564EB030404FA0CFCB5
:100DD000FD40FC404CEA0505C6E90054002747E702
:100DE000C2F1200320FA03F7954001FA02F021FA3C
:100DF00003F34FEA154E3843010CB3FBFEF71FFA1D
:100E000085F80EFB173341EA034107FB08F38B42D9
:100E100004FA02F407D9691807F1FF3C2FD28B427C
:100E20002DD9023F2944CB1A81B2B3FBFEF00EFB51
:100E3000103341EA034100FB08F38B4207D96918DC
:100E400000F1FF3C17D28B4215D902382944C91A48
:100E500040EA07473BE73746304609E70746E7E6FB
:100E60001846FBE64145ABD2B8EB020A69EB0E022D
:100E700001381346A4E76046E9E7184695E7674658
:100E8000D1E781467CE702382C4447E7ACF1020CFD
:100E90002B442FE7384608E73746E9E60000000014
:100EA000704700BF000000000000000000000000CC
:100EB000844641EA000313F003036DD1403A41D365
:100EC00051F8043B40F8043B51F8043B40F8043B24
:100ED00051F8043B40F8043B51F8043B40F8043B14
:100EE00051F8043B40F8043B51F8043B40F8043B04
:100EF00051F8043B40F8043B51F8043B40F8043BF4
:100F000051F8043B40F8043B51F8043B40F8043BE3
:100F100051F8043B40F8043B51F8043B40F8043BD3
:100F200051F8043B40F8043B51F8043B40F8043BC3
:100F300051F8043B40F8043B51F8043B40F8043BB3
:100F4000403ABDD2303211D351F8043B40F8043B53
:100F500051F8043B40F8043B51F8043B40F8043B93
:100F600051F8043B40F8043B103AEDD20C3205D363
:100F700051F8043B40F8043B043AF9D2043208D05B
:100F8000D2071CBF11F8013B00F8013B01D30B88CD
:100F900003806046704700BF082A13D38B078DD0AB
:100FA00010F003038AD0C3F10403D21ADB071CBF7D
:100FB00011F8013B00F8013B80D331F8023B20F8E7
:100FC000023B7BE7043AD9D3013A11F8013B00F820
:100FD000013BF9D20B7803704B7843708B788370A8
:100FE00060467047000000000000000000000000A4
:100FF00090F800F06DE9024520F007016FF0000C59
:1010000010F0070491F820F040F049804FF0000400
:101010006FF00700D1E9002391F840F000F10800DB
:1010200082FA4CF2A4FA8CF283FA4CF3A2FA8CF313
:101030004BBBD1E9022382FA4CF200F10800A4FA7A
:101040008CF283FA4CF3A2FA8CF3E3B9D1E90423CE
:1010500082FA4CF200F10800A4FA8CF283FA4CF305
:10106000A2FA8CF37BB9D1E9062301F1200182FABF
:101070004CF200F10800A4FA8CF283FA4CF3A2FAC5
:101080008CF3002BC6D0002A04BF04301A4612BAD3
:10109000B2FA82F2FDE8024500EBD2007047D1E9D6
:1010A000002304F00305C4F100004FEAC50514F065
:1010B000040F91F840F00CFA05F562EA05021CBF36
:1010C00063EA050362464FF00004A9E70000000050
:1010D00001F0FF01102A2BDB10F0070F08D010F8E9
:1010E000013B013A8B422DD010F0070F42B3F6D1ED
:1010F000F0B441EA012141EA014122F007047FF006
:1011000000070023F0E80256083C85EA010586EA5C
:10111000010685FA47F5A3FA87F586FA47F6A5FA98
:1011200087F68EB9EED1F0BC01F0FF0102F00702A4
:1011300032B110F8013B013A83EA010313B1F8D14F
:101140000020704701387047002D06BF3546033830
:10115000073815F0010F07D1013015F4807F02BF69
:10116000013015F4C03F0130F0BC0138704700BFBA
:101170004FF0FF3C06E000BF4FF0010C02E000BF63
:101180004FF0010C4DF804CD4FEA410C7FEA6C5C46
:101190004FEA430C18BF7FEA6C5C1BD001B050EAE9
:1011A000410C0CBF52EA430C91EA030F02BF90EAD4
:1011B000020F0020704710F1000F91EA030F58BF93
:1011C000994208BF90422CBFD8176FEAE37040F0F5
:1011D000010070474FEA410C7FEA6C5C02D150EA93
:1011E000013C07D14FEA430C7FEA6C5CD6D152EA4E
:1011F000033CD3D05DF8040B704700BF8446104613
:1012000062468C461946634600E000BF01B5FFF711
:10121000B7FF002848BF10F1000F01BD4DF808EDE1
:10122000FFF7F4FF0CBF012000205DF808FB00BFB2
:101230004DF808EDFFF7EAFF34BF012000205DF80C
:1012400008FB00BF4DF808EDFFF7E0FF94BF012059
:1012500000205DF808FB00BF4DF808EDFFF7CEFF5A
:1012600094BF012000205DF808FB00BF4DF808ED99
:10127000FFF7C4FF34BF012000205DF808FB00BF6A
:101280004FEA410C7FEA6C5C02D150EA013C0AD182
:101290004FEA430C7FEA6C5C02D152EA033C02D174
:1012A0004FF0000070474FF0010070470000000051
:1012B00000B5124B83B01B68019302F0D9FE00F019
:1012C000EFFE00F0BDF90E4A0E490F4800F008FE8F
:1012D00000F0EEFB0D490E4803F0FAFF00F020FD90
:1012E00000F036FC00F054F800F07AF800F0A8F8AE
:1012F0004FF47A7001F014FDF4E700BF00080020FD
:10130000040800200C080020001200202008002003
:10131000FC2600200000000000000000000000008B
:1013200000B5084B83B01A680192019A1B689A4273
:1013300005D1054803B05DF804EB00F019BFFFF7D5
:10134000EFFF00BF0008002040E10008000000009F
:101350000EB410B583B005AA094C52F8041B2368DB
:1013600008480092019308F04BFF019A23689A42C3
:1013700004D103B0BDE8104003B07047FFF7D0FFC1
:1013800000080020441600200000000000000000BB
:10139000F0B50D4F0D4E3B680D4D83B00024019309
:1013A000204600F03DFC22460346314628460134E3
:1013B000FFF7CEFF082CF3D1019A3B689A4201D186
:1013C00003B0F0BDFFF7ACFF0008002090E100087B
:1013D0004416002000000000000000000000000093
:1013E0002DE9F043DFF84C90104DD9F80030DFF8CC
:1013F00048800F4F83B02E1D01930024204600F03B
:10140000C7FB224645F8040F3346414601343846AF
:10141000FFF79EFF082CF1D1019AD9F800309A42CB
:1014200002D103B0BDE8F083FFF77AFF0812002075
:10143000441600200008002060E1000800000000C1
:10144000F0B50D4F0D4E3B680D4D83B00024019358
:10145000204600F0BDFB22460346314628460134B3
:10146000FFF776FF082CF3D1019A3B689A4201D12D
:1014700003B0F0BDFFF754FF00080020C0E10008F2
:1014800044160020000000000000000000000000E2
:1014900030B5104D81682B680F4A83B001930B68FB
:1014A00023F001030B608168946A03E0936A1B1BBD
:1014B000C72B09D8086810F00100F7D1019A2B68F2
:1014C0009A4204D103B030BD4FF0FF30F6E7FFF78A
:1014D00027FF00BF00080020D818002000000000EF
:1014E000F0B5284D83B02B68019301F071FE00F038
:1014F0005FFF254B1E69F20715D55A69234C42F050
:1015000001025A612778BB1F012B2AD90522636883
:1015100022701B680BB120469847042F27D0022F5A
:1015200025D003232370B30710D5174A174C5369EE
:1015300043F0020353612378032B1DD063689B683B
:101540000622227013B101211048984700F058FF7D
:10155000019A2B689A4213D103B0BDE8F04002F023
:1015600047BD019A2B689A420AD103B0F0BD02230D
:101570002370B307EAD5D8E72046FFF789FFDDE7F8
:10158000FFF7CEFE00080020000005502C120020BE
:101590002DE9F043254E83B034680194042A9DF868
:1015A0002890144605460F46984639D9B9F1000FE0
:1015B00014BF00224FF08052640002EB0863013C2C
:1015C0001C4405F00F0527F01F07202383F3118823
:1015D00001F036FE3D4300F06BFE154B1035DD602B
:1015E0001C6100F085FE01F043FE124B1A689A421E
:1015F00004D0996993688A689A420DD3002383F3D3
:101600001188BFF36F8FBFF34F8F019A33689A42EF
:101610000AD103B0BDE8F083074800F0A9FDEDE76B
:10162000064800F0A5FDC1E7FFF77AFE000800209C
:1016300090ED00E0D818002070E2000850E20008A9
:1016400030B5224D224C2B68224A85B00393636843
:1016500043F004036360536A43F4803353622023EE
:1016600083F3118801F0ECFD00F022FE17221A4BE3
:10167000E260236100F03CFE01F0FAFD174B1A68AE
:101680009A4204D0996993688A689A4218D30020D4
:1016900080F31188BFF36F8FBFF34F8F03231D2299
:1016A00000904FF00051FFF773FF094A536843F071
:1016B00001035360039A2B689A4205D105B030BDEF
:1016C000074800F055FDE2E7FFF72AFE000800207A
:1016D00090ED00E000ED00E009000010D8180020B7
:1016E00070E20008000000000000000000000000A0
:1016F00070B51A4D1A4C1B4E0FCD0FC49EB02A6800
:10170000336822801D93EFF30981682203A8FFF755
:10171000CFFB154B9D6AAA0714D4EB0708D5124BD3
:1017200008995B6B114A00910D48802109F050FB2C
:101730001D9A33689A420FD109481EB0BDE8704027
:1017400000F016BD099A5B6B0092A4F11000084AE4
:10175000802109F03DFBE0E7FFF7E2FD34E20008FD
:10176000401200200008002000ED00E010E2000818
:10177000F0E1000800000000000000000000000090
:101780000A490B4B09680B4A82B020200191402185
:1017900058834FF4806559834FF400644FF48040C0
:1017A00004215D835C8358835183FEE70008002099
:1017B000000C024000040240000000000000000095
:1017C00010B51E491E4A0B78106882B0013B01908B
:1017D000072B0AD8DFE803F012151C1F26290F0477
:1017E00018480824012304830B7001991368994257
:1017F00021D102B010BD08230B70F6E702230B7055
:10180000F3E711484FF48054032304830B70ECE793
:1018100004230B70E9E70C484FF48044052304834C
:101820000B70E2E706230B70DFE70648042407236A
:1018300004830B70D9E7FFF773FD00BF401600204B
:1018400000080020001002400004024000000000D8
:1018500030B50C4B0C4918680C4A83B04FF48045E6
:1018600001904FF480504883042408204D83548312
:101870005083019A1B689A4201D103B030BDFFF733
:101880004FFD00BF0008002000040240001002408D
:101890002DE9F04F4E4B4F4A9B694F499961A5B0D6
:1018A00007AE05AD80231768009331462A46002411
:1018B0000CA84A4B2397CDE90766CDE90555CDE93C
:1018C00009440B9400F024FB0CA9454A4548434CBD
:1018D000454DDFF83481DFF834B1DFF834A100F092
:1018E0003FFB04F11C0604F16007A146504601F0DD
:1018F00047FD2A682B69226063602A6A2B6BA2600D
:10190000E3606A686B69226163616A6A6B6BA261FA
:10191000E361AA68AB6922626362AA6AAB6BA262E6
:10192000E362EA68EB6922636363EA6AEB6B2F495F
:10193000A263E36351F8043F0A6AB142A3EB0203D6
:101940000B64F7D1802249460CA800F039FB98F8C7
:101950000030002BCAD09BF8003033B3012BC5D127
:10196000DFF8B0C02248614650F8042B51F8043F1C
:10197000B84213440B60F7D11E4A13780133DBB22F
:10198000642B1370B2D11C495CF8043F1B4A82FBE4
:101990000302DB17C3EB621341F8043B184B9C4571
:1019A000F2D1002388F80030A0E71946202212481F
:1019B000039309F0BDF9039B12481946202209F050
:1019C000B7F90C49039B0B7001228BF800208DE7BF
:1019D000D81800200008002080E2000844130020EE
:1019E000C0E2000800120020E01200204013002096
:1019F0008413002021130020A41300201F85EB5125
:101A00004013002024130020201300202213002064
:101A10002C0800202013002000000000000000001F
:101A200070B502691E4D52882B6882B006460C467E
:101A30001C4801939200002109F07AF933695B8810
:101A40005BB1184AA11E002331F8020F42F8040BC3
:101A50003069408801339842F6D8202383F31188F7
:101A600001F01EFC00F064FC00F0F2FC0E488368FC
:101A7000002B0FDD00F07CFC01F02AFC002383F337
:101A80001188019A2B68094901209A42087004D1F3
:101A900002B070BD01F0ACFCECE7FFF741FC00BF09
:101AA00000080020E01200202C0800204016002032
:101AB00070B51F4D1F4C2E78236884B0012E039300
:101AC00005D0039A23689A422FD104B070BD00213B
:101AD000284602F0E5FB284602F0A2FC33462846E1
:101AE000154A164902F05CFC1549164802F020FE22
:101AF0004FF496720021134802F06AFE002111484B
:101B000002F0FEFE0F4802F0B3FE31464FF482723F
:101B10000C4802F05DFE0023009340220A4B0B4864
:101B20004FF41E7101F0A4F8CBE7FFF7F9FB00BFFB
:101B30003420002000080020C012002090E200089D
:101B4000D0E200088C26002091180008C81300205D
:101B500030B50C4D0C4A2B680C4C83B0002101931E
:101B6000012311702370142001F0DAF82378002B80
:101B7000F9D1019A2B689A4201D103B030BDFFF729
:101B8000CFFB00BF000800202213002020130020FC
:101B900000B50A4B83B01A68019207289BBF084A18
:101BA0001030002052F82000019A1B689A4202D19E
:101BB00003B05DF804FBFFF7B3FB00BF0008002093
:101BC000441300200000000000000000000000009E
:101BD00010B50E4A82B013680193072811D80C493A
:101BE00000F1180300F1100451F8233051F82400DB
:101BF000C01A20EAE07001991368994203D102B03B
:101C000010BD0020F7E7FFF78BFB00BF00080020A6
:101C1000441300200000000000000000000000004D
:101C200000B50A4B83B01A68019207289CBF084A86
:101C300052F82000019A1B6888BF00209A4202D106
:101C400003B05DF804FBFFF76BFB00BF000800204A
:101C5000441300200000000000000000000000000D
:101C600000B50F4B83B01868019002290CD00329EE
:101C70000CD001290B4818BF0020019A1B689A421A
:101C80000BD103B05DF804FB0748F6E7032A96BFC3
:101C90000648002000EBC200EFE7FFF741FB00BF62
:101CA00000080020F0E3000890E30008A0E400082A
:101CB00070B5154C82B02368019302291CD10D46E2
:101CC0000646202383F3118801F0EAFA00F030FB86
:101CD00030460E4A012103F09BFF29460C4A30464C
:101CE00003F096FF0B4803F093FD00F041FB01F079
:101CF000EFFA002383F31188019A23689A4201D1F5
:101D000002B070BDFFF70CFB0008002010E30008D4
:101D100040E300084416002000000000000000001E
:101D200030B5134D134C2B68134883B0019303F067
:101D3000E7FC1249104803F013FD226D936B23F466
:101D4000002393634FF47A7000F0EAFF20460C49B9
:101D500003F00EFF226D936B43F400239363019A0B
:101D60002B689A4201D103B030BDFFF7D9FA00BF0A
:101D700000080020982300204416002070E300088B
:101D800080E30008000000000000000000000000E8
:101D900000B5084B83B01A680192019A1B689A42F9
:101DA00005D1054803B05DF804EB01F049BCFFF72D
:101DB000B7FA00BF0008002038080020000000002B
:101DC00000B5084B83B01A680192019A1B689A42C9
:101DD00005D1054803B05DF804EB01F069BCFFF7DD
:101DE0009FFA00BF00080020380800200000000013
:101DF00070B50D4C82B0236801930D1E06460DDDB3
:101E0000284602F06DF818B90C2333604FF0FF300C
:101E1000019A23689A4205D102B070BD034800F0D0
:101E2000A7F9EDE7FFF77CFA00080020C0E40008FE
:101E300000B5064B83B01A680192019A1B689A425A
:101E400002D103B05DF804FBFFF76AFA0008002036
:101E500000B5074B83B01A680192019A1B689A4239
:101E600004D103B05DF804EB01F0EABBFFF758FAC8
:101E7000000800200000000000000000000000003A
:101E800000B5074B83B01A680192019A1B689A4209
:101E900004D103B05DF804EB01F00ABCFFF740FA8F
:101EA000000800200000000000000000000000000A
:101EB00000B5074B83B01A680192019A1B689A42D9
:101EC00004D103B05DF804EB01F0A2BCFFF728FADF
:101ED00000080020000000000000000000000000DA
:101EE00010B5084B82B01C68019400240460019C6A
:101EF0001B689C42C0E9011201D102B010BDFFF77E
:101F00000FFA00BF000800200000000000000000E1
:101F10002DE9F0430E4D83B02C6801940446994698
:101F20000F46164610304C220021DDF8288008F0BC
:101F3000FFFEC4F80090019A2B68E6609A42C4E95B
:101F4000018702D103B0BDE8F083FFF7E9F900BFD4
:101F50000008002000000000000000000000000059
:101F6000F0B5144E83B001F11003174632680192A8
:101F70000446412218460D46002108F0D9FE394694
:101F8000402208F06DFF6068FFF762FF236803B12D
:101F9000AB652560A068FFF78BFF019A33689A4212
:101FA00005D1606803B0BDE8F040FFF769BFFFF7F7
:101FB000B7F900BF0008002000000000000000008A
:101FC000F0B51C4E436883B00546934230680190DB
:101FD00006D20020019A33689A4229D103B0F0BD9D
:101FE00014460F46A868FFF733FF22463946286893
:101FF000FEF75EFF012385F85130E868FFF758FFD0
:102000006C6D84B123681868FFF722FF23689D6018
:1020100023685868FFF74CFF23681868FFF730FF04
:102020006468002CEED1A868FFF72AFF0120D1E7F1
:10203000FFF776F900080020000000000000000013
:1020400000B5064B83B01A680192019A1B689A4248
:1020500002D103B05DF804FBFFF762F9000800202D
:10206000024B82B01B680193FEE700BF000800200E
:1020700000B5044B04481B6883B0019300F078F866
:10208000FEE700BF00080020D0E4000800000000C8
:10209000024B82B01B680193FEE700BF00080020DE
:1020A000F0B5294E294B3268294885B000240392A7
:1020B0009C60D968274A4FF6FF0529400A43DA6039
:1020C000C2682549254D42F08072C2600A6842F01C
:1020D00001020A6010202022D87783F8222000F025
:1020E000DFFA00F045FA00F0FBFF01F0D1FE01F04D
:1020F0003FFF01F04DF800F0FBF9402105F5886045
:1021000000F01EFD0127164BC36180F82070A86106
:1021100000F0A6F884F3118862B6AB69114A9A619F
:102120004FF4C4713A46104B009405F59D6000F0E1
:102130009FFD039A33680D4981619A4201D105B030
:10214000F0BDFFF7EDF800BF0008002000ED00E053
:10215000F0ED00E00003FA05001000E0D8180020C0
:102160000004002050E6000891200008F0E4000878
:1021700000B5054B83B01B680193044672B6FFF7A8
:10218000FFFA024BDC62FEE700080020D8180020AE
:102190002DE9F047DFF890A0224DDAF8003082B048
:1021A000019300F055F9AB6993F8232012B1013A7D
:1021B00083F823205A6ADFF8748001325A6200F0F3
:1021C00047F9AB6AEA6901334245AB6220D09368B4
:1021D000013B9360EC69A668D6B94FF020092368EB
:1021E000E768E660C3F804802368EB6100F0C0F89C
:1021F00001F06EF886F311882069B84789F31188D9
:1022000001F04EF800F094F8EC69A368002BE6D0DA
:10221000019ADAF800309A4202D102B0BDE8F087A4
:10222000FFF77EF8D818002000080020F4180020DE
:1022300010B5094C094A236882B00193516853686C
:102240005B1A9842FBD8019A23689A4201D102B0E6
:1022500010BDFFF765F800BF00080020001000E087
:1022600000B50E4A0E4B116B186883B0019009B986
:10227000526B4AB1019A1B689A420CD1094803B0CB
:102280005DF804EBFFF774BF019A1B689A4202D114
:1022900003B05DF804FBFFF743F800BFD818002037
:1022A0000008002000E50008000000000000000019
:1022B00030B50B4C0B4D236B2A6883B001920BB9E0
:1022C000636B13B10848FFF753FF019A2B68012194
:1022D0009A42616301D103B030BDFFF721F800BF1E
:1022E000D81800200008002030E500080000000099
:1022F00030B50C4C0C4D236B2A6883B0019253B956
:10230000636B002B07DD019A2B6800219A42616301
:1023100005D103B030BD0548FFF72AFFF3E7FEF70C
:10232000FFFF00BFD81800200008002050E500087B
:1023300030B50B4C0B4D236B2A6883B0002B0192F8
:1023400001DD636B13B10848FFF712FF019A2B6898
:1023500001219A42616301D103B030BDFEF7E0FF75
:10236000D81800200008002040E500080000000008
:1023700030B50C4C0C4D236B2A6883B0002B0192B6
:102380000ADD636B002B07DD019A2B6800219A425E
:10239000616305D103B030BD0448FFF7E9FEF3E700
:1023A000FEF7BEFFD81800200008002060E50008F6
:1023B00030B50F4D83B02B680193202383F3118830
:1023C0000C4C236B002B01DB626B1AB10A48FFF740
:1023D000CFFE236B01332363002383F31188019A1B
:1023E0002B689A4201D103B030BDFEF799FF00BFC0
:1023F00000080020D818002010E5000800000000A8
:1024000030B50F4D83B02B680193202383F31188DF
:102410000C4C236B002B01DD626B1AB10A48FFF7ED
:10242000A7FE236B013B2363002383F31188019AEA
:102430002B689A4201D103B030BDFEF771FF00BF97
:1024400000080020D818002020E500080000000047
:1024500000B50F4A0F4B116B186883B0002901902B
:1024600009DB526B002A06DD019A1B689A420CD1E7
:1024700003B05DF804FB019A1B689A4205D1064837
:1024800003B05DF804EBFFF773BEFEF749FF00BF32
:10249000D81800200008002070E5000800000000A7
:1024A00000B50E4A0E4B116B186883B0019049B904
:1024B000526B002A06DD019A1B689A420CD103B0C8
:1024C0005DF804FB019A1B689A4205D1054803B0E8
:1024D0005DF804EBFFF74CBEFEF722FFD818002092
:1024E0000008002080E50008000000000000000057
:1024F00010B5084A084B116882B040240191019937
:10250000126818199142C3E90E4001D102B010BD02
:10251000FEF706FF00080020D81800200000000089
:1025200010B51149114B0A6882B00192DA6B9C6AAE
:102530001460DA6B9C695460DA6B846A9460DA6BBD
:1025400090F820001073DA6B03F588601032824235
:1025500028BF03F14002DA63019A0B689A4201D165
:1025600002B010BDFEF7DCFE00080020D8180020E5
:1025700010B50B4A0B4B116882B04FF0FF3401913C
:1025800000219962019811685C6203F11C02884283
:10259000C3E9072201D102B010BDFEF7C1FE00BFA2
:1025A00000080020D81800200000000000000000F3
:1025B0002DE9F041184E82B00546306801900C4676
:1025C00017469846FFF744FF05B3FFB1F4B1C5E9DC
:1025D00003781248C3699A68944204D91B68A41A04
:1025E0009A68A242FAD32B605A686A6015605D60EF
:1025F000AC609968019D3268091B95424FF0FF3429
:102600009960446206D102B0BDE8F0810448FFF74A
:10261000AFFDDCE7FEF784FE00080020D81800209C
:1026200090E500080000000000000000000000002D
:1026300030B5164D83B004462B680193FFF708FFB1
:10264000ECB1E368BBB12268A068936801990344C8
:102650009360D4E900231A6020682B680C4A6568EF
:10266000456099424FF000054FF0FF30E560506241
:1026700009D103B030BD0748FFF77AFDE3E705480D
:10268000FFF776FDDDE7FEF74BFE00BF00080020F8
:10269000D8180020A0E5000800000000000000009D
:1026A00000B50A4A0A4B11681B6083B000200191F3
:1026B000019912685B609142C3E90433986002D1CA
:1026C00003B05DF804FBFEF72BFE00BF00080020FE
:1026D000D8180020000000000000000000000000EA
:1026E00030B5164D83B004462B680193FFF7B0FE5A
:1026F000ECB194F82030B3B10F2B14D00022A168B4
:102700000F4B84F820201B689A688A42FBD2236012
:102710005A686260146001992A685C6091422046A0
:1027200009D103B030BD0748FFF722FDE6E70548B1
:10273000FFF71EFDDDE7FEF7F3FD00BF00080020F8
:10274000D8180020B0E500080000000000000000DC
:1027500070B5204D82B02B6801930446202383F38B
:10276000118800F09DFDFFF7E3FD94F82030072B62
:1027700011D8DFE803F0161010230A04100AA66A25
:10278000FFF766FEB3680133B360D4E900231A6033
:10279000D4E900325A604FF0FF33A3622046FFF7BE
:1027A0009FFFFFF7E5FD00F093FD002383F3118801
:1027B000019A2B689A420BD102B070BDA36A002225
:1027C0001A604FF0FF33A3622046FFF789FFE8E766
:1027D000FEF7A6FD00080020000000000000000039
:1027E000F0B5194E194C336883B007460193FFF7D3
:1027F00057FEA569236885F82070142285F82320E8
:102800001A68226001215460284683F82010A361D1
:10281000FFF786FE2946A06900F0F2FCEFF309837A
:10282000EA69643B9A4202D90948FFF7A1FC019A80
:1028300033689A4206D1A069294603B0BDE8F0404A
:10284000FDF736BDFEF76CFD00080020D81800200B
:10285000C0E50008000000000000000000000000CB
:10286000F0B5154C87B0236805930E460746FFF771
:1028700017FE731C18D0114D114AAB6931466846DA
:10288000FFF796FE3846FFF7ABFFFFF7E1FD039B2E
:1028900013B16846FFF7CCFE059A2368A9699A42EE
:1028A000886A06D107B0F0BD3846FFF799FF034D9F
:1028B000F2E7FEF735FD00BF00080020D818002021
:1028C0005127000800000000000000000000000088
:1028D000F0B51E4D1E4E2B6883B0044601930F4683
:1028E000FFF7DEFDB069A7628368A2689A421DD92E
:1028F000FFF7F6FE0123074684F82030B461FFF7A6
:102900000FFE3946204600F07BFCEFF30983FA699D
:10291000643B9A4214D8019A2B689A4214D13946E2
:10292000204603B0BDE8F040FDF7C2BC019A2B6819
:102930009A4209D1204603B0BDE8F040FFF7D0BE6F
:102940000448FFF715FCE6E7FEF7EAFC0008002064
:10295000D8180020C0E500080000000000000000BA
:1029600010B50E490E4B8A69086892F823101C684E
:102970008068926882B0019449B9904234BF0020C7
:102980000120019A1B689A4206D102B010BD904204
:1029900094BF00200120F4E7FEF7C2FCD818002005
:1029A00000080020000000000000000000000000FF
:1029B00070B5184C184E2368A5691A6822605460D7
:1029C000012283F8202082B01422316885F8232068
:1029D0002846A3610191FFF783FE2846FFF7A0FD7B
:1029E0002946A06900F00CFCEFF30983EA69643B17
:1029F0009A4202D90948FFF7BBFB019A33689A4211
:102A000006D1A069294602B0BDE87040FDF750BC70
:102A1000FEF786FCD818002000080020C0E500085A
:102A200070B51C4D1C4E2A68AC6913682B600121DF
:102A300082B05D60002082F82010AA613268A1682F
:102A400084F82000019200E01B689A688A42FBD853
:102A500023605A686260204614605C60FFF760FD86
:102A60002146A86900F0CCFBEFF30983E269643BDF
:102A70009A4202D90948FFF77BFB019A33689A42D0
:102A800006D1A869214602B0BDE87040FDF710BC30
:102A9000FEF746FCD818002000080020C0E500081A
:102AA00010B50F4C82B023680193FFF7F9FCFFF7D4
:102AB000CFFC0C4B1A689B6992689B689A42019AFA
:102AC000236803D89A4208D102B010BD9A4204D1BB
:102AD00002B0BDE81040FFF7A3BFFEF721FC00BF26
:102AE00000080020D81800200000000000000000AE
:102AF00000B50E4A0E4B9269196892F8232083B0F4
:102B0000019142B1019A1B689A420DD103B05DF860
:102B100004EBFFF785BF019A1B689A4204D103B00A
:102B20005DF804EBFFF744BFFEF7FAFBD81800206E
:102B3000000800200000000000000000000000006D
:102B4000F0B51A4A1A4D02610446816083B014231D
:102B500050692E68616484F8233002270023012124
:102B6000278484F82210C4E90F3304F16801A361BB
:102B7000019604F12C07636204F1500604F130035E
:102B800060610461C4E90C33E1613046E76254617D
:102B900000F03EFA304600F05BFA019A2B689A4248
:102BA00002D1204603B0F0BDFEF7BAFBD8180020D2
:102BB00000080020000000000000000000000000ED
:102BC00010B5094B82B01C680194884203D200F80A
:102BD000012B8142FBD1019A1B689A4201D102B0BC
:102BE00010BDFEF79DFB00BF0008002000000000A4
:102BF0002DE9F043184E83B0346801940546DDF8A2
:102C000028900C4617469846FFF722FC15B1B4F5FC
:102C1000BC7F19D21148FFF7ABFAA4F16401294433
:102C2000E960C1F84080EB68019AC3F844903368CA
:102C3000E9680B4808669A420CD13946284603B029
:102C4000BDE8F043FFF77CBF7F2FE3D8B8F1000F5A
:102C5000E3D1DFE7FEF764FB0008002010E6000880
:102C6000C902000800000000000000000000000091
:102C70002DE9F04FDFF8A48087B0D8F80040DDF8E8
:102C80004090059407468A46934600F1680604463C
:102C9000FF2504F8015BA642FBD107EB0A05A5421C
:102CA00004D9552604F8016BA542FBD103932022D9
:102CB00082F3118800F0C4FAFFF7FAFA039BCDF80B
:102CC00000905A4651463846FFF792FF00210446CD
:102CD000FFF7FEFDFFF70CFB00F0CAFA0D4B1A6878
:102CE0009A4204D0996993688A689A420BD3002368
:102CF00083F31188059AD8F800309A42204606D10D
:102D000007B0BDE8F08F0448FFF732FAEFE7FEF7AF
:102D100007FB00BFD8180020D0E5000800080020FD
:102D200030B5184C83B0236801930546202383F304
:102D3000118800F085FAFFF7BBFA15B91248FFF7C2
:102D400017FA29460820FFF78BFDFFF7D1FA00F0AC
:102D50008FFA0E4B1A689A4204D0996993688A6870
:102D60009A4208D3002383F31188019A23689A4278
:102D700005D103B030BD0648FFF7FAF9F2E7FEF7D8
:102D8000CFFA00BF00080020E0E50008D8180020B6
:102D9000D0E5000800000000000000000000000076
:102DA00070B5164B164E9C693268E36AA06282B019
:102DB00004F12C05AB42019207D01A68E262184672
:102DC000FFF78EFCE36AAB42F7D194F821309B0702
:102DD00005D1D4E904231A61D4E904325A610F20E1
:102DE000FFF7FEFC019A33689A4205D1054802B00C
:102DF000BDE87040FFF7BCB9FEF792FAD818002082
:102E00000008002020E6000800000000000000008C
:102E100030B50C4C83B0236801930546202383F31F
:102E2000118800F00DFAFFF743FA019A23689A42DD
:102E300005D1284603B0BDE83040FFF7B1BFFEF72B
:102E40006FFA00BF00080020000000000000000032
:102E5000F0B50D4D0D4E03682A68B76983B004467E
:102E6000019213B10A48FFF783F927600320BC627F
:102E7000FFF7B6FC019A2B68B1699A42886A01D1C2
:102E800003B0F0BDFEF74CFA00080020D81800206F
:102E900030E6000800000000000000000000000014
:102EA000F0B5124D04682B6883B00193B4B194F867
:102EB0002030032B06460F460CD100233360019AC5
:102EC0002B68A7629A420FD1204603B0BDE8F040BC
:102ED000FFF706BC0648FFF74BF9EEE7019A2B68AF
:102EE0009A4201D103B0F0BDFEF71AFA00080020A3
:102EF00040E60008000000000000000000000000A4
:102F000030B5104A83B01368019381B10E4B019D17
:102F10009B69186044685C60236012684360954256
:102F20000DD1042003B0BDE83040FFF799BC0199F2
:102F3000136899424FF0FF3001D103B030BDFEF766
:102F4000EFF900BF00080020D818002000000000A2
:102F500070B5124D04682B6882B0A042019315D061
:102F600023680360586094F82030042B0E4602D08A
:102F70000B48FFF7FDF8019A2B68A6629A420BD125
:102F8000204602B0BDE87040FFF7AABB019A2B684B
:102F90009A4201D102B070BDFEF7C2F900080020CC
:102FA000F0E5000800000000000000000000000044
:102FB0002DE9F041DFF850800468D8F8003082B085
:102FC000A042019313D00F4F05460E4623682B6095
:102FD0005D6094F82030042B02D03846FFF7C8F823
:102FE000A6622046FFF77CFB2C68A542EED1019A31
:102FF000D8F800309A4202D102B0BDE8F081FEF765
:103000008FF900BFF0E50008000800200000000074
:1030100030B50B4B83B01A6801924FF0FF3202605B
:1030200001991A680024002300259142C0E9044553
:10303000C0E90133C36001D103B030BDFEF770F9C0
:103040000008002000000000000000000000000058
:1030500000B5084B084A196883B001915168019A7C
:103060001B6881609A4202D103B05DF804FBFEF751
:1030700057F900BF00080020001000E00000000029
:10308000F0B51449144B0A68846883B00192134A5E
:103090005B68D2F8A864C2681B1BD0E90445013202
:1030A0009B1BC26042688360E61845F100079342AB
:1030B000C0E9046709D80268934238BF0360019AE7
:1030C0000B689A4203D103B0F0BD4360F7E7FEF707
:1030D00027F900BF00080020001000E0D8180020E9
:1030E00030B5114D114C2B6889B04FF0FF3107936B
:1030F000002300226846C4F8A834CDE901330393C5
:103100000023CDE904230091FFF7A2FF6846FFF7F3
:10311000B7FF079A2B680299C4F8A8149A4201D104
:1031200009B030BDFEF7FCF800080020D8180020D8
:103130002DE97048134E144B326883B001925B68DE
:103140008B60D0E902411B1BD0E90445426814EBB7
:10315000030B45F1000C01319342C0E90231C0E993
:1031600004BC0AD80268934238BF0360019A3368EE
:103170009A4204D103B0BDE870884360F6E7FEF7D9
:10318000CFF800BF00080020001000E000000000A1
:1031900030B50D4D0D4C2B6883B004F5976001934D
:1031A0000023C4F8B034C4F8B434FFF731FF019AF7
:1031B0002B689A4206D104F59A6003B0BDE830400E
:1031C000FFF726BFFEF7ACF800080020D818002053
:1031D00000B50949094A0B6883B001930198D2F8F8
:1031E000B034096801338842C2F8B03402D103B068
:1031F0005DF804FBFEF794F800080020D8180020C2
:1032000070B50D4C0D4A236882B00193019DD2F830
:10321000B43424680133A542C2F8B43409D10E464F
:1032200000F1500106F1500002B0BDE87040FFF718
:103230007FBFFEF775F800BF00080020D8180020F7
:1032400000B5084B83B01A680192019A1B689A4234
:1032500005D1054803B05DF804EBFFF7F9BEFEF7B2
:103260005FF800BF00080020901D00200000000053
:1032700000B5084B83B01A680192019A1B689A4204
:1032800005D1054803B05DF804EBFFF7F9BEFEF782
:1032900047F800BF00080020901D0020000000003B
:1032A00000B5084B83B01A680192019A1B689A42D4
:1032B00005D1054803B05DF804EBFFF7C9BEFEF782
:1032C0002FF800BF00080020A81D0020000000000B
:1032D00000B5084B83B01A680192019A1B689A42A4
:1032E00005D1054803B05DF804EBFFF7C9BEFEF752
:1032F00017F800BF00080020A81D002000000000F3
:1033000070B51B4D82B004462B680193FFF7C8F8D7
:1033100044B3A3682268002B10DBA24203D01548F7
:10332000FEF726FFA368013B002BA3600CDB002007
:10333000019A2B689A4219D102B070BDA242EED018
:10334000013B002BA360F2DA0B4EB3699C621C6058
:1033500062685A60052013606360FFF741FAB36941
:10336000986AE5E70348FEF703FFD2E7FDF7D8FFC9
:103370000008002080E60008D818002000000000A7
:1033800030B5164C83B0236801930546202383F3A0
:103390001188FFF755FFFEF78BFF2846FFF7B0FFB8
:1033A0000546FEF7A5FFFFF763FF0D4B1A689A422B
:1033B00004D0996993688A689A4209D3002383F3F9
:1033C0001188019A23689A42284605D103B030BD7E
:1033D0000448FEF7CDFEF1E7FDF7A2FF000800204C
:1033E000D818002070E6000800000000000000006F
:1033F00030B51C4D83B004462B680193FFF728F8C5
:103400004CB3A3682268002B0FDBA24203D01648FE
:10341000FEF7AEFEA3680133002BA3600BDD019A1B
:103420002B689A421BD103B030BDA242EFD00133CA
:10343000002BA360F3DC20680199036823602A68ED
:103440005C6091424FF00003836208D103B0BDE895
:103450003040FFF745B90448FEF78AFED1E7FDF793
:103460005FFF00BF0008002090E600080000000099
:1034700030B50B4D83B02B680193044650B12460E6
:1034800001992A68646000239142A360236105D1F9
:1034900003B030BD0348FEF76BFEF0E7FDF740FFD9
:1034A00000080020B0E60008000000000000000056
:1034B000F0B55D4E5D4B32689D6983B00446019264
:1034C000FEF7EEFF002C00F08480A068236900283E
:1034D00043D0002B40F39780854276D0AA6883685A
:1034E0009A4208D990F820308260062B40D0072BF2
:1034F00073D0002B5DD02746234603E09968AA6865
:10350000914233D31B689C42F8D12F607B686B607B
:1035100006201D607D60AC62FFF762F9A368AB42D4
:1035200002D04348FEF724FE2B6CA34202D0404851
:10353000FEF71EFE2369012B05D1019A33689A42DA
:103540006FD103B0F0BD019A33689A4269D138480F
:1035500003B0BDE8F040FEF70BBE002B58D101339D
:10356000A56023612B6CE3602C64E6E71F46CCE783
:10357000D0E900231A60D0E900325A60876A3B46DE
:1035800003E099688268914247D31B689F42F8D153
:1035900007607B68436018607860836AAA689868EF
:1035A00083689342A7D290F820308260062B9ED188
:1035B000DEE7D0E90023012180F820101A60D0E96D
:1035C00000325A60FFF78CF895E7236901332361D5
:1035D000B3E71748FEF7CCFD77E7D0E900231A6080
:1035E000D0E900325A60876A3B4603E099688268F6
:1035F000914214D31B689F42F8D107607B684360F7
:103600001860786077E70A48FEF7B2FDA06863E7C4
:103610000748FEF7ADFD2369A1E71F46B8E71F463F
:10362000EBE7FDF77DFE00BF00080020D818002062
:10363000C0E60008000000000000000000000000DC
:1036400030B5154C83B0236801930546202383F3DE
:103650001188FFF7F5FDFEF72BFE2846FFF728FF40
:10366000FEF746FEFFF704FE0C4B1A689A4204D0A0
:10367000996993688A689A4208D3002383F3118872
:10368000019A23689A4205D103B030BD0448FEF781
:103690006FFDF2E7FDF744FE00080020D818002077
:1036A000A0E600080000000000000000000000008C
:1036B0002DE9F043DFF800813C4FD8F80030BE69B7
:1036C00083B005460193002864D0202383F311883A
:1036D000FFF7B6FDFEF7ECFD336C002B5ED09B6868
:1036E000B34202D03248FEF743FD2B69002B49DD7F
:1036F000013B2B615BBB336CAB4202D02C48FEF725
:1037000037FDEB683364FEF7CBFE2B689D423ED05D
:10371000D6E910495CB1FEF7C3FE23689C4203D092
:103720009B68994538BF9946E468002CF3D1C6F8E8
:1037300008902B6801222A611A682A605560AB60E4
:103740001A6CEA6018461D640021FFF7C1F8FEF705
:10375000CFFDFFF78DFD3B68BB4204D0BA699B6883
:1037600092689A420AD3002383F31188019AD8F809
:1037700000309A4217D103B0BDE8F0830D48FEF740
:10378000F7FCF0E70A48FEF7F3FC2B69B0E70023EB
:10379000AB60DCE70648FEF7EBFC96E70448FEF773
:1037A000E7FC336C9BE7FDF7BBFD00BFD81800209A
:1037B000D0E60008A0E60008000800200000000095
:1037C00070B5114E82B0044633680193FEF740FE97
:1037D0009CB12068A0420AD06FF001050368236005
:1037E0005C60FEF77DFF85622068A042F6D1019AF9
:1037F00033689A4205D102B070BD0448FEF7B8FCA8
:10380000E7E7FDF78DFD00BF00080020F0E60008A7
:1038100030B5164C83B0236801930546202383F30B
:103820001188FFF70DFDFEF743FD2846FFF7C8FF9F
:10383000FFF736F9FEF75CFDFFF71AFD0C4B1A682F
:103840009A4204D0996993688A689A4208D30023FF
:1038500083F31188019A23689A4205D103B030BDE1
:103860000448FEF785FCF2E7FDF75AFD000800204A
:10387000D8180020E0E6000800000000000000006A
:1038800070B5184E82B00446336801930D46FEF7BA
:10389000DFFD0CB3E16B94F8203029430A2BE16380
:1038A00016D00B2B05D0019A33689A4218D102B07A
:1038B00070BDA36A8B43F6D1019A336800219A4206
:1038C000A1620DD1204602B0BDE87040FEF708BFEE
:1038D000A36A1942F0D1E6E70348FEF749FCD9E7AD
:1038E000FDF71EFD0008002030E700080000000082
:1038F000F0B5134F83B006463B6801930D46FEF7C3
:10390000A7FDB6B13468A6420DD0E3682B43E3604F
:1039100015B12269134203D0D4E90101FFF7B0FFCA
:103920002468A642F1D1019A3B689A4205D103B0BE
:10393000F0BD0448FEF71CFCE4E7FDF7F1FC00BF16
:103940000008002010E70008000000000000000050
:1039500070B50C4CC16082B0266801960A440060C4
:10396000019E02612268069D4060C0E905119642F1
:103970004FF00001C3618160056201D102B070BDEA
:10398000FDF7CEFC00080020000000000000000051
:1039900030B50D4D83B02B6801930446FEF758FDFA
:1039A00001992A68E368A36100209142A0606361E5
:1039B00007D120466FF0010103B0BDE83040FFF7AA
:1039C000F7BAFDF7ADFC00BF0008002000000000C2
:1039D00070B5164D82B004462B6801930E46FEF773
:1039E00037FDFEF735FDD4E905239A42A36816D0CA
:1039F0000133511CA36061611670D4E904329A420C
:103A00000AD220460021FFF7A3FA0020019A2B6872
:103A10009A4209D102B070BDE3686361F1E7002BFF
:103A2000E6D06FF00300F1E7FDF77AFC0008002014
:103A3000F0B5234F83B03B68019304460E46202324
:103A400083F31188FFF7FCFBFEF732FCE36943B117
:103A50002046984705E031462046FFF751FA051EFB
:103A600010DBFEF7F5FCA368002BF4D0A1692069F8
:103A70004A1C013B8242A360A26128BFE3680D7823
:103A800028BFA361FEF734FCFFF7F2FB0D4B1A6869
:103A90009A4204D0996993688A689A4209D30023AC
:103AA00083F31188019A3B689A42284605D103B0F6
:103AB000F0BD0548FEF75CFBF1E7FDF731FC00BF08
:103AC00000080020D818002040E70008000000008F
:103AD0002DE9F04FDFF8F490044685B0D9F80000E6
:103AE00003908A461D46D4F81C809346002A60D075
:103AF000202383F311880193FFF7A2FBFEF7D8FB85
:103B00002F4E0027B8F1000F07D02046C04704E031
:103B100029462046FFF7F4F960BBFEF799FCA3683D
:103B2000002BF5D0A269013B511CA161A360137861
:103B30000AF8013B2369A2699A4224BFE368A361A2
:103B4000FEF7D6FBFFF794FB3368B34204D0B269AB
:103B50009B6892689A4228D3002383F31188013727
:103B6000BB4519D0019B83F31188FFF769FBFEF772
:103B70009FFBC7E7FEF7BCFBFFF77AFB3368B34256
:103B800007D0B2699B6892689A4202D20D48FEF74C
:103B9000EFFA002383F31188039AD9F800309A4290
:103BA00038460AD105B0BDE8F08F0648FEF7E0FAC6
:103BB000D2E70548FEF7DCFA9AE7FDF7B1FB00BF54
:103BC000D818002040E7000850E70008000800204F
:103BD00070B50B4D82602E68C16082B0C0E90000F4
:103BE00001960A44019E02612A68069C9642C0E939
:103BF0000511C0E9073401D102B070BDFDF790FB9B
:103C0000000800200000000000000000000000008C
:103C100030B50D4D83B004462B680193FEF718FCB8
:103C2000D4E9032301982968A2619B1A8842626142
:103C3000A36007D120466FF0010103B0BDE830401A
:103C4000FFF7B6B9FDF76CFB00080020000000008C
:103C50002DE9F0412E4F82B03B680193044688461F
:103C60001646202383F31188FFF7EAFAFEF720FBBC
:103C700005E031462046FFF743F9051E2DDBFEF730
:103C8000E7FBA368002BF4D06269013B511C616122
:103C9000A36082F80080D4E904329A4224BFE3682A
:103CA0006361E3690BB120469847FEF721FBFFF7FC
:103CB000DFFA184B1A689A4204D0996993688A68A7
:103CC0009A421ED3002585F31188019A3B689A42D7
:103CD00028461AD102B0BDE8F081FEF709FBFFF7D4
:103CE000C7FA0C4B1A689A4207D0996993688A6898
:103CF0009A4202D20848FEF73BFA002383F3118868
:103D0000E3E70548FEF734FADCE7FDF709FB00BFFF
:103D100000080020D818002040E70008000000003C
:103D200070B5154E82B0044633680193FEF790FBE0
:103D3000FEF78EFBD4E905329342A36815D02069C3
:103D4000511C0133A360A161814215780AD220463B
:103D50000021FFF7FDF82846019A33689A4209D1FD
:103D600002B070BDE368A361F1E7002BE7D06FF00C
:103D70000200F1E7FDF7D4FA00080020000000007F
:103D80002DE9F04F04463B48D4F81C90006885B0FC
:103D90000D46039001931646002A61D04FF0200A89
:103DA0008AF31188FFF74CFAFEF782FA4FF0000809
:103DB000314FC346FEF74CFBA368002B32D062693B
:103DC000013B511C6161A3602B781370D4E904326C
:103DD0009A4224BFE36863610135B9F1000F01D055
:103DE0002046C847FEF784FAFFF742FA3B68BB4219
:103DF00007D0BA699B6892689A4202D21F48FEF7C0
:103E0000B7F98BF31188013E08F101081FD08AF33E
:103E10001188FFF715FAFEF74BFAFEF719FBA368B6
:103E2000002BCCD101992046FFF76AF80028C1D0B9
:103E3000FEF75EFAFFF71CFA3B68BB4204D0BA6992
:103E40009B6892689A420FD3002383F31188094B31
:103E5000039A1B689A4240460AD105B0BDE8F08F2C
:103E60000748FEF785F999E70448FEF781F9EBE783
:103E7000FDF756FA00080020D818002040E7000897
:103E800060E70008000000000000000000000000E3
:103E900030B50B490B4A0B680B4D0C4C83B022F02C
:103EA0000702019301980A4B09682A6023F007036F
:103EB0008842236001D103B030BDFDF731FA00BF65
:103EC00000080020AF2700204C1F0020481F0020C2
:103ED00000000220000000000000000000000000C0
:103EE00070B51C4E82B0336801930446202383F3DF
:103EF0001188FFF7A5F9FEF7DBF9FEF7A9FA164AD4
:103F0000164B15681B68E01D20F007005B1B9842EC
:103F10009ABF401910600025FEF7EAF9FFF7A8F9EB
:103F20000F4B1A689A4204D0996993688A689A423A
:103F300009D3002383F31188019A33689A422846F3
:103F400005D102B070BD0748FEF712F9F1E7FDF7A1
:103F5000E7F900BF000800204C1F0020481F002088
:103F6000D818002080E700080000000000000000D2
:103F700000B50B4B0B481A6883B0019201991A687F
:103F8000094B036091424FF00003C0E9023305D1B1
:103F9000103003B05DF804EBFFF76ABAFDF7C0F923
:103FA00000080020501F0020E13E00080000000033
:103FB00080B50D4A0D4982B000AF13687B604B6835
:103FC00023F001034B60EFF30983683383F309881F
:103FD000002383F3118879681368994202D1083766
:103FE000BD4680BDFDF79CF90008002030EF00E0E1
:103FF000B0B5194C82B000AF23687B60202383F3F7
:104000001188164B5B6813F4006308D183F31188A1
:104010007A6823689A421DD10837BD46B0BDF1EEDB
:10402000103AEFF309854FF080720D4B45F84C2C98
:10403000DB6845F8083CA5F1680383F30988FEF7BF
:104040008FFC18B1074B45F8503CE1E7064B45F8AB
:10405000503CDDE7FDF764F90008002000ED00E0CA
:1040600030EF00E0E1020008F40200080000000068
:1040700010B5184C82B02368019302F0D9FC1648A1
:1040800004F06EF900F0D4F800F0EAF900F030FA2C
:1040900000F05EFA00F08CFA00F0BAFA00F0E8FAEC
:1040A00000F016FB01F0CCF800F0D2FF01F0E0FCCC
:1040B00001F026FD01F014FB06F092F8019A236846
:1040C0009A4204D102B0BDE8104001F001BDFDF7F5
:1040D00027F900BF0008002010ED000800000000D4
:1040E000F0B51A4D83B02B68019391420E461446E9
:1040F000074619D38B1A1F2B16D806F01F03581C1E
:104100006209012376098340B24203F1FF3304F0D0
:104110001F0457F822000BD31840E040019A2B6887
:104120009A4210D103B0F0BD0948FEF721F8E4E748
:1041300057F82610C4F120020B4020FA04F403FAC9
:1041400002F02043EAE7FDF7EBF800BF000800208B
:1041500090E70008000000000000000000000000E0
:10416000F0B51D4E83B033680193054670B37E22CF
:104170007F212846FFF7B4FF80B1012806D0002038
:10418000019A33689A4225D103B0F0BD2846302207
:104190004521FFF7A5FF01308002F1E73E224921CA
:1041A0002846FFF79DFF2F22044631212846FFF7BE
:1041B00097FF5022074653212846FFF791FF01340D
:1041C00002370938BC4004FA00F0D9E70348FDF78C
:1041D000CFFFCCE7FDF7A4F800080020B0E7000807
:1041E000F0B5104D83B02B680193044698B194F854
:1041F000D63094F8D770019994F8D4602A6894F86E
:10420000D5001B0403EB07633344914203EB00200A
:1042100005D103B0F0BD0448FDF7AAFFE7E7FDF7BD
:104220007FF800BF00080020D0E700080000000071
:1042300000B5074B83B01A680192019A1B689A4235
:1042400004D103B05DF804EB02F0B2BCFDF768F8EE
:104250000008002000000000000000000000000036
:1042600000B50C4B83B01A680192012202700199CB
:104270001A6800239142C0E90133C0E90333436166
:1042800005D1183003B05DF804EBFFF7F1B8FDF786
:1042900047F800BF000800200000000000000000F8
:1042A00070B51D4D82B02B6801930E46044668B36D
:1042B000202383F31188FEF7C3FFFDF7F9FF23786E
:1042C000013B012B02D91548FDF752FF20466660DD
:1042D00002F0BEFC02232370FEF70AF8FEF7C8FFC7
:1042E0000F4B1A689A4204D0996993688A689A4277
:1042F00008D3002383F31188019A2B689A4209D1CD
:1043000002B070BD0748FDF733FFF2E70348FDF741
:104310002FFFCDE7FDF704F80008002000E80008B3
:10432000D8180020F0E7000800000000000000009E
:104330002DE9F041174D82B00446286801900E46E1
:1043400090461F46FEF784F83CB136B1B8F1000F35
:1043500003D0012F04D0FB0702D50F48FDF708FF5B
:104360002378022B05D0043B012B02D90A48FDF724
:10437000FFFE03232370019A2B6826619A42C4E949
:10438000028705D1204602B0BDE8F04102F0E0BC52
:10439000FCF7C6FF0008002010E80008000000003D
:1043A0002DE9F041184C82B02568019598460546E4
:1043B0000E461746202383F31188FEF741FFFDF7D1
:1043C00077FF43463A4631462846FFF7B1FFFDF7EF
:1043D0008FFFFEF74DFF0D4B1A689A4204D0996982
:1043E00093688A689A4209D3002383F31188019A5B
:1043F00023689A4206D102B0BDE8F0810448FDF777
:10440000B7FEF1E7FCF78CFF00080020D818002069
:10441000F0E70008000000000000000000000000BD
:1044200030B50B4C83B023680193054650B1019A17
:1044300023689A420AD105F1180003B0BDE8304064
:10444000FFF7FEB80348FDF793FEF0E7FCF768FFBF
:104450000008002030E80008000000000000000014
:1044600000B5074B83B01A680192019A1B689A4203
:1044700004D103B05DF804EB03F0BABAFCF750FFC7
:104480000008002000000000000000000000000004
:1044900030B5134B83B01A68019201220270019C5F
:1044A0001968002200F1180300F11C0542608361C5
:1044B00000F1200200F12403C561026200F1280529
:1044C00000F1080243628C4200F110038562C0E9EA
:1044D0000222C0E9043301D103B030BDFCF720FF54
:1044E00000080020000000000000000000000000A4
:1044F00000B5074B83B01A680192019A1B689A4273
:1045000004D103B05DF804EB03F00ABFFCF708FF29
:104510000008002000000000000000000000000073
:1045200000B50A4B83B01A6801920122027001990A
:104530001A6800239142C0E9043305D1183003B052
:104540005DF804EBFEF794BFFCF7EAFE00080020DC
:1045500000B5074B83B01A680192019A1B689A4212
:1045600004D103B05DF804EB03F062BAFCF7D8FEA7
:104570000008002000000000000000000000000013
:1045800000B5084B83B01A68019201220270019AAB
:104590001B6800219A42416002D103B05DF804FB20
:1045A000FCF7BEFE00080020000000000000000034
:1045B00000B5074B83B01A680192019A1B689A42B2
:1045C00004D103B05DF804EB05F0B2B9FCF7A8FE26
:1045D00000080020000000000000000000000000B3
:1045E00000B5084B83B01A68019201220270019A4B
:1045F0001B6800219A42416002D103B05DF804FBC0
:10460000FCF78EFE00080020000000000000000003
:1046100000B5074B83B01A680192019A1B689A4251
:1046200004D103B05DF804EB04F0B2B8FCF778FEF7
:104630000008002000000000000000000000000052
:1046400000B50A4B83B01A68019201220270019AE8
:104650001B6800219A42416005D10C3003B05DF81F
:1046600004EBFEF705BFFCF75BFE00BF000800206F
:1046700000B5074B83B01A680192019A1B689A42F1
:1046800004D103B05DF804EB05F092B8FCF748FEE6
:1046900000080020000000000000000000000000F2
:1046A00000B5084B83B01A68019201220270019A8A
:1046B0001B6800219A42416002D103B05DF804FBFF
:1046C000FCF72EFE000800200000000000000000A3
:1046D00000B5074B83B01A680192019A1B689A4291
:1046E00004D103B05DF804EB05F00ABAFCF718FE3C
:1046F0000008002000000000000000000000000092
:1047000000B5094B83B01A68019201220270019929
:104710001A68002391424360C360037402D103B05E
:104720005DF804FBFCF7FCFD000800200000000021
:1047300070B5214E82B0336801930D4604460028BF
:1047400033D0002931D0202383F31188FEF778FD80
:10475000FDF7AEFD2378013B012B02D91748FDF789
:1047600007FD65606B68A360204605F009FA00222A
:104770000223E2602370FDF7BBFDFEF779FD104BCD
:104780001A689A4204D0996993688A689A4208D351
:10479000002383F31188019A33689A4209D102B049
:1047A00070BD0848FDF7E4FCF2E70448FDF7E0FCC3
:1047B000C9E7FCF7B5FD00BF0008002050E800087D
:1047C000D818002040E800080000000000000000A9
:1047D000F0B5214E83B0336801930D461746044669
:1047E00078B3037C8B422CD9202383F31188FEF706
:1047F00027FDFDF75DFD2378022B02D01748FDF75A
:10480000B7FCE3680122AA401343E3603A46294615
:10481000204605F09DFAFDF76BFDFEF729FD104BD4
:104820001A689A4204D0996993688A689A420CD3AC
:10483000002383F31188019A33689A4209D103B0A7
:10484000F0BD0648FDF794FCCEE70648FDF790FC66
:10485000EEE7FCF765FD00BF0008002060E80008F7
:10486000D818002040E80008000000000000000008
:1048700030B51E4D83B02B680193044680B32023CE
:1048800083F31188FEF7DCFCFDF712FD2378022B81
:1048900002D01748FDF76CFC63689B68E3B12046C3
:1048A00005F06EFAFDF724FDFEF7E2FC114B1A68E5
:1048B0009A4204D0996993688A689A4208D300237F
:1048C00083F31188019A2B689A420DD103B030BD51
:1048D0000948FDF74DFCF2E70548FDF749FCDEE726
:1048E0000348FDF745FCCAE7FCF71AFD0008002065
:1048F00080E80008D818002040E800080000000008
:1049000070B5294E82B0336801930D4604460028E5
:1049100032D0037C8B422FD9202383F31188FEF7FA
:104920008FFCFDF7C5FC2378022B02D01F48FDF752
:104930001FFCE368EB40DB0726D5636803EBC50388
:104940001B6953B32946204605F03AFAFDF7D0FC1F
:10495000FEF78EFC164B1A689A4204D09969936848
:104960008A689A420CD3002383F31188019A336832
:104970009A4216D102B070BD0C48FDF7F9FBCBE7A7
:104980000C48FDF7F5FBEEE70848FDF7F1FB63681F
:1049900003EBC5031B69002BD4D10448FDF7E8FBEA
:1049A000D0E7FCF7BDFC00BF00080020A0E800082D
:1049B000D818002040E800080000000000000000B7
:1049C00070B5104D82B02B6801930E46044650B16D
:1049D00049B12379052B0CD00120019A2B689A420A
:1049E0000ED102B070BD0848FDF7C2FB2379052B3C
:1049F000F2D1A36A73604FF4007333600020ECE7D8
:104A0000FCF78EFC0008002030E9000800000000E0
:104A10002DE9F047DFF89C8386B002AFD8F800306C
:104A2000FB600446002800F019812379022B01D095
:104A3000052B2BD103232371204603F091F800228C
:104A40001146204603F004F907F108034FF4D5722C
:104A50000821204603F044F9E0B9BB680122C3F302
:104A600003239342226300F0FD80204603F0B0F858
:104A7000022323710125FA68D8F800309A422846AB
:104A800040F046811037BD46BDE8F087C048FDF7CD
:104A90006FFBCFE707F1080300223721204603F020
:104AA0001FF9002840F0BE80BB68BA4A1A40002AAD
:104AB00040F0B88022631146204603F0C9F8266B07
:104AC00006F00F03022B00F0AF80B34EB34ADFF8BD
:104AD000C492012B18BF1646642504E0013DC4D0E2
:104AE0000A20FEF71DF907F10803002237212046AE
:104AF00003F0F6F80028B8D1BB6813EA090FB4D167
:104B000007F1080332462921204603F0C1F80028A6
:104B1000ABD1BB68002BE1DA5B0003D5236B43F01C
:104B20001003236304F1080300220221204603F04E
:104B3000CFF9002899D1024604F138030321204619
:104B400003F0CEF8002890D104F118052B46A26B93
:104B50000921204603F0BCF9002886D13B1DA26B39
:104B60000721204603F0BCF8824600287FF47DAF81
:104B7000236B03F00F03022B00F097806E467E221A
:104B800090B07F212846FFF7ABFA0DF10809002805
:104B900079D10146B546204603F002F8236B03F0B5
:104BA0000F03022B00F096802846FFF7D9FAA06287
:104BB0003B1D4FF400721021204603F091F805468A
:104BC00000287FF452AF7B68724E33427FF44DAFC2
:104BD000236B03F00F03012B40F2B280022B7FF412
:104BE00044AFE36A1A79012A00F0A88017D3022A99
:104BF00040F0E2806A4E1979204603F001F807F18F
:104C0000080332460621204603F06AF800287FF4A4
:104C10002CAFBA685F4B1340002B7FF426AF0523FF
:104C2000237128E7022323635E4E642505E0013DDE
:104C30003FF41BAF0A20FEF773F807F10803324672
:104C40000121204603F024F800287FF40EAFBB6852
:104C5000002BECDA5B007FF565AF5FE74C48FDF7B2
:104C600087FAE2E6024607F108033721204603F0FF
:104C700037F800287FF4F9AEBA68464B1340002B92
:104C80007FF4F3AE1BE7CDF800A00623402249468F
:104C9000204603F04DF900284ED199F80D3013F05D
:104CA000020337D11946B54675E7E36A1B687BB145
:104CB00007F108033C4A0621204603F011F838B9F1
:104CC000BB6834491940B1FA81F1490963E7B54637
:104CD000002160E77E227F212846FFF701FA0128A4
:104CE0007FF662AFE36A1D68002D3FF4BEAE00237D
:104CF00000934FF4007208232946204603F018F968
:104D000000287FF4B2AE2846FFF76AFAA0624FE7A8
:104D1000FCF706FB254B009340220623494620461C
:104D200003F006F940B999F8103003F00F030F2B88
:104D3000CDD0B54601212EE7B54696E61C4E5AE782
:104D4000E36A197900293FF46AAF01297FF48DAE37
:104D5000204602F055FF07F10803A26B37212046D9
:104D600002F0BEFF00287FF480AEBB6833427FF4C0
:104D70007CAE07F1080302220621204602F0B0FFB4
:104D800000287FF472AEBB6833423FF448AF6CE654
:104D9000E0E8000808E0FFFD000010C000001080FF
:104DA0000002B7030080FFC00001B903F1FFFF80DC
:104DB0000001B703000800200248034EFDF7D8F9B0
:104DC000E36A18E7C0E800080000B703000000002D
:104DD0002DE9F041194D82B02C6801940F469046A0
:104DE0001E460446C0B1BAB1B3B12379052B02D037
:104DF0001348FDF7BDF9781EA36A304498420FD9D5
:104E0000636B43F0800363630120019A2B689A422D
:104E100011D102B0BDE8F0810948FDF7A9F9E4E736
:104E200006203346207142463946204603F0E0F919
:104E300005232371E9E7FCF773FA00BF000800209F
:104E400000E9000800000000000000000000000071
:104E50002DE9F041194D82B02C6801940F4690461F
:104E60001E460446C0B1BAB1B3B12379052B02D0B6
:104E70001348FDF77DF9781EA36A304498420FD994
:104E8000636B43F0800363630120019A2B689A42AD
:104E900011D102B0BDE8F0810948FDF769F9E4E7F6
:104EA00007203346207142463946204603F0E0F998
:104EB00005232371E9E7FCF733FA00BF000800205F
:104EC00010E90008000000000000000000000000E1
:104ED00070B50E4D82B02B680193044680B12679DF
:104EE000052E06D00120019A2B689A420CD102B0FF
:104EF00070BD08232371204603F0FAF92671F2E70A
:104F00000348FDF735F9EAE7FCF70AFA0008002044
:104F100020E9000800000000000000000000000080
:104F200070B5124D124E2B6882B0044601936B4649
:104F3000A26B0D21204602F0D3FE78B9009B3342CC
:104F40000BD1C3F34323042B08D04FF0010005D34A
:104F5000072B03D8FDF7E4FEE9E70120019A2B684F
:104F60009A4201D102B070BDFCF7DAF900080020C6
:104F700008E0FFFD0000000000000000000000004D
:104F800070B52D4E82B033680193044600284CD092
:104F9000202383F31188FEF753F9FDF789F923796C
:104FA000022B29D0052B21D104232371FDF7A0F971
:104FB000FEF75EF9214B1A689A4204D0996993680A
:104FC0008A689A4229D3002383F311882046FFF789
:104FD000A7FF0546204602F0FBFD02232371019A3C
:104FE00033689A42284624D102B070BD1448FDF7B8
:104FF000BFF82379022BD7D1FDF77AF9FEF738F9FC
:105000000E4B1A689A4204D0996993688A689A424A
:1050100007D3002585F31188E1E70A48FDF7A8F8D2
:10502000D1E70848FDF7A4F8F3E70548FDF7A0F835
:10503000AEE7FCF775F900BF00080020D818002083
:10504000F0E8000840E9000800000000000000004F
:1050500000B5074B83B01A680192019A1B689A4207
:1050600004D103B05DF804EB02F05ABDFCF758F927
:105070000008002000000000000000000000000008
:1050800010B50A4B0A4A1968026082B001240191E6
:1050900001991A680471002391424363C0E90A33FD
:1050A00001D102B010BDFCF73BF900BF00080020A1
:1050B00050E90008000000000000000000000000AF
:1050C00030B5084C83B025680195019D2468A54240
:1050D00005D10C3003B0BDE83040FEF7F9BCFCF759
:1050E0001FF900BF000800200000000000000000C1
:1050F00010B5094B82B01C680194019C1B689C424E
:1051000007D10C304FF0FF3302B0BDE81040FEF77E
:10511000DFBCFCF705F900BF00080020000000001C
:1051200030B5084C83B025680195019D2468A542DF
:1051300005D1303003B0BDE83040FEF721BEFCF7AA
:10514000EFF800BF00080020000000000000000091
:1051500010B5094B82B01C680194019C1B689C42ED
:1051600007D130304FF0FF3302B0BDE81040FEF7FA
:1051700007BEFCF7D5F800BF0008002000000000C3
:1051800000B5084B83B01A680192019A1B689A42D5
:1051900005D10C3003B05DF804EBFEF749BCFCF719
:1051A000BFF800BF00080020000000000000000061
:1051B00000B5094B83B01A680192019A1B689A42A4
:1051C00007D10C304FF0FF3103B05DF804EBFEF770
:1051D0002FBCFCF7A5F800BF00080020000000006D
:1051E00010B5084B82B01C680194019C1B689C425E
:1051F00005D1303002B0BDE81040FEF729BDFCF704
:105200008FF800BF00080020000000000000000030
:1052100000B5094B83B01A680192019A1B689A4243
:1052200007D130304FF0FF3203B05DF804EBFEF7EA
:105230000FBDFCF775F800BF00080020000000005B
:1052400000B5074B83B01A680192019A1B689A4215
:1052500004D103B05DF804EB04F002BFFCF760F882
:105260000008002000000000000000000000000016
:10527000F0B5144D144B2F68044685B040F8043B3C
:105280004FF0010C00940B461646606084F808C08D
:1052900004F1540104F10C0010220397FEF758FBAF
:1052A00033461022009404F1640104F13000FEF74B
:1052B0008FFC039A2B689A4201D105B0F0BDFCF730
:1052C0002FF800BF00080020A0E90008000000003F
:1052D00070B51D4D82B02B6801930E46044668B32D
:1052E000202383F31188FDF7ABFFFCF7E1FF237A5E
:1052F000013B012B02D91548FCF73AFF3146204605
:1053000004F0CEFE02232372FCF7F2FFFDF7B0FF9C
:105310000F4B1A689A4204D0996993688A689A4236
:1053200008D3002383F31188019A2B689A4209D18C
:1053300002B070BD0748FCF71BFFF2E70348FCF71B
:1053400017FFCDE7FBF7ECFF0008002080E900081D
:10535000D818002070E900080000000000000000DC
:1053600070B5174D82B004462B6801930E46FDF7C9
:105370006FF8F4B1FDF76CF8636963B1314604F17D
:105380000C00FEF725FB0028019A2B6808DB9A42E7
:1053900013D102B070BD04216018FEF7A9FAEDE741
:1053A0009A420AD1201D802102B0BDE87040FEF76C
:1053B0009FBA0448FCF7DCFEDCE7FBF7B1FF00BF57
:1053C0000008002090E90008000000000000000034
:1053D000F0B5056A2D4CD5F854222168136883B0C6
:1053E00001911978042905D0019A23689A424AD17B
:1053F00003B0F0BD297A0229F6D1517958890122EA
:105400008A400242F0D103EB8103DB685F8AFDF73B
:105410001FF8D5E906236E699B1A9E1BB742E3D895
:10542000FCF766FFFDF724FF194B1A689A4207D074
:10543000996993688A689A4202D21648FCF798FEE6
:10544000002383F31188D5F85422B6FBF7F3517982
:10545000106807FB03F305F10C0200F021FC202388
:1054600083F31188FDF7ECFEFCF722FF0199226817
:10547000D5F85432914206D15979186803B0BDE885
:10548000F04000F04DBCFBF74BFF00BF00080020D0
:10549000D8180020C0E9000800000000000000004B
:1054A00030B5084C83B025680195019D2468A5425C
:1054B00005D10C3003B0BDE83040FEF709BBFBF767
:1054C0002FFF00BF000800200000000000000000C7
:1054D00010B5094B82B01C680194019C1B689C426A
:1054E00007D10C304FF0FF3302B0BDE81040FEF79B
:1054F000EFBAFBF715FF00BF000800200000000016
:1055000030B5084C83B025680195019D2468A542FB
:1055100005D1303003B0BDE83040FEF731BCFBF7B9
:10552000FFFE00BF00080020000000000000000097
:1055300010B5094B82B01C680194019C1B689C4209
:1055400007D130304FF0FF3302B0BDE81040FEF716
:1055500017BCFBF7E5FE00BF0008002000000000BC
:1055600000B5084B83B01A680192019A1B689A42F1
:1055700005D10C3003B05DF804EBFEF759BAFBF728
:10558000CFFE00BF00080020000000000000000067
:1055900000B5094B83B01A680192019A1B689A42C0
:1055A00007D10C304FF0FF3103B05DF804EBFEF78C
:1055B0003FBAFBF7B5FE00BF000800200000000066
:1055C00010B5084B82B01C680194019C1B689C427A
:1055D00005D1303002B0BDE81040FEF739BBFBF713
:1055E0009FFE00BF00080020000000000000000037
:1055F00000B5094B83B01A680192019A1B689A4260
:1056000007D130304FF0FF3203B05DF804EBFEF706
:105610001FBBFBF785FE00BF000800200000000054
:1056200070B5056A294CD5F854222168136882B0F8
:1056300001911978042905D0019A23689A4242D130
:1056400002B070BD297A0229F6D111791A89012395
:105650008B401342F0D1FCF7FBFED5E90F23AE6B74
:105660009B1A9E1BE8D0FCF743FEFDF701FE184B8A
:105670001A689A4207D0996993688A689A4202D256
:105680001448FCF775FD002383F31188D5F85422E4
:1056900033461179106805F1300200F021FB202318
:1056A00083F31188FDF7CCFDFCF702FE0199226817
:1056B000D5F85432914206D11979186802B0BDE884
:1056C000704000F05DBBFBF72BFE00BF0008002020
:1056D000D8180020C0E90008000000000000000009
:1056E00000B5064B83B01A680192019A1B689A4272
:1056F00002D103B05DF804FBFBF712FE00080020A6
:1057000030B50346124D13492A6843F8041B85B08F
:105710000121044600900392436001720E4B00F198
:1057200054014FF480720C30FEF712F90B4B0094C9
:105730004FF4807204F5AA7104F13000FEF748FAC4
:10574000039A2B689A4201D105B030BDFBF7E8FD02
:1057500000080020E0E90008D153000821560008A5
:10576000F0B5244F0E683B6883B00D4601930446A4
:10577000002838D0202383F31188FDF761FDFCF762
:1057800097FD237A013B012B02D91B48FCF7F0FC63
:105790002B7906EB83039C616B79093346F8234030
:1057A000AB7913B106EB8306B46102232372C4F80C
:1057B0005452FCF79DFDFDF75BFD104B1A689A42B1
:1057C00004D0996993688A689A4208D3002383F3C6
:1057D0001188019A3B689A4209D103B0F0BD08488C
:1057E000FCF7C6FCF2E70448FCF7C2FCC2E7FBF793
:1057F00097FD00BF00080020D0E90008D81800205D
:10580000C0E90008000000000000000000000000E7
:10581000F0B5174ED0F854223368156883B000F104
:105820000C07044638460193FEF7B2F804F1300045
:10583000FEF7EEF9201D0121FEF75AF8D4F8543294
:10584000597905EB81033A46DB6828465B8A00F00C
:1058500027FA019A33689A4208D1D4F85432597918
:10586000284603B0BDE8F04000F05ABAFBF758FDF7
:105870000008002000000000000000000000000000
:1058800000B590F84430144A83B003F06003116807
:105890000191202B07D0002001991368994218D15B
:1058A00003B05DF804FB90F84530202BF3D3212B97
:1058B00007D80A4B836307210023C0E90F13012097
:1058C000EAE7222BE7D10023C0E90E33036401206D
:1058D000E2E7FBF725FD00BF000800204C08002090
:1058E0002DE9F04300EB81032A4E9C69336883B0B5
:1058F0000193002C3DD0074688464FF0200989F3DC
:105900001188FDF7CDFCFCF713FD201D0821FDF7E4
:10591000EFFFFCF79DFDD4E90F23A56B9B1A5D1BE0
:105920002ED107EB8803DB685A695568D5B11B8A0D
:10593000013B1D4016D1FCF71BFDFDF7C9FC85F3AB
:1059400011882B4604F130024146384600F0C8F970
:1059500089F31188FDF7A4FCFCF7EAFC41463846C0
:1059600000F00EFAFCF704FDFDF7B2FC002383F310
:105970001188019A33689A420AD103B0BDE8F083D6
:10598000FCF7F6FCFDF7A4FC002383F31188D8E7AD
:10599000FBF7C6FC0008002000000000000000002B
:1059A0002DE9F04701F10903274E50F823403368F1
:1059B00082B0019314B3884607464FF0200989F35B
:1059C0001188FDF76DFCFCF7B3FC0421201DFDF7E9
:1059D0008FFF07EB8803DB68B3F812A0FCF738FDF4
:1059E000D4E906126569521A551BAA450DD9FCF770
:1059F000BFFCFDF76DFC002383F31188019A336827
:105A00009A421ED102B0BDE8F087FCF7B1FCFDF769
:105A10005FFC002383F31188B5FBFAF304F10C0259
:105A20000AFB03F34146384600F03AF989F311883E
:105A3000FDF736FCFCF77CFC4146384600F070F977
:105A4000D5E7FBF76DFC00BF000800200000000058
:105A500000B5064B83B01A680192019A1B689A42FE
:105A600002D103B05DF804FBFBF75AFC00080020EC
:105A700000B5074B83B01A680192019A1B689A42DD
:105A800004D103B05DF804EB03F0BABEFBF748FCA9
:105A900000080020000000000000000000000000DE
:105AA00000B50A4B83B01A68019201220270019975
:105AB0001A6800239142C0E9013305D10C3003B0CC
:105AC0005DF804EBFDF7D4BCFBF72AFC00080020CE
:105AD00000B5074B83B01A680192019A1B689A427D
